{
  "address": "0x1f963AE34BB6DAf6F5c04A2f2121E6e065456f66",
  "abi": [
    {
      "inputs": [
        {
          "internalType": "address",
          "name": "factory",
          "type": "address"
        },
        {
          "internalType": "address[2]",
          "name": "tokenAddress",
          "type": "address[2]"
        },
        {
          "internalType": "address[2]",
          "name": "priceFeeds",
          "type": "address[2]"
        },
        {
          "internalType": "address",
          "name": "lendToken",
          "type": "address"
        }
      ],
      "stateMutability": "nonpayable",
      "type": "constructor"
    },
    {
      "inputs": [
        {
          "internalType": "address",
          "name": "target",
          "type": "address"
        }
      ],
      "name": "AddressEmptyCode",
      "type": "error"
    },
    {
      "inputs": [
        {
          "internalType": "address",
          "name": "account",
          "type": "address"
        }
      ],
      "name": "AddressInsufficientBalance",
      "type": "error"
    },
    {
      "inputs": [],
      "name": "FailedInnerCall",
      "type": "error"
    },
    {
      "inputs": [
        {
          "internalType": "address",
          "name": "owner",
          "type": "address"
        }
      ],
      "name": "OwnableInvalidOwner",
      "type": "error"
    },
    {
      "inputs": [
        {
          "internalType": "address",
          "name": "account",
          "type": "address"
        }
      ],
      "name": "OwnableUnauthorizedAccount",
      "type": "error"
    },
    {
      "inputs": [],
      "name": "Router__AlreadyWithdrawnAmount",
      "type": "error"
    },
    {
      "inputs": [],
      "name": "Router__ZeroAddress",
      "type": "error"
    },
    {
      "inputs": [
        {
          "internalType": "address",
          "name": "token",
          "type": "address"
        }
      ],
      "name": "SafeERC20FailedOperation",
      "type": "error"
    },
    {
      "anonymous": false,
      "inputs": [
        {
          "indexed": true,
          "internalType": "address",
          "name": "previousOwner",
          "type": "address"
        },
        {
          "indexed": true,
          "internalType": "address",
          "name": "newOwner",
          "type": "address"
        }
      ],
      "name": "OwnershipTransferred",
      "type": "event"
    },
    {
      "inputs": [
        {
          "internalType": "address",
          "name": "tokenToDeposit",
          "type": "address"
        },
        {
          "internalType": "uint256",
          "name": "amount",
          "type": "uint256"
        }
      ],
      "name": "DepositCollateralSingle",
      "outputs": [],
      "stateMutability": "nonpayable",
      "type": "function"
    },
    {
      "inputs": [
        {
          "internalType": "address",
          "name": "tokenToBorrow",
          "type": "address"
        },
        {
          "internalType": "address",
          "name": "CollateralToken",
          "type": "address"
        },
        {
          "internalType": "uint256",
          "name": "amount",
          "type": "uint256"
        },
        {
          "internalType": "uint256",
          "name": "amountCollateral",
          "type": "uint256"
        }
      ],
      "name": "borrow",
      "outputs": [],
      "stateMutability": "nonpayable",
      "type": "function"
    },
    {
      "inputs": [
        {
          "internalType": "address",
          "name": "tokenToDeposit",
          "type": "address"
        },
        {
          "internalType": "uint256",
          "name": "amount",
          "type": "uint256"
        }
      ],
      "name": "depositLiquidity",
      "outputs": [],
      "stateMutability": "nonpayable",
      "type": "function"
    },
    {
      "inputs": [
        {
          "internalType": "address",
          "name": "token",
          "type": "address"
        },
        {
          "internalType": "uint256",
          "name": "amount",
          "type": "uint256"
        }
      ],
      "name": "flashLoan",
      "outputs": [],
      "stateMutability": "nonpayable",
      "type": "function"
    },
    {
      "inputs": [
        {
          "internalType": "address",
          "name": "token",
          "type": "address"
        },
        {
          "internalType": "address",
          "name": "user",
          "type": "address"
        }
      ],
      "name": "getCollateralValueInUSD",
      "outputs": [
        {
          "internalType": "uint256",
          "name": "",
          "type": "uint256"
        }
      ],
      "stateMutability": "view",
      "type": "function"
    },
    {
      "inputs": [
        {
          "internalType": "address",
          "name": "token",
          "type": "address"
        }
      ],
      "name": "getDepositsInUSD",
      "outputs": [
        {
          "internalType": "uint256",
          "name": "",
          "type": "uint256"
        }
      ],
      "stateMutability": "view",
      "type": "function"
    },
    {
      "inputs": [],
      "name": "getFactory",
      "outputs": [
        {
          "internalType": "address",
          "name": "",
          "type": "address"
        }
      ],
      "stateMutability": "view",
      "type": "function"
    },
    {
      "inputs": [],
      "name": "getFlashLoanFee",
      "outputs": [
        {
          "internalType": "uint256",
          "name": "",
          "type": "uint256"
        }
      ],
      "stateMutability": "pure",
      "type": "function"
    },
    {
      "inputs": [],
      "name": "getLendTokens",
      "outputs": [
        {
          "internalType": "address",
          "name": "",
          "type": "address"
        }
      ],
      "stateMutability": "view",
      "type": "function"
    },
    {
      "inputs": [
        {
          "internalType": "address",
          "name": "token",
          "type": "address"
        }
      ],
      "name": "getPoolAddress",
      "outputs": [
        {
          "internalType": "address",
          "name": "",
          "type": "address"
        }
      ],
      "stateMutability": "view",
      "type": "function"
    },
    {
      "inputs": [],
      "name": "owner",
      "outputs": [
        {
          "internalType": "address",
          "name": "",
          "type": "address"
        }
      ],
      "stateMutability": "view",
      "type": "function"
    },
    {
      "inputs": [],
      "name": "renounceOwnership",
      "outputs": [],
      "stateMutability": "nonpayable",
      "type": "function"
    },
    {
      "inputs": [
        {
          "internalType": "address",
          "name": "underlyingToken",
          "type": "address"
        },
        {
          "internalType": "address",
          "name": "priceFeed",
          "type": "address"
        }
      ],
      "name": "setPriceFeeds",
      "outputs": [],
      "stateMutability": "nonpayable",
      "type": "function"
    },
    {
      "inputs": [
        {
          "internalType": "address",
          "name": "newOwner",
          "type": "address"
        }
      ],
      "name": "transferOwnership",
      "outputs": [],
      "stateMutability": "nonpayable",
      "type": "function"
    },
    {
      "inputs": [
        {
          "internalType": "address",
          "name": "tokenToWithdraw",
          "type": "address"
        },
        {
          "internalType": "uint256",
          "name": "amount",
          "type": "uint256"
        },
        {
          "internalType": "uint256",
          "name": "depositId",
          "type": "uint256"
        }
      ],
      "name": "withdrawDepositedFunds",
      "outputs": [],
      "stateMutability": "nonpayable",
      "type": "function"
    },
    {
      "inputs": [
        {
          "internalType": "address",
          "name": "tokensToWithdraw",
          "type": "address"
        },
        {
          "internalType": "uint256[]",
          "name": "depositIds",
          "type": "uint256[]"
        },
        {
          "internalType": "uint256[]",
          "name": "depositAmounts",
          "type": "uint256[]"
        }
      ],
      "name": "withdrawMultipleDepositsSameAsset",
      "outputs": [],
      "stateMutability": "nonpayable",
      "type": "function"
    },
    {
      "inputs": [
        {
          "internalType": "address",
          "name": "tokenToWithdraw",
          "type": "address"
        }
      ],
      "name": "withdrawTotalUserDeposit",
      "outputs": [],
      "stateMutability": "nonpayable",
      "type": "function"
    }
  ],
  "transactionHash": "0x23481c84045e1ad99e639a758824f1a277e0a971d3ffe37aca542da2504dcfbb",
  "args": [
    "0x79CA6e5496c8807c80AeF5D67520933fc7af72aB",
    [
      "0x986ca47AeCc2a5d54dBfAC40254701EDF440f173",
      "0xf8d1f181e52B941309B5E3b9B36769B64335aE7d"
    ],
    [
      "0xF132c32539d2E27E18eC34C3a113489a26687Fa9",
      "0xC8B50567e39315CE041BfCE2911731245b275aF1"
    ],
    "0xceE69dC06aF4b9F5a8622FB8de4bd4678e1Fd2F7"
  ],
  "numDeployments": 2,
  "solcInputHash": "9c0ba175ca0c3b501b33bd4a4a120ad6",
  "bytecode": "0x60c06040523480156200001157600080fd5b506040516200354438038062003544833981810160405281019062000037919062000616565b33600073ffffffffffffffffffffffffffffffffffffffff168173ffffffffffffffffffffffffffffffffffffffff1603620000ad5760006040517f1e4fbdf7000000000000000000000000000000000000000000000000000000008152600401620000a4919062000699565b60405180910390fd5b620000be816200037b60201b60201c565b50600073ffffffffffffffffffffffffffffffffffffffff168473ffffffffffffffffffffffffffffffffffffffff161480620001275750600073ffffffffffffffffffffffffffffffffffffffff168173ffffffffffffffffffffffffffffffffffffffff16145b156200015f576040517f2c5b83b900000000000000000000000000000000000000000000000000000000815260040160405180910390fd5b8373ffffffffffffffffffffffffffffffffffffffff1660808173ffffffffffffffffffffffffffffffffffffffff16815250508073ffffffffffffffffffffffffffffffffffffffff1660a08173ffffffffffffffffffffffffffffffffffffffff168152505060005b60028110156200037057600073ffffffffffffffffffffffffffffffffffffffff16848260028110620002025762000201620006b6565b5b602002015173ffffffffffffffffffffffffffffffffffffffff161480620002705750600073ffffffffffffffffffffffffffffffffffffffff16838260028110620002535762000252620006b6565b5b602002015173ffffffffffffffffffffffffffffffffffffffff16145b15620002a8576040517f2c5b83b900000000000000000000000000000000000000000000000000000000815260040160405180910390fd5b828160028110620002be57620002bd620006b6565b5b602002015160016000868460028110620002dd57620002dc620006b6565b5b602002015173ffffffffffffffffffffffffffffffffffffffff1673ffffffffffffffffffffffffffffffffffffffff16815260200190815260200160002060006101000a81548173ffffffffffffffffffffffffffffffffffffffff021916908373ffffffffffffffffffffffffffffffffffffffff160217905550808062000367906200071e565b915050620001ca565b50505050506200076b565b60008060009054906101000a900473ffffffffffffffffffffffffffffffffffffffff169050816000806101000a81548173ffffffffffffffffffffffffffffffffffffffff021916908373ffffffffffffffffffffffffffffffffffffffff1602179055508173ffffffffffffffffffffffffffffffffffffffff168173ffffffffffffffffffffffffffffffffffffffff167f8be0079c531659141344cd1fd0a4f28419497f9722a3daafe3b4186f6b6457e060405160405180910390a35050565b6000604051905090565b600080fd5b600073ffffffffffffffffffffffffffffffffffffffff82169050919050565b60006200047b826200044e565b9050919050565b6200048d816200046e565b81146200049957600080fd5b50565b600081519050620004ad8162000482565b92915050565b600080fd5b6000601f19601f8301169050919050565b7f4e487b7100000000000000000000000000000000000000000000000000000000600052604160045260246000fd5b6200050382620004b8565b810181811067ffffffffffffffff82111715620005255762000524620004c9565b5b80604052505050565b60006200053a6200043f565b9050620005488282620004f8565b919050565b600067ffffffffffffffff8211156200056b576200056a620004c9565b5b602082029050919050565b600080fd5b6000620005926200058c846200054d565b6200052e565b90508060208402830185811115620005af57620005ae62000576565b5b835b81811015620005dc5780620005c788826200049c565b845260208401935050602081019050620005b1565b5050509392505050565b600082601f830112620005fe57620005fd620004b3565b5b60026200060d8482856200057b565b91505092915050565b60008060008060c0858703121562000633576200063262000449565b5b600062000643878288016200049c565b94505060206200065687828801620005e6565b93505060606200066987828801620005e6565b92505060a06200067c878288016200049c565b91505092959194509250565b62000693816200046e565b82525050565b6000602082019050620006b0600083018462000688565b92915050565b7f4e487b7100000000000000000000000000000000000000000000000000000000600052603260045260246000fd5b7f4e487b7100000000000000000000000000000000000000000000000000000000600052601160045260246000fd5b6000819050919050565b60006200072b8262000714565b91507fffffffffffffffffffffffffffffffffffffffffffffffffffffffffffffffff820362000760576200075f620006e5565b5b600182019050919050565b60805160a051612d2062000824600039600081816107c601528181610a0201528181610d31015281816110ca0152818161157701528181611d0801528181611dab01526121370152600081816105440152818161065901528181610729015281816108e101528181610a2b01528181610bbd01528181610d8001528181610e1d01528181610f08015281816111760152818161140a015281816114da0152818161196e01528181611fca015261209a0152612d206000f3fe608060405234801561001057600080fd5b506004361061010b5760003560e01c8063715018a6116100a25780639d9e465c116100715780639d9e465c14610290578063d7e4a84b146102ac578063f2fde38b146102c8578063fbf37739146102e4578063fd90c2be146103005761010b565b8063715018a61461022e57806388cc58e4146102385780638da5cb5b146102565780639ab18038146102745761010b565b80634343d506116100de5780634343d5061461019457806347ccbdc7146101c45780636c9ba985146101e257806370b77c47146102125761010b565b8063068f158d146101105780630a20af101461012c5780631228cbee1461014857806339b41b4a14610178575b600080fd5b61012a6004803603810190610125919061254b565b61031e565b005b610146600480360381019061014191906125f0565b6104da565b005b610162600480360381019061015d9190612685565b610540565b60405161016f91906126c1565b60405180910390f35b610192600480360381019061018d9190612712565b6105e3565b005b6101ae60048036038101906101a9919061254b565b6108dc565b6040516101bb9190612761565b60405180910390f35b6101cc6109fe565b6040516101d991906126c1565b60405180910390f35b6101fc60048036038101906101f79190612685565b610a26565b6040516102099190612761565b60405180910390f35b61022c6004803603810190610227919061277c565b610b47565b005b610236610d68565b005b610240610d7c565b60405161024d91906126c1565b60405180910390f35b61025e610da4565b60405161026b91906126c1565b60405180910390f35b61028e60048036038101906102899190612685565b610dcd565b005b6102aa60048036038101906102a59190612712565b611100565b005b6102c660048036038101906102c19190612712565b611394565b005b6102e260048036038101906102dd9190612685565b611872565b005b6102fe60048036038101906102f991906127cf565b6118f8565b005b610308611b75565b6040516103159190612761565b60405180910390f35b610326611b7e565b600073ffffffffffffffffffffffffffffffffffffffff168273ffffffffffffffffffffffffffffffffffffffff16148061038d5750600073ffffffffffffffffffffffffffffffffffffffff168173ffffffffffffffffffffffffffffffffffffffff16145b156103c4576040517f2c5b83b900000000000000000000000000000000000000000000000000000000815260040160405180910390fd5b600073ffffffffffffffffffffffffffffffffffffffff16600160008473ffffffffffffffffffffffffffffffffffffffff1673ffffffffffffffffffffffffffffffffffffffff16815260200190815260200160002060009054906101000a900473ffffffffffffffffffffffffffffffffffffffff1673ffffffffffffffffffffffffffffffffffffffff16036104d65780600160008473ffffffffffffffffffffffffffffffffffffffff1673ffffffffffffffffffffffffffffffffffffffff16815260200190815260200160002060006101000a81548173ffffffffffffffffffffffffffffffffffffffff021916908373ffffffffffffffffffffffffffffffffffffffff1602179055505b5050565b60005b8484905081101561053857610525868484848181106104ff576104fe612836565b5b9050602002013587878581811061051957610518612836565b5b90506020020135610b47565b808061053090612894565b9150506104dd565b505050505050565b60007f000000000000000000000000000000000000000000000000000000000000000073ffffffffffffffffffffffffffffffffffffffff16631228cbee836040518263ffffffff1660e01b815260040161059b91906126c1565b602060405180830381865afa1580156105b8573d6000803e3d6000fd5b505050506040513d601f19601f820116820180604052508101906105dc91906128f1565b9050919050565b600073ffffffffffffffffffffffffffffffffffffffff168273ffffffffffffffffffffffffffffffffffffffff16148061061e5750600081145b15610655576040517f2c5b83b900000000000000000000000000000000000000000000000000000000815260040160405180910390fd5b60007f000000000000000000000000000000000000000000000000000000000000000073ffffffffffffffffffffffffffffffffffffffff16631228cbee846040518263ffffffff1660e01b81526004016106b091906126c1565b602060405180830381865afa1580156106cd573d6000803e3d6000fd5b505050506040513d601f19601f820116820180604052508101906106f191906128f1565b9050600073ffffffffffffffffffffffffffffffffffffffff168173ffffffffffffffffffffffffffffffffffffffff1603610849577f000000000000000000000000000000000000000000000000000000000000000073ffffffffffffffffffffffffffffffffffffffff1663236aea2e84600160008773ffffffffffffffffffffffffffffffffffffffff1673ffffffffffffffffffffffffffffffffffffffff16815260200190815260200160002060009054906101000a900473ffffffffffffffffffffffffffffffffffffffff167f00000000000000000000000000000000000000000000000000000000000000006040518463ffffffff1660e01b81526004016108039392919061291e565b6020604051808303816000875af1158015610822573d6000803e3d6000fd5b505050506040513d601f19601f8201168201806040525081019061084691906128f1565b90505b61085583333085611c05565b8073ffffffffffffffffffffffffffffffffffffffff166362fb2e8433846040518363ffffffff1660e01b8152600401610890929190612955565b600060405180830381600087803b1580156108aa57600080fd5b505af11580156108be573d6000803e3d6000fd5b505050506108cd838284611c87565b6108d73383611d06565b505050565b6000807f000000000000000000000000000000000000000000000000000000000000000073ffffffffffffffffffffffffffffffffffffffff16631228cbee856040518263ffffffff1660e01b815260040161093891906126c1565b602060405180830381865afa158015610955573d6000803e3d6000fd5b505050506040513d601f19601f8201168201806040525081019061097991906128f1565b90508073ffffffffffffffffffffffffffffffffffffffff1663877db9dd846040518263ffffffff1660e01b81526004016109b491906126c1565b602060405180830381865afa1580156109d1573d6000803e3d6000fd5b505050506040513d601f19601f820116820180604052508101906109f59190612993565b91505092915050565b60007f0000000000000000000000000000000000000000000000000000000000000000905090565b6000807f000000000000000000000000000000000000000000000000000000000000000073ffffffffffffffffffffffffffffffffffffffff16631228cbee846040518263ffffffff1660e01b8152600401610a8291906126c1565b602060405180830381865afa158015610a9f573d6000803e3d6000fd5b505050506040513d601f19601f82011682018060405250810190610ac391906128f1565b90508073ffffffffffffffffffffffffffffffffffffffff16635de0a9af336040518263ffffffff1660e01b8152600401610afe91906126c1565b602060405180830381865afa158015610b1b573d6000803e3d6000fd5b505050506040513d601f19601f82011682018060405250810190610b3f9190612993565b915050919050565b600073ffffffffffffffffffffffffffffffffffffffff168373ffffffffffffffffffffffffffffffffffffffff161480610b825750600082145b15610bb9576040517f2c5b83b900000000000000000000000000000000000000000000000000000000815260040160405180910390fd5b60007f000000000000000000000000000000000000000000000000000000000000000073ffffffffffffffffffffffffffffffffffffffff16631228cbee856040518263ffffffff1660e01b8152600401610c1491906126c1565b602060405180830381865afa158015610c31573d6000803e3d6000fd5b505050506040513d601f19601f82011682018060405250810190610c5591906128f1565b9050600073ffffffffffffffffffffffffffffffffffffffff168173ffffffffffffffffffffffffffffffffffffffff1603610cbd576040517f2c5b83b900000000000000000000000000000000000000000000000000000000815260040160405180910390fd5b8073ffffffffffffffffffffffffffffffffffffffff1663ea999dff3385856040518463ffffffff1660e01b8152600401610cfa939291906129c0565b600060405180830381600087803b158015610d1457600080fd5b505af1158015610d28573d6000803e3d6000fd5b50505050610d587f0000000000000000000000000000000000000000000000000000000000000000333086611c05565b610d623384611da9565b50505050565b610d70611b7e565b610d7a6000611e38565b565b60007f0000000000000000000000000000000000000000000000000000000000000000905090565b60008060009054906101000a900473ffffffffffffffffffffffffffffffffffffffff16905090565b600073ffffffffffffffffffffffffffffffffffffffff168173ffffffffffffffffffffffffffffffffffffffff161480610ecd5750600073ffffffffffffffffffffffffffffffffffffffff167f000000000000000000000000000000000000000000000000000000000000000073ffffffffffffffffffffffffffffffffffffffff16631228cbee836040518263ffffffff1660e01b8152600401610e7491906126c1565b602060405180830381865afa158015610e91573d6000803e3d6000fd5b505050506040513d601f19601f82011682018060405250810190610eb591906128f1565b73ffffffffffffffffffffffffffffffffffffffff16145b15610f04576040517f2c5b83b900000000000000000000000000000000000000000000000000000000815260040160405180910390fd5b60007f000000000000000000000000000000000000000000000000000000000000000073ffffffffffffffffffffffffffffffffffffffff16631228cbee836040518263ffffffff1660e01b8152600401610f5f91906126c1565b602060405180830381865afa158015610f7c573d6000803e3d6000fd5b505050506040513d601f19601f82011682018060405250810190610fa091906128f1565b905060008173ffffffffffffffffffffffffffffffffffffffff166327f9c4c1336040518263ffffffff1660e01b8152600401610fdd91906126c1565b602060405180830381865afa158015610ffa573d6000803e3d6000fd5b505050506040513d601f19601f8201168201806040525081019061101e9190612993565b90506000810361105a576040517f8454694800000000000000000000000000000000000000000000000000000000815260040160405180910390fd5b8173ffffffffffffffffffffffffffffffffffffffff1663220a36b6336040518263ffffffff1660e01b815260040161109391906126c1565b600060405180830381600087803b1580156110ad57600080fd5b505af11580156110c1573d6000803e3d6000fd5b505050506110f17f0000000000000000000000000000000000000000000000000000000000000000333084611c05565b6110fb3382611da9565b505050565b600073ffffffffffffffffffffffffffffffffffffffff168273ffffffffffffffffffffffffffffffffffffffff16148061113b5750600081145b15611172576040517f2c5b83b900000000000000000000000000000000000000000000000000000000815260040160405180910390fd5b60007f000000000000000000000000000000000000000000000000000000000000000073ffffffffffffffffffffffffffffffffffffffff16631228cbee846040518263ffffffff1660e01b81526004016111cd91906126c1565b602060405180830381865afa1580156111ea573d6000803e3d6000fd5b505050506040513d601f19601f8201168201806040525081019061120e91906128f1565b9050600073ffffffffffffffffffffffffffffffffffffffff168173ffffffffffffffffffffffffffffffffffffffff1603611276576040517f2c5b83b900000000000000000000000000000000000000000000000000000000815260040160405180910390fd5b6000611283836005611efc565b90508173ffffffffffffffffffffffffffffffffffffffff1663134bde1133856040518363ffffffff1660e01b81526004016112c0929190612955565b600060405180830381600087803b1580156112da57600080fd5b505af11580156112ee573d6000803e3d6000fd5b505050503373ffffffffffffffffffffffffffffffffffffffff16638b514f8c8585846040518463ffffffff1660e01b815260040161132f939291906129c0565b600060405180830381600087803b15801561134957600080fd5b505af115801561135d573d6000803e3d6000fd5b50505050611378843330848761137391906129f7565b611c05565b61138e8483838661138991906129f7565b611c87565b50505050565b600073ffffffffffffffffffffffffffffffffffffffff168273ffffffffffffffffffffffffffffffffffffffff1614806113cf5750600081145b15611406576040517f2c5b83b900000000000000000000000000000000000000000000000000000000815260040160405180910390fd5b60007f000000000000000000000000000000000000000000000000000000000000000073ffffffffffffffffffffffffffffffffffffffff16631228cbee846040518263ffffffff1660e01b815260040161146191906126c1565b602060405180830381865afa15801561147e573d6000803e3d6000fd5b505050506040513d601f19601f820116820180604052508101906114a291906128f1565b9050600073ffffffffffffffffffffffffffffffffffffffff168173ffffffffffffffffffffffffffffffffffffffff16036115fa577f000000000000000000000000000000000000000000000000000000000000000073ffffffffffffffffffffffffffffffffffffffff1663236aea2e84600160008773ffffffffffffffffffffffffffffffffffffffff1673ffffffffffffffffffffffffffffffffffffffff16815260200190815260200160002060009054906101000a900473ffffffffffffffffffffffffffffffffffffffff167f00000000000000000000000000000000000000000000000000000000000000006040518463ffffffff1660e01b81526004016115b49392919061291e565b6020604051808303816000875af11580156115d3573d6000803e3d6000fd5b505050506040513d601f19601f820116820180604052508101906115f791906128f1565b90505b60405180606001604052808273ffffffffffffffffffffffffffffffffffffffff1681526020018381526020018273ffffffffffffffffffffffffffffffffffffffff1663f27feeaf856040518263ffffffff1660e01b81526004016116609190612761565b602060405180830381865afa15801561167d573d6000803e3d6000fd5b505050506040513d601f19601f820116820180604052508101906116a19190612993565b815250600260003373ffffffffffffffffffffffffffffffffffffffff1673ffffffffffffffffffffffffffffffffffffffff1681526020019081526020016000206001016000600260003373ffffffffffffffffffffffffffffffffffffffff1673ffffffffffffffffffffffffffffffffffffffff16815260200190815260200160002060000154815260200190815260200160002060008201518160000160006101000a81548173ffffffffffffffffffffffffffffffffffffffff021916908373ffffffffffffffffffffffffffffffffffffffff16021790555060208201518160010155604082015181600201559050506117a383333085611c05565b8073ffffffffffffffffffffffffffffffffffffffff1663a5d5db0c33846040518363ffffffff1660e01b81526004016117de929190612955565b600060405180830381600087803b1580156117f857600080fd5b505af115801561180c573d6000803e3d6000fd5b50505050600260003373ffffffffffffffffffffffffffffffffffffffff1673ffffffffffffffffffffffffffffffffffffffff1681526020019081526020016000206000016000815480929190600101919050555061186d838284611c87565b505050565b61187a611b7e565b600073ffffffffffffffffffffffffffffffffffffffff168173ffffffffffffffffffffffffffffffffffffffff16036118ec5760006040517f1e4fbdf70000000000000000000000000000000000000000000000000000000081526004016118e391906126c1565b60405180910390fd5b6118f581611e38565b50565b600073ffffffffffffffffffffffffffffffffffffffff168473ffffffffffffffffffffffffffffffffffffffff1614806119335750600082145b1561196a576040517f2c5b83b900000000000000000000000000000000000000000000000000000000815260040160405180910390fd5b60007f000000000000000000000000000000000000000000000000000000000000000073ffffffffffffffffffffffffffffffffffffffff16631228cbee866040518263ffffffff1660e01b81526004016119c591906126c1565b602060405180830381865afa1580156119e2573d6000803e3d6000fd5b505050506040513d601f19601f82011682018060405250810190611a0691906128f1565b9050600073ffffffffffffffffffffffffffffffffffffffff168173ffffffffffffffffffffffffffffffffffffffff1603611a6e576040517f2c5b83b900000000000000000000000000000000000000000000000000000000815260040160405180910390fd5b611a788483611394565b60008473ffffffffffffffffffffffffffffffffffffffff1663f27feeaf846040518263ffffffff1660e01b8152600401611ab39190612761565b602060405180830381865afa158015611ad0573d6000803e3d6000fd5b505050506040513d601f19601f82011682018060405250810190611af49190612993565b905060006064604683611b079190612a2b565b611b119190612a9c565b82611b1c9190612acd565b9050611b5d6040518060400160405280601081526020017f416d6f756e7420746f20426f72726f770000000000000000000000000000000081525082611f29565b6000611b698887611fc5565b90505050505050505050565b60006005905090565b611b8661223d565b73ffffffffffffffffffffffffffffffffffffffff16611ba4610da4565b73ffffffffffffffffffffffffffffffffffffffff1614611c0357611bc761223d565b6040517f118cdaa7000000000000000000000000000000000000000000000000000000008152600401611bfa91906126c1565b60405180910390fd5b565b611c81848573ffffffffffffffffffffffffffffffffffffffff166323b872dd868686604051602401611c3a93929190612b01565b604051602081830303815290604052915060e01b6020820180517bffffffffffffffffffffffffffffffffffffffffffffffffffffffff8381831617835250505050612245565b50505050565b611d01838473ffffffffffffffffffffffffffffffffffffffff1663a9059cbb8585604051602401611cba929190612955565b604051602081830303815290604052915060e01b6020820180517bffffffffffffffffffffffffffffffffffffffffffffffffffffffff8381831617835250505050612245565b505050565b7f000000000000000000000000000000000000000000000000000000000000000073ffffffffffffffffffffffffffffffffffffffff166340c10f1983836040518363ffffffff1660e01b8152600401611d61929190612955565b6020604051808303816000875af1158015611d80573d6000803e3d6000fd5b505050506040513d601f19601f82011682018060405250810190611da49190612b70565b505050565b7f000000000000000000000000000000000000000000000000000000000000000073ffffffffffffffffffffffffffffffffffffffff166342966c68826040518263ffffffff1660e01b8152600401611e029190612761565b600060405180830381600087803b158015611e1c57600080fd5b505af1158015611e30573d6000803e3d6000fd5b505050505050565b60008060009054906101000a900473ffffffffffffffffffffffffffffffffffffffff169050816000806101000a81548173ffffffffffffffffffffffffffffffffffffffff021916908373ffffffffffffffffffffffffffffffffffffffff1602179055508173ffffffffffffffffffffffffffffffffffffffff168173ffffffffffffffffffffffffffffffffffffffff167f8be0079c531659141344cd1fd0a4f28419497f9722a3daafe3b4186f6b6457e060405160405180910390a35050565b6000816113886000190304831115821517611f1657600080fd5b6127106113888385020104905092915050565b611fc18282604051602401611f3f929190612c2d565b6040516020818303038152906040527fb60e72cc000000000000000000000000000000000000000000000000000000007bffffffffffffffffffffffffffffffffffffffffffffffffffffffff19166020820180517bffffffffffffffffffffffffffffffffffffffffffffffffffffffff83818316178352505050506122dc565b5050565b6000807f000000000000000000000000000000000000000000000000000000000000000073ffffffffffffffffffffffffffffffffffffffff16631228cbee856040518263ffffffff1660e01b815260040161202191906126c1565b602060405180830381865afa15801561203e573d6000803e3d6000fd5b505050506040513d601f19601f8201168201806040525081019061206291906128f1565b9050600073ffffffffffffffffffffffffffffffffffffffff168173ffffffffffffffffffffffffffffffffffffffff16036121ba577f000000000000000000000000000000000000000000000000000000000000000073ffffffffffffffffffffffffffffffffffffffff1663236aea2e85600160008873ffffffffffffffffffffffffffffffffffffffff1673ffffffffffffffffffffffffffffffffffffffff16815260200190815260200160002060009054906101000a900473ffffffffffffffffffffffffffffffffffffffff167f00000000000000000000000000000000000000000000000000000000000000006040518463ffffffff1660e01b81526004016121749392919061291e565b6020604051808303816000875af1158015612193573d6000803e3d6000fd5b505050506040513d601f19601f820116820180604052508101906121b791906128f1565b90505b8073ffffffffffffffffffffffffffffffffffffffff1663f27feeaf846040518263ffffffff1660e01b81526004016121f39190612761565b602060405180830381865afa158015612210573d6000803e3d6000fd5b505050506040513d601f19601f820116820180604052508101906122349190612993565b91505092915050565b600033905090565b6000612270828473ffffffffffffffffffffffffffffffffffffffff166122f690919063ffffffff16565b905060008151141580156122955750808060200190518101906122939190612b70565b155b156122d757826040517f5274afe70000000000000000000000000000000000000000000000000000000081526004016122ce91906126c1565b60405180910390fd5b505050565b6122f3816122eb61230c61232d565b63ffffffff16565b50565b606061230483836000612338565b905092915050565b60006a636f6e736f6c652e6c6f679050600080835160208501845afa505050565b6124d9819050919050565b60608147101561237f57306040517fcd78605900000000000000000000000000000000000000000000000000000000815260040161237691906126c1565b60405180910390fd5b6000808573ffffffffffffffffffffffffffffffffffffffff1684866040516123a89190612ca4565b60006040518083038185875af1925050503d80600081146123e5576040519150601f19603f3d011682016040523d82523d6000602084013e6123ea565b606091505b50915091506123fa868383612405565b925050509392505050565b60608261241a5761241582612494565b61248c565b60008251148015612442575060008473ffffffffffffffffffffffffffffffffffffffff163b145b1561248457836040517f9996b31500000000000000000000000000000000000000000000000000000000815260040161247b91906126c1565b60405180910390fd5b81905061248d565b5b9392505050565b6000815111156124a75780518082602001fd5b6040517f1425ea4200000000000000000000000000000000000000000000000000000000815260040160405180910390fd5b6124e1612cbb565b565b600080fd5b600080fd5b600073ffffffffffffffffffffffffffffffffffffffff82169050919050565b6000612518826124ed565b9050919050565b6125288161250d565b811461253357600080fd5b50565b6000813590506125458161251f565b92915050565b60008060408385031215612562576125616124e3565b5b600061257085828601612536565b925050602061258185828601612536565b9150509250929050565b600080fd5b600080fd5b600080fd5b60008083601f8401126125b0576125af61258b565b5b8235905067ffffffffffffffff8111156125cd576125cc612590565b5b6020830191508360208202830111156125e9576125e8612595565b5b9250929050565b60008060008060006060868803121561260c5761260b6124e3565b5b600061261a88828901612536565b955050602086013567ffffffffffffffff81111561263b5761263a6124e8565b5b6126478882890161259a565b9450945050604086013567ffffffffffffffff81111561266a576126696124e8565b5b6126768882890161259a565b92509250509295509295909350565b60006020828403121561269b5761269a6124e3565b5b60006126a984828501612536565b91505092915050565b6126bb8161250d565b82525050565b60006020820190506126d660008301846126b2565b92915050565b6000819050919050565b6126ef816126dc565b81146126fa57600080fd5b50565b60008135905061270c816126e6565b92915050565b60008060408385031215612729576127286124e3565b5b600061273785828601612536565b9250506020612748858286016126fd565b9150509250929050565b61275b816126dc565b82525050565b60006020820190506127766000830184612752565b92915050565b600080600060608486031215612795576127946124e3565b5b60006127a386828701612536565b93505060206127b4868287016126fd565b92505060406127c5868287016126fd565b9150509250925092565b600080600080608085870312156127e9576127e86124e3565b5b60006127f787828801612536565b945050602061280887828801612536565b9350506040612819878288016126fd565b925050606061282a878288016126fd565b91505092959194509250565b7f4e487b7100000000000000000000000000000000000000000000000000000000600052603260045260246000fd5b7f4e487b7100000000000000000000000000000000000000000000000000000000600052601160045260246000fd5b600061289f826126dc565b91507fffffffffffffffffffffffffffffffffffffffffffffffffffffffffffffffff82036128d1576128d0612865565b5b600182019050919050565b6000815190506128eb8161251f565b92915050565b600060208284031215612907576129066124e3565b5b6000612915848285016128dc565b91505092915050565b600060608201905061293360008301866126b2565b61294060208301856126b2565b61294d60408301846126b2565b949350505050565b600060408201905061296a60008301856126b2565b6129776020830184612752565b9392505050565b60008151905061298d816126e6565b92915050565b6000602082840312156129a9576129a86124e3565b5b60006129b78482850161297e565b91505092915050565b60006060820190506129d560008301866126b2565b6129e26020830185612752565b6129ef6040830184612752565b949350505050565b6000612a02826126dc565b9150612a0d836126dc565b9250828201905080821115612a2557612a24612865565b5b92915050565b6000612a36826126dc565b9150612a41836126dc565b9250828202612a4f816126dc565b91508282048414831517612a6657612a65612865565b5b5092915050565b7f4e487b7100000000000000000000000000000000000000000000000000000000600052601260045260246000fd5b6000612aa7826126dc565b9150612ab2836126dc565b925082612ac257612ac1612a6d565b5b828204905092915050565b6000612ad8826126dc565b9150612ae3836126dc565b9250828203905081811115612afb57612afa612865565b5b92915050565b6000606082019050612b1660008301866126b2565b612b2360208301856126b2565b612b306040830184612752565b949350505050565b60008115159050919050565b612b4d81612b38565b8114612b5857600080fd5b50565b600081519050612b6a81612b44565b92915050565b600060208284031215612b8657612b856124e3565b5b6000612b9484828501612b5b565b91505092915050565b600081519050919050565b600082825260208201905092915050565b60005b83811015612bd7578082015181840152602081019050612bbc565b60008484015250505050565b6000601f19601f8301169050919050565b6000612bff82612b9d565b612c098185612ba8565b9350612c19818560208601612bb9565b612c2281612be3565b840191505092915050565b60006040820190508181036000830152612c478185612bf4565b9050612c566020830184612752565b9392505050565b600081519050919050565b600081905092915050565b6000612c7e82612c5d565b612c888185612c68565b9350612c98818560208601612bb9565b80840191505092915050565b6000612cb08284612c73565b915081905092915050565b7f4e487b7100000000000000000000000000000000000000000000000000000000600052605160045260246000fdfea264697066735822122010d8632a64aecb2aa8581e6431b948321ea102a0dc211641012cd1473f4305e964736f6c63430008140033",
  "devdoc": {
    "errors": {
      "AddressEmptyCode(address)": [
        {
          "details": "There's no code at `target` (it is not a contract)."
        }
      ],
      "AddressInsufficientBalance(address)": [
        {
          "details": "The ETH balance of the account is not enough to perform the operation."
        }
      ],
      "FailedInnerCall()": [
        {
          "details": "A call to an address target failed. The target may have reverted."
        }
      ],
      "OwnableInvalidOwner(address)": [
        {
          "details": "The owner is not a valid owner account. (eg. `address(0)`)"
        }
      ],
      "OwnableUnauthorizedAccount(address)": [
        {
          "details": "The caller account is not authorized to perform an operation."
        }
      ],
      "SafeERC20FailedOperation(address)": [
        {
          "details": "An operation with an ERC20 token failed."
        }
      ]
    },
    "kind": "dev",
    "methods": {
      "owner()": {
        "details": "Returns the address of the current owner."
      },
      "renounceOwnership()": {
        "details": "Leaves the contract without owner. It will not be possible to call `onlyOwner` functions. Can only be called by the current owner. NOTE: Renouncing ownership will leave the contract without an owner, thereby disabling any functionality that is only available to the owner."
      },
      "transferOwnership(address)": {
        "details": "Transfers ownership of the contract to a new account (`newOwner`). Can only be called by the current owner."
      }
    },
    "version": 1
  },
  "userdoc": {
    "kind": "user",
    "methods": {},
    "version": 1
  },
  "storageLayout": {
    "storage": [
      {
        "astId": 319,
        "contract": "contracts/core/Router.sol:Router",
        "label": "_owner",
        "offset": 0,
        "slot": "0",
        "type": "t_address"
      },
      {
        "astId": 4386,
        "contract": "contracts/core/Router.sol:Router",
        "label": "s_priceFeeds",
        "offset": 0,
        "slot": "1",
        "type": "t_mapping(t_address,t_address)"
      },
      {
        "astId": 4397,
        "contract": "contracts/core/Router.sol:Router",
        "label": "s_poolCollateralData",
        "offset": 0,
        "slot": "2",
        "type": "t_mapping(t_address,t_struct(PoolCollateralData)4379_storage)"
      }
    ],
    "types": {
      "t_address": {
        "encoding": "inplace",
        "label": "address",
        "numberOfBytes": "20"
      },
      "t_mapping(t_address,t_address)": {
        "encoding": "mapping",
        "key": "t_address",
        "label": "mapping(address => address)",
        "numberOfBytes": "32",
        "value": "t_address"
      },
      "t_mapping(t_address,t_struct(PoolCollateralData)4379_storage)": {
        "encoding": "mapping",
        "key": "t_address",
        "label": "mapping(address => struct Router.PoolCollateralData)",
        "numberOfBytes": "32",
        "value": "t_struct(PoolCollateralData)4379_storage"
      },
      "t_mapping(t_uint256,t_struct(PoolCollateralPosition)4371_storage)": {
        "encoding": "mapping",
        "key": "t_uint256",
        "label": "mapping(uint256 => struct Router.PoolCollateralPosition)",
        "numberOfBytes": "32",
        "value": "t_struct(PoolCollateralPosition)4371_storage"
      },
      "t_struct(PoolCollateralData)4379_storage": {
        "encoding": "inplace",
        "label": "struct Router.PoolCollateralData",
        "members": [
          {
            "astId": 4373,
            "contract": "contracts/core/Router.sol:Router",
            "label": "activePositions",
            "offset": 0,
            "slot": "0",
            "type": "t_uint256"
          },
          {
            "astId": 4378,
            "contract": "contracts/core/Router.sol:Router",
            "label": "positions",
            "offset": 0,
            "slot": "1",
            "type": "t_mapping(t_uint256,t_struct(PoolCollateralPosition)4371_storage)"
          }
        ],
        "numberOfBytes": "64"
      },
      "t_struct(PoolCollateralPosition)4371_storage": {
        "encoding": "inplace",
        "label": "struct Router.PoolCollateralPosition",
        "members": [
          {
            "astId": 4366,
            "contract": "contracts/core/Router.sol:Router",
            "label": "pool",
            "offset": 0,
            "slot": "0",
            "type": "t_address"
          },
          {
            "astId": 4368,
            "contract": "contracts/core/Router.sol:Router",
            "label": "amount",
            "offset": 0,
            "slot": "1",
            "type": "t_uint256"
          },
          {
            "astId": 4370,
            "contract": "contracts/core/Router.sol:Router",
            "label": "amountValueInUSD",
            "offset": 0,
            "slot": "2",
            "type": "t_uint256"
          }
        ],
        "numberOfBytes": "96"
      },
      "t_uint256": {
        "encoding": "inplace",
        "label": "uint256",
        "numberOfBytes": "32"
      }
    }
  }
}