{"abi":[{"type":"constructor","inputs":[{"name":"token","type":"address","internalType":"address"},{"name":"priceFeed","type":"address","internalType":"address"},{"name":"router","type":"address","internalType":"address"},{"name":"lendToken","type":"address","internalType":"address"}],"stateMutability":"nonpayable"},{"type":"function","name":"FlashLoan","inputs":[{"name":"receiver","type":"address","internalType":"address"},{"name":"amount","type":"uint256","internalType":"uint256"}],"outputs":[],"stateMutability":"nonpayable"},{"type":"function","name":"assetAddress","inputs":[],"outputs":[{"name":"","type":"address","internalType":"address"}],"stateMutability":"view"},{"type":"function","name":"depositCollateral","inputs":[{"name":"depositor","type":"address","internalType":"address"},{"name":"amount","type":"uint256","internalType":"uint256"}],"outputs":[],"stateMutability":"nonpayable"},{"type":"function","name":"depositLiquidityAndMintTokens","inputs":[{"name":"depositor","type":"address","internalType":"address"},{"name":"amount","type":"uint256","internalType":"uint256"}],"outputs":[],"stateMutability":"nonpayable"},{"type":"function","name":"getBorrowableAmountBasedOnUSDAmount","inputs":[{"name":"user","type":"address","internalType":"address"},{"name":"collateralInUSD","type":"uint256","internalType":"uint256"}],"outputs":[{"name":"value","type":"uint256","internalType":"uint256"}],"stateMutability":"view"},{"type":"function","name":"getCollateralAmount","inputs":[{"name":"user","type":"address","internalType":"address"}],"outputs":[{"name":"","type":"uint256","internalType":"uint256"}],"stateMutability":"view"},{"type":"function","name":"getDepositInterestRate","inputs":[],"outputs":[{"name":"","type":"uint256","internalType":"uint256"}],"stateMutability":"pure"},{"type":"function","name":"getDepositValueInUSD","inputs":[{"name":"user","type":"address","internalType":"address"}],"outputs":[{"name":"","type":"uint256","internalType":"uint256"}],"stateMutability":"view"},{"type":"function","name":"getIndividualDepositAmount","inputs":[{"name":"user","type":"address","internalType":"address"},{"name":"depositId","type":"uint256","internalType":"uint256"}],"outputs":[{"name":"","type":"uint256","internalType":"uint256"}],"stateMutability":"view"},{"type":"function","name":"getRouter","inputs":[],"outputs":[{"name":"","type":"address","internalType":"address"}],"stateMutability":"view"},{"type":"function","name":"getTotalDepositAmount","inputs":[{"name":"user","type":"address","internalType":"address"}],"outputs":[{"name":"depositedAmount","type":"uint256","internalType":"uint256"}],"stateMutability":"view"},{"type":"function","name":"getTotalInterestAmount","inputs":[{"name":"BalAMount","type":"uint256","internalType":"uint256"},{"name":"amount","type":"uint256","internalType":"uint256"}],"outputs":[{"name":"","type":"uint256","internalType":"uint256"}],"stateMutability":"view"},{"type":"function","name":"getTotalUserCounter","inputs":[],"outputs":[{"name":"","type":"uint256","internalType":"uint256"}],"stateMutability":"view"},{"type":"function","name":"getTotalUserDeposits","inputs":[],"outputs":[{"name":"","type":"uint256","internalType":"uint256"}],"stateMutability":"view"},{"type":"function","name":"lendingTokenAddress","inputs":[],"outputs":[{"name":"","type":"address","internalType":"address"}],"stateMutability":"view"},{"type":"function","name":"poolFactoryAddress","inputs":[],"outputs":[{"name":"","type":"address","internalType":"address"}],"stateMutability":"view"},{"type":"function","name":"priceFeedAddress","inputs":[],"outputs":[{"name":"","type":"address","internalType":"address"}],"stateMutability":"view"},{"type":"function","name":"withdrawLiquidity","inputs":[{"name":"user","type":"address","internalType":"address"},{"name":"amount","type":"uint256","internalType":"uint256"},{"name":"depositId","type":"uint256","internalType":"uint256"}],"outputs":[],"stateMutability":"nonpayable"},{"type":"function","name":"withdrawTotalAmount","inputs":[{"name":"user","type":"address","internalType":"address"}],"outputs":[],"stateMutability":"nonpayable"},{"type":"event","name":"CollateralDeposited","inputs":[{"name":"depositor","type":"address","indexed":true,"internalType":"address"},{"name":"amount","type":"uint256","indexed":true,"internalType":"uint256"}],"anonymous":false},{"type":"event","name":"DepositLiquidity","inputs":[{"name":"depositor","type":"address","indexed":true,"internalType":"address"},{"name":"amount","type":"uint256","indexed":true,"internalType":"uint256"},{"name":"shares_minted","type":"uint256","indexed":false,"internalType":"uint256"},{"name":"depositCounter","type":"uint256","indexed":true,"internalType":"uint256"}],"anonymous":false},{"type":"event","name":"SimpleWithdraw","inputs":[{"name":"depositor","type":"address","indexed":true,"internalType":"address"},{"name":"amount","type":"uint256","indexed":true,"internalType":"uint256"},{"name":"depositCounter","type":"uint256","indexed":true,"internalType":"uint256"}],"anonymous":false},{"type":"error","name":"AddressEmptyCode","inputs":[{"name":"target","type":"address","internalType":"address"}]},{"type":"error","name":"AddressInsufficientBalance","inputs":[{"name":"account","type":"address","internalType":"address"}]},{"type":"error","name":"CoreLogic__InvalidDepositId","inputs":[]},{"type":"error","name":"CoreLogic__OnlyRouter","inputs":[]},{"type":"error","name":"CoreLogic__OutOfBalance","inputs":[]},{"type":"error","name":"FailedInnerCall","inputs":[]},{"type":"error","name":"SafeERC20FailedOperation","inputs":[{"name":"token","type":"address","internalType":"address"}]}],"bytecode":{"object":"0x61012060405234801561001157600080fd5b50604051611aba380380611aba83398101604081905261003091610073565b6001600160a01b039384166080523360a052831660c05290821660e05216610100526100c7565b80516001600160a01b038116811461006e57600080fd5b919050565b6000806000806080858703121561008957600080fd5b61009285610057565b93506100a060208601610057565b92506100ae60408601610057565b91506100bc60608601610057565b905092959194509250565b60805160a05160c05160e0516101005161191c61019e600039600081816102ad0152818161035a015281816104cb015281816104fc015281816108e20152818161091301528181610a2e01528181610a5f01528181610bd90152610c0a0152600081816102ed015281816105f1015281816106790152818161074e0152610b3b0152600061014e0152600061026101526000818161019d015281816103950152818161044e015281816107df0152818161095501528181610aa101528181610cb301528181610e680152610f86015261191c6000f3fe608060405234801561001057600080fd5b50600436106101215760003560e01c8063654c6295116100ad578063b0f479a111610071578063b0f479a1146102ab578063b1a93393146102d1578063cb8284d0146102d8578063e0abca0b146102eb578063ea999dff1461031157600080fd5b8063654c62951461022e578063a130361614610257578063a32cf5361461025f578063a5d5db0c14610285578063ac5f83591461029857600080fd5b8063220a36b6116100f4578063220a36b6146101c1578063248c181b146101d457806327f9c4c1146101dc5780635de0a9af1461020857806362fb2e841461021b57600080fd5b80630858631714610126578063129457211461014c578063134bde11146101865780631ba46cfd1461019b575b600080fd5b6101396101343660046113ff565b610324565b6040519081526020015b60405180910390f35b7f00000000000000000000000000000000000000000000000000000000000000005b6040516001600160a01b039091168152602001610143565b6101996101943660046113ff565b610350565b005b7f000000000000000000000000000000000000000000000000000000000000000061016e565b6101996101cf366004611429565b6104c1565b600454610139565b6101396101ea366004611429565b6001600160a01b031660009081526020819052604090206004015490565b610139610216366004611429565b6105ec565b6101996102293660046113ff565b6108d8565b61013961023c366004611429565b6001600160a01b031660009081526001602052604090205490565b600354610139565b7f000000000000000000000000000000000000000000000000000000000000000061016e565b6101996102933660046113ff565b610a24565b6101396102a6366004611444565b610b1a565b7f000000000000000000000000000000000000000000000000000000000000000061016e565b6003610139565b6101396102e63660046113ff565b610b36565b7f000000000000000000000000000000000000000000000000000000000000000061016e565b61019961031f366004611466565b610bcf565b6001600160a01b0382166000908152602081815260408083208484526002019091529020545b92915050565b6001600160a01b037f00000000000000000000000000000000000000000000000000000000000000001633036104bd576040516370a0823160e01b81523060048201527f00000000000000000000000000000000000000000000000000000000000000006001600160a01b0316906370a0823190602401602060405180830381865afa1580156103e4573d6000803e3d6000fd5b505050506040513d601f19601f820116820180604052508101906104089190611499565b81111561042857604051631ec7992b60e21b815260040160405180910390fd5b60405163a9059cbb60e01b81526001600160a01b038381166004830152602482018390527f0000000000000000000000000000000000000000000000000000000000000000169063a9059cbb906044016020604051808303816000875af1158015610497573d6000803e3d6000fd5b505050506040513d601f19601f820116820180604052508101906104bb91906114b2565b505b5050565b6001600160a01b037f00000000000000000000000000000000000000000000000000000000000000001633036105e957336001600160a01b037f000000000000000000000000000000000000000000000000000000000000000016146105425760405162461bcd60e51b8152600401610539906114d4565b60405180910390fd5b6001600160a01b038116600090815260208190526040812060040154905b6001600160a01b0383166000908152602081905260409020600301548110156104bb576001600160a01b03831660009081526020818152604080832084845260010190915290205460ff166105e1576001600160a01b0383166000908152602081815260408083208484526002019091529020546105df848284610bcf565b505b600101610560565b50565b6000807f00000000000000000000000000000000000000000000000000000000000000006001600160a01b031663feaf968c6040518163ffffffff1660e01b815260040160a060405180830381865afa15801561064d573d6000803e3d6000fd5b505050506040513d601f19601f820116820180604052508101906106719190611530565b5050509150507f00000000000000000000000000000000000000000000000000000000000000006001600160a01b031663313ce5676040518163ffffffff1660e01b8152600401602060405180830381865afa1580156106d5573d6000803e3d6000fd5b505050506040513d601f19601f820116820180604052508101906106f99190611580565b60ff1660120361074a57670de0b6b3a76400008161072f856001600160a01b031660009081526020819052604090206004015490565b61073991906115b9565b61074391906115e6565b9392505050565b60007f00000000000000000000000000000000000000000000000000000000000000006001600160a01b031663313ce5676040518163ffffffff1660e01b8152600401602060405180830381865afa1580156107aa573d6000803e3d6000fd5b505050506040513d601f19601f820116820180604052508101906107ce9190611580565b6107d99060126115fa565b905060007f00000000000000000000000000000000000000000000000000000000000000006001600160a01b031663313ce5676040518163ffffffff1660e01b8152600401602060405180830381865afa15801561083b573d6000803e3d6000fd5b505050506040513d601f19601f8201168201806040525081019061085f9190611580565b61086a9060126115fa565b9050670de0b6b3a764000061088083600a6116f7565b61088a90856115b9565b61089583600a6116f7565b6001600160a01b0388166000908152602081905260409020600401546108bb91906115b9565b6108c591906115b9565b6108cf91906115e6565b95945050505050565b6001600160a01b037f00000000000000000000000000000000000000000000000000000000000000001633036104bd57336001600160a01b037f000000000000000000000000000000000000000000000000000000000000000016146109505760405162461bcd60e51b815260040161053990611706565b61097c7f0000000000000000000000000000000000000000000000000000000000000000833084610fed565b6001600160a01b038216600081815260208181526040808320600380820180548652600283018552838620889055805486529483902042600191820155600480840180548a019055825489019092558154019055925490518581529293909285927f77b57bffc1c97e4762d78efd74300ab40a13dc946d0e09b33ead3a5b35cfa7d3910160405180910390a4600381018054906000610a1a83611748565b9190505550505050565b6001600160a01b037f00000000000000000000000000000000000000000000000000000000000000001633036104bd57336001600160a01b037f00000000000000000000000000000000000000000000000000000000000000001614610a9c5760405162461bcd60e51b815260040161053990611706565b610ac87f0000000000000000000000000000000000000000000000000000000000000000833084610fed565b6001600160a01b0382166000818152600160205260408082208054850190556002805485019055518392917fd7243f6f8212d5188fd054141cf6ea89cfc0d91facb8c3afe2f88a135848014291a35050565b6000600254600354610b2c9190611761565b6107439084611774565b6000807f00000000000000000000000000000000000000000000000000000000000000006001600160a01b031663313ce5676040518163ffffffff1660e01b8152600401602060405180830381865afa158015610b97573d6000803e3d6000fd5b505050506040513d601f19601f82011682018060405250810190610bbb9190611580565b610bc69060126115fa565b90505092915050565b6001600160a01b037f00000000000000000000000000000000000000000000000000000000000000001633036104bb57336001600160a01b037f00000000000000000000000000000000000000000000000000000000000000001614610c475760405162461bcd60e51b8152600401610539906114d4565b6001600160a01b038316600090815260208190526040902060030154811115610c8357604051635fe74ebf60e11b815260040160405180910390fd5b6001600160a01b0383811660009081526020819052604080822090516370a0823160e01b815230600482015290927f000000000000000000000000000000000000000000000000000000000000000016906370a0823190602401602060405180830381865afa158015610cfa573d6000803e3d6000fd5b505050506040513d601f19601f82011682018060405250810190610d1e9190611499565b9050610d536040518060400160405280601181526020017002a37ba30b6102130b630b731b29034b99607d1b8152508261105a565b60008381526002830160205260409020548403610ecc57600083815260028301602052604081208054869290610d8a908490611774565b9250508190555083826004016000828254610da59190611774565b90915550508154600181810184556000848152602080822090930186905585815281850190925260408220805460ff1916909117905560038054869290610ded908490611774565b909155505060048054906000610e0283611787565b90915550506000838152600283016020526040812060010154610e279086908461109f565b9050610e6360405180604001604052806018815260200177020b6b7bab73a102bb4ba341024b73a32b932b9ba1034b9960451b8152508261105a565b610e8e7f000000000000000000000000000000000000000000000000000000000000000087836111b7565b8381876001600160a01b03167f9b9970c5ed4609e15fd1dedd289d5697670692b2f58988736a098d44fd4cb3db60405160405180910390a450610fe6565b600083815260028301602052604081208054869290610eec908490611774565b9250508190555083826004016000828254610f079190611774565b925050819055508360036000828254610f209190611774565b90915550506000838152600283016020526040812060010154610f459086908461109f565b9050610f8160405180604001604052806018815260200177020b6b7bab73a102bb4ba341024b73a32b932b9ba1034b9960451b8152508261105a565b610fac7f000000000000000000000000000000000000000000000000000000000000000087836111b7565b8381876001600160a01b03167f9b9970c5ed4609e15fd1dedd289d5697670692b2f58988736a098d44fd4cb3db60405160405180910390a4505b5050505050565b6040516001600160a01b0384811660248301528381166044830152606482018390526110549186918216906323b872dd906084015b604051602081830303815290604052915060e01b6020820180516001600160e01b0383818316178352505050506111e8565b50505050565b6104bd82826040516024016110709291906117ee565b60408051601f198184030181529190526020810180516001600160e01b0316632d839cb360e21b17905261124b565b60008382036110e9576110b28285610b1a565b6110bc9085611761565b90506110e46040518060400160405280600581526020016448656c6c6f60d81b815250611254565b610743565b61110f6040518060400160405280600581526020016448656c6c6f60d81b815250611254565b600061111b8442611774565b905060006111298685611774565b905060006111378588610b1a565b905061115b6040518060600160405280602181526020016118c6602191398261105a565b600082611169896064611810565b6111739190611840565b905060006111856301dfe20084611840565b905060006111938683611810565b905061119f8382611840565b6111a9908b61186e565b9a9950505050505050505050565b6040516001600160a01b038381166024830152604482018390526104bb91859182169063a9059cbb90606401611022565b60006111fd6001600160a01b03841683611297565b9050805160001415801561122257508080602001905181019061122091906114b2565b155b156104bb57604051635274afe760e01b81526001600160a01b0384166004820152602401610539565b6105e9816112a5565b6105e9816040516024016112689190611896565b60408051601f198184030181529190526020810180516001600160e01b031663104c13eb60e21b17905261124b565b6060610743838360006112c6565b60006a636f6e736f6c652e6c6f679050600080835160208501845afa505050565b6060814710156112eb5760405163cd78605960e01b8152306004820152602401610539565b600080856001600160a01b0316848660405161130791906118a9565b60006040518083038185875af1925050503d8060008114611344576040519150601f19603f3d011682016040523d82523d6000602084013e611349565b606091505b5091509150611359868383611363565b9695505050505050565b606082611373576110e4826113ba565b815115801561138a57506001600160a01b0384163b155b156113b357604051639996b31560e01b81526001600160a01b0385166004820152602401610539565b5080610743565b8051156113ca5780518082602001fd5b604051630a12f52160e11b815260040160405180910390fd5b80356001600160a01b03811681146113fa57600080fd5b919050565b6000806040838503121561141257600080fd5b61141b836113e3565b946020939093013593505050565b60006020828403121561143b57600080fd5b610743826113e3565b6000806040838503121561145757600080fd5b50508035926020909101359150565b60008060006060848603121561147b57600080fd5b611484846113e3565b95602085013595506040909401359392505050565b6000602082840312156114ab57600080fd5b5051919050565b6000602082840312156114c457600080fd5b8151801515811461074357600080fd5b60208082526022908201527f4f6e6c7920726f757465722063616e2063616c6c20746869732066756e63746960408201526137b760f11b606082015260800190565b805169ffffffffffffffffffff811681146113fa57600080fd5b600080600080600060a0868803121561154857600080fd5b61155186611516565b945060208601519350604086015192506060860151915061157460808701611516565b90509295509295909350565b60006020828403121561159257600080fd5b815160ff8116811461074357600080fd5b634e487b7160e01b600052601160045260246000fd5b808202811582820484141761034a5761034a6115a3565b634e487b7160e01b600052601260045260246000fd5b6000826115f5576115f56115d0565b500490565b60ff828116828216039081111561034a5761034a6115a3565b600181815b8085111561164e578160001904821115611634576116346115a3565b8085161561164157918102915b93841c9390800290611618565b509250929050565b6000826116655750600161034a565b816116725750600061034a565b81600181146116885760028114611692576116ae565b600191505061034a565b60ff8411156116a3576116a36115a3565b50506001821b61034a565b5060208310610133831016604e8410600b84101617156116d1575081810a61034a565b6116db8383611613565b80600019048211156116ef576116ef6115a3565b029392505050565b600061074360ff841683611656565b60208082526022908201527f4f6e6c7920526f757465722063616e2063616c6c20746869732066756e63746960408201526137b760f11b606082015260800190565b60006001820161175a5761175a6115a3565b5060010190565b8082018082111561034a5761034a6115a3565b8181038181111561034a5761034a6115a3565b600081611796576117966115a3565b506000190190565b60005b838110156117b95781810151838201526020016117a1565b50506000910152565b600081518084526117da81602086016020860161179e565b601f01601f19169290920160200192915050565b60408152600061180160408301856117c2565b90508260208301529392505050565b80820260008212600160ff1b8414161561182c5761182c6115a3565b818105831482151761034a5761034a6115a3565b60008261184f5761184f6115d0565b600160ff1b821460001984141615611869576118696115a3565b500590565b808201828112600083128015821682158216171561188e5761188e6115a3565b505092915050565b60208152600061074360208301846117c2565b600082516118bb81846020870161179e565b919091019291505056fe546f74616c204163637275656420496e74657265737420416d6f756e7420697320a264697066735822122004c28bb72e36007ccb79f13d5389597939532c1c014c967875c9bc7de7ba2d7164736f6c63430008190033","linkReferences":{}},"methodIdentifiers":{"FlashLoan(address,uint256)":"134bde11","assetAddress()":"1ba46cfd","depositCollateral(address,uint256)":"a5d5db0c","depositLiquidityAndMintTokens(address,uint256)":"62fb2e84","getBorrowableAmountBasedOnUSDAmount(address,uint256)":"cb8284d0","getCollateralAmount(address)":"654c6295","getDepositInterestRate()":"b1a93393","getDepositValueInUSD(address)":"5de0a9af","getIndividualDepositAmount(address,uint256)":"08586317","getRouter()":"b0f479a1","getTotalDepositAmount(address)":"27f9c4c1","getTotalInterestAmount(uint256,uint256)":"ac5f8359","getTotalUserCounter()":"248c181b","getTotalUserDeposits()":"a1303616","lendingTokenAddress()":"12945721","poolFactoryAddress()":"a32cf536","priceFeedAddress()":"e0abca0b","withdrawLiquidity(address,uint256,uint256)":"ea999dff","withdrawTotalAmount(address)":"220a36b6"},"id":4}