{"abi":[{"type":"constructor","inputs":[{"name":"token","type":"address","internalType":"address"},{"name":"priceFeed","type":"address","internalType":"address"},{"name":"router","type":"address","internalType":"address"},{"name":"lendToken","type":"address","internalType":"address"}],"stateMutability":"nonpayable"},{"type":"function","name":"FlashLoan","inputs":[{"name":"receiver","type":"address","internalType":"address"},{"name":"amount","type":"uint256","internalType":"uint256"}],"outputs":[],"stateMutability":"nonpayable"},{"type":"function","name":"assetAddress","inputs":[],"outputs":[{"name":"","type":"address","internalType":"address"}],"stateMutability":"view"},{"type":"function","name":"depositCollateral","inputs":[{"name":"depositor","type":"address","internalType":"address"},{"name":"amount","type":"uint256","internalType":"uint256"}],"outputs":[],"stateMutability":"nonpayable"},{"type":"function","name":"depositLiquidityAndMintTokens","inputs":[{"name":"depositor","type":"address","internalType":"address"},{"name":"amount","type":"uint256","internalType":"uint256"}],"outputs":[],"stateMutability":"nonpayable"},{"type":"function","name":"getBorrowableAmountBasedOnUSDAmount","inputs":[{"name":"user","type":"address","internalType":"address"},{"name":"collateralInUSD","type":"uint256","internalType":"uint256"}],"outputs":[{"name":"value","type":"uint256","internalType":"uint256"}],"stateMutability":"view"},{"type":"function","name":"getCollateralAmount","inputs":[{"name":"user","type":"address","internalType":"address"}],"outputs":[{"name":"","type":"uint256","internalType":"uint256"}],"stateMutability":"view"},{"type":"function","name":"getCollateralValueInUSD","inputs":[{"name":"user","type":"address","internalType":"address"}],"outputs":[{"name":"","type":"uint256","internalType":"uint256"}],"stateMutability":"view"},{"type":"function","name":"getDepositInterestRate","inputs":[],"outputs":[{"name":"","type":"uint256","internalType":"uint256"}],"stateMutability":"pure"},{"type":"function","name":"getDepositValueInUSD","inputs":[{"name":"user","type":"address","internalType":"address"}],"outputs":[{"name":"","type":"uint256","internalType":"uint256"}],"stateMutability":"view"},{"type":"function","name":"getIndividualDepositAmount","inputs":[{"name":"user","type":"address","internalType":"address"},{"name":"depositId","type":"uint256","internalType":"uint256"}],"outputs":[{"name":"","type":"uint256","internalType":"uint256"}],"stateMutability":"view"},{"type":"function","name":"getRouter","inputs":[],"outputs":[{"name":"","type":"address","internalType":"address"}],"stateMutability":"view"},{"type":"function","name":"getTotalDepositAmount","inputs":[{"name":"user","type":"address","internalType":"address"}],"outputs":[{"name":"depositedAmount","type":"uint256","internalType":"uint256"}],"stateMutability":"view"},{"type":"function","name":"getTotalInterestAmount","inputs":[{"name":"BalAMount","type":"uint256","internalType":"uint256"},{"name":"amount","type":"uint256","internalType":"uint256"}],"outputs":[{"name":"","type":"uint256","internalType":"uint256"}],"stateMutability":"view"},{"type":"function","name":"getTotalUserCounter","inputs":[],"outputs":[{"name":"","type":"uint256","internalType":"uint256"}],"stateMutability":"view"},{"type":"function","name":"getTotalUserDeposits","inputs":[],"outputs":[{"name":"","type":"uint256","internalType":"uint256"}],"stateMutability":"view"},{"type":"function","name":"lendingTokenAddress","inputs":[],"outputs":[{"name":"","type":"address","internalType":"address"}],"stateMutability":"view"},{"type":"function","name":"poolFactoryAddress","inputs":[],"outputs":[{"name":"","type":"address","internalType":"address"}],"stateMutability":"view"},{"type":"function","name":"priceFeedAddress","inputs":[],"outputs":[{"name":"","type":"address","internalType":"address"}],"stateMutability":"view"},{"type":"function","name":"withdrawLiquidity","inputs":[{"name":"user","type":"address","internalType":"address"},{"name":"amount","type":"uint256","internalType":"uint256"},{"name":"depositId","type":"uint256","internalType":"uint256"}],"outputs":[],"stateMutability":"nonpayable"},{"type":"function","name":"withdrawTotalAmount","inputs":[{"name":"user","type":"address","internalType":"address"}],"outputs":[],"stateMutability":"nonpayable"},{"type":"event","name":"CollateralDeposited","inputs":[{"name":"depositor","type":"address","indexed":true,"internalType":"address"},{"name":"amount","type":"uint256","indexed":true,"internalType":"uint256"}],"anonymous":false},{"type":"event","name":"DepositLiquidity","inputs":[{"name":"depositor","type":"address","indexed":true,"internalType":"address"},{"name":"amount","type":"uint256","indexed":true,"internalType":"uint256"},{"name":"shares_minted","type":"uint256","indexed":false,"internalType":"uint256"},{"name":"depositCounter","type":"uint256","indexed":true,"internalType":"uint256"}],"anonymous":false},{"type":"event","name":"SimpleWithdraw","inputs":[{"name":"depositor","type":"address","indexed":true,"internalType":"address"},{"name":"amount","type":"uint256","indexed":true,"internalType":"uint256"},{"name":"depositCounter","type":"uint256","indexed":true,"internalType":"uint256"}],"anonymous":false},{"type":"error","name":"AddressEmptyCode","inputs":[{"name":"target","type":"address","internalType":"address"}]},{"type":"error","name":"AddressInsufficientBalance","inputs":[{"name":"account","type":"address","internalType":"address"}]},{"type":"error","name":"CoreLogic__InvalidDepositId","inputs":[]},{"type":"error","name":"CoreLogic__OnlyRouter","inputs":[]},{"type":"error","name":"CoreLogic__OutOfBalance","inputs":[]},{"type":"error","name":"FailedInnerCall","inputs":[]},{"type":"error","name":"SafeERC20FailedOperation","inputs":[{"name":"token","type":"address","internalType":"address"}]}],"bytecode":{"object":"0x61012060405234801561001157600080fd5b50604051611cc3380380611cc383398101604081905261003091610073565b6001600160a01b039384166080523360a052831660c05290821660e05216610100526100c7565b80516001600160a01b038116811461006e57600080fd5b919050565b6000806000806080858703121561008957600080fd5b61009285610057565b93506100a060208601610057565b92506100ae60408601610057565b91506100bc60608601610057565b905092959194509250565b60805160a05160c05160e05161010051611b176101ac600039600081816102cb01528181610378015281816104e90152818161051a015281816109010152818161093201528181610cca01528181610cfb01528181610e490152610e7a01526000818161030b0152818161060f015281816106970152818161076c01528181610a1c01528181610aa401528181610b5b0152610dab015260006101590152600061027f0152600081816101a8015281816103b30152818161046c015281816107fd01528181610bec01528181610f23015281816110d801526111f60152611b176000f3fe608060405234801561001057600080fd5b506004361061012c5760003560e01c8063877db9dd116100ad578063b0f479a111610071578063b0f479a1146102c9578063b1a93393146102ef578063cb8284d0146102f6578063e0abca0b14610309578063ea999dff1461032f57600080fd5b8063877db9dd14610262578063a130361614610275578063a32cf5361461027d578063a5d5db0c146102a3578063ac5f8359146102b657600080fd5b8063248c181b116100f4578063248c181b146101df57806327f9c4c1146101e75780635de0a9af1461021357806362fb2e8414610226578063654c62951461023957600080fd5b806308586317146101315780631294572114610157578063134bde11146101915780631ba46cfd146101a6578063220a36b6146101cc575b600080fd5b61014461013f3660046115fa565b610342565b6040519081526020015b60405180910390f35b7f00000000000000000000000000000000000000000000000000000000000000005b6040516001600160a01b03909116815260200161014e565b6101a461019f3660046115fa565b61036e565b005b7f0000000000000000000000000000000000000000000000000000000000000000610179565b6101a46101da366004611624565b6104df565b600454610144565b6101446101f5366004611624565b6001600160a01b031660009081526020819052604090206004015490565b610144610221366004611624565b61060a565b6101a46102343660046115fa565b6108f7565b610144610247366004611624565b6001600160a01b031660009081526001602052604090205490565b610144610270366004611624565b610a17565b600354610144565b7f0000000000000000000000000000000000000000000000000000000000000000610179565b6101a46102b13660046115fa565b610cc0565b6101446102c436600461163f565b610d8a565b7f0000000000000000000000000000000000000000000000000000000000000000610179565b6003610144565b6101446103043660046115fa565b610da6565b7f0000000000000000000000000000000000000000000000000000000000000000610179565b6101a461033d366004611661565b610e3f565b6001600160a01b0382166000908152602081815260408083208484526002019091529020545b92915050565b6001600160a01b037f00000000000000000000000000000000000000000000000000000000000000001633036104db576040516370a0823160e01b81523060048201527f00000000000000000000000000000000000000000000000000000000000000006001600160a01b0316906370a0823190602401602060405180830381865afa158015610402573d6000803e3d6000fd5b505050506040513d601f19601f820116820180604052508101906104269190611694565b81111561044657604051631ec7992b60e21b815260040160405180910390fd5b60405163a9059cbb60e01b81526001600160a01b038381166004830152602482018390527f0000000000000000000000000000000000000000000000000000000000000000169063a9059cbb906044016020604051808303816000875af11580156104b5573d6000803e3d6000fd5b505050506040513d601f19601f820116820180604052508101906104d991906116ad565b505b5050565b6001600160a01b037f000000000000000000000000000000000000000000000000000000000000000016330361060757336001600160a01b037f000000000000000000000000000000000000000000000000000000000000000016146105605760405162461bcd60e51b8152600401610557906116cf565b60405180910390fd5b6001600160a01b038116600090815260208190526040812060040154905b6001600160a01b0383166000908152602081905260409020600301548110156104d9576001600160a01b03831660009081526020818152604080832084845260010190915290205460ff166105ff576001600160a01b0383166000908152602081815260408083208484526002019091529020546105fd848284610e3f565b505b60010161057e565b50565b6000807f00000000000000000000000000000000000000000000000000000000000000006001600160a01b031663feaf968c6040518163ffffffff1660e01b815260040160a060405180830381865afa15801561066b573d6000803e3d6000fd5b505050506040513d601f19601f8201168201806040525081019061068f919061172b565b5050509150507f00000000000000000000000000000000000000000000000000000000000000006001600160a01b031663313ce5676040518163ffffffff1660e01b8152600401602060405180830381865afa1580156106f3573d6000803e3d6000fd5b505050506040513d601f19601f82011682018060405250810190610717919061177b565b60ff1660120361076857670de0b6b3a76400008161074d856001600160a01b031660009081526020819052604090206004015490565b61075791906117b4565b61076191906117e1565b9392505050565b60007f00000000000000000000000000000000000000000000000000000000000000006001600160a01b031663313ce5676040518163ffffffff1660e01b8152600401602060405180830381865afa1580156107c8573d6000803e3d6000fd5b505050506040513d601f19601f820116820180604052508101906107ec919061177b565b6107f79060126117f5565b905060007f00000000000000000000000000000000000000000000000000000000000000006001600160a01b031663313ce5676040518163ffffffff1660e01b8152600401602060405180830381865afa158015610859573d6000803e3d6000fd5b505050506040513d601f19601f8201168201806040525081019061087d919061177b565b6108889060126117f5565b9050670de0b6b3a764000061089e83600a6118f2565b6108a890856117b4565b6108b383600a6118f2565b6001600160a01b0388166000908152602081905260409020600401545b6108da91906117b4565b6108e491906117b4565b6108ee91906117e1565b95945050505050565b6001600160a01b037f00000000000000000000000000000000000000000000000000000000000000001633036104db57336001600160a01b037f0000000000000000000000000000000000000000000000000000000000000000161461096f5760405162461bcd60e51b815260040161055790611901565b6001600160a01b038216600081815260208181526040808320600380820180548652600283018552838620889055805486529483902042600191820155600480840180548a019055825489019092558154019055925490518581529293909285927f77b57bffc1c97e4762d78efd74300ab40a13dc946d0e09b33ead3a5b35cfa7d3910160405180910390a4600381018054906000610a0d83611943565b9190505550505050565b6000807f00000000000000000000000000000000000000000000000000000000000000006001600160a01b031663feaf968c6040518163ffffffff1660e01b815260040160a060405180830381865afa158015610a78573d6000803e3d6000fd5b505050506040513d601f19601f82011682018060405250810190610a9c919061172b565b5050509150507f00000000000000000000000000000000000000000000000000000000000000006001600160a01b031663313ce5676040518163ffffffff1660e01b8152600401602060405180830381865afa158015610b00573d6000803e3d6000fd5b505050506040513d601f19601f82011682018060405250810190610b24919061177b565b60ff16601203610b5757670de0b6b3a76400008161074d856001600160a01b031660009081526001602052604090205490565b60007f00000000000000000000000000000000000000000000000000000000000000006001600160a01b031663313ce5676040518163ffffffff1660e01b8152600401602060405180830381865afa158015610bb7573d6000803e3d6000fd5b505050506040513d601f19601f82011682018060405250810190610bdb919061177b565b610be69060126117f5565b905060007f00000000000000000000000000000000000000000000000000000000000000006001600160a01b031663313ce5676040518163ffffffff1660e01b8152600401602060405180830381865afa158015610c48573d6000803e3d6000fd5b505050506040513d601f19601f82011682018060405250810190610c6c919061177b565b610c779060126117f5565b9050670de0b6b3a7640000610c8d83600a6118f2565b610c9790856117b4565b610ca283600a6118f2565b6001600160a01b0388166000908152600160205260409020546108d0565b6001600160a01b037f00000000000000000000000000000000000000000000000000000000000000001633036104db57336001600160a01b037f00000000000000000000000000000000000000000000000000000000000000001614610d385760405162461bcd60e51b815260040161055790611901565b6001600160a01b0382166000818152600160205260408082208054850190556002805485019055518392917fd7243f6f8212d5188fd054141cf6ea89cfc0d91facb8c3afe2f88a135848014291a35050565b6000600254600354610d9c919061195c565b610761908461196f565b6000807f00000000000000000000000000000000000000000000000000000000000000006001600160a01b031663313ce5676040518163ffffffff1660e01b8152600401602060405180830381865afa158015610e07573d6000803e3d6000fd5b505050506040513d601f19601f82011682018060405250810190610e2b919061177b565b610e369060126117f5565b90505092915050565b6001600160a01b037f00000000000000000000000000000000000000000000000000000000000000001633036104d957336001600160a01b037f00000000000000000000000000000000000000000000000000000000000000001614610eb75760405162461bcd60e51b8152600401610557906116cf565b6001600160a01b038316600090815260208190526040902060030154811115610ef357604051635fe74ebf60e11b815260040160405180910390fd5b6001600160a01b0383811660009081526020819052604080822090516370a0823160e01b815230600482015290927f000000000000000000000000000000000000000000000000000000000000000016906370a0823190602401602060405180830381865afa158015610f6a573d6000803e3d6000fd5b505050506040513d601f19601f82011682018060405250810190610f8e9190611694565b9050610fc36040518060400160405280601181526020017002a37ba30b6102130b630b731b29034b99607d1b8152508261125d565b6000838152600283016020526040902054840361113c57600083815260028301602052604081208054869290610ffa90849061196f565b9250508190555083826004016000828254611015919061196f565b90915550508154600181810184556000848152602080822090930186905585815281850190925260408220805460ff191690911790556003805486929061105d90849061196f565b90915550506004805490600061107283611982565b90915550506000838152600283016020526040812060010154611097908690846112a2565b90506110d360405180604001604052806018815260200177020b6b7bab73a102bb4ba341024b73a32b932b9ba1034b9960451b8152508261125d565b6110fe7f000000000000000000000000000000000000000000000000000000000000000087836113ba565b8381876001600160a01b03167f9b9970c5ed4609e15fd1dedd289d5697670692b2f58988736a098d44fd4cb3db60405160405180910390a450611256565b60008381526002830160205260408120805486929061115c90849061196f565b9250508190555083826004016000828254611177919061196f565b925050819055508360036000828254611190919061196f565b909155505060008381526002830160205260408120600101546111b5908690846112a2565b90506111f160405180604001604052806018815260200177020b6b7bab73a102bb4ba341024b73a32b932b9ba1034b9960451b8152508261125d565b61121c7f000000000000000000000000000000000000000000000000000000000000000087836113ba565b8381876001600160a01b03167f9b9970c5ed4609e15fd1dedd289d5697670692b2f58988736a098d44fd4cb3db60405160405180910390a4505b5050505050565b6104db82826040516024016112739291906119e9565b60408051601f198184030181529190526020810180516001600160e01b0316632d839cb360e21b17905261140c565b60008382036112ec576112b58285610d8a565b6112bf908561195c565b90506112e76040518060400160405280600581526020016448656c6c6f60d81b815250611415565b610761565b6113126040518060400160405280600581526020016448656c6c6f60d81b815250611415565b600061131e844261196f565b9050600061132c868561196f565b9050600061133a8588610d8a565b905061135e604051806060016040528060218152602001611ac1602191398261125d565b60008261136c896064611a0b565b6113769190611a3b565b905060006113886301dfe20084611a3b565b905060006113968683611a0b565b90506113a28382611a3b565b6113ac908b611a69565b9a9950505050505050505050565b604080516001600160a01b038416602482015260448082018490528251808303909101815260649091019091526020810180516001600160e01b031663a9059cbb60e01b1790526104d9908490611458565b610607816114bb565b610607816040516024016114299190611a91565b60408051601f198184030181529190526020810180516001600160e01b031663104c13eb60e21b17905261140c565b600061146d6001600160a01b038416836114dc565b9050805160001415801561149257508080602001905181019061149091906116ad565b155b156104d957604051635274afe760e01b81526001600160a01b0384166004820152602401610557565b60006a636f6e736f6c652e6c6f679050600080835160208501845afa505050565b60606107618383600084600080856001600160a01b031684866040516115029190611aa4565b60006040518083038185875af1925050503d806000811461153f576040519150601f19603f3d011682016040523d82523d6000602084013e611544565b606091505b509150915061155486838361155e565b9695505050505050565b60608261156e576112e7826115b5565b815115801561158557506001600160a01b0384163b155b156115ae57604051639996b31560e01b81526001600160a01b0385166004820152602401610557565b5080610761565b8051156115c55780518082602001fd5b604051630a12f52160e11b815260040160405180910390fd5b80356001600160a01b03811681146115f557600080fd5b919050565b6000806040838503121561160d57600080fd5b611616836115de565b946020939093013593505050565b60006020828403121561163657600080fd5b610761826115de565b6000806040838503121561165257600080fd5b50508035926020909101359150565b60008060006060848603121561167657600080fd5b61167f846115de565b95602085013595506040909401359392505050565b6000602082840312156116a657600080fd5b5051919050565b6000602082840312156116bf57600080fd5b8151801515811461076157600080fd5b60208082526022908201527f4f6e6c7920726f757465722063616e2063616c6c20746869732066756e63746960408201526137b760f11b606082015260800190565b805169ffffffffffffffffffff811681146115f557600080fd5b600080600080600060a0868803121561174357600080fd5b61174c86611711565b945060208601519350604086015192506060860151915061176f60808701611711565b90509295509295909350565b60006020828403121561178d57600080fd5b815160ff8116811461076157600080fd5b634e487b7160e01b600052601160045260246000fd5b80820281158282048414176103685761036861179e565b634e487b7160e01b600052601260045260246000fd5b6000826117f0576117f06117cb565b500490565b60ff82811682821603908111156103685761036861179e565b600181815b8085111561184957816000190482111561182f5761182f61179e565b8085161561183c57918102915b93841c9390800290611813565b509250929050565b60008261186057506001610368565b8161186d57506000610368565b8160018114611883576002811461188d576118a9565b6001915050610368565b60ff84111561189e5761189e61179e565b50506001821b610368565b5060208310610133831016604e8410600b84101617156118cc575081810a610368565b6118d6838361180e565b80600019048211156118ea576118ea61179e565b029392505050565b600061076160ff841683611851565b60208082526022908201527f4f6e6c7920526f757465722063616e2063616c6c20746869732066756e63746960408201526137b760f11b606082015260800190565b6000600182016119555761195561179e565b5060010190565b808201808211156103685761036861179e565b818103818111156103685761036861179e565b6000816119915761199161179e565b506000190190565b60005b838110156119b457818101518382015260200161199c565b50506000910152565b600081518084526119d5816020860160208601611999565b601f01601f19169290920160200192915050565b6040815260006119fc60408301856119bd565b90508260208301529392505050565b80820260008212600160ff1b84141615611a2757611a2761179e565b81810583148215176103685761036861179e565b600082611a4a57611a4a6117cb565b600160ff1b821460001984141615611a6457611a6461179e565b500590565b8082018281126000831280158216821582161715611a8957611a8961179e565b505092915050565b60208152600061076160208301846119bd565b60008251611ab6818460208701611999565b919091019291505056fe546f74616c204163637275656420496e74657265737420416d6f756e7420697320a264697066735822122049a2b0b9965457d9a5fbb40730ae76dde182dcf52136693377c07ad64c0baea864736f6c63430008190033","linkReferences":{}},"methodIdentifiers":{"FlashLoan(address,uint256)":"134bde11","assetAddress()":"1ba46cfd","depositCollateral(address,uint256)":"a5d5db0c","depositLiquidityAndMintTokens(address,uint256)":"62fb2e84","getBorrowableAmountBasedOnUSDAmount(address,uint256)":"cb8284d0","getCollateralAmount(address)":"654c6295","getCollateralValueInUSD(address)":"877db9dd","getDepositInterestRate()":"b1a93393","getDepositValueInUSD(address)":"5de0a9af","getIndividualDepositAmount(address,uint256)":"08586317","getRouter()":"b0f479a1","getTotalDepositAmount(address)":"27f9c4c1","getTotalInterestAmount(uint256,uint256)":"ac5f8359","getTotalUserCounter()":"248c181b","getTotalUserDeposits()":"a1303616","lendingTokenAddress()":"12945721","poolFactoryAddress()":"a32cf536","priceFeedAddress()":"e0abca0b","withdrawLiquidity(address,uint256,uint256)":"ea999dff","withdrawTotalAmount(address)":"220a36b6"},"id":4}