{"abi":[{"type":"constructor","inputs":[{"name":"token","type":"address","internalType":"address"},{"name":"priceFeed","type":"address","internalType":"address"},{"name":"router","type":"address","internalType":"address"},{"name":"lendToken","type":"address","internalType":"address"}],"stateMutability":"nonpayable"},{"type":"function","name":"FlashLoan","inputs":[{"name":"receiver","type":"address","internalType":"address"},{"name":"amount","type":"uint256","internalType":"uint256"}],"outputs":[],"stateMutability":"nonpayable"},{"type":"function","name":"assetAddress","inputs":[],"outputs":[{"name":"","type":"address","internalType":"address"}],"stateMutability":"view"},{"type":"function","name":"depositCollateral","inputs":[{"name":"depositor","type":"address","internalType":"address"},{"name":"amount","type":"uint256","internalType":"uint256"}],"outputs":[],"stateMutability":"nonpayable"},{"type":"function","name":"depositLiquidityAndMintTokens","inputs":[{"name":"depositor","type":"address","internalType":"address"},{"name":"amount","type":"uint256","internalType":"uint256"}],"outputs":[],"stateMutability":"nonpayable"},{"type":"function","name":"getBorrowableAmountBasedOnUSDAmount","inputs":[{"name":"user","type":"address","internalType":"address"},{"name":"collateralInUSD","type":"uint256","internalType":"uint256"}],"outputs":[{"name":"value","type":"uint256","internalType":"uint256"}],"stateMutability":"view"},{"type":"function","name":"getCollateralAmount","inputs":[{"name":"user","type":"address","internalType":"address"}],"outputs":[{"name":"","type":"uint256","internalType":"uint256"}],"stateMutability":"view"},{"type":"function","name":"getCollateralValueInUSD","inputs":[{"name":"user","type":"address","internalType":"address"}],"outputs":[{"name":"","type":"uint256","internalType":"uint256"}],"stateMutability":"view"},{"type":"function","name":"getDepositInterestRate","inputs":[],"outputs":[{"name":"","type":"uint256","internalType":"uint256"}],"stateMutability":"pure"},{"type":"function","name":"getDepositValueInUSD","inputs":[{"name":"user","type":"address","internalType":"address"}],"outputs":[{"name":"","type":"uint256","internalType":"uint256"}],"stateMutability":"view"},{"type":"function","name":"getIndividualDepositAmount","inputs":[{"name":"user","type":"address","internalType":"address"},{"name":"depositId","type":"uint256","internalType":"uint256"}],"outputs":[{"name":"","type":"uint256","internalType":"uint256"}],"stateMutability":"view"},{"type":"function","name":"getRouter","inputs":[],"outputs":[{"name":"","type":"address","internalType":"address"}],"stateMutability":"view"},{"type":"function","name":"getTotalDepositAmount","inputs":[{"name":"user","type":"address","internalType":"address"}],"outputs":[{"name":"","type":"uint256","internalType":"uint256"}],"stateMutability":"view"},{"type":"function","name":"getTotalInterestAmount","inputs":[{"name":"BalAMount","type":"uint256","internalType":"uint256"},{"name":"amount","type":"uint256","internalType":"uint256"}],"outputs":[{"name":"","type":"uint256","internalType":"uint256"}],"stateMutability":"view"},{"type":"function","name":"getTotalUserCounter","inputs":[],"outputs":[{"name":"","type":"uint256","internalType":"uint256"}],"stateMutability":"view"},{"type":"function","name":"getTotalUserDeposits","inputs":[],"outputs":[{"name":"","type":"uint256","internalType":"uint256"}],"stateMutability":"view"},{"type":"function","name":"getValueInUSD","inputs":[{"name":"amount","type":"uint256","internalType":"uint256"}],"outputs":[{"name":"","type":"uint256","internalType":"uint256"}],"stateMutability":"view"},{"type":"function","name":"lendingTokenAddress","inputs":[],"outputs":[{"name":"","type":"address","internalType":"address"}],"stateMutability":"view"},{"type":"function","name":"poolFactoryAddress","inputs":[],"outputs":[{"name":"","type":"address","internalType":"address"}],"stateMutability":"view"},{"type":"function","name":"priceFeedAddress","inputs":[],"outputs":[{"name":"","type":"address","internalType":"address"}],"stateMutability":"view"},{"type":"function","name":"withdrawLiquidity","inputs":[{"name":"user","type":"address","internalType":"address"},{"name":"amount","type":"uint256","internalType":"uint256"},{"name":"depositId","type":"uint256","internalType":"uint256"}],"outputs":[],"stateMutability":"nonpayable"},{"type":"function","name":"withdrawTotalAmount","inputs":[{"name":"user","type":"address","internalType":"address"}],"outputs":[],"stateMutability":"nonpayable"},{"type":"event","name":"CollateralDeposited","inputs":[{"name":"depositor","type":"address","indexed":true,"internalType":"address"},{"name":"amount","type":"uint256","indexed":true,"internalType":"uint256"}],"anonymous":false},{"type":"event","name":"DepositLiquidity","inputs":[{"name":"depositor","type":"address","indexed":true,"internalType":"address"},{"name":"amount","type":"uint256","indexed":true,"internalType":"uint256"},{"name":"shares_minted","type":"uint256","indexed":false,"internalType":"uint256"},{"name":"depositCounter","type":"uint256","indexed":true,"internalType":"uint256"}],"anonymous":false},{"type":"event","name":"SimpleWithdraw","inputs":[{"name":"depositor","type":"address","indexed":true,"internalType":"address"},{"name":"amount","type":"uint256","indexed":true,"internalType":"uint256"},{"name":"depositCounter","type":"uint256","indexed":true,"internalType":"uint256"}],"anonymous":false},{"type":"error","name":"AddressEmptyCode","inputs":[{"name":"target","type":"address","internalType":"address"}]},{"type":"error","name":"AddressInsufficientBalance","inputs":[{"name":"account","type":"address","internalType":"address"}]},{"type":"error","name":"CoreLogic__AlreadyWithdrawn","inputs":[]},{"type":"error","name":"CoreLogic__InvalidDepositId","inputs":[]},{"type":"error","name":"CoreLogic__OnlyRouter","inputs":[]},{"type":"error","name":"CoreLogic__OutOfBalance","inputs":[]},{"type":"error","name":"FailedInnerCall","inputs":[]},{"type":"error","name":"SafeERC20FailedOperation","inputs":[{"name":"token","type":"address","internalType":"address"}]}],"bytecode":{"object":"0x61012060405234801561001157600080fd5b50604051611a81380380611a8183398101604081905261003091610073565b6001600160a01b039384166080523360a052831660c05290821660e05216610100526100c7565b80516001600160a01b038116811461006e57600080fd5b919050565b6000806000806080858703121561008957600080fd5b61009285610057565b93506100a060208601610057565b92506100ae60408601610057565b91506100bc60608601610057565b905092959194509250565b60805160a05160c05160e051610100516118f1610190600039600081816102d60152818161039601528181610507015281816105380152818161066301528181610694015281816107a3015281816107d40152818161092201526109530152600081816103160152818161088401528181610db201528181610e3a0152610ee5015260006101640152600061028a0152600081816101b3015281816103d10152818161048a01528181610a4201528181610bf701528181610d460152610f7601526118f16000f3fe608060405234801561001057600080fd5b50600436106101375760003560e01c8063877db9dd116100b8578063b0f479a11161007c578063b0f479a1146102d4578063b1a93393146102fa578063cb8284d014610301578063e0abca0b14610314578063ea999dff1461033a578063f27feeaf1461034d57600080fd5b8063877db9dd1461026d578063a130361614610280578063a32cf53614610288578063a5d5db0c146102ae578063ac5f8359146102c157600080fd5b8063248c181b116100ff578063248c181b146101ea57806327f9c4c1146101f25780635de0a9af1461021e57806362fb2e8414610231578063654c62951461024457600080fd5b8063085863171461013c5780631294572114610162578063134bde111461019c5780631ba46cfd146101b1578063220a36b6146101d7575b600080fd5b61014f61014a366004611449565b610360565b6040519081526020015b60405180910390f35b7f00000000000000000000000000000000000000000000000000000000000000005b6040516001600160a01b039091168152602001610159565b6101af6101aa366004611449565b61038c565b005b7f0000000000000000000000000000000000000000000000000000000000000000610184565b6101af6101e5366004611473565b6104fd565b60045461014f565b61014f610200366004611473565b6001600160a01b031660009081526020819052604090206004015490565b61014f61022c366004611473565b610628565b6101af61023f366004611449565b610659565b61014f610252366004611473565b6001600160a01b031660009081526001602052604090205490565b61014f61027b366004611473565b610779565b60035461014f565b7f0000000000000000000000000000000000000000000000000000000000000000610184565b6101af6102bc366004611449565b610799565b61014f6102cf36600461148e565b610863565b7f0000000000000000000000000000000000000000000000000000000000000000610184565b600361014f565b61014f61030f366004611449565b61087f565b7f0000000000000000000000000000000000000000000000000000000000000000610184565b6101af6103483660046114b0565b610918565b61014f61035b3660046114e3565b610dad565b6001600160a01b0382166000908152602081815260408083208484526002019091529020545b92915050565b6001600160a01b037f00000000000000000000000000000000000000000000000000000000000000001633036104f9576040516370a0823160e01b81523060048201527f00000000000000000000000000000000000000000000000000000000000000006001600160a01b0316906370a0823190602401602060405180830381865afa158015610420573d6000803e3d6000fd5b505050506040513d601f19601f8201168201806040525081019061044491906114fc565b81111561046457604051631ec7992b60e21b815260040160405180910390fd5b60405163a9059cbb60e01b81526001600160a01b038381166004830152602482018390527f0000000000000000000000000000000000000000000000000000000000000000169063a9059cbb906044016020604051808303816000875af11580156104d3573d6000803e3d6000fd5b505050506040513d601f19601f820116820180604052508101906104f79190611515565b505b5050565b6001600160a01b037f000000000000000000000000000000000000000000000000000000000000000016330361062557336001600160a01b037f0000000000000000000000000000000000000000000000000000000000000000161461057e5760405162461bcd60e51b815260040161057590611537565b60405180910390fd5b6001600160a01b038116600090815260208190526040812060040154905b6001600160a01b0383166000908152602081905260409020600301548110156104f7576001600160a01b03831660009081526020818152604080832084845260010190915290205460ff1661061d576001600160a01b03831660009081526020818152604080832084845260020190915290205461061b848284610918565b505b60010161059c565b50565b6001600160a01b03811660009081526020819052604081206004015481905b905061065281610dad565b9392505050565b6001600160a01b037f00000000000000000000000000000000000000000000000000000000000000001633036104f957336001600160a01b037f000000000000000000000000000000000000000000000000000000000000000016146106d15760405162461bcd60e51b815260040161057590611579565b6001600160a01b038216600081815260208181526040808320600380820180548652600283018552838620889055805486529483902042600191820155600480840180548a019055825489019092558154019055925490518581529293909285927f77b57bffc1c97e4762d78efd74300ab40a13dc946d0e09b33ead3a5b35cfa7d3910160405180910390a460038101805490600061076f836115d1565b9190505550505050565b6001600160a01b0381166000908152600160205260408120548190610647565b6001600160a01b037f00000000000000000000000000000000000000000000000000000000000000001633036104f957336001600160a01b037f000000000000000000000000000000000000000000000000000000000000000016146108115760405162461bcd60e51b815260040161057590611579565b6001600160a01b0382166000818152600160205260408082208054850190556002805485019055518392917fd7243f6f8212d5188fd054141cf6ea89cfc0d91facb8c3afe2f88a135848014291a35050565b600060025460035461087591906115ea565b61065290846115fd565b6000807f00000000000000000000000000000000000000000000000000000000000000006001600160a01b031663313ce5676040518163ffffffff1660e01b8152600401602060405180830381865afa1580156108e0573d6000803e3d6000fd5b505050506040513d601f19601f820116820180604052508101906109049190611610565b61090f906012611633565b90505092915050565b6001600160a01b037f00000000000000000000000000000000000000000000000000000000000000001633036104f757336001600160a01b037f000000000000000000000000000000000000000000000000000000000000000016146109905760405162461bcd60e51b815260040161057590611537565b6001600160a01b0383166000908152602081905260409020600301548111156109cc57604051635fe74ebf60e11b815260040160405180910390fd5b6001600160a01b03831660009081526020818152604080832084845260010190915290205460ff1615610a125760405163f6d36f9160e01b815260040160405180910390fd5b6001600160a01b0383811660009081526020819052604080822090516370a0823160e01b815230600482015290927f000000000000000000000000000000000000000000000000000000000000000016906370a0823190602401602060405180830381865afa158015610a89573d6000803e3d6000fd5b505050506040513d601f19601f82011682018060405250810190610aad91906114fc565b9050610ae26040518060400160405280601181526020017002a37ba30b6102130b630b731b29034b99607d1b81525082611053565b60008381526002830160205260409020548403610c5b57600083815260028301602052604081208054869290610b199084906115fd565b9250508190555083826004016000828254610b3491906115fd565b90915550508154600181810184556000848152602080822090930186905585815281850190925260408220805460ff1916909117905560038054869290610b7c9084906115fd565b909155505060048054906000610b918361164c565b90915550506000838152600283016020526040812060010154610bb690869084611098565b9050610bf260405180604001604052806018815260200177020b6b7bab73a102bb4ba341024b73a32b932b9ba1034b9960451b81525082611053565b610c1d7f00000000000000000000000000000000000000000000000000000000000000008783611212565b8381876001600160a01b03167f9b9970c5ed4609e15fd1dedd289d5697670692b2f58988736a098d44fd4cb3db60405160405180910390a450610da6565b6000838152600283016020526040902054841115610c8c57604051631ec7992b60e21b815260040160405180910390fd5b600083815260028301602052604081208054869290610cac9084906115fd565b9250508190555083826004016000828254610cc791906115fd565b925050819055508360036000828254610ce091906115fd565b90915550506000838152600283016020526040812060010154610d0590869084611098565b9050610d4160405180604001604052806018815260200177020b6b7bab73a102bb4ba341024b73a32b932b9ba1034b9960451b81525082611053565b610d6c7f00000000000000000000000000000000000000000000000000000000000000008783611212565b8381876001600160a01b03167f9b9970c5ed4609e15fd1dedd289d5697670692b2f58988736a098d44fd4cb3db60405160405180910390a4505b5050505050565b6000807f00000000000000000000000000000000000000000000000000000000000000006001600160a01b031663feaf968c6040518163ffffffff1660e01b815260040160a060405180830381865afa158015610e0e573d6000803e3d6000fd5b505050506040513d601f19601f82011682018060405250810190610e32919061167d565b5050509150507f00000000000000000000000000000000000000000000000000000000000000006001600160a01b031663313ce5676040518163ffffffff1660e01b8152600401602060405180830381865afa158015610e96573d6000803e3d6000fd5b505050506040513d601f19601f82011682018060405250810190610eba9190611610565b60ff16601203610ee157670de0b6b3a7640000610ed782856116cd565b61065291906116e4565b60007f00000000000000000000000000000000000000000000000000000000000000006001600160a01b031663313ce5676040518163ffffffff1660e01b8152600401602060405180830381865afa158015610f41573d6000803e3d6000fd5b505050506040513d601f19601f82011682018060405250810190610f659190611610565b610f70906012611633565b905060007f00000000000000000000000000000000000000000000000000000000000000006001600160a01b031663313ce5676040518163ffffffff1660e01b8152600401602060405180830381865afa158015610fd2573d6000803e3d6000fd5b505050506040513d601f19601f82011682018060405250810190610ff69190611610565b611001906012611633565b9050670de0b6b3a764000061101783600a6117ea565b61102190856116cd565b61102c83600a6117ea565b61103690886116cd565b61104091906116cd565b61104a91906116e4565b95945050505050565b6104f98282604051602401611069929190611849565b60408051601f198184030181529190526020810180516001600160e01b03166309710a9d60e41b179052611264565b60008382036110e2576110ab8285610863565b6110b590856115ea565b90506110dd6040518060400160405280600581526020016448656c6c6f60d81b815250611285565b610652565b6111086040518060400160405280600581526020016448656c6c6f60d81b815250611285565b600061111484426115fd565b9050600061112286856115fd565b905060006111308588610863565b905061115460405180606001604052806021815260200161189b6021913982611053565b8060000361116757869350505050610652565b6000826111758960646116cd565b61117f91906116e4565b9050806000036111d057600060646111988a60626116cd565b6111a291906116e4565b6111ac908a6115fd565b90506111ba61016d826116e4565b6111c4908a6115ea565b95505050505050610652565b60006111e06301dfe200846116e4565b905060006111ee86836116cd565b90506111fa83826116e4565b611204908b6115ea565b9a9950505050505050505050565b604080516001600160a01b038416602482015260448082018490528251808303909101815260649091019091526020810180516001600160e01b031663a9059cbb60e01b1790526104f79084906112c8565b80516a636f6e736f6c652e6c6f67602083016000808483855afa5050505050565b61062581604051602401611299919061186b565b60408051601f198184030181529190526020810180516001600160e01b031663104c13eb60e21b179052611264565b60006112dd6001600160a01b0384168361132b565b905080516000141580156113025750808060200190518101906113009190611515565b155b156104f757604051635274afe760e01b81526001600160a01b0384166004820152602401610575565b60606106528383600084600080856001600160a01b03168486604051611351919061187e565b60006040518083038185875af1925050503d806000811461138e576040519150601f19603f3d011682016040523d82523d6000602084013e611393565b606091505b50915091506113a38683836113ad565b9695505050505050565b6060826113bd576110dd82611404565b81511580156113d457506001600160a01b0384163b155b156113fd57604051639996b31560e01b81526001600160a01b0385166004820152602401610575565b5080610652565b8051156114145780518082602001fd5b604051630a12f52160e11b815260040160405180910390fd5b80356001600160a01b038116811461144457600080fd5b919050565b6000806040838503121561145c57600080fd5b6114658361142d565b946020939093013593505050565b60006020828403121561148557600080fd5b6106528261142d565b600080604083850312156114a157600080fd5b50508035926020909101359150565b6000806000606084860312156114c557600080fd5b6114ce8461142d565b95602085013595506040909401359392505050565b6000602082840312156114f557600080fd5b5035919050565b60006020828403121561150e57600080fd5b5051919050565b60006020828403121561152757600080fd5b8151801515811461065257600080fd5b60208082526022908201527f4f6e6c7920726f757465722063616e2063616c6c20746869732066756e63746960408201526137b760f11b606082015260800190565b60208082526022908201527f4f6e6c7920526f757465722063616e2063616c6c20746869732066756e63746960408201526137b760f11b606082015260800190565b634e487b7160e01b600052601160045260246000fd5b6000600182016115e3576115e36115bb565b5060010190565b80820180821115610386576103866115bb565b81810381811115610386576103866115bb565b60006020828403121561162257600080fd5b815160ff8116811461065257600080fd5b60ff8281168282160390811115610386576103866115bb565b60008161165b5761165b6115bb565b506000190190565b805169ffffffffffffffffffff8116811461144457600080fd5b600080600080600060a0868803121561169557600080fd5b61169e86611663565b94506020860151935060408601519250606086015191506116c160808701611663565b90509295509295909350565b8082028115828204841417610386576103866115bb565b60008261170157634e487b7160e01b600052601260045260246000fd5b500490565b600181815b80851115611741578160001904821115611727576117276115bb565b8085161561173457918102915b93841c939080029061170b565b509250929050565b60008261175857506001610386565b8161176557506000610386565b816001811461177b5760028114611785576117a1565b6001915050610386565b60ff841115611796576117966115bb565b50506001821b610386565b5060208310610133831016604e8410600b84101617156117c4575081810a610386565b6117ce8383611706565b80600019048211156117e2576117e26115bb565b029392505050565b600061065260ff841683611749565b60005b838110156118145781810151838201526020016117fc565b50506000910152565b600081518084526118358160208601602086016117f9565b601f01601f19169290920160200192915050565b60408152600061185c604083018561181d565b90508260208301529392505050565b602081526000610652602083018461181d565b600082516118908184602087016117f9565b919091019291505056fe546f74616c204163637275656420496e74657265737420416d6f756e7420697320a26469706673582212209aefac088bf06e9c8ec6da88babd96711f414a3f80fe36e42d6c67423a5de0b564736f6c63430008190033","linkReferences":{}},"methodIdentifiers":{"FlashLoan(address,uint256)":"134bde11","assetAddress()":"1ba46cfd","depositCollateral(address,uint256)":"a5d5db0c","depositLiquidityAndMintTokens(address,uint256)":"62fb2e84","getBorrowableAmountBasedOnUSDAmount(address,uint256)":"cb8284d0","getCollateralAmount(address)":"654c6295","getCollateralValueInUSD(address)":"877db9dd","getDepositInterestRate()":"b1a93393","getDepositValueInUSD(address)":"5de0a9af","getIndividualDepositAmount(address,uint256)":"08586317","getRouter()":"b0f479a1","getTotalDepositAmount(address)":"27f9c4c1","getTotalInterestAmount(uint256,uint256)":"ac5f8359","getTotalUserCounter()":"248c181b","getTotalUserDeposits()":"a1303616","getValueInUSD(uint256)":"f27feeaf","lendingTokenAddress()":"12945721","poolFactoryAddress()":"a32cf536","priceFeedAddress()":"e0abca0b","withdrawLiquidity(address,uint256,uint256)":"ea999dff","withdrawTotalAmount(address)":"220a36b6"},"id":4}