{"abi":[{"type":"constructor","inputs":[{"name":"token","type":"address","internalType":"address"},{"name":"priceFeed","type":"address","internalType":"address"},{"name":"router","type":"address","internalType":"address"},{"name":"lendToken","type":"address","internalType":"address"}],"stateMutability":"nonpayable"},{"type":"function","name":"FlashLoan","inputs":[{"name":"receiver","type":"address","internalType":"address"},{"name":"amount","type":"uint256","internalType":"uint256"}],"outputs":[],"stateMutability":"nonpayable"},{"type":"function","name":"TransferAmountToBeBorrowed","inputs":[{"name":"receiver","type":"address","internalType":"address"},{"name":"amount","type":"uint256","internalType":"uint256"}],"outputs":[],"stateMutability":"nonpayable"},{"type":"function","name":"assetAddress","inputs":[],"outputs":[{"name":"","type":"address","internalType":"address"}],"stateMutability":"view"},{"type":"function","name":"depositCollateral","inputs":[{"name":"depositor","type":"address","internalType":"address"},{"name":"amount","type":"uint256","internalType":"uint256"}],"outputs":[],"stateMutability":"nonpayable"},{"type":"function","name":"depositLiquidityAndMintTokens","inputs":[{"name":"depositor","type":"address","internalType":"address"},{"name":"amount","type":"uint256","internalType":"uint256"}],"outputs":[],"stateMutability":"nonpayable"},{"type":"function","name":"getBorrowableAmountBasedOnUSDAmount","inputs":[{"name":"user","type":"address","internalType":"address"},{"name":"collateralInUSD","type":"uint256","internalType":"uint256"}],"outputs":[{"name":"value","type":"uint256","internalType":"uint256"}],"stateMutability":"view"},{"type":"function","name":"getCollateralAmount","inputs":[{"name":"user","type":"address","internalType":"address"}],"outputs":[{"name":"","type":"uint256","internalType":"uint256"}],"stateMutability":"view"},{"type":"function","name":"getCollateralValueInUSD","inputs":[{"name":"user","type":"address","internalType":"address"}],"outputs":[{"name":"","type":"uint256","internalType":"uint256"}],"stateMutability":"view"},{"type":"function","name":"getDepositInterestRate","inputs":[],"outputs":[{"name":"","type":"uint256","internalType":"uint256"}],"stateMutability":"pure"},{"type":"function","name":"getDepositValueInUSD","inputs":[{"name":"user","type":"address","internalType":"address"}],"outputs":[{"name":"","type":"uint256","internalType":"uint256"}],"stateMutability":"view"},{"type":"function","name":"getIndividualDepositAmount","inputs":[{"name":"user","type":"address","internalType":"address"},{"name":"depositId","type":"uint256","internalType":"uint256"}],"outputs":[{"name":"","type":"uint256","internalType":"uint256"}],"stateMutability":"view"},{"type":"function","name":"getRouter","inputs":[],"outputs":[{"name":"","type":"address","internalType":"address"}],"stateMutability":"view"},{"type":"function","name":"getTotalDepositAmount","inputs":[{"name":"user","type":"address","internalType":"address"}],"outputs":[{"name":"","type":"uint256","internalType":"uint256"}],"stateMutability":"view"},{"type":"function","name":"getTotalInterestAmount","inputs":[{"name":"BalAmount","type":"uint256","internalType":"uint256"},{"name":"amount","type":"uint256","internalType":"uint256"}],"outputs":[{"name":"","type":"uint256","internalType":"uint256"}],"stateMutability":"view"},{"type":"function","name":"getTotalUserCounter","inputs":[],"outputs":[{"name":"","type":"uint256","internalType":"uint256"}],"stateMutability":"view"},{"type":"function","name":"getTotalUserDeposits","inputs":[],"outputs":[{"name":"","type":"uint256","internalType":"uint256"}],"stateMutability":"view"},{"type":"function","name":"getValueInUSD","inputs":[{"name":"amount","type":"uint256","internalType":"uint256"}],"outputs":[{"name":"","type":"uint256","internalType":"uint256"}],"stateMutability":"view"},{"type":"function","name":"lendingTokenAddress","inputs":[],"outputs":[{"name":"","type":"address","internalType":"address"}],"stateMutability":"view"},{"type":"function","name":"poolFactoryAddress","inputs":[],"outputs":[{"name":"","type":"address","internalType":"address"}],"stateMutability":"view"},{"type":"function","name":"priceFeedAddress","inputs":[],"outputs":[{"name":"","type":"address","internalType":"address"}],"stateMutability":"view"},{"type":"function","name":"withdrawLiquidity","inputs":[{"name":"user","type":"address","internalType":"address"},{"name":"amount","type":"uint256","internalType":"uint256"},{"name":"depositId","type":"uint256","internalType":"uint256"}],"outputs":[],"stateMutability":"nonpayable"},{"type":"function","name":"withdrawTotalAmount","inputs":[{"name":"user","type":"address","internalType":"address"}],"outputs":[],"stateMutability":"nonpayable"},{"type":"event","name":"CollateralDeposited","inputs":[{"name":"depositor","type":"address","indexed":true,"internalType":"address"},{"name":"amount","type":"uint256","indexed":true,"internalType":"uint256"}],"anonymous":false},{"type":"event","name":"DepositLiquidity","inputs":[{"name":"depositor","type":"address","indexed":true,"internalType":"address"},{"name":"amount","type":"uint256","indexed":true,"internalType":"uint256"},{"name":"shares_minted","type":"uint256","indexed":false,"internalType":"uint256"},{"name":"depositCounter","type":"uint256","indexed":true,"internalType":"uint256"}],"anonymous":false},{"type":"event","name":"SimpleWithdraw","inputs":[{"name":"depositor","type":"address","indexed":true,"internalType":"address"},{"name":"amount","type":"uint256","indexed":true,"internalType":"uint256"},{"name":"depositCounter","type":"uint256","indexed":true,"internalType":"uint256"}],"anonymous":false},{"type":"error","name":"AddressEmptyCode","inputs":[{"name":"target","type":"address","internalType":"address"}]},{"type":"error","name":"AddressInsufficientBalance","inputs":[{"name":"account","type":"address","internalType":"address"}]},{"type":"error","name":"CoreLogic__AlreadyWithdrawn","inputs":[]},{"type":"error","name":"CoreLogic__InvalidDepositId","inputs":[]},{"type":"error","name":"CoreLogic__OnlyRouter","inputs":[]},{"type":"error","name":"CoreLogic__OutOfBalance","inputs":[]},{"type":"error","name":"CoreLogic__TranferCallFailedInFlashLoan","inputs":[]},{"type":"error","name":"FailedInnerCall","inputs":[]},{"type":"error","name":"SafeERC20FailedOperation","inputs":[{"name":"token","type":"address","internalType":"address"}]}],"bytecode":{"object":"0x61012060405234801561001157600080fd5b50604051611b9e380380611b9e83398101604081905261003091610073565b6001600160a01b039384166080523360a052831660c05290821660e05216610100526100c7565b80516001600160a01b038116811461006e57600080fd5b919050565b6000806000806080858703121561008957600080fd5b61009285610057565b93506100a060208601610057565b92506100ae60408601610057565b91506100bc60608601610057565b905092959194509250565b60805160a05160c05160e051610100516119f96101a5600039600081816102f4015281816103b40152818161054b0152818161057c015281816106a7015281816106d8015281816107c7015281816107f8015281816108ab015281816108dc01528181610a2a0152610a5b0152600081816103340152818161098c01528181610eba01528181610f420152610fed0152600061016f015260006102a80152600081816101be015281816103ef015281816104ac0152818161084a01528181610b4a01528181610cff01528181610e4e015261107e01526119f96000f3fe608060405234801561001057600080fd5b50600436106101425760003560e01c8063877db9dd116100b8578063b0f479a11161007c578063b0f479a1146102f2578063b1a9339314610318578063cb8284d01461031f578063e0abca0b14610332578063ea999dff14610358578063f27feeaf1461036b57600080fd5b8063877db9dd1461028b578063a13036161461029e578063a32cf536146102a6578063a5d5db0c146102cc578063ac5f8359146102df57600080fd5b8063248c181b1161010a578063248c181b146101f557806327f9c4c1146101fd5780635de0a9af1461022957806362fb2e841461023c57806364d403bd1461024f578063654c62951461026257600080fd5b80630858631714610147578063129457211461016d578063134bde11146101a75780631ba46cfd146101bc578063220a36b6146101e2575b600080fd5b61015a610155366004611551565b61037e565b6040519081526020015b60405180910390f35b7f00000000000000000000000000000000000000000000000000000000000000005b6040516001600160a01b039091168152602001610164565b6101ba6101b5366004611551565b6103aa565b005b7f000000000000000000000000000000000000000000000000000000000000000061018f565b6101ba6101f036600461157b565b610541565b60045461015a565b61015a61020b36600461157b565b6001600160a01b031660009081526020819052604090206004015490565b61015a61023736600461157b565b61066c565b6101ba61024a366004611551565b61069d565b6101ba61025d366004611551565b6107bd565b61015a61027036600461157b565b6001600160a01b031660009081526001602052604090205490565b61015a61029936600461157b565b610881565b60035461015a565b7f000000000000000000000000000000000000000000000000000000000000000061018f565b6101ba6102da366004611551565b6108a1565b61015a6102ed366004611596565b61096b565b7f000000000000000000000000000000000000000000000000000000000000000061018f565b600361015a565b61015a61032d366004611551565b610987565b7f000000000000000000000000000000000000000000000000000000000000000061018f565b6101ba6103663660046115b8565b610a20565b61015a6103793660046115eb565b610eb5565b6001600160a01b0382166000908152602081815260408083208484526002019091529020545b92915050565b6001600160a01b037f000000000000000000000000000000000000000000000000000000000000000016330361053d576040516370a0823160e01b81523060048201527f00000000000000000000000000000000000000000000000000000000000000006001600160a01b0316906370a08231906024015b602060405180830381865afa15801561043f573d6000803e3d6000fd5b505050506040513d601f19601f820116820180604052508101906104639190611604565b81111561048357604051631ec7992b60e21b815260040160405180910390fd5b60405163a9059cbb60e01b81526001600160a01b038381166004830152602482018390526000917f00000000000000000000000000000000000000000000000000000000000000009091169063a9059cbb906044016020604051808303816000875af11580156104f7573d6000803e3d6000fd5b505050506040513d601f19601f8201168201806040525081019061051b919061161d565b90508061053b57604051636e81fb1760e11b815260040160405180910390fd5b505b5050565b6001600160a01b037f000000000000000000000000000000000000000000000000000000000000000016330361066957336001600160a01b037f000000000000000000000000000000000000000000000000000000000000000016146105c25760405162461bcd60e51b81526004016105b99061163f565b60405180910390fd5b6001600160a01b038116600090815260208190526040812060040154905b6001600160a01b03831660009081526020819052604090206003015481101561053b576001600160a01b03831660009081526020818152604080832084845260010190915290205460ff16610661576001600160a01b03831660009081526020818152604080832084845260020190915290205461065f848284610a20565b505b6001016105e0565b50565b6001600160a01b03811660009081526020819052604081206004015481905b905061069681610eb5565b9392505050565b6001600160a01b037f000000000000000000000000000000000000000000000000000000000000000016330361053d57336001600160a01b037f000000000000000000000000000000000000000000000000000000000000000016146107155760405162461bcd60e51b81526004016105b990611681565b6001600160a01b038216600081815260208181526040808320600380820180548652600283018552838620889055805486529483902042600191820155600480840180548a019055825489019092558154019055925490518581529293909285927f77b57bffc1c97e4762d78efd74300ab40a13dc946d0e09b33ead3a5b35cfa7d3910160405180910390a46003810180549060006107b3836116d9565b9190505550505050565b6001600160a01b037f000000000000000000000000000000000000000000000000000000000000000016330361053d57336001600160a01b037f000000000000000000000000000000000000000000000000000000000000000016146108355760405162461bcd60e51b81526004016105b99061163f565b6040516370a0823160e01b81523060048201527f00000000000000000000000000000000000000000000000000000000000000006001600160a01b0316906370a0823190602401610422565b6001600160a01b038116600090815260016020526040812054819061068b565b6001600160a01b037f000000000000000000000000000000000000000000000000000000000000000016330361053d57336001600160a01b037f000000000000000000000000000000000000000000000000000000000000000016146109195760405162461bcd60e51b81526004016105b990611681565b6001600160a01b0382166000818152600160205260408082208054850190556002805485019055518392917fd7243f6f8212d5188fd054141cf6ea89cfc0d91facb8c3afe2f88a135848014291a35050565b600060025460035461097d91906116f2565b6106969084611705565b6000807f00000000000000000000000000000000000000000000000000000000000000006001600160a01b031663313ce5676040518163ffffffff1660e01b8152600401602060405180830381865afa1580156109e8573d6000803e3d6000fd5b505050506040513d601f19601f82011682018060405250810190610a0c9190611718565b610a1790601261173b565b90505092915050565b6001600160a01b037f000000000000000000000000000000000000000000000000000000000000000016330361053b57336001600160a01b037f00000000000000000000000000000000000000000000000000000000000000001614610a985760405162461bcd60e51b81526004016105b99061163f565b6001600160a01b038316600090815260208190526040902060030154811115610ad457604051635fe74ebf60e11b815260040160405180910390fd5b6001600160a01b03831660009081526020818152604080832084845260010190915290205460ff1615610b1a5760405163f6d36f9160e01b815260040160405180910390fd5b6001600160a01b0383811660009081526020819052604080822090516370a0823160e01b815230600482015290927f000000000000000000000000000000000000000000000000000000000000000016906370a0823190602401602060405180830381865afa158015610b91573d6000803e3d6000fd5b505050506040513d601f19601f82011682018060405250810190610bb59190611604565b9050610bea6040518060400160405280601181526020017002a37ba30b6102130b630b731b29034b99607d1b8152508261115b565b60008381526002830160205260409020548403610d6357600083815260028301602052604081208054869290610c21908490611705565b9250508190555083826004016000828254610c3c9190611705565b90915550508154600181810184556000848152602080822090930186905585815281850190925260408220805460ff1916909117905560038054869290610c84908490611705565b909155505060048054906000610c9983611754565b90915550506000838152600283016020526040812060010154610cbe908690846111a0565b9050610cfa60405180604001604052806018815260200177020b6b7bab73a102bb4ba341024b73a32b932b9ba1034b9960451b8152508261115b565b610d257f0000000000000000000000000000000000000000000000000000000000000000878361131a565b8381876001600160a01b03167f9b9970c5ed4609e15fd1dedd289d5697670692b2f58988736a098d44fd4cb3db60405160405180910390a450610eae565b6000838152600283016020526040902054841115610d9457604051631ec7992b60e21b815260040160405180910390fd5b600083815260028301602052604081208054869290610db4908490611705565b9250508190555083826004016000828254610dcf9190611705565b925050819055508360036000828254610de89190611705565b90915550506000838152600283016020526040812060010154610e0d908690846111a0565b9050610e4960405180604001604052806018815260200177020b6b7bab73a102bb4ba341024b73a32b932b9ba1034b9960451b8152508261115b565b610e747f0000000000000000000000000000000000000000000000000000000000000000878361131a565b8381876001600160a01b03167f9b9970c5ed4609e15fd1dedd289d5697670692b2f58988736a098d44fd4cb3db60405160405180910390a4505b5050505050565b6000807f00000000000000000000000000000000000000000000000000000000000000006001600160a01b031663feaf968c6040518163ffffffff1660e01b815260040160a060405180830381865afa158015610f16573d6000803e3d6000fd5b505050506040513d601f19601f82011682018060405250810190610f3a9190611785565b5050509150507f00000000000000000000000000000000000000000000000000000000000000006001600160a01b031663313ce5676040518163ffffffff1660e01b8152600401602060405180830381865afa158015610f9e573d6000803e3d6000fd5b505050506040513d601f19601f82011682018060405250810190610fc29190611718565b60ff16601203610fe957670de0b6b3a7640000610fdf82856117d5565b61069691906117ec565b60007f00000000000000000000000000000000000000000000000000000000000000006001600160a01b031663313ce5676040518163ffffffff1660e01b8152600401602060405180830381865afa158015611049573d6000803e3d6000fd5b505050506040513d601f19601f8201168201806040525081019061106d9190611718565b61107890601261173b565b905060007f00000000000000000000000000000000000000000000000000000000000000006001600160a01b031663313ce5676040518163ffffffff1660e01b8152600401602060405180830381865afa1580156110da573d6000803e3d6000fd5b505050506040513d601f19601f820116820180604052508101906110fe9190611718565b61110990601261173b565b9050670de0b6b3a764000061111f83600a6118f2565b61112990856117d5565b61113483600a6118f2565b61113e90886117d5565b61114891906117d5565b61115291906117ec565b95945050505050565b61053d8282604051602401611171929190611951565b60408051601f198184030181529190526020810180516001600160e01b03166309710a9d60e41b17905261136c565b60008382036111ea576111b3828561096b565b6111bd90856116f2565b90506111e56040518060400160405280600581526020016448656c6c6f60d81b81525061138d565b610696565b6112106040518060400160405280600581526020016448656c6c6f60d81b81525061138d565b600061121c8442611705565b9050600061122a8685611705565b90506000611238858861096b565b905061125c6040518060600160405280602181526020016119a3602191398261115b565b8060000361126f57869350505050610696565b60008261127d8960646117d5565b61128791906117ec565b9050806000036112d857600060646112a08a60626117d5565b6112aa91906117ec565b6112b4908a611705565b90506112c261016d826117ec565b6112cc908a6116f2565b95505050505050610696565b60006112e86301dfe200846117ec565b905060006112f686836117d5565b905061130283826117ec565b61130c908b6116f2565b9a9950505050505050505050565b604080516001600160a01b038416602482015260448082018490528251808303909101815260649091019091526020810180516001600160e01b031663a9059cbb60e01b17905261053b9084906113d0565b80516a636f6e736f6c652e6c6f67602083016000808483855afa5050505050565b610669816040516024016113a19190611973565b60408051601f198184030181529190526020810180516001600160e01b031663104c13eb60e21b17905261136c565b60006113e56001600160a01b03841683611433565b9050805160001415801561140a575080806020019051810190611408919061161d565b155b1561053b57604051635274afe760e01b81526001600160a01b03841660048201526024016105b9565b60606106968383600084600080856001600160a01b031684866040516114599190611986565b60006040518083038185875af1925050503d8060008114611496576040519150601f19603f3d011682016040523d82523d6000602084013e61149b565b606091505b50915091506114ab8683836114b5565b9695505050505050565b6060826114c5576111e58261150c565b81511580156114dc57506001600160a01b0384163b155b1561150557604051639996b31560e01b81526001600160a01b03851660048201526024016105b9565b5080610696565b80511561151c5780518082602001fd5b604051630a12f52160e11b815260040160405180910390fd5b80356001600160a01b038116811461154c57600080fd5b919050565b6000806040838503121561156457600080fd5b61156d83611535565b946020939093013593505050565b60006020828403121561158d57600080fd5b61069682611535565b600080604083850312156115a957600080fd5b50508035926020909101359150565b6000806000606084860312156115cd57600080fd5b6115d684611535565b95602085013595506040909401359392505050565b6000602082840312156115fd57600080fd5b5035919050565b60006020828403121561161657600080fd5b5051919050565b60006020828403121561162f57600080fd5b8151801515811461069657600080fd5b60208082526022908201527f4f6e6c7920726f757465722063616e2063616c6c20746869732066756e63746960408201526137b760f11b606082015260800190565b60208082526022908201527f4f6e6c7920526f757465722063616e2063616c6c20746869732066756e63746960408201526137b760f11b606082015260800190565b634e487b7160e01b600052601160045260246000fd5b6000600182016116eb576116eb6116c3565b5060010190565b808201808211156103a4576103a46116c3565b818103818111156103a4576103a46116c3565b60006020828403121561172a57600080fd5b815160ff8116811461069657600080fd5b60ff82811682821603908111156103a4576103a46116c3565b600081611763576117636116c3565b506000190190565b805169ffffffffffffffffffff8116811461154c57600080fd5b600080600080600060a0868803121561179d57600080fd5b6117a68661176b565b94506020860151935060408601519250606086015191506117c96080870161176b565b90509295509295909350565b80820281158282048414176103a4576103a46116c3565b60008261180957634e487b7160e01b600052601260045260246000fd5b500490565b600181815b8085111561184957816000190482111561182f5761182f6116c3565b8085161561183c57918102915b93841c9390800290611813565b509250929050565b600082611860575060016103a4565b8161186d575060006103a4565b8160018114611883576002811461188d576118a9565b60019150506103a4565b60ff84111561189e5761189e6116c3565b50506001821b6103a4565b5060208310610133831016604e8410600b84101617156118cc575081810a6103a4565b6118d6838361180e565b80600019048211156118ea576118ea6116c3565b029392505050565b600061069660ff841683611851565b60005b8381101561191c578181015183820152602001611904565b50506000910152565b6000815180845261193d816020860160208601611901565b601f01601f19169290920160200192915050565b6040815260006119646040830185611925565b90508260208301529392505050565b6020815260006106966020830184611925565b60008251611998818460208701611901565b919091019291505056fe546f74616c204163637275656420496e74657265737420416d6f756e7420697320a26469706673582212205c9446da5f6d0fe9f5fbd9a42702d4fab7c8a4f8104138382ab06b70b4deb21c64736f6c63430008190033","linkReferences":{}},"methodIdentifiers":{"FlashLoan(address,uint256)":"134bde11","TransferAmountToBeBorrowed(address,uint256)":"64d403bd","assetAddress()":"1ba46cfd","depositCollateral(address,uint256)":"a5d5db0c","depositLiquidityAndMintTokens(address,uint256)":"62fb2e84","getBorrowableAmountBasedOnUSDAmount(address,uint256)":"cb8284d0","getCollateralAmount(address)":"654c6295","getCollateralValueInUSD(address)":"877db9dd","getDepositInterestRate()":"b1a93393","getDepositValueInUSD(address)":"5de0a9af","getIndividualDepositAmount(address,uint256)":"08586317","getRouter()":"b0f479a1","getTotalDepositAmount(address)":"27f9c4c1","getTotalInterestAmount(uint256,uint256)":"ac5f8359","getTotalUserCounter()":"248c181b","getTotalUserDeposits()":"a1303616","getValueInUSD(uint256)":"f27feeaf","lendingTokenAddress()":"12945721","poolFactoryAddress()":"a32cf536","priceFeedAddress()":"e0abca0b","withdrawLiquidity(address,uint256,uint256)":"ea999dff","withdrawTotalAmount(address)":"220a36b6"},"id":4}