{"abi":[{"type":"constructor","inputs":[{"name":"token","type":"address","internalType":"address"},{"name":"priceFeed","type":"address","internalType":"address"},{"name":"router","type":"address","internalType":"address"},{"name":"lendToken","type":"address","internalType":"address"}],"stateMutability":"nonpayable"},{"type":"function","name":"FlashLoan","inputs":[{"name":"receiver","type":"address","internalType":"address"},{"name":"amount","type":"uint256","internalType":"uint256"}],"outputs":[],"stateMutability":"nonpayable"},{"type":"function","name":"assetAddress","inputs":[],"outputs":[{"name":"","type":"address","internalType":"address"}],"stateMutability":"view"},{"type":"function","name":"depositCollateral","inputs":[{"name":"depositor","type":"address","internalType":"address"},{"name":"amount","type":"uint256","internalType":"uint256"}],"outputs":[],"stateMutability":"nonpayable"},{"type":"function","name":"depositLiquidityAndMintTokens","inputs":[{"name":"depositor","type":"address","internalType":"address"},{"name":"amount","type":"uint256","internalType":"uint256"}],"outputs":[],"stateMutability":"nonpayable"},{"type":"function","name":"getBorrowableAmountBasedOnUSDAmount","inputs":[{"name":"user","type":"address","internalType":"address"},{"name":"collateralInUSD","type":"uint256","internalType":"uint256"}],"outputs":[{"name":"value","type":"uint256","internalType":"uint256"}],"stateMutability":"view"},{"type":"function","name":"getCollateralAmount","inputs":[{"name":"user","type":"address","internalType":"address"}],"outputs":[{"name":"","type":"uint256","internalType":"uint256"}],"stateMutability":"view"},{"type":"function","name":"getCollateralValueInUSD","inputs":[{"name":"user","type":"address","internalType":"address"}],"outputs":[{"name":"","type":"uint256","internalType":"uint256"}],"stateMutability":"view"},{"type":"function","name":"getDepositInterestRate","inputs":[],"outputs":[{"name":"","type":"uint256","internalType":"uint256"}],"stateMutability":"pure"},{"type":"function","name":"getDepositValueInUSD","inputs":[{"name":"user","type":"address","internalType":"address"}],"outputs":[{"name":"","type":"uint256","internalType":"uint256"}],"stateMutability":"view"},{"type":"function","name":"getIndividualDepositAmount","inputs":[{"name":"user","type":"address","internalType":"address"},{"name":"depositId","type":"uint256","internalType":"uint256"}],"outputs":[{"name":"","type":"uint256","internalType":"uint256"}],"stateMutability":"view"},{"type":"function","name":"getRouter","inputs":[],"outputs":[{"name":"","type":"address","internalType":"address"}],"stateMutability":"view"},{"type":"function","name":"getTotalDepositAmount","inputs":[{"name":"user","type":"address","internalType":"address"}],"outputs":[{"name":"depositedAmount","type":"uint256","internalType":"uint256"}],"stateMutability":"view"},{"type":"function","name":"getTotalInterestAmount","inputs":[{"name":"BalAMount","type":"uint256","internalType":"uint256"},{"name":"amount","type":"uint256","internalType":"uint256"}],"outputs":[{"name":"","type":"uint256","internalType":"uint256"}],"stateMutability":"view"},{"type":"function","name":"getTotalUserCounter","inputs":[],"outputs":[{"name":"","type":"uint256","internalType":"uint256"}],"stateMutability":"view"},{"type":"function","name":"getTotalUserDeposits","inputs":[],"outputs":[{"name":"","type":"uint256","internalType":"uint256"}],"stateMutability":"view"},{"type":"function","name":"lendingTokenAddress","inputs":[],"outputs":[{"name":"","type":"address","internalType":"address"}],"stateMutability":"view"},{"type":"function","name":"poolFactoryAddress","inputs":[],"outputs":[{"name":"","type":"address","internalType":"address"}],"stateMutability":"view"},{"type":"function","name":"priceFeedAddress","inputs":[],"outputs":[{"name":"","type":"address","internalType":"address"}],"stateMutability":"view"},{"type":"function","name":"withdrawLiquidity","inputs":[{"name":"user","type":"address","internalType":"address"},{"name":"amount","type":"uint256","internalType":"uint256"},{"name":"depositId","type":"uint256","internalType":"uint256"}],"outputs":[],"stateMutability":"nonpayable"},{"type":"function","name":"withdrawTotalAmount","inputs":[{"name":"user","type":"address","internalType":"address"}],"outputs":[],"stateMutability":"nonpayable"},{"type":"event","name":"CollateralDeposited","inputs":[{"name":"depositor","type":"address","indexed":true,"internalType":"address"},{"name":"amount","type":"uint256","indexed":true,"internalType":"uint256"}],"anonymous":false},{"type":"event","name":"DepositLiquidity","inputs":[{"name":"depositor","type":"address","indexed":true,"internalType":"address"},{"name":"amount","type":"uint256","indexed":true,"internalType":"uint256"},{"name":"shares_minted","type":"uint256","indexed":false,"internalType":"uint256"},{"name":"depositCounter","type":"uint256","indexed":true,"internalType":"uint256"}],"anonymous":false},{"type":"event","name":"SimpleWithdraw","inputs":[{"name":"depositor","type":"address","indexed":true,"internalType":"address"},{"name":"amount","type":"uint256","indexed":true,"internalType":"uint256"},{"name":"depositCounter","type":"uint256","indexed":true,"internalType":"uint256"}],"anonymous":false},{"type":"error","name":"AddressEmptyCode","inputs":[{"name":"target","type":"address","internalType":"address"}]},{"type":"error","name":"AddressInsufficientBalance","inputs":[{"name":"account","type":"address","internalType":"address"}]},{"type":"error","name":"CoreLogic__InvalidDepositId","inputs":[]},{"type":"error","name":"CoreLogic__OnlyRouter","inputs":[]},{"type":"error","name":"CoreLogic__OutOfBalance","inputs":[]},{"type":"error","name":"FailedInnerCall","inputs":[]},{"type":"error","name":"SafeERC20FailedOperation","inputs":[{"name":"token","type":"address","internalType":"address"}]}],"bytecode":{"object":"0x61012060405234801561001157600080fd5b50604051612dbe380380612dbe833981810160405281019061003391906101a4565b8373ffffffffffffffffffffffffffffffffffffffff1660808173ffffffffffffffffffffffffffffffffffffffff16815250503373ffffffffffffffffffffffffffffffffffffffff1660a08173ffffffffffffffffffffffffffffffffffffffff16815250508073ffffffffffffffffffffffffffffffffffffffff1660c08173ffffffffffffffffffffffffffffffffffffffff16815250508273ffffffffffffffffffffffffffffffffffffffff1660e08173ffffffffffffffffffffffffffffffffffffffff16815250508173ffffffffffffffffffffffffffffffffffffffff166101008173ffffffffffffffffffffffffffffffffffffffff16815250505050505061020b565b600080fd5b600073ffffffffffffffffffffffffffffffffffffffff82169050919050565b600061017182610146565b9050919050565b61018181610166565b811461018c57600080fd5b50565b60008151905061019e81610178565b92915050565b600080600080608085870312156101be576101bd610141565b5b60006101cc8782880161018f565b94505060206101dd8782880161018f565b93505060406101ee8782880161018f565b92505060606101ff8782880161018f565b91505092959194509250565b60805160a05160c05160e05161010051612ace6102f06000396000818161048701528181610679015281816106cc01528181610be401528181610c370152818161116a015281816111bd015281816113180152818161141601526114690152600081816108e90152818161098001528181610a4801528181610e3d01528181610ed401528181610f9c0152818161134a01526113f001526000610461015260006111440152600081816104da015281816105ad0152818161065301528181610ae70152818161103b015281816115b6015281816117ed015261192c0152612ace6000f3fe608060405234801561001057600080fd5b506004361061012c5760003560e01c8063877db9dd116100ad578063b0f479a111610071578063b0f479a114610357578063b1a9339314610375578063cb8284d014610393578063e0abca0b146103c3578063ea999dff146103e15761012c565b8063877db9dd1461029f578063a1303616146102cf578063a32cf536146102ed578063a5d5db0c1461030b578063ac5f8359146103275761012c565b8063248c181b116100f4578063248c181b146101d557806327f9c4c1146101f35780635de0a9af1461022357806362fb2e8414610253578063654c62951461026f5761012c565b806308586317146101315780631294572114610161578063134bde111461017f5780631ba46cfd1461019b578063220a36b6146101b9575b600080fd5b61014b60048036038101906101469190611fe4565b6103fd565b6040516101589190612033565b60405180910390f35b61016961045d565b604051610176919061205d565b60405180910390f35b61019960048036038101906101949190611fe4565b610485565b005b6101a361064f565b6040516101b0919061205d565b60405180910390f35b6101d360048036038101906101ce9190612078565b610677565b005b6101dd61088f565b6040516101ea9190612033565b60405180910390f35b61020d60048036038101906102089190612078565b610899565b60405161021a9190612033565b60405180910390f35b61023d60048036038101906102389190612078565b6108e4565b60405161024a9190612033565b60405180910390f35b61026d60048036038101906102689190611fe4565b610be2565b005b61028960048036038101906102849190612078565b610def565b6040516102969190612033565b60405180910390f35b6102b960048036038101906102b49190612078565b610e38565b6040516102c69190612033565b60405180910390f35b6102d7611136565b6040516102e49190612033565b60405180910390f35b6102f5611140565b604051610302919061205d565b60405180910390f35b61032560048036038101906103209190611fe4565b611168565b005b610341600480360381019061033c91906120a5565b6112ef565b60405161034e9190612033565b60405180910390f35b61035f611314565b60405161036c919061205d565b60405180910390f35b61037d61133c565b60405161038a9190612033565b60405180910390f35b6103ad60048036038101906103a89190611fe4565b611345565b6040516103ba9190612033565b60405180910390f35b6103cb6113ec565b6040516103d8919061205d565b60405180910390f35b6103fb60048036038101906103f691906120e5565b611414565b005b60008060008473ffffffffffffffffffffffffffffffffffffffff1673ffffffffffffffffffffffffffffffffffffffff168152602001908152602001600020600201600083815260200190815260200160002060000154905092915050565b60007f0000000000000000000000000000000000000000000000000000000000000000905090565b7f000000000000000000000000000000000000000000000000000000000000000073ffffffffffffffffffffffffffffffffffffffff163373ffffffffffffffffffffffffffffffffffffffff160361064b577f000000000000000000000000000000000000000000000000000000000000000073ffffffffffffffffffffffffffffffffffffffff166370a08231306040518263ffffffff1660e01b8152600401610531919061205d565b602060405180830381865afa15801561054e573d6000803e3d6000fd5b505050506040513d601f19601f82011682018060405250810190610572919061214d565b8111156105ab576040517f7b1e64ac00000000000000000000000000000000000000000000000000000000815260040160405180910390fd5b7f000000000000000000000000000000000000000000000000000000000000000073ffffffffffffffffffffffffffffffffffffffff1663a9059cbb83836040518363ffffffff1660e01b815260040161060692919061217a565b6020604051808303816000875af1158015610625573d6000803e3d6000fd5b505050506040513d601f19601f8201168201806040525081019061064991906121db565b505b5050565b60007f0000000000000000000000000000000000000000000000000000000000000000905090565b7f000000000000000000000000000000000000000000000000000000000000000073ffffffffffffffffffffffffffffffffffffffff163373ffffffffffffffffffffffffffffffffffffffff160361088c577f000000000000000000000000000000000000000000000000000000000000000073ffffffffffffffffffffffffffffffffffffffff163373ffffffffffffffffffffffffffffffffffffffff1614610758576040517f08c379a000000000000000000000000000000000000000000000000000000000815260040161074f9061228b565b60405180910390fd5b600061076382610899565b905060005b6000808473ffffffffffffffffffffffffffffffffffffffff1673ffffffffffffffffffffffffffffffffffffffff16815260200190815260200160002060030154811015610889576000808473ffffffffffffffffffffffffffffffffffffffff1673ffffffffffffffffffffffffffffffffffffffff168152602001908152602001600020600101600082815260200190815260200160002060009054906101000a900460ff1661087c5760008060008573ffffffffffffffffffffffffffffffffffffffff1673ffffffffffffffffffffffffffffffffffffffff168152602001908152602001600020600201600083815260200190815260200160002060000154905061087a848284611414565b505b8080600101915050610768565b50505b50565b6000600454905090565b60008060008373ffffffffffffffffffffffffffffffffffffffff1673ffffffffffffffffffffffffffffffffffffffff168152602001908152602001600020600401549050919050565b6000807f000000000000000000000000000000000000000000000000000000000000000073ffffffffffffffffffffffffffffffffffffffff1663feaf968c6040518163ffffffff1660e01b815260040160a060405180830381865afa158015610952573d6000803e3d6000fd5b505050506040513d601f19601f820116820180604052508101906109769190612323565b50505091505060127f000000000000000000000000000000000000000000000000000000000000000073ffffffffffffffffffffffffffffffffffffffff1663313ce5676040518163ffffffff1660e01b8152600401602060405180830381865afa1580156109e9573d6000803e3d6000fd5b505050506040513d601f19601f82011682018060405250810190610a0d91906123d7565b60ff1603610a4457670de0b6b3a764000081610a2885610899565b610a329190612433565b610a3c91906124a4565b915050610bdd565b60007f000000000000000000000000000000000000000000000000000000000000000073ffffffffffffffffffffffffffffffffffffffff1663313ce5676040518163ffffffff1660e01b8152600401602060405180830381865afa158015610ab1573d6000803e3d6000fd5b505050506040513d601f19601f82011682018060405250810190610ad591906123d7565b6012610ae191906124d5565b905060007f000000000000000000000000000000000000000000000000000000000000000073ffffffffffffffffffffffffffffffffffffffff1663313ce5676040518163ffffffff1660e01b8152600401602060405180830381865afa158015610b50573d6000803e3d6000fd5b505050506040513d601f19601f82011682018060405250810190610b7491906123d7565b6012610b8091906124d5565b9050670de0b6b3a764000082600a610b98919061263d565b84610ba39190612433565b82600a610bb0919061263d565b610bb988610899565b610bc39190612433565b610bcd9190612433565b610bd791906124a4565b93505050505b919050565b7f000000000000000000000000000000000000000000000000000000000000000073ffffffffffffffffffffffffffffffffffffffff163373ffffffffffffffffffffffffffffffffffffffff1603610deb577f000000000000000000000000000000000000000000000000000000000000000073ffffffffffffffffffffffffffffffffffffffff163373ffffffffffffffffffffffffffffffffffffffff1614610cc3576040517f08c379a0000000000000000000000000000000000000000000000000000000008152600401610cba906126fa565b60405180910390fd5b60008060008473ffffffffffffffffffffffffffffffffffffffff1673ffffffffffffffffffffffffffffffffffffffff1681526020019081526020016000209050818160020160008360030154815260200190815260200160002060000181905550428160020160008360030154815260200190815260200160002060010181905550818160040160008282540192505081905550816003600082825401925050819055506004600081548092919060010191905055508060030154828473ffffffffffffffffffffffffffffffffffffffff167f77b57bffc1c97e4762d78efd74300ab40a13dc946d0e09b33ead3a5b35cfa7d385604051610dc79190612033565b60405180910390a4806003016000815480929190610de49061271a565b9190505550505b5050565b6000600160008373ffffffffffffffffffffffffffffffffffffffff1673ffffffffffffffffffffffffffffffffffffffff168152602001908152602001600020549050919050565b6000807f000000000000000000000000000000000000000000000000000000000000000073ffffffffffffffffffffffffffffffffffffffff1663feaf968c6040518163ffffffff1660e01b815260040160a060405180830381865afa158015610ea6573d6000803e3d6000fd5b505050506040513d601f19601f82011682018060405250810190610eca9190612323565b50505091505060127f000000000000000000000000000000000000000000000000000000000000000073ffffffffffffffffffffffffffffffffffffffff1663313ce5676040518163ffffffff1660e01b8152600401602060405180830381865afa158015610f3d573d6000803e3d6000fd5b505050506040513d601f19601f82011682018060405250810190610f6191906123d7565b60ff1603610f9857670de0b6b3a764000081610f7c85610def565b610f869190612433565b610f9091906124a4565b915050611131565b60007f000000000000000000000000000000000000000000000000000000000000000073ffffffffffffffffffffffffffffffffffffffff1663313ce5676040518163ffffffff1660e01b8152600401602060405180830381865afa158015611005573d6000803e3d6000fd5b505050506040513d601f19601f8201168201806040525081019061102991906123d7565b601261103591906124d5565b905060007f000000000000000000000000000000000000000000000000000000000000000073ffffffffffffffffffffffffffffffffffffffff1663313ce5676040518163ffffffff1660e01b8152600401602060405180830381865afa1580156110a4573d6000803e3d6000fd5b505050506040513d601f19601f820116820180604052508101906110c891906123d7565b60126110d491906124d5565b9050670de0b6b3a764000082600a6110ec919061263d565b846110f79190612433565b82600a611104919061263d565b61110d88610def565b6111179190612433565b6111219190612433565b61112b91906124a4565b93505050505b919050565b6000600354905090565b60007f0000000000000000000000000000000000000000000000000000000000000000905090565b7f000000000000000000000000000000000000000000000000000000000000000073ffffffffffffffffffffffffffffffffffffffff163373ffffffffffffffffffffffffffffffffffffffff16036112eb577f000000000000000000000000000000000000000000000000000000000000000073ffffffffffffffffffffffffffffffffffffffff163373ffffffffffffffffffffffffffffffffffffffff1614611249576040517f08c379a0000000000000000000000000000000000000000000000000000000008152600401611240906126fa565b60405180910390fd5b80600160008473ffffffffffffffffffffffffffffffffffffffff1673ffffffffffffffffffffffffffffffffffffffff1681526020019081526020016000206000828254019250508190555080600260008282540192505081905550808273ffffffffffffffffffffffffffffffffffffffff167fd7243f6f8212d5188fd054141cf6ea89cfc0d91facb8c3afe2f88a135848014260405160405180910390a35b5050565b60006002546003546113019190612762565b8361130c9190612796565b905092915050565b60007f0000000000000000000000000000000000000000000000000000000000000000905090565b60006003905090565b6000807f000000000000000000000000000000000000000000000000000000000000000073ffffffffffffffffffffffffffffffffffffffff1663313ce5676040518163ffffffff1660e01b8152600401602060405180830381865afa1580156113b3573d6000803e3d6000fd5b505050506040513d601f19601f820116820180604052508101906113d791906123d7565b60126113e391906124d5565b90505092915050565b60007f0000000000000000000000000000000000000000000000000000000000000000905090565b7f000000000000000000000000000000000000000000000000000000000000000073ffffffffffffffffffffffffffffffffffffffff163373ffffffffffffffffffffffffffffffffffffffff160361199c577f000000000000000000000000000000000000000000000000000000000000000073ffffffffffffffffffffffffffffffffffffffff163373ffffffffffffffffffffffffffffffffffffffff16146114f5576040517f08c379a00000000000000000000000000000000000000000000000000000000081526004016114ec9061228b565b60405180910390fd5b806000808573ffffffffffffffffffffffffffffffffffffffff1673ffffffffffffffffffffffffffffffffffffffff168152602001908152602001600020600301541015611570576040517fbfce9d7e00000000000000000000000000000000000000000000000000000000815260040160405180910390fd5b60008060008573ffffffffffffffffffffffffffffffffffffffff1673ffffffffffffffffffffffffffffffffffffffff168152602001908152602001600020905060007f000000000000000000000000000000000000000000000000000000000000000073ffffffffffffffffffffffffffffffffffffffff166370a08231306040518263ffffffff1660e01b815260040161160d919061205d565b602060405180830381865afa15801561162a573d6000803e3d6000fd5b505050506040513d601f19601f8201168201806040525081019061164e919061214d565b905061168f6040518060400160405280601181526020017f546f74616c2042616c616e636520697320000000000000000000000000000000815250826119a1565b81600201600084815260200190815260200160002060000154840361185e578382600201600085815260200190815260200160002060000160008282546116d69190612796565b92505081905550838260040160008282546116f19190612796565b9250508190555081600001839080600181540180825580915050600190039060005260206000200160009091909190915055600182600101600085815260200190815260200160002060006101000a81548160ff02191690831515021790555083600360008282546117639190612796565b925050819055506004600081548092919061177d906127ca565b919050555060006117a7858460020160008781526020019081526020016000206001015484611a3d565b90506117e86040518060400160405280601881526020017f416d6f756e74205769746820496e746572657374206973200000000000000000815250826119a1565b6118137f00000000000000000000000000000000000000000000000000000000000000008783611b95565b83818773ffffffffffffffffffffffffffffffffffffffff167f9b9970c5ed4609e15fd1dedd289d5697670692b2f58988736a098d44fd4cb3db60405160405180910390a450611999565b8382600201600085815260200190815260200160002060000160008282546118869190612796565b92505081905550838260040160008282546118a19190612796565b9250508190555083600360008282546118ba9190612796565b9250508190555060006118e6858460020160008781526020019081526020016000206001015484611a3d565b90506119276040518060400160405280601881526020017f416d6f756e74205769746820496e746572657374206973200000000000000000815250826119a1565b6119527f00000000000000000000000000000000000000000000000000000000000000008783611b95565b83818773ffffffffffffffffffffffffffffffffffffffff167f9b9970c5ed4609e15fd1dedd289d5697670692b2f58988736a098d44fd4cb3db60405160405180910390a4505b50505b505050565b611a3982826040516024016119b7929190612872565b6040516020818303038152906040527fb60e72cc000000000000000000000000000000000000000000000000000000007bffffffffffffffffffffffffffffffffffffffffffffffffffffffff19166020820180517bffffffffffffffffffffffffffffffffffffffffffffffffffffffff8381831617835250505050611c14565b5050565b6000838203611aa057611a5082856112ef565b84611a5b9190612762565b9050611a9b6040518060400160405280600581526020017f48656c6c6f000000000000000000000000000000000000000000000000000000815250611c2e565b611b8e565b611ade6040518060400160405280600581526020017f48656c6c6f000000000000000000000000000000000000000000000000000000815250611c2e565b60008342611aec9190612796565b905060008584611afc9190612796565b90506000611b0a85886112ef565b9050611b2e604051806060016040528060218152602001612a7860219139826119a1565b600082606489611b3e91906128a2565b611b48919061291a565b905060006301dfe20083611b5c919061291a565b905060008582611b6c91906128a2565b90508281611b7a919061291a565b8a611b859190612984565b96505050505050505b9392505050565b611c0f838473ffffffffffffffffffffffffffffffffffffffff1663a9059cbb8585604051602401611bc892919061217a565b604051602081830303815290604052915060e01b6020820180517bffffffffffffffffffffffffffffffffffffffffffffffffffffffff8381831617835250505050611cc7565b505050565b611c2b81611c23611d5e611d7f565b63ffffffff16565b50565b611cc481604051602401611c4291906129c8565b6040516020818303038152906040527f41304fac000000000000000000000000000000000000000000000000000000007bffffffffffffffffffffffffffffffffffffffffffffffffffffffff19166020820180517bffffffffffffffffffffffffffffffffffffffffffffffffffffffff8381831617835250505050611c14565b50565b6000611cf2828473ffffffffffffffffffffffffffffffffffffffff16611d8a90919063ffffffff16565b90506000815114158015611d17575080806020019051810190611d1591906121db565b155b15611d5957826040517f5274afe7000000000000000000000000000000000000000000000000000000008152600401611d50919061205d565b60405180910390fd5b505050565b60006a636f6e736f6c652e6c6f679050600080835160208501845afa505050565b611f41819050919050565b6060611d9883836000611da0565b905092915050565b606081471015611de757306040517fcd786059000000000000000000000000000000000000000000000000000000008152600401611dde919061205d565b60405180910390fd5b6000808573ffffffffffffffffffffffffffffffffffffffff168486604051611e109190612a31565b60006040518083038185875af1925050503d8060008114611e4d576040519150601f19603f3d011682016040523d82523d6000602084013e611e52565b606091505b5091509150611e62868383611e6d565b925050509392505050565b606082611e8257611e7d82611efc565b611ef4565b60008251148015611eaa575060008473ffffffffffffffffffffffffffffffffffffffff163b145b15611eec57836040517f9996b315000000000000000000000000000000000000000000000000000000008152600401611ee3919061205d565b60405180910390fd5b819050611ef5565b5b9392505050565b600081511115611f0f5780518082602001fd5b6040517f1425ea4200000000000000000000000000000000000000000000000000000000815260040160405180910390fd5b611f49612a48565b565b600080fd5b600073ffffffffffffffffffffffffffffffffffffffff82169050919050565b6000611f7b82611f50565b9050919050565b611f8b81611f70565b8114611f9657600080fd5b50565b600081359050611fa881611f82565b92915050565b6000819050919050565b611fc181611fae565b8114611fcc57600080fd5b50565b600081359050611fde81611fb8565b92915050565b60008060408385031215611ffb57611ffa611f4b565b5b600061200985828601611f99565b925050602061201a85828601611fcf565b9150509250929050565b61202d81611fae565b82525050565b60006020820190506120486000830184612024565b92915050565b61205781611f70565b82525050565b6000602082019050612072600083018461204e565b92915050565b60006020828403121561208e5761208d611f4b565b5b600061209c84828501611f99565b91505092915050565b600080604083850312156120bc576120bb611f4b565b5b60006120ca85828601611fcf565b92505060206120db85828601611fcf565b9150509250929050565b6000806000606084860312156120fe576120fd611f4b565b5b600061210c86828701611f99565b935050602061211d86828701611fcf565b925050604061212e86828701611fcf565b9150509250925092565b60008151905061214781611fb8565b92915050565b60006020828403121561216357612162611f4b565b5b600061217184828501612138565b91505092915050565b600060408201905061218f600083018561204e565b61219c6020830184612024565b9392505050565b60008115159050919050565b6121b8816121a3565b81146121c357600080fd5b50565b6000815190506121d5816121af565b92915050565b6000602082840312156121f1576121f0611f4b565b5b60006121ff848285016121c6565b91505092915050565b600082825260208201905092915050565b7f4f6e6c7920726f757465722063616e2063616c6c20746869732066756e63746960008201527f6f6e000000000000000000000000000000000000000000000000000000000000602082015250565b6000612275602283612208565b915061228082612219565b604082019050919050565b600060208201905081810360008301526122a481612268565b9050919050565b600069ffffffffffffffffffff82169050919050565b6122ca816122ab565b81146122d557600080fd5b50565b6000815190506122e7816122c1565b92915050565b6000819050919050565b612300816122ed565b811461230b57600080fd5b50565b60008151905061231d816122f7565b92915050565b600080600080600060a0868803121561233f5761233e611f4b565b5b600061234d888289016122d8565b955050602061235e8882890161230e565b945050604061236f88828901612138565b935050606061238088828901612138565b9250506080612391888289016122d8565b9150509295509295909350565b600060ff82169050919050565b6123b48161239e565b81146123bf57600080fd5b50565b6000815190506123d1816123ab565b92915050565b6000602082840312156123ed576123ec611f4b565b5b60006123fb848285016123c2565b91505092915050565b7f4e487b7100000000000000000000000000000000000000000000000000000000600052601160045260246000fd5b600061243e82611fae565b915061244983611fae565b925082820261245781611fae565b9150828204841483151761246e5761246d612404565b5b5092915050565b7f4e487b7100000000000000000000000000000000000000000000000000000000600052601260045260246000fd5b60006124af82611fae565b91506124ba83611fae565b9250826124ca576124c9612475565b5b828204905092915050565b60006124e08261239e565b91506124eb8361239e565b9250828203905060ff81111561250457612503612404565b5b92915050565b60008160011c9050919050565b6000808291508390505b60018511156125615780860481111561253d5761253c612404565b5b600185161561254c5780820291505b808102905061255a8561250a565b9450612521565b94509492505050565b60008261257a5760019050612636565b816125885760009050612636565b816001811461259e57600281146125a8576125d7565b6001915050612636565b60ff8411156125ba576125b9612404565b5b8360020a9150848211156125d1576125d0612404565b5b50612636565b5060208310610133831016604e8410600b841016171561260c5782820a90508381111561260757612606612404565b5b612636565b6126198484846001612517565b925090508184048111156126305761262f612404565b5b81810290505b9392505050565b600061264882611fae565b91506126538361239e565b92506126807fffffffffffffffffffffffffffffffffffffffffffffffffffffffffffffffff848461256a565b905092915050565b7f4f6e6c7920526f757465722063616e2063616c6c20746869732066756e63746960008201527f6f6e000000000000000000000000000000000000000000000000000000000000602082015250565b60006126e4602283612208565b91506126ef82612688565b604082019050919050565b60006020820190508181036000830152612713816126d7565b9050919050565b600061272582611fae565b91507fffffffffffffffffffffffffffffffffffffffffffffffffffffffffffffffff820361275757612756612404565b5b600182019050919050565b600061276d82611fae565b915061277883611fae565b92508282019050808211156127905761278f612404565b5b92915050565b60006127a182611fae565b91506127ac83611fae565b92508282039050818111156127c4576127c3612404565b5b92915050565b60006127d582611fae565b9150600082036127e8576127e7612404565b5b600182039050919050565b600081519050919050565b60005b8381101561281c578082015181840152602081019050612801565b60008484015250505050565b6000601f19601f8301169050919050565b6000612844826127f3565b61284e8185612208565b935061285e8185602086016127fe565b61286781612828565b840191505092915050565b6000604082019050818103600083015261288c8185612839565b905061289b6020830184612024565b9392505050565b60006128ad826122ed565b91506128b8836122ed565b92508282026128c6816122ed565b91507f800000000000000000000000000000000000000000000000000000000000000084146000841216156128fe576128fd612404565b5b828205841483151761291357612912612404565b5b5092915050565b6000612925826122ed565b9150612930836122ed565b9250826129405761293f612475565b5b600160000383147f80000000000000000000000000000000000000000000000000000000000000008314161561297957612978612404565b5b828205905092915050565b600061298f826122ed565b915061299a836122ed565b9250828201905082811215600083121683821260008412151617156129c2576129c1612404565b5b92915050565b600060208201905081810360008301526129e28184612839565b905092915050565b600081519050919050565b600081905092915050565b6000612a0b826129ea565b612a1581856129f5565b9350612a258185602086016127fe565b80840191505092915050565b6000612a3d8284612a00565b915081905092915050565b7f4e487b7100000000000000000000000000000000000000000000000000000000600052605160045260246000fdfe546f74616c204163637275656420496e74657265737420416d6f756e7420697320a2646970667358221220e4b71d42dc22050247b5c4599a8534bbddaee699e51886fc558a62480b27360364736f6c63430008190033","linkReferences":{}},"methodIdentifiers":{"FlashLoan(address,uint256)":"134bde11","assetAddress()":"1ba46cfd","depositCollateral(address,uint256)":"a5d5db0c","depositLiquidityAndMintTokens(address,uint256)":"62fb2e84","getBorrowableAmountBasedOnUSDAmount(address,uint256)":"cb8284d0","getCollateralAmount(address)":"654c6295","getCollateralValueInUSD(address)":"877db9dd","getDepositInterestRate()":"b1a93393","getDepositValueInUSD(address)":"5de0a9af","getIndividualDepositAmount(address,uint256)":"08586317","getRouter()":"b0f479a1","getTotalDepositAmount(address)":"27f9c4c1","getTotalInterestAmount(uint256,uint256)":"ac5f8359","getTotalUserCounter()":"248c181b","getTotalUserDeposits()":"a1303616","lendingTokenAddress()":"12945721","poolFactoryAddress()":"a32cf536","priceFeedAddress()":"e0abca0b","withdrawLiquidity(address,uint256,uint256)":"ea999dff","withdrawTotalAmount(address)":"220a36b6"},"id":4}