{"abi":[{"type":"constructor","inputs":[{"name":"token","type":"address","internalType":"address"},{"name":"priceFeed","type":"address","internalType":"address"},{"name":"router","type":"address","internalType":"address"},{"name":"lendToken","type":"address","internalType":"address"}],"stateMutability":"nonpayable"},{"type":"function","name":"FlashLoan","inputs":[{"name":"receiver","type":"address","internalType":"address"},{"name":"amount","type":"uint256","internalType":"uint256"}],"outputs":[],"stateMutability":"nonpayable"},{"type":"function","name":"assetAddress","inputs":[],"outputs":[{"name":"","type":"address","internalType":"address"}],"stateMutability":"view"},{"type":"function","name":"depositCollateral","inputs":[{"name":"depositor","type":"address","internalType":"address"},{"name":"amount","type":"uint256","internalType":"uint256"}],"outputs":[],"stateMutability":"nonpayable"},{"type":"function","name":"depositLiquidityAndMintTokens","inputs":[{"name":"depositor","type":"address","internalType":"address"},{"name":"amount","type":"uint256","internalType":"uint256"}],"outputs":[],"stateMutability":"nonpayable"},{"type":"function","name":"getBorrowableAmountBasedOnUSDAmount","inputs":[{"name":"user","type":"address","internalType":"address"},{"name":"collateralInUSD","type":"uint256","internalType":"uint256"}],"outputs":[{"name":"value","type":"uint256","internalType":"uint256"}],"stateMutability":"view"},{"type":"function","name":"getCollateralAmount","inputs":[{"name":"user","type":"address","internalType":"address"}],"outputs":[{"name":"","type":"uint256","internalType":"uint256"}],"stateMutability":"view"},{"type":"function","name":"getDepositValueInUSD","inputs":[{"name":"user","type":"address","internalType":"address"}],"outputs":[{"name":"","type":"uint256","internalType":"uint256"}],"stateMutability":"view"},{"type":"function","name":"getIndividualDepositAmount","inputs":[{"name":"user","type":"address","internalType":"address"},{"name":"depositId","type":"uint256","internalType":"uint256"}],"outputs":[{"name":"","type":"uint256","internalType":"uint256"}],"stateMutability":"view"},{"type":"function","name":"getRouter","inputs":[],"outputs":[{"name":"","type":"address","internalType":"address"}],"stateMutability":"view"},{"type":"function","name":"getTotalDepositAmount","inputs":[{"name":"user","type":"address","internalType":"address"}],"outputs":[{"name":"depositedAmount","type":"uint256","internalType":"uint256"}],"stateMutability":"view"},{"type":"function","name":"getTotalUserCounter","inputs":[],"outputs":[{"name":"","type":"uint256","internalType":"uint256"}],"stateMutability":"view"},{"type":"function","name":"getTotalUserDeposits","inputs":[],"outputs":[{"name":"","type":"uint256","internalType":"uint256"}],"stateMutability":"view"},{"type":"function","name":"lendingTokenAddress","inputs":[],"outputs":[{"name":"","type":"address","internalType":"address"}],"stateMutability":"view"},{"type":"function","name":"poolFactoryAddress","inputs":[],"outputs":[{"name":"","type":"address","internalType":"address"}],"stateMutability":"view"},{"type":"function","name":"priceFeedAddress","inputs":[],"outputs":[{"name":"","type":"address","internalType":"address"}],"stateMutability":"view"},{"type":"function","name":"withdrawLiquidity","inputs":[{"name":"user","type":"address","internalType":"address"},{"name":"amount","type":"uint256","internalType":"uint256"},{"name":"depositId","type":"uint256","internalType":"uint256"}],"outputs":[],"stateMutability":"nonpayable"},{"type":"function","name":"withdrawTotalAmount","inputs":[{"name":"user","type":"address","internalType":"address"}],"outputs":[],"stateMutability":"nonpayable"},{"type":"event","name":"CollateralDeposited","inputs":[{"name":"depositor","type":"address","indexed":true,"internalType":"address"},{"name":"amount","type":"uint256","indexed":true,"internalType":"uint256"}],"anonymous":false},{"type":"event","name":"DepositLiquidity","inputs":[{"name":"depositor","type":"address","indexed":true,"internalType":"address"},{"name":"amount","type":"uint256","indexed":true,"internalType":"uint256"},{"name":"shares_minted","type":"uint256","indexed":false,"internalType":"uint256"},{"name":"depositCounter","type":"uint256","indexed":true,"internalType":"uint256"}],"anonymous":false},{"type":"event","name":"SimpleWithdraw","inputs":[{"name":"depositor","type":"address","indexed":true,"internalType":"address"},{"name":"amount","type":"uint256","indexed":true,"internalType":"uint256"},{"name":"depositCounter","type":"uint256","indexed":true,"internalType":"uint256"}],"anonymous":false},{"type":"error","name":"AddressEmptyCode","inputs":[{"name":"target","type":"address","internalType":"address"}]},{"type":"error","name":"AddressInsufficientBalance","inputs":[{"name":"account","type":"address","internalType":"address"}]},{"type":"error","name":"CoreLogic__InvalidDepositId","inputs":[]},{"type":"error","name":"CoreLogic__OnlyRouter","inputs":[]},{"type":"error","name":"CoreLogic__OutOfBalance","inputs":[]},{"type":"error","name":"FailedInnerCall","inputs":[]},{"type":"error","name":"SafeERC20FailedOperation","inputs":[{"name":"token","type":"address","internalType":"address"}]}],"bytecode":{"object":"0x61012060405234801561001157600080fd5b5060405161153138038061153183398101604081905261003091610073565b6001600160a01b039384166080523360a052831660c05290821660e05216610100526100c7565b80516001600160a01b038116811461006e57600080fd5b919050565b6000806000806080858703121561008957600080fd5b61009285610057565b93506100a060208601610057565b92506100ae60408601610057565b91506100bc60608601610057565b905092959194509250565b60805160a05160c05160e051610100516113a1610190600039600081816102840152818161032a0152818161049b015281816104cc015281816108b2015281816108e3015281816109f901528181610a2a01528181610b800152610bb10152600081816102bd015281816105c1015281816106490152818161071e0152610ae2015260006101380152600061024b015260008181610187015281816103650152818161041e015281816107af0152818161092501528181610a6c0152610cf901526113a16000f3fe608060405234801561001057600080fd5b506004361061010b5760003560e01c806362fb2e84116100a2578063a5d5db0c11610071578063a5d5db0c1461026f578063b0f479a114610282578063cb8284d0146102a8578063e0abca0b146102bb578063ea999dff146102e157600080fd5b806362fb2e8414610205578063654c629514610218578063a130361614610241578063a32cf5361461024957600080fd5b8063220a36b6116100de578063220a36b6146101ab578063248c181b146101be57806327f9c4c1146101c65780635de0a9af146101f257600080fd5b806308586317146101105780631294572114610136578063134bde11146101705780631ba46cfd14610185575b600080fd5b61012361011e366004610fda565b6102f4565b6040519081526020015b60405180910390f35b7f00000000000000000000000000000000000000000000000000000000000000005b6040516001600160a01b03909116815260200161012d565b61018361017e366004610fda565b610320565b005b7f0000000000000000000000000000000000000000000000000000000000000000610158565b6101836101b9366004611004565b610491565b600354610123565b6101236101d4366004611004565b6001600160a01b031660009081526020819052604090206004015490565b610123610200366004611004565b6105bc565b610183610213366004610fda565b6108a8565b610123610226366004611004565b6001600160a01b031660009081526001602052604090205490565b600254610123565b7f0000000000000000000000000000000000000000000000000000000000000000610158565b61018361027d366004610fda565b6109ef565b7f0000000000000000000000000000000000000000000000000000000000000000610158565b6101236102b6366004610fda565b610add565b7f0000000000000000000000000000000000000000000000000000000000000000610158565b6101836102ef36600461101f565b610b76565b6001600160a01b0382166000908152602081815260408083208484526002019091529020545b92915050565b6001600160a01b037f000000000000000000000000000000000000000000000000000000000000000016330361048d576040516370a0823160e01b81523060048201527f00000000000000000000000000000000000000000000000000000000000000006001600160a01b0316906370a0823190602401602060405180830381865afa1580156103b4573d6000803e3d6000fd5b505050506040513d601f19601f820116820180604052508101906103d89190611052565b8111156103f857604051631ec7992b60e21b815260040160405180910390fd5b60405163a9059cbb60e01b81526001600160a01b038381166004830152602482018390527f0000000000000000000000000000000000000000000000000000000000000000169063a9059cbb906044016020604051808303816000875af1158015610467573d6000803e3d6000fd5b505050506040513d601f19601f8201168201806040525081019061048b919061106b565b505b5050565b6001600160a01b037f00000000000000000000000000000000000000000000000000000000000000001633036105b957336001600160a01b037f000000000000000000000000000000000000000000000000000000000000000016146105125760405162461bcd60e51b81526004016105099061108d565b60405180910390fd5b6001600160a01b038116600090815260208190526040812060040154905b6001600160a01b03831660009081526020819052604090206003015481101561048b576001600160a01b03831660009081526020818152604080832084845260010190915290205460ff166105b1576001600160a01b0383166000908152602081815260408083208484526002019091529020546105af848284610b76565b505b600101610530565b50565b6000807f00000000000000000000000000000000000000000000000000000000000000006001600160a01b031663feaf968c6040518163ffffffff1660e01b815260040160a060405180830381865afa15801561061d573d6000803e3d6000fd5b505050506040513d601f19601f8201168201806040525081019061064191906110e9565b5050509150507f00000000000000000000000000000000000000000000000000000000000000006001600160a01b031663313ce5676040518163ffffffff1660e01b8152600401602060405180830381865afa1580156106a5573d6000803e3d6000fd5b505050506040513d601f19601f820116820180604052508101906106c99190611139565b60ff1660120361071a57670de0b6b3a7640000816106ff856001600160a01b031660009081526020819052604090206004015490565b6107099190611172565b6107139190611189565b9392505050565b60007f00000000000000000000000000000000000000000000000000000000000000006001600160a01b031663313ce5676040518163ffffffff1660e01b8152600401602060405180830381865afa15801561077a573d6000803e3d6000fd5b505050506040513d601f19601f8201168201806040525081019061079e9190611139565b6107a99060126111ab565b905060007f00000000000000000000000000000000000000000000000000000000000000006001600160a01b031663313ce5676040518163ffffffff1660e01b8152600401602060405180830381865afa15801561080b573d6000803e3d6000fd5b505050506040513d601f19601f8201168201806040525081019061082f9190611139565b61083a9060126111ab565b9050670de0b6b3a764000061085083600a6112a8565b61085a9085611172565b61086583600a6112a8565b6001600160a01b03881660009081526020819052604090206004015461088b9190611172565b6108959190611172565b61089f9190611189565b95945050505050565b6001600160a01b037f000000000000000000000000000000000000000000000000000000000000000016330361048d57336001600160a01b037f000000000000000000000000000000000000000000000000000000000000000016146109205760405162461bcd60e51b8152600401610509906112b7565b61094c7f0000000000000000000000000000000000000000000000000000000000000000833084610dbc565b6001600160a01b038216600081815260208181526040808320600381018054855260028083018552838620889055815486529483902042600191820155600483018054890190558554880101909455925490518581529293909285927f77b57bffc1c97e4762d78efd74300ab40a13dc946d0e09b33ead3a5b35cfa7d3910160405180910390a46003810180549060006109e5836112f9565b9190505550505050565b6001600160a01b037f000000000000000000000000000000000000000000000000000000000000000016330361048d57336001600160a01b037f00000000000000000000000000000000000000000000000000000000000000001614610a675760405162461bcd60e51b8152600401610509906112b7565b610a937f0000000000000000000000000000000000000000000000000000000000000000833084610dbc565b6001600160a01b038216600081815260016020526040808220805485019055518392917fd7243f6f8212d5188fd054141cf6ea89cfc0d91facb8c3afe2f88a135848014291a35050565b6000807f00000000000000000000000000000000000000000000000000000000000000006001600160a01b031663313ce5676040518163ffffffff1660e01b8152600401602060405180830381865afa158015610b3e573d6000803e3d6000fd5b505050506040513d601f19601f82011682018060405250810190610b629190611139565b610b6d9060126111ab565b90505092915050565b6001600160a01b037f000000000000000000000000000000000000000000000000000000000000000016330361048b57336001600160a01b037f00000000000000000000000000000000000000000000000000000000000000001614610bee5760405162461bcd60e51b81526004016105099061108d565b6001600160a01b038316600090815260208190526040902060030154811115610c2a57604051635fe74ebf60e11b815260040160405180910390fd5b6001600160a01b03831660009081526020818152604080832084845260028101909252909120548303610d5c57600082815260028201602052604081208054859290610c77908490611312565b9250508190555082816004016000828254610c929190611312565b90915550508054600181810183556000838152602080822090930185905584815281840190925260408220805460ff1916909117905560028054859290610cda908490611312565b909155505060038054906000610cef83611325565b9190505550610d1f7f00000000000000000000000000000000000000000000000000000000000000008585610e23565b8183856001600160a01b03167f9b9970c5ed4609e15fd1dedd289d5697670692b2f58988736a098d44fd4cb3db60405160405180910390a4610db6565b600082815260028201602052604081208054859290610d7c908490611312565b9250508190555082816004016000828254610d979190611312565b925050819055508260026000828254610db09190611312565b90915550505b50505050565b6040516001600160a01b038481166024830152838116604483015260648201839052610db69186918216906323b872dd906084015b604051602081830303815290604052915060e01b6020820180516001600160e01b038381831617835250505050610e54565b6040516001600160a01b0383811660248301526044820183905261048b91859182169063a9059cbb90606401610df1565b6000610e696001600160a01b03841683610eb7565b90508051600014158015610e8e575080806020019051810190610e8c919061106b565b155b1561048b57604051635274afe760e01b81526001600160a01b0384166004820152602401610509565b60606107138383600084600080856001600160a01b03168486604051610edd919061133c565b60006040518083038185875af1925050503d8060008114610f1a576040519150601f19603f3d011682016040523d82523d6000602084013e610f1f565b606091505b5091509150610f2f868383610f39565b9695505050505050565b606082610f4e57610f4982610f95565b610713565b8151158015610f6557506001600160a01b0384163b155b15610f8e57604051639996b31560e01b81526001600160a01b0385166004820152602401610509565b5080610713565b805115610fa55780518082602001fd5b604051630a12f52160e11b815260040160405180910390fd5b80356001600160a01b0381168114610fd557600080fd5b919050565b60008060408385031215610fed57600080fd5b610ff683610fbe565b946020939093013593505050565b60006020828403121561101657600080fd5b61071382610fbe565b60008060006060848603121561103457600080fd5b61103d84610fbe565b95602085013595506040909401359392505050565b60006020828403121561106457600080fd5b5051919050565b60006020828403121561107d57600080fd5b8151801515811461071357600080fd5b60208082526022908201527f4f6e6c7920726f757465722063616e2063616c6c20746869732066756e63746960408201526137b760f11b606082015260800190565b805169ffffffffffffffffffff81168114610fd557600080fd5b600080600080600060a0868803121561110157600080fd5b61110a866110cf565b945060208601519350604086015192506060860151915061112d608087016110cf565b90509295509295909350565b60006020828403121561114b57600080fd5b815160ff8116811461071357600080fd5b634e487b7160e01b600052601160045260246000fd5b808202811582820484141761031a5761031a61115c565b6000826111a657634e487b7160e01b600052601260045260246000fd5b500490565b60ff828116828216039081111561031a5761031a61115c565b600181815b808511156111ff5781600019048211156111e5576111e561115c565b808516156111f257918102915b93841c93908002906111c9565b509250929050565b6000826112165750600161031a565b816112235750600061031a565b816001811461123957600281146112435761125f565b600191505061031a565b60ff8411156112545761125461115c565b50506001821b61031a565b5060208310610133831016604e8410600b8410161715611282575081810a61031a565b61128c83836111c4565b80600019048211156112a0576112a061115c565b029392505050565b600061071360ff841683611207565b60208082526022908201527f4f6e6c7920526f757465722063616e2063616c6c20746869732066756e63746960408201526137b760f11b606082015260800190565b60006001820161130b5761130b61115c565b5060010190565b8181038181111561031a5761031a61115c565b6000816113345761133461115c565b506000190190565b6000825160005b8181101561135d5760208186018101518583015201611343565b50600092019182525091905056fea2646970667358221220e4490bb329867894f3aad8b718e3ad574f01d1be4f527c885fb68ac911dc9df164736f6c63430008190033","linkReferences":{}},"methodIdentifiers":{"FlashLoan(address,uint256)":"134bde11","assetAddress()":"1ba46cfd","depositCollateral(address,uint256)":"a5d5db0c","depositLiquidityAndMintTokens(address,uint256)":"62fb2e84","getBorrowableAmountBasedOnUSDAmount(address,uint256)":"cb8284d0","getCollateralAmount(address)":"654c6295","getDepositValueInUSD(address)":"5de0a9af","getIndividualDepositAmount(address,uint256)":"08586317","getRouter()":"b0f479a1","getTotalDepositAmount(address)":"27f9c4c1","getTotalUserCounter()":"248c181b","getTotalUserDeposits()":"a1303616","lendingTokenAddress()":"12945721","poolFactoryAddress()":"a32cf536","priceFeedAddress()":"e0abca0b","withdrawLiquidity(address,uint256,uint256)":"ea999dff","withdrawTotalAmount(address)":"220a36b6"},"id":4}