{"abi":[{"type":"constructor","inputs":[{"name":"token","type":"address","internalType":"address"},{"name":"pricefeed","type":"address","internalType":"address"},{"name":"router","type":"address","internalType":"address"},{"name":"lendToken","type":"address","internalType":"address"}],"stateMutability":"nonpayable"},{"type":"function","name":"FlashLoan","inputs":[{"name":"receiver","type":"address","internalType":"address"},{"name":"amount","type":"uint256","internalType":"uint256"}],"outputs":[],"stateMutability":"nonpayable"},{"type":"function","name":"assetAddress","inputs":[],"outputs":[{"name":"","type":"address","internalType":"address"}],"stateMutability":"view"},{"type":"function","name":"depositCollateral","inputs":[{"name":"depositor","type":"address","internalType":"address"},{"name":"amount","type":"uint256","internalType":"uint256"}],"outputs":[],"stateMutability":"nonpayable"},{"type":"function","name":"depositLiquidityAndMintTokens","inputs":[{"name":"depositor","type":"address","internalType":"address"},{"name":"amount","type":"uint256","internalType":"uint256"}],"outputs":[],"stateMutability":"nonpayable"},{"type":"function","name":"getBorrowableAmountBasedOnUSDAmount","inputs":[{"name":"user","type":"address","internalType":"address"},{"name":"collateralInUSD","type":"uint256","internalType":"uint256"}],"outputs":[{"name":"value","type":"uint256","internalType":"uint256"}],"stateMutability":"view"},{"type":"function","name":"getCollateralAmount","inputs":[{"name":"user","type":"address","internalType":"address"}],"outputs":[{"name":"","type":"uint256","internalType":"uint256"}],"stateMutability":"view"},{"type":"function","name":"getDepositAmount","inputs":[{"name":"user","type":"address","internalType":"address"}],"outputs":[{"name":"depositedAmount","type":"uint256","internalType":"uint256"}],"stateMutability":"view"},{"type":"function","name":"getDepositValueInUSD","inputs":[{"name":"user","type":"address","internalType":"address"}],"outputs":[{"name":"","type":"uint256","internalType":"uint256"}],"stateMutability":"view"},{"type":"function","name":"getRouter","inputs":[],"outputs":[{"name":"","type":"address","internalType":"address"}],"stateMutability":"view"},{"type":"function","name":"lendingTokenAddress","inputs":[],"outputs":[{"name":"","type":"address","internalType":"address"}],"stateMutability":"view"},{"type":"function","name":"poolFactoryAddress","inputs":[],"outputs":[{"name":"","type":"address","internalType":"address"}],"stateMutability":"view"},{"type":"function","name":"priceFeedAddress","inputs":[],"outputs":[{"name":"","type":"address","internalType":"address"}],"stateMutability":"view"},{"type":"event","name":"CollateralDeposited","inputs":[{"name":"depositor","type":"address","indexed":true,"internalType":"address"},{"name":"amount","type":"uint256","indexed":true,"internalType":"uint256"}],"anonymous":false},{"type":"event","name":"DepositLiquidity","inputs":[{"name":"depositor","type":"address","indexed":true,"internalType":"address"},{"name":"amount","type":"uint256","indexed":true,"internalType":"uint256"},{"name":"shares_minted","type":"uint256","indexed":false,"internalType":"uint256"}],"anonymous":false},{"type":"error","name":"AddressEmptyCode","inputs":[{"name":"target","type":"address","internalType":"address"}]},{"type":"error","name":"AddressInsufficientBalance","inputs":[{"name":"account","type":"address","internalType":"address"}]},{"type":"error","name":"CoreLogic__OnlyRouter","inputs":[]},{"type":"error","name":"CoreLogic__OutOfBalance","inputs":[]},{"type":"error","name":"FailedInnerCall","inputs":[]},{"type":"error","name":"SafeERC20FailedOperation","inputs":[{"name":"token","type":"address","internalType":"address"}]}],"bytecode":{"object":"0x61012060405234801561001157600080fd5b5060405161107d38038061107d83398101604081905261003091610073565b6001600160a01b039384166080523360a052831660c05290821660e05216610100526100c7565b80516001600160a01b038116811461006e57600080fd5b919050565b6000806000806080858703121561008957600080fd5b61009285610057565b93506100a060208601610057565b92506100ae60408601610057565b91506100bc60608601610057565b905092959194509250565b60805160a05160c05160e05161010051610f1161016c600039600081816101cb015281816102450152818161067c015281816106ad015281816107ba01526107eb015260008181610217015281816103b101528181610439015281816104f5015261092d0152600060bb0152600061019201526000818161010f015281816102800152818161033901528181610586015281816106f8015261082d0152610f116000f3fe608060405234801561001057600080fd5b50600436106100b45760003560e01c8063a32cf53611610071578063a32cf53614610190578063a5d5db0c146101b6578063b0f479a1146101c9578063b8ba16fd146101ef578063cb8284d014610202578063e0abca0b1461021557600080fd5b806312945721146100b9578063134bde11146100f85780631ba46cfd1461010d5780635de0a9af1461013357806362fb2e8414610154578063654c629514610167575b600080fd5b7f00000000000000000000000000000000000000000000000000000000000000005b6040516001600160a01b0390911681526020015b60405180910390f35b61010b610106366004610bd9565b61023b565b005b7f00000000000000000000000000000000000000000000000000000000000000006100db565b610146610141366004610c03565b6103ac565b6040519081526020016100ef565b61010b610162366004610bd9565b610672565b610146610175366004610c03565b6001600160a01b031660009081526001602052604090205490565b7f00000000000000000000000000000000000000000000000000000000000000006100db565b61010b6101c4366004610bd9565b6107b0565b7f00000000000000000000000000000000000000000000000000000000000000006100db565b6101466101fd366004610c03565b61089e565b610146610210366004610bd9565b610928565b7f00000000000000000000000000000000000000000000000000000000000000006100db565b6001600160a01b037f00000000000000000000000000000000000000000000000000000000000000001633036103a8576040516370a0823160e01b81523060048201527f00000000000000000000000000000000000000000000000000000000000000006001600160a01b0316906370a0823190602401602060405180830381865afa1580156102cf573d6000803e3d6000fd5b505050506040513d601f19601f820116820180604052508101906102f39190610c1e565b81111561031357604051631ec7992b60e21b815260040160405180910390fd5b60405163a9059cbb60e01b81526001600160a01b038381166004830152602482018390527f0000000000000000000000000000000000000000000000000000000000000000169063a9059cbb906044016020604051808303816000875af1158015610382573d6000803e3d6000fd5b505050506040513d601f19601f820116820180604052508101906103a69190610c37565b505b5050565b6000807f00000000000000000000000000000000000000000000000000000000000000006001600160a01b031663feaf968c6040518163ffffffff1660e01b815260040160a060405180830381865afa15801561040d573d6000803e3d6000fd5b505050506040513d601f19601f820116820180604052508101906104319190610c73565b5050509150507f00000000000000000000000000000000000000000000000000000000000000006001600160a01b031663313ce5676040518163ffffffff1660e01b8152600401602060405180830381865afa158015610495573d6000803e3d6000fd5b505050506040513d601f19601f820116820180604052508101906104b99190610cc3565b60ff166012036104f157670de0b6b3a7640000816104d68561089e565b6104e09190610cfc565b6104ea9190610d13565b9392505050565b60007f00000000000000000000000000000000000000000000000000000000000000006001600160a01b031663313ce5676040518163ffffffff1660e01b8152600401602060405180830381865afa158015610551573d6000803e3d6000fd5b505050506040513d601f19601f820116820180604052508101906105759190610cc3565b610580906012610d35565b905060007f00000000000000000000000000000000000000000000000000000000000000006001600160a01b031663313ce5676040518163ffffffff1660e01b8152600401602060405180830381865afa1580156105e2573d6000803e3d6000fd5b505050506040513d601f19601f820116820180604052508101906106069190610cc3565b610611906012610d35565b9050670de0b6b3a764000061062783600a610e32565b6106319085610cfc565b61063c83600a610e32565b6106458861089e565b61064f9190610cfc565b6106599190610cfc565b6106639190610d13565b95945050505050565b50919050565b6001600160a01b037f00000000000000000000000000000000000000000000000000000000000000001633036103a857336001600160a01b037f000000000000000000000000000000000000000000000000000000000000000016146106f35760405162461bcd60e51b81526004016106ea90610e41565b60405180910390fd5b61071f7f00000000000000000000000000000000000000000000000000000000000000008330846109c1565b6001600160a01b0382166000818152602081815260408083206002810180548552600180830185528386208890558154865283862042908201558154835480830185558488529686902090960186905594909401909355518481529192849290917f7b549d02c66f90f9788e61c2890c043afab56a7999c5172059cb0e4ca25f5438910160405180910390a3505050565b6001600160a01b037f00000000000000000000000000000000000000000000000000000000000000001633036103a857336001600160a01b037f000000000000000000000000000000000000000000000000000000000000000016146108285760405162461bcd60e51b81526004016106ea90610e41565b6108547f00000000000000000000000000000000000000000000000000000000000000008330846109c1565b6001600160a01b038216600081815260016020526040808220805485019055518392917fd7243f6f8212d5188fd054141cf6ea89cfc0d91facb8c3afe2f88a135848014291a35050565b6000805b6001600160a01b03831660009081526020819052604090206002015481101561066c576001600160a01b0383166000908152602081905260408120805460018201929190849081106108f6576108f6610e83565b90600052602060002001548152602001908152602001600020600001548261091e9190610e99565b91506001016108a2565b6000807f00000000000000000000000000000000000000000000000000000000000000006001600160a01b031663313ce5676040518163ffffffff1660e01b8152600401602060405180830381865afa158015610989573d6000803e3d6000fd5b505050506040513d601f19601f820116820180604052508101906109ad9190610cc3565b6109b8906012610d35565b90505092915050565b604080516001600160a01b0385811660248301528416604482015260648082018490528251808303909101815260849091019091526020810180516001600160e01b03166323b872dd60e01b179052610a1b908590610a21565b50505050565b6000610a366001600160a01b03841683610a84565b90508051600014158015610a5b575080806020019051810190610a599190610c37565b155b156103a657604051635274afe760e01b81526001600160a01b03841660048201526024016106ea565b6060610a9283836000610a9b565b90505b92915050565b606081471015610ac05760405163cd78605960e01b81523060048201526024016106ea565b600080856001600160a01b03168486604051610adc9190610eac565b60006040518083038185875af1925050503d8060008114610b19576040519150601f19603f3d011682016040523d82523d6000602084013e610b1e565b606091505b5091509150610b2e868383610b38565b9695505050505050565b606082610b4d57610b4882610b94565b6104ea565b8151158015610b6457506001600160a01b0384163b155b15610b8d57604051639996b31560e01b81526001600160a01b03851660048201526024016106ea565b50806104ea565b805115610ba45780518082602001fd5b604051630a12f52160e11b815260040160405180910390fd5b80356001600160a01b0381168114610bd457600080fd5b919050565b60008060408385031215610bec57600080fd5b610bf583610bbd565b946020939093013593505050565b600060208284031215610c1557600080fd5b610a9282610bbd565b600060208284031215610c3057600080fd5b5051919050565b600060208284031215610c4957600080fd5b815180151581146104ea57600080fd5b805169ffffffffffffffffffff81168114610bd457600080fd5b600080600080600060a08688031215610c8b57600080fd5b610c9486610c59565b9450602086015193506040860151925060608601519150610cb760808701610c59565b90509295509295909350565b600060208284031215610cd557600080fd5b815160ff811681146104ea57600080fd5b634e487b7160e01b600052601160045260246000fd5b8082028115828204841417610a9557610a95610ce6565b600082610d3057634e487b7160e01b600052601260045260246000fd5b500490565b60ff8281168282160390811115610a9557610a95610ce6565b600181815b80851115610d89578160001904821115610d6f57610d6f610ce6565b80851615610d7c57918102915b93841c9390800290610d53565b509250929050565b600082610da057506001610a95565b81610dad57506000610a95565b8160018114610dc35760028114610dcd57610de9565b6001915050610a95565b60ff841115610dde57610dde610ce6565b50506001821b610a95565b5060208310610133831016604e8410600b8410161715610e0c575081810a610a95565b610e168383610d4e565b8060001904821115610e2a57610e2a610ce6565b029392505050565b6000610a9260ff841683610d91565b60208082526022908201527f4f6e6c7920526f757465722063616e2063616c6c20746869732066756e63746960408201526137b760f11b606082015260800190565b634e487b7160e01b600052603260045260246000fd5b80820180821115610a9557610a95610ce6565b6000825160005b81811015610ecd5760208186018101518583015201610eb3565b50600092019182525091905056fea264697066735822122012d8193cb1d6cb19637d1841aa60a4776f5b3dba66a524f28219d7177b79208b64736f6c63430008190033","linkReferences":{}},"methodIdentifiers":{"FlashLoan(address,uint256)":"134bde11","assetAddress()":"1ba46cfd","depositCollateral(address,uint256)":"a5d5db0c","depositLiquidityAndMintTokens(address,uint256)":"62fb2e84","getBorrowableAmountBasedOnUSDAmount(address,uint256)":"cb8284d0","getCollateralAmount(address)":"654c6295","getDepositAmount(address)":"b8ba16fd","getDepositValueInUSD(address)":"5de0a9af","getRouter()":"b0f479a1","lendingTokenAddress()":"12945721","poolFactoryAddress()":"a32cf536","priceFeedAddress()":"e0abca0b"},"id":4}