{"abi":[{"type":"constructor","inputs":[{"name":"token","type":"address","internalType":"address"},{"name":"priceFeed","type":"address","internalType":"address"},{"name":"router","type":"address","internalType":"address"},{"name":"lendToken","type":"address","internalType":"address"}],"stateMutability":"nonpayable"},{"type":"function","name":"FlashLoan","inputs":[{"name":"receiver","type":"address","internalType":"address"},{"name":"amount","type":"uint256","internalType":"uint256"}],"outputs":[],"stateMutability":"nonpayable"},{"type":"function","name":"assetAddress","inputs":[],"outputs":[{"name":"","type":"address","internalType":"address"}],"stateMutability":"view"},{"type":"function","name":"depositCollateral","inputs":[{"name":"depositor","type":"address","internalType":"address"},{"name":"amount","type":"uint256","internalType":"uint256"}],"outputs":[],"stateMutability":"nonpayable"},{"type":"function","name":"depositLiquidityAndMintTokens","inputs":[{"name":"depositor","type":"address","internalType":"address"},{"name":"amount","type":"uint256","internalType":"uint256"}],"outputs":[],"stateMutability":"nonpayable"},{"type":"function","name":"getBorrowableAmountBasedOnUSDAmount","inputs":[{"name":"user","type":"address","internalType":"address"},{"name":"collateralInUSD","type":"uint256","internalType":"uint256"}],"outputs":[{"name":"value","type":"uint256","internalType":"uint256"}],"stateMutability":"view"},{"type":"function","name":"getCollateralAmount","inputs":[{"name":"user","type":"address","internalType":"address"}],"outputs":[{"name":"","type":"uint256","internalType":"uint256"}],"stateMutability":"view"},{"type":"function","name":"getCollateralValueInUSD","inputs":[{"name":"user","type":"address","internalType":"address"}],"outputs":[{"name":"","type":"uint256","internalType":"uint256"}],"stateMutability":"view"},{"type":"function","name":"getDepositInterestRate","inputs":[],"outputs":[{"name":"","type":"uint256","internalType":"uint256"}],"stateMutability":"pure"},{"type":"function","name":"getDepositValueInUSD","inputs":[{"name":"user","type":"address","internalType":"address"}],"outputs":[{"name":"","type":"uint256","internalType":"uint256"}],"stateMutability":"view"},{"type":"function","name":"getIndividualDepositAmount","inputs":[{"name":"user","type":"address","internalType":"address"},{"name":"depositId","type":"uint256","internalType":"uint256"}],"outputs":[{"name":"","type":"uint256","internalType":"uint256"}],"stateMutability":"view"},{"type":"function","name":"getRouter","inputs":[],"outputs":[{"name":"","type":"address","internalType":"address"}],"stateMutability":"view"},{"type":"function","name":"getTotalDepositAmount","inputs":[{"name":"user","type":"address","internalType":"address"}],"outputs":[{"name":"","type":"uint256","internalType":"uint256"}],"stateMutability":"view"},{"type":"function","name":"getTotalInterestAmount","inputs":[{"name":"BalAMount","type":"uint256","internalType":"uint256"},{"name":"amount","type":"uint256","internalType":"uint256"}],"outputs":[{"name":"","type":"uint256","internalType":"uint256"}],"stateMutability":"view"},{"type":"function","name":"getTotalUserCounter","inputs":[],"outputs":[{"name":"","type":"uint256","internalType":"uint256"}],"stateMutability":"view"},{"type":"function","name":"getTotalUserDeposits","inputs":[],"outputs":[{"name":"","type":"uint256","internalType":"uint256"}],"stateMutability":"view"},{"type":"function","name":"getValueInUSD","inputs":[{"name":"amount","type":"uint256","internalType":"uint256"}],"outputs":[{"name":"","type":"uint256","internalType":"uint256"}],"stateMutability":"view"},{"type":"function","name":"lendingTokenAddress","inputs":[],"outputs":[{"name":"","type":"address","internalType":"address"}],"stateMutability":"view"},{"type":"function","name":"poolFactoryAddress","inputs":[],"outputs":[{"name":"","type":"address","internalType":"address"}],"stateMutability":"view"},{"type":"function","name":"priceFeedAddress","inputs":[],"outputs":[{"name":"","type":"address","internalType":"address"}],"stateMutability":"view"},{"type":"function","name":"withdrawLiquidity","inputs":[{"name":"user","type":"address","internalType":"address"},{"name":"amount","type":"uint256","internalType":"uint256"},{"name":"depositId","type":"uint256","internalType":"uint256"}],"outputs":[],"stateMutability":"nonpayable"},{"type":"function","name":"withdrawTotalAmount","inputs":[{"name":"user","type":"address","internalType":"address"}],"outputs":[],"stateMutability":"nonpayable"},{"type":"event","name":"CollateralDeposited","inputs":[{"name":"depositor","type":"address","indexed":true,"internalType":"address"},{"name":"amount","type":"uint256","indexed":true,"internalType":"uint256"}],"anonymous":false},{"type":"event","name":"DepositLiquidity","inputs":[{"name":"depositor","type":"address","indexed":true,"internalType":"address"},{"name":"amount","type":"uint256","indexed":true,"internalType":"uint256"},{"name":"shares_minted","type":"uint256","indexed":false,"internalType":"uint256"},{"name":"depositCounter","type":"uint256","indexed":true,"internalType":"uint256"}],"anonymous":false},{"type":"event","name":"SimpleWithdraw","inputs":[{"name":"depositor","type":"address","indexed":true,"internalType":"address"},{"name":"amount","type":"uint256","indexed":true,"internalType":"uint256"},{"name":"depositCounter","type":"uint256","indexed":true,"internalType":"uint256"}],"anonymous":false},{"type":"error","name":"AddressEmptyCode","inputs":[{"name":"target","type":"address","internalType":"address"}]},{"type":"error","name":"AddressInsufficientBalance","inputs":[{"name":"account","type":"address","internalType":"address"}]},{"type":"error","name":"CoreLogic__InvalidDepositId","inputs":[]},{"type":"error","name":"CoreLogic__OnlyRouter","inputs":[]},{"type":"error","name":"CoreLogic__OutOfBalance","inputs":[]},{"type":"error","name":"FailedInnerCall","inputs":[]},{"type":"error","name":"SafeERC20FailedOperation","inputs":[{"name":"token","type":"address","internalType":"address"}]}],"bytecode":{"object":"0x61012060405234801561001157600080fd5b50604051611a39380380611a3983398101604081905261003091610073565b6001600160a01b039384166080523360a052831660c05290821660e05216610100526100c7565b80516001600160a01b038116811461006e57600080fd5b919050565b6000806000806080858703121561008957600080fd5b61009285610057565b93506100a060208601610057565b92506100ae60408601610057565b91506100bc60608601610057565b905092959194509250565b60805160a05160c05160e051610100516118a9610190600039600081816102d60152818161039601528181610507015281816105380152818161066301528181610694015281816107a3015281816107d40152818161092201526109530152600081816103160152818161088401528181610d3b01528181610dc30152610e6e015260006101640152600061028a0152600081816101b3015281816103d10152818161048a015281816109fc01528181610bb101528181610ccf0152610eff01526118a96000f3fe608060405234801561001057600080fd5b50600436106101375760003560e01c8063877db9dd116100b8578063b0f479a11161007c578063b0f479a1146102d4578063b1a93393146102fa578063cb8284d014610301578063e0abca0b14610314578063ea999dff1461033a578063f27feeaf1461034d57600080fd5b8063877db9dd1461026d578063a130361614610280578063a32cf53614610288578063a5d5db0c146102ae578063ac5f8359146102c157600080fd5b8063248c181b116100ff578063248c181b146101ea57806327f9c4c1146101f25780635de0a9af1461021e57806362fb2e8414610231578063654c62951461024457600080fd5b8063085863171461013c5780631294572114610162578063134bde111461019c5780631ba46cfd146101b1578063220a36b6146101d7575b600080fd5b61014f61014a366004611401565b610360565b6040519081526020015b60405180910390f35b7f00000000000000000000000000000000000000000000000000000000000000005b6040516001600160a01b039091168152602001610159565b6101af6101aa366004611401565b61038c565b005b7f0000000000000000000000000000000000000000000000000000000000000000610184565b6101af6101e536600461142b565b6104fd565b60045461014f565b61014f61020036600461142b565b6001600160a01b031660009081526020819052604090206004015490565b61014f61022c36600461142b565b610628565b6101af61023f366004611401565b610659565b61014f61025236600461142b565b6001600160a01b031660009081526001602052604090205490565b61014f61027b36600461142b565b610779565b60035461014f565b7f0000000000000000000000000000000000000000000000000000000000000000610184565b6101af6102bc366004611401565b610799565b61014f6102cf366004611446565b610863565b7f0000000000000000000000000000000000000000000000000000000000000000610184565b600361014f565b61014f61030f366004611401565b61087f565b7f0000000000000000000000000000000000000000000000000000000000000000610184565b6101af610348366004611468565b610918565b61014f61035b36600461149b565b610d36565b6001600160a01b0382166000908152602081815260408083208484526002019091529020545b92915050565b6001600160a01b037f00000000000000000000000000000000000000000000000000000000000000001633036104f9576040516370a0823160e01b81523060048201527f00000000000000000000000000000000000000000000000000000000000000006001600160a01b0316906370a0823190602401602060405180830381865afa158015610420573d6000803e3d6000fd5b505050506040513d601f19601f8201168201806040525081019061044491906114b4565b81111561046457604051631ec7992b60e21b815260040160405180910390fd5b60405163a9059cbb60e01b81526001600160a01b038381166004830152602482018390527f0000000000000000000000000000000000000000000000000000000000000000169063a9059cbb906044016020604051808303816000875af11580156104d3573d6000803e3d6000fd5b505050506040513d601f19601f820116820180604052508101906104f791906114cd565b505b5050565b6001600160a01b037f000000000000000000000000000000000000000000000000000000000000000016330361062557336001600160a01b037f0000000000000000000000000000000000000000000000000000000000000000161461057e5760405162461bcd60e51b8152600401610575906114ef565b60405180910390fd5b6001600160a01b038116600090815260208190526040812060040154905b6001600160a01b0383166000908152602081905260409020600301548110156104f7576001600160a01b03831660009081526020818152604080832084845260010190915290205460ff1661061d576001600160a01b03831660009081526020818152604080832084845260020190915290205461061b848284610918565b505b60010161059c565b50565b6001600160a01b03811660009081526020819052604081206004015481905b905061065281610d36565b9392505050565b6001600160a01b037f00000000000000000000000000000000000000000000000000000000000000001633036104f957336001600160a01b037f000000000000000000000000000000000000000000000000000000000000000016146106d15760405162461bcd60e51b815260040161057590611531565b6001600160a01b038216600081815260208181526040808320600380820180548652600283018552838620889055805486529483902042600191820155600480840180548a019055825489019092558154019055925490518581529293909285927f77b57bffc1c97e4762d78efd74300ab40a13dc946d0e09b33ead3a5b35cfa7d3910160405180910390a460038101805490600061076f83611589565b9190505550505050565b6001600160a01b0381166000908152600160205260408120548190610647565b6001600160a01b037f00000000000000000000000000000000000000000000000000000000000000001633036104f957336001600160a01b037f000000000000000000000000000000000000000000000000000000000000000016146108115760405162461bcd60e51b815260040161057590611531565b6001600160a01b0382166000818152600160205260408082208054850190556002805485019055518392917fd7243f6f8212d5188fd054141cf6ea89cfc0d91facb8c3afe2f88a135848014291a35050565b600060025460035461087591906115a2565b61065290846115b5565b6000807f00000000000000000000000000000000000000000000000000000000000000006001600160a01b031663313ce5676040518163ffffffff1660e01b8152600401602060405180830381865afa1580156108e0573d6000803e3d6000fd5b505050506040513d601f19601f8201168201806040525081019061090491906115c8565b61090f9060126115eb565b90505092915050565b6001600160a01b037f00000000000000000000000000000000000000000000000000000000000000001633036104f757336001600160a01b037f000000000000000000000000000000000000000000000000000000000000000016146109905760405162461bcd60e51b8152600401610575906114ef565b6001600160a01b0383166000908152602081905260409020600301548111156109cc57604051635fe74ebf60e11b815260040160405180910390fd5b6001600160a01b0383811660009081526020819052604080822090516370a0823160e01b815230600482015290927f000000000000000000000000000000000000000000000000000000000000000016906370a0823190602401602060405180830381865afa158015610a43573d6000803e3d6000fd5b505050506040513d601f19601f82011682018060405250810190610a6791906114b4565b9050610a9c6040518060400160405280601181526020017002a37ba30b6102130b630b731b29034b99607d1b81525082610fdc565b60008381526002830160205260409020548403610c1557600083815260028301602052604081208054869290610ad39084906115b5565b9250508190555083826004016000828254610aee91906115b5565b90915550508154600181810184556000848152602080822090930186905585815281850190925260408220805460ff1916909117905560038054869290610b369084906115b5565b909155505060048054906000610b4b83611604565b90915550506000838152600283016020526040812060010154610b7090869084611021565b9050610bac60405180604001604052806018815260200177020b6b7bab73a102bb4ba341024b73a32b932b9ba1034b9960451b81525082610fdc565b610bd77f00000000000000000000000000000000000000000000000000000000000000008783611185565b8381876001600160a01b03167f9b9970c5ed4609e15fd1dedd289d5697670692b2f58988736a098d44fd4cb3db60405160405180910390a450610d2f565b600083815260028301602052604081208054869290610c359084906115b5565b9250508190555083826004016000828254610c5091906115b5565b925050819055508360036000828254610c6991906115b5565b90915550506000838152600283016020526040812060010154610c8e90869084611021565b9050610cca60405180604001604052806018815260200177020b6b7bab73a102bb4ba341024b73a32b932b9ba1034b9960451b81525082610fdc565b610cf57f00000000000000000000000000000000000000000000000000000000000000008783611185565b8381876001600160a01b03167f9b9970c5ed4609e15fd1dedd289d5697670692b2f58988736a098d44fd4cb3db60405160405180910390a4505b5050505050565b6000807f00000000000000000000000000000000000000000000000000000000000000006001600160a01b031663feaf968c6040518163ffffffff1660e01b815260040160a060405180830381865afa158015610d97573d6000803e3d6000fd5b505050506040513d601f19601f82011682018060405250810190610dbb9190611635565b5050509150507f00000000000000000000000000000000000000000000000000000000000000006001600160a01b031663313ce5676040518163ffffffff1660e01b8152600401602060405180830381865afa158015610e1f573d6000803e3d6000fd5b505050506040513d601f19601f82011682018060405250810190610e4391906115c8565b60ff16601203610e6a57670de0b6b3a7640000610e608285611685565b610652919061169c565b60007f00000000000000000000000000000000000000000000000000000000000000006001600160a01b031663313ce5676040518163ffffffff1660e01b8152600401602060405180830381865afa158015610eca573d6000803e3d6000fd5b505050506040513d601f19601f82011682018060405250810190610eee91906115c8565b610ef99060126115eb565b905060007f00000000000000000000000000000000000000000000000000000000000000006001600160a01b031663313ce5676040518163ffffffff1660e01b8152600401602060405180830381865afa158015610f5b573d6000803e3d6000fd5b505050506040513d601f19601f82011682018060405250810190610f7f91906115c8565b610f8a9060126115eb565b9050670de0b6b3a7640000610fa083600a6117a2565b610faa9085611685565b610fb583600a6117a2565b610fbf9088611685565b610fc99190611685565b610fd3919061169c565b95945050505050565b6104f98282604051602401610ff2929190611801565b60408051601f198184030181529190526020810180516001600160e01b03166309710a9d60e41b1790526111d7565b600083820361106b576110348285610863565b61103e90856115a2565b90506110666040518060400160405280600581526020016448656c6c6f60d81b8152506111f8565b610652565b6110916040518060400160405280600581526020016448656c6c6f60d81b8152506111f8565b600061109d84426115b5565b905060006110ab86856115b5565b905060006110b98588610863565b90506110dd6040518060600160405280602181526020016118536021913982610fdc565b6000826110eb896064611685565b6110f5919061169c565b905080600003611143576000606461110e8a6062611685565b611118919061169c565b611122908a6115b5565b905061112e818a6115a2565b95506111398661123b565b5050505050610652565b60006111536301dfe2008461169c565b905060006111618683611685565b905061116d838261169c565b611177908b6115a2565b9a9950505050505050505050565b604080516001600160a01b038416602482015260448082018490528251808303909101815260649091019091526020810180516001600160e01b031663a9059cbb60e01b1790526104f7908490611280565b80516a636f6e736f6c652e6c6f67602083016000808483855afa5050505050565b6106258160405160240161120c9190611823565b60408051601f198184030181529190526020810180516001600160e01b031663104c13eb60e21b1790526111d7565b6106258160405160240161125191815260200190565b60408051601f198184030181529190526020810180516001600160e01b031663f5b1bba960e01b1790526111d7565b60006112956001600160a01b038416836112e3565b905080516000141580156112ba5750808060200190518101906112b891906114cd565b155b156104f757604051635274afe760e01b81526001600160a01b0384166004820152602401610575565b60606106528383600084600080856001600160a01b031684866040516113099190611836565b60006040518083038185875af1925050503d8060008114611346576040519150601f19603f3d011682016040523d82523d6000602084013e61134b565b606091505b509150915061135b868383611365565b9695505050505050565b60608261137557611066826113bc565b815115801561138c57506001600160a01b0384163b155b156113b557604051639996b31560e01b81526001600160a01b0385166004820152602401610575565b5080610652565b8051156113cc5780518082602001fd5b604051630a12f52160e11b815260040160405180910390fd5b80356001600160a01b03811681146113fc57600080fd5b919050565b6000806040838503121561141457600080fd5b61141d836113e5565b946020939093013593505050565b60006020828403121561143d57600080fd5b610652826113e5565b6000806040838503121561145957600080fd5b50508035926020909101359150565b60008060006060848603121561147d57600080fd5b611486846113e5565b95602085013595506040909401359392505050565b6000602082840312156114ad57600080fd5b5035919050565b6000602082840312156114c657600080fd5b5051919050565b6000602082840312156114df57600080fd5b8151801515811461065257600080fd5b60208082526022908201527f4f6e6c7920726f757465722063616e2063616c6c20746869732066756e63746960408201526137b760f11b606082015260800190565b60208082526022908201527f4f6e6c7920526f757465722063616e2063616c6c20746869732066756e63746960408201526137b760f11b606082015260800190565b634e487b7160e01b600052601160045260246000fd5b60006001820161159b5761159b611573565b5060010190565b8082018082111561038657610386611573565b8181038181111561038657610386611573565b6000602082840312156115da57600080fd5b815160ff8116811461065257600080fd5b60ff828116828216039081111561038657610386611573565b60008161161357611613611573565b506000190190565b805169ffffffffffffffffffff811681146113fc57600080fd5b600080600080600060a0868803121561164d57600080fd5b6116568661161b565b94506020860151935060408601519250606086015191506116796080870161161b565b90509295509295909350565b808202811582820484141761038657610386611573565b6000826116b957634e487b7160e01b600052601260045260246000fd5b500490565b600181815b808511156116f95781600019048211156116df576116df611573565b808516156116ec57918102915b93841c93908002906116c3565b509250929050565b60008261171057506001610386565b8161171d57506000610386565b8160018114611733576002811461173d57611759565b6001915050610386565b60ff84111561174e5761174e611573565b50506001821b610386565b5060208310610133831016604e8410600b841016171561177c575081810a610386565b61178683836116be565b806000190482111561179a5761179a611573565b029392505050565b600061065260ff841683611701565b60005b838110156117cc5781810151838201526020016117b4565b50506000910152565b600081518084526117ed8160208601602086016117b1565b601f01601f19169290920160200192915050565b60408152600061181460408301856117d5565b90508260208301529392505050565b60208152600061065260208301846117d5565b600082516118488184602087016117b1565b919091019291505056fe546f74616c204163637275656420496e74657265737420416d6f756e7420697320a26469706673582212206def43dfee4382ad5119da9f7fb5f58647f2f47875c80241e9e667c552cc1f0164736f6c63430008190033","linkReferences":{}},"methodIdentifiers":{"FlashLoan(address,uint256)":"134bde11","assetAddress()":"1ba46cfd","depositCollateral(address,uint256)":"a5d5db0c","depositLiquidityAndMintTokens(address,uint256)":"62fb2e84","getBorrowableAmountBasedOnUSDAmount(address,uint256)":"cb8284d0","getCollateralAmount(address)":"654c6295","getCollateralValueInUSD(address)":"877db9dd","getDepositInterestRate()":"b1a93393","getDepositValueInUSD(address)":"5de0a9af","getIndividualDepositAmount(address,uint256)":"08586317","getRouter()":"b0f479a1","getTotalDepositAmount(address)":"27f9c4c1","getTotalInterestAmount(uint256,uint256)":"ac5f8359","getTotalUserCounter()":"248c181b","getTotalUserDeposits()":"a1303616","getValueInUSD(uint256)":"f27feeaf","lendingTokenAddress()":"12945721","poolFactoryAddress()":"a32cf536","priceFeedAddress()":"e0abca0b","withdrawLiquidity(address,uint256,uint256)":"ea999dff","withdrawTotalAmount(address)":"220a36b6"},"id":4}