{"abi":[{"type":"constructor","inputs":[{"name":"token","type":"address","internalType":"address"},{"name":"priceFeed","type":"address","internalType":"address"},{"name":"router","type":"address","internalType":"address"},{"name":"lendToken","type":"address","internalType":"address"}],"stateMutability":"nonpayable"},{"type":"function","name":"FlashLoan","inputs":[{"name":"receiver","type":"address","internalType":"address"},{"name":"amount","type":"uint256","internalType":"uint256"}],"outputs":[],"stateMutability":"nonpayable"},{"type":"function","name":"assetAddress","inputs":[],"outputs":[{"name":"","type":"address","internalType":"address"}],"stateMutability":"view"},{"type":"function","name":"depositCollateral","inputs":[{"name":"depositor","type":"address","internalType":"address"},{"name":"amount","type":"uint256","internalType":"uint256"}],"outputs":[],"stateMutability":"nonpayable"},{"type":"function","name":"depositLiquidityAndMintTokens","inputs":[{"name":"depositor","type":"address","internalType":"address"},{"name":"amount","type":"uint256","internalType":"uint256"}],"outputs":[],"stateMutability":"nonpayable"},{"type":"function","name":"getBorrowableAmountBasedOnUSDAmount","inputs":[{"name":"user","type":"address","internalType":"address"},{"name":"collateralInUSD","type":"uint256","internalType":"uint256"}],"outputs":[{"name":"value","type":"uint256","internalType":"uint256"}],"stateMutability":"view"},{"type":"function","name":"getCollateralAmount","inputs":[{"name":"user","type":"address","internalType":"address"}],"outputs":[{"name":"","type":"uint256","internalType":"uint256"}],"stateMutability":"view"},{"type":"function","name":"getDepositAmount","inputs":[{"name":"user","type":"address","internalType":"address"}],"outputs":[{"name":"depositedAmount","type":"uint256","internalType":"uint256"}],"stateMutability":"view"},{"type":"function","name":"getDepositValueInUSD","inputs":[{"name":"user","type":"address","internalType":"address"}],"outputs":[{"name":"","type":"uint256","internalType":"uint256"}],"stateMutability":"view"},{"type":"function","name":"getRouter","inputs":[],"outputs":[{"name":"","type":"address","internalType":"address"}],"stateMutability":"view"},{"type":"function","name":"lendingTokenAddress","inputs":[],"outputs":[{"name":"","type":"address","internalType":"address"}],"stateMutability":"view"},{"type":"function","name":"poolFactoryAddress","inputs":[],"outputs":[{"name":"","type":"address","internalType":"address"}],"stateMutability":"view"},{"type":"function","name":"priceFeedAddress","inputs":[],"outputs":[{"name":"","type":"address","internalType":"address"}],"stateMutability":"view"},{"type":"function","name":"withdrawLiquidity","inputs":[{"name":"user","type":"address","internalType":"address"},{"name":"amount","type":"uint256","internalType":"uint256"},{"name":"depositId","type":"uint256","internalType":"uint256"}],"outputs":[],"stateMutability":"nonpayable"},{"type":"function","name":"withdrawTotalAmount","inputs":[{"name":"user","type":"address","internalType":"address"}],"outputs":[],"stateMutability":"nonpayable"},{"type":"event","name":"CollateralDeposited","inputs":[{"name":"depositor","type":"address","indexed":true,"internalType":"address"},{"name":"amount","type":"uint256","indexed":true,"internalType":"uint256"}],"anonymous":false},{"type":"event","name":"DepositLiquidity","inputs":[{"name":"depositor","type":"address","indexed":true,"internalType":"address"},{"name":"amount","type":"uint256","indexed":true,"internalType":"uint256"},{"name":"shares_minted","type":"uint256","indexed":false,"internalType":"uint256"},{"name":"depositCounter","type":"uint256","indexed":true,"internalType":"uint256"}],"anonymous":false},{"type":"event","name":"SimpleWithdraw","inputs":[{"name":"depositor","type":"address","indexed":true,"internalType":"address"},{"name":"amount","type":"uint256","indexed":true,"internalType":"uint256"},{"name":"depositCounter","type":"uint256","indexed":true,"internalType":"uint256"}],"anonymous":false},{"type":"error","name":"AddressEmptyCode","inputs":[{"name":"target","type":"address","internalType":"address"}]},{"type":"error","name":"AddressInsufficientBalance","inputs":[{"name":"account","type":"address","internalType":"address"}]},{"type":"error","name":"CoreLogic__InvalidDepositId","inputs":[]},{"type":"error","name":"CoreLogic__OnlyRouter","inputs":[]},{"type":"error","name":"CoreLogic__OutOfBalance","inputs":[]},{"type":"error","name":"FailedInnerCall","inputs":[]},{"type":"error","name":"SafeERC20FailedOperation","inputs":[{"name":"token","type":"address","internalType":"address"}]}],"bytecode":{"object":"0x61012060405234801561001157600080fd5b506040516113e03803806113e083398101604081905261003091610073565b6001600160a01b039384166080523360a052831660c05290821660e05216610100526100c7565b80516001600160a01b038116811461006e57600080fd5b919050565b6000806000806080858703121561008957600080fd5b61009285610057565b93506100a060208601610057565b92506100ae60408601610057565b91506100bc60608601610057565b905092959194509250565b60805160a05160c05160e0516101005161125161018f60003960008181610214015281816102ba0152818161042b0152818161045c0152818161079b015281816107cc015281816108da0152818161090b01528181610a610152610a92015260008181610279015281816104aa015281816105320152818161060701526109c30152600060f1015260006101db015260008181610145015281816102f5015281816103ae015281816106980152818161080e0152818161094d0152610b9201526112516000f3fe608060405234801561001057600080fd5b50600436106100ea5760003560e01c8063a32cf5361161008c578063b8ba16fd11610066578063b8ba16fd14610238578063cb8284d014610264578063e0abca0b14610277578063ea999dff1461029d57600080fd5b8063a32cf536146101d9578063a5d5db0c146101ff578063b0f479a11461021257600080fd5b8063220a36b6116100c8578063220a36b6146101695780635de0a9af1461017c57806362fb2e841461019d578063654c6295146101b057600080fd5b806312945721146100ef578063134bde111461012e5780631ba46cfd14610143575b600080fd5b7f00000000000000000000000000000000000000000000000000000000000000005b6040516001600160a01b0390911681526020015b60405180910390f35b61014161013c366004610ea1565b6102b0565b005b7f0000000000000000000000000000000000000000000000000000000000000000610111565b610141610177366004610ecb565b610421565b61018f61018a366004610ecb565b6104a5565b604051908152602001610125565b6101416101ab366004610ea1565b610791565b61018f6101be366004610ecb565b6001600160a01b031660009081526001602052604090205490565b7f0000000000000000000000000000000000000000000000000000000000000000610111565b61014161020d366004610ea1565b6108d0565b7f0000000000000000000000000000000000000000000000000000000000000000610111565b61018f610246366004610ecb565b6001600160a01b031660009081526020819052604090206003015490565b61018f610272366004610ea1565b6109be565b7f0000000000000000000000000000000000000000000000000000000000000000610111565b6101416102ab366004610ee6565b610a57565b6001600160a01b037f000000000000000000000000000000000000000000000000000000000000000016330361041d576040516370a0823160e01b81523060048201527f00000000000000000000000000000000000000000000000000000000000000006001600160a01b0316906370a0823190602401602060405180830381865afa158015610344573d6000803e3d6000fd5b505050506040513d601f19601f820116820180604052508101906103689190610f19565b81111561038857604051631ec7992b60e21b815260040160405180910390fd5b60405163a9059cbb60e01b81526001600160a01b038381166004830152602482018390527f0000000000000000000000000000000000000000000000000000000000000000169063a9059cbb906044016020604051808303816000875af11580156103f7573d6000803e3d6000fd5b505050506040513d601f19601f8201168201806040525081019061041b9190610f32565b505b5050565b6001600160a01b037f00000000000000000000000000000000000000000000000000000000000000001633036104a257336001600160a01b037f000000000000000000000000000000000000000000000000000000000000000016146104a25760405162461bcd60e51b815260040161049990610f54565b60405180910390fd5b50565b6000807f00000000000000000000000000000000000000000000000000000000000000006001600160a01b031663feaf968c6040518163ffffffff1660e01b815260040160a060405180830381865afa158015610506573d6000803e3d6000fd5b505050506040513d601f19601f8201168201806040525081019061052a9190610fb0565b5050509150507f00000000000000000000000000000000000000000000000000000000000000006001600160a01b031663313ce5676040518163ffffffff1660e01b8152600401602060405180830381865afa15801561058e573d6000803e3d6000fd5b505050506040513d601f19601f820116820180604052508101906105b29190611000565b60ff1660120361060357670de0b6b3a7640000816105e8856001600160a01b031660009081526020819052604090206003015490565b6105f29190611039565b6105fc9190611050565b9392505050565b60007f00000000000000000000000000000000000000000000000000000000000000006001600160a01b031663313ce5676040518163ffffffff1660e01b8152600401602060405180830381865afa158015610663573d6000803e3d6000fd5b505050506040513d601f19601f820116820180604052508101906106879190611000565b610692906012611072565b905060007f00000000000000000000000000000000000000000000000000000000000000006001600160a01b031663313ce5676040518163ffffffff1660e01b8152600401602060405180830381865afa1580156106f4573d6000803e3d6000fd5b505050506040513d601f19601f820116820180604052508101906107189190611000565b610723906012611072565b9050670de0b6b3a764000061073983600a61116f565b6107439085611039565b61074e83600a61116f565b6001600160a01b0388166000908152602081905260409020600301546107749190611039565b61077e9190611039565b6107889190611050565b95945050505050565b6001600160a01b037f000000000000000000000000000000000000000000000000000000000000000016330361041d57336001600160a01b037f000000000000000000000000000000000000000000000000000000000000000016146108095760405162461bcd60e51b81526004016104999061117e565b6108357f0000000000000000000000000000000000000000000000000000000000000000833084610c51565b6001600160a01b03821660008181526020818152604080832060028101805485526001808301855283862088905581548652948390204295019490945560038101805487019055925490518581529293909285927f77b57bffc1c97e4762d78efd74300ab40a13dc946d0e09b33ead3a5b35cfa7d3910160405180910390a46002810180549060006108c6836111c0565b9190505550505050565b6001600160a01b037f000000000000000000000000000000000000000000000000000000000000000016330361041d57336001600160a01b037f000000000000000000000000000000000000000000000000000000000000000016146109485760405162461bcd60e51b81526004016104999061117e565b6109747f0000000000000000000000000000000000000000000000000000000000000000833084610c51565b6001600160a01b038216600081815260016020526040808220805485019055518392917fd7243f6f8212d5188fd054141cf6ea89cfc0d91facb8c3afe2f88a135848014291a35050565b6000807f00000000000000000000000000000000000000000000000000000000000000006001600160a01b031663313ce5676040518163ffffffff1660e01b8152600401602060405180830381865afa158015610a1f573d6000803e3d6000fd5b505050506040513d601f19601f82011682018060405250810190610a439190611000565b610a4e906012611072565b90505092915050565b6001600160a01b037f000000000000000000000000000000000000000000000000000000000000000016330361041b57336001600160a01b037f00000000000000000000000000000000000000000000000000000000000000001614610acf5760405162461bcd60e51b815260040161049990610f54565b6001600160a01b038316600090815260208190526040902060020154811115610b0b57604051635fe74ebf60e11b815260040160405180910390fd5b6001600160a01b03831660009081526020818152604080832084845260018101909252909120548303610bf557600082815260018201602052604081208054859290610b589084906111d9565b9250508190555082816003016000828254610b7391906111d9565b9091555050805460018101825560008281526020902001829055610bb87f00000000000000000000000000000000000000000000000000000000000000008585610cb8565b8183856001600160a01b03167f9b9970c5ed4609e15fd1dedd289d5697670692b2f58988736a098d44fd4cb3db60405160405180910390a4610c4b565b600082815260018201602052604081208054859290610c159084906111d9565b9250508190555082816003016000828254610c3091906111d9565b90915550508054600181018255600082815260209020018290555b50505050565b6040516001600160a01b038481166024830152838116604483015260648201839052610c4b9186918216906323b872dd906084015b604051602081830303815290604052915060e01b6020820180516001600160e01b038381831617835250505050610ce9565b6040516001600160a01b0383811660248301526044820183905261041b91859182169063a9059cbb90606401610c86565b6000610cfe6001600160a01b03841683610d4c565b90508051600014158015610d23575080806020019051810190610d219190610f32565b155b1561041b57604051635274afe760e01b81526001600160a01b0384166004820152602401610499565b6060610d5a83836000610d63565b90505b92915050565b606081471015610d885760405163cd78605960e01b8152306004820152602401610499565b600080856001600160a01b03168486604051610da491906111ec565b60006040518083038185875af1925050503d8060008114610de1576040519150601f19603f3d011682016040523d82523d6000602084013e610de6565b606091505b5091509150610df6868383610e00565b9695505050505050565b606082610e1557610e1082610e5c565b6105fc565b8151158015610e2c57506001600160a01b0384163b155b15610e5557604051639996b31560e01b81526001600160a01b0385166004820152602401610499565b50806105fc565b805115610e6c5780518082602001fd5b604051630a12f52160e11b815260040160405180910390fd5b80356001600160a01b0381168114610e9c57600080fd5b919050565b60008060408385031215610eb457600080fd5b610ebd83610e85565b946020939093013593505050565b600060208284031215610edd57600080fd5b610d5a82610e85565b600080600060608486031215610efb57600080fd5b610f0484610e85565b95602085013595506040909401359392505050565b600060208284031215610f2b57600080fd5b5051919050565b600060208284031215610f4457600080fd5b815180151581146105fc57600080fd5b60208082526022908201527f4f6e6c7920726f757465722063616e2063616c6c20746869732066756e63746960408201526137b760f11b606082015260800190565b805169ffffffffffffffffffff81168114610e9c57600080fd5b600080600080600060a08688031215610fc857600080fd5b610fd186610f96565b9450602086015193506040860151925060608601519150610ff460808701610f96565b90509295509295909350565b60006020828403121561101257600080fd5b815160ff811681146105fc57600080fd5b634e487b7160e01b600052601160045260246000fd5b8082028115828204841417610d5d57610d5d611023565b60008261106d57634e487b7160e01b600052601260045260246000fd5b500490565b60ff8281168282160390811115610d5d57610d5d611023565b600181815b808511156110c65781600019048211156110ac576110ac611023565b808516156110b957918102915b93841c9390800290611090565b509250929050565b6000826110dd57506001610d5d565b816110ea57506000610d5d565b8160018114611100576002811461110a57611126565b6001915050610d5d565b60ff84111561111b5761111b611023565b50506001821b610d5d565b5060208310610133831016604e8410600b8410161715611149575081810a610d5d565b611153838361108b565b806000190482111561116757611167611023565b029392505050565b6000610d5a60ff8416836110ce565b60208082526022908201527f4f6e6c7920526f757465722063616e2063616c6c20746869732066756e63746960408201526137b760f11b606082015260800190565b6000600182016111d2576111d2611023565b5060010190565b81810381811115610d5d57610d5d611023565b6000825160005b8181101561120d57602081860181015185830152016111f3565b50600092019182525091905056fea2646970667358221220453f9c8ea71de609cd14838ef9ff130379cd8a147b2952a0cfd3247c49de673464736f6c63430008190033","linkReferences":{}},"methodIdentifiers":{"FlashLoan(address,uint256)":"134bde11","assetAddress()":"1ba46cfd","depositCollateral(address,uint256)":"a5d5db0c","depositLiquidityAndMintTokens(address,uint256)":"62fb2e84","getBorrowableAmountBasedOnUSDAmount(address,uint256)":"cb8284d0","getCollateralAmount(address)":"654c6295","getDepositAmount(address)":"b8ba16fd","getDepositValueInUSD(address)":"5de0a9af","getRouter()":"b0f479a1","lendingTokenAddress()":"12945721","poolFactoryAddress()":"a32cf536","priceFeedAddress()":"e0abca0b","withdrawLiquidity(address,uint256,uint256)":"ea999dff","withdrawTotalAmount(address)":"220a36b6"},"id":4}