{"abi":[{"type":"constructor","inputs":[{"name":"token","type":"address","internalType":"address"},{"name":"pricefeed","type":"address","internalType":"address"}],"stateMutability":"nonpayable"},{"type":"function","name":"assetAddress","inputs":[],"outputs":[{"name":"","type":"address","internalType":"address"}],"stateMutability":"view"},{"type":"function","name":"lendingTokenAddress","inputs":[],"outputs":[{"name":"","type":"address","internalType":"address"}],"stateMutability":"view"},{"type":"function","name":"poolFactoryAddress","inputs":[],"outputs":[{"name":"","type":"address","internalType":"address"}],"stateMutability":"view"},{"type":"function","name":"priceFeedAddress","inputs":[],"outputs":[{"name":"","type":"address","internalType":"address"}],"stateMutability":"view"}],"bytecode":{"object":"0x61010060405234801561001157600080fd5b50604051610e48380380610e48833981016040819052610030916100ab565b6001600160a01b0382166080523360a05260405161004d90610082565b604051809103906000f080158015610069573d6000803e3d6000fd5b506001600160a01b0390811660c0521660e052506100de565b610c078061024183390190565b80516001600160a01b03811681146100a657600080fd5b919050565b600080604083850312156100be57600080fd5b6100c78361008f565b91506100d56020840161008f565b90509250929050565b60805160a05160c05160e05161012e610113600039600060d501526000604d0152600060b001526000608b015261012e6000f3fe6080604052348015600f57600080fd5b506004361060465760003560e01c80631294572114604b5780631ba46cfd146089578063a32cf5361460ae578063e0abca0b1460d3575b600080fd5b7f00000000000000000000000000000000000000000000000000000000000000005b6040516001600160a01b03909116815260200160405180910390f35b7f0000000000000000000000000000000000000000000000000000000000000000606d565b7f0000000000000000000000000000000000000000000000000000000000000000606d565b7f0000000000000000000000000000000000000000000000000000000000000000606d56fea2646970667358221220f0d076a266f8de6da9e9f0bc139cac44c1b8e0530535e1e5d5209237eac04aa864736f6c63430008190033608060405234801561001057600080fd5b50336040518060400160405280600d81526020016c5468654c656e64546f6b656e7360981b815250604051806040016040528060078152602001664c546f6b656e7360c81b815250816003908161006791906101a7565b50600461007482826101a7565b5050506001600160a01b0381166100a557604051631e4fbdf760e01b81526000600482015260240160405180910390fd5b6100ae816100b4565b50610266565b600580546001600160a01b038381166001600160a01b0319831681179093556040519116919082907f8be0079c531659141344cd1fd0a4f28419497f9722a3daafe3b4186f6b6457e090600090a35050565b634e487b7160e01b600052604160045260246000fd5b600181811c9082168061013057607f821691505b60208210810361015057634e487b7160e01b600052602260045260246000fd5b50919050565b601f8211156101a2576000816000526020600020601f850160051c8101602086101561017f5750805b601f850160051c820191505b8181101561019e5782815560010161018b565b5050505b505050565b81516001600160401b038111156101c0576101c0610106565b6101d4816101ce845461011c565b84610156565b602080601f83116001811461020957600084156101f15750858301515b600019600386901b1c1916600185901b17855561019e565b600085815260208120601f198616915b8281101561023857888601518255948401946001909101908401610219565b50858210156102565787850151600019600388901b60f8161c191681555b5050505050600190811b01905550565b610992806102756000396000f3fe608060405234801561001057600080fd5b50600436106100f55760003560e01c806370a082311161009757806395d89b411161006657806395d89b41146101f6578063a9059cbb146101fe578063dd62ed3e14610211578063f2fde38b1461024a57600080fd5b806370a0823114610197578063715018a6146101c057806379cc6790146101c85780638da5cb5b146101db57600080fd5b806323b872dd116100d357806323b872dd1461014d578063313ce5671461016057806340c10f191461016f57806342966c681461018257600080fd5b806306fdde03146100fa578063095ea7b31461011857806318160ddd1461013b575b600080fd5b61010261025d565b60405161010f91906107c2565b60405180910390f35b61012b61012636600461082d565b6102ef565b604051901515815260200161010f565b6002545b60405190815260200161010f565b61012b61015b366004610857565b610309565b6040516012815260200161010f565b61012b61017d36600461082d565b61032d565b610195610190366004610893565b61034a565b005b61013f6101a53660046108ac565b6001600160a01b031660009081526020819052604090205490565b61019561035f565b6101956101d636600461082d565b610373565b6005546040516001600160a01b03909116815260200161010f565b61010261038c565b61012b61020c36600461082d565b61039b565b61013f61021f3660046108ce565b6001600160a01b03918216600090815260016020908152604080832093909416825291909152205490565b6101956102583660046108ac565b6103a9565b60606003805461026c90610901565b80601f016020809104026020016040519081016040528092919081815260200182805461029890610901565b80156102e55780601f106102ba576101008083540402835291602001916102e5565b820191906000526020600020905b8154815290600101906020018083116102c857829003601f168201915b5050505050905090565b6000336102fd8185856103e9565b60019150505b92915050565b6000336103178582856103fb565b610322858585610479565b506001949350505050565b60006103376104d8565b6103418383610505565b50600192915050565b6103526104d8565b61035c338261053b565b50565b6103676104d8565b6103716000610571565b565b61037e8233836103fb565b610388828261053b565b5050565b60606004805461026c90610901565b6000336102fd818585610479565b6103b16104d8565b6001600160a01b0381166103e057604051631e4fbdf760e01b8152600060048201526024015b60405180910390fd5b61035c81610571565b6103f683838360016105c3565b505050565b6001600160a01b038381166000908152600160209081526040808320938616835292905220546000198114610473578181101561046457604051637dc7a0d960e11b81526001600160a01b038416600482015260248101829052604481018390526064016103d7565b610473848484840360006105c3565b50505050565b6001600160a01b0383166104a357604051634b637e8f60e11b8152600060048201526024016103d7565b6001600160a01b0382166104cd5760405163ec442f0560e01b8152600060048201526024016103d7565b6103f6838383610698565b6005546001600160a01b031633146103715760405163118cdaa760e01b81523360048201526024016103d7565b6001600160a01b03821661052f5760405163ec442f0560e01b8152600060048201526024016103d7565b61038860008383610698565b6001600160a01b03821661056557604051634b637e8f60e11b8152600060048201526024016103d7565b61038882600083610698565b600580546001600160a01b038381166001600160a01b0319831681179093556040519116919082907f8be0079c531659141344cd1fd0a4f28419497f9722a3daafe3b4186f6b6457e090600090a35050565b6001600160a01b0384166105ed5760405163e602df0560e01b8152600060048201526024016103d7565b6001600160a01b03831661061757604051634a1406b160e11b8152600060048201526024016103d7565b6001600160a01b038085166000908152600160209081526040808320938716835292905220829055801561047357826001600160a01b0316846001600160a01b03167f8c5be1e5ebec7d5bd14f71427d1e84f3dd0314c0f7b2291e5b200ac8c7c3b9258460405161068a91815260200190565b60405180910390a350505050565b6001600160a01b0383166106c35780600260008282546106b8919061093b565b909155506107359050565b6001600160a01b038316600090815260208190526040902054818110156107165760405163391434e360e21b81526001600160a01b038516600482015260248101829052604481018390526064016103d7565b6001600160a01b03841660009081526020819052604090209082900390555b6001600160a01b03821661075157600280548290039055610770565b6001600160a01b03821660009081526020819052604090208054820190555b816001600160a01b0316836001600160a01b03167fddf252ad1be2c89b69c2b068fc378daa952ba7f163c4a11628f55a4df523b3ef836040516107b591815260200190565b60405180910390a3505050565b60006020808352835180602085015260005b818110156107f0578581018301518582016040015282016107d4565b506000604082860101526040601f19601f8301168501019250505092915050565b80356001600160a01b038116811461082857600080fd5b919050565b6000806040838503121561084057600080fd5b61084983610811565b946020939093013593505050565b60008060006060848603121561086c57600080fd5b61087584610811565b925061088360208501610811565b9150604084013590509250925092565b6000602082840312156108a557600080fd5b5035919050565b6000602082840312156108be57600080fd5b6108c782610811565b9392505050565b600080604083850312156108e157600080fd5b6108ea83610811565b91506108f860208401610811565b90509250929050565b600181811c9082168061091557607f821691505b60208210810361093557634e487b7160e01b600052602260045260246000fd5b50919050565b8082018082111561030357634e487b7160e01b600052601160045260246000fdfea2646970667358221220f71a37a571e622bfcf5f19822023b0f988448ff09decfccbcc6d0774c35823f764736f6c63430008190033","linkReferences":{}},"methodIdentifiers":{"assetAddress()":"1ba46cfd","lendingTokenAddress()":"12945721","poolFactoryAddress()":"a32cf536","priceFeedAddress()":"e0abca0b"},"id":0}