{"abi":[{"type":"constructor","inputs":[{"name":"token","type":"address","internalType":"address"},{"name":"priceFeed","type":"address","internalType":"address"},{"name":"router","type":"address","internalType":"address"},{"name":"lendToken","type":"address","internalType":"address"}],"stateMutability":"nonpayable"},{"type":"function","name":"FlashLoan","inputs":[{"name":"receiver","type":"address","internalType":"address"},{"name":"amount","type":"uint256","internalType":"uint256"}],"outputs":[],"stateMutability":"nonpayable"},{"type":"function","name":"assetAddress","inputs":[],"outputs":[{"name":"","type":"address","internalType":"address"}],"stateMutability":"view"},{"type":"function","name":"depositCollateral","inputs":[{"name":"depositor","type":"address","internalType":"address"},{"name":"amount","type":"uint256","internalType":"uint256"}],"outputs":[],"stateMutability":"nonpayable"},{"type":"function","name":"depositLiquidityAndMintTokens","inputs":[{"name":"depositor","type":"address","internalType":"address"},{"name":"amount","type":"uint256","internalType":"uint256"}],"outputs":[],"stateMutability":"nonpayable"},{"type":"function","name":"getBorrowableAmountBasedOnUSDAmount","inputs":[{"name":"user","type":"address","internalType":"address"},{"name":"collateralInUSD","type":"uint256","internalType":"uint256"}],"outputs":[{"name":"value","type":"uint256","internalType":"uint256"}],"stateMutability":"view"},{"type":"function","name":"getCollateralAmount","inputs":[{"name":"user","type":"address","internalType":"address"}],"outputs":[{"name":"","type":"uint256","internalType":"uint256"}],"stateMutability":"view"},{"type":"function","name":"getDepositAmount","inputs":[{"name":"user","type":"address","internalType":"address"}],"outputs":[{"name":"depositedAmount","type":"uint256","internalType":"uint256"}],"stateMutability":"view"},{"type":"function","name":"getDepositValueInUSD","inputs":[{"name":"user","type":"address","internalType":"address"}],"outputs":[{"name":"","type":"uint256","internalType":"uint256"}],"stateMutability":"view"},{"type":"function","name":"getRouter","inputs":[],"outputs":[{"name":"","type":"address","internalType":"address"}],"stateMutability":"view"},{"type":"function","name":"lendingTokenAddress","inputs":[],"outputs":[{"name":"","type":"address","internalType":"address"}],"stateMutability":"view"},{"type":"function","name":"poolFactoryAddress","inputs":[],"outputs":[{"name":"","type":"address","internalType":"address"}],"stateMutability":"view"},{"type":"function","name":"priceFeedAddress","inputs":[],"outputs":[{"name":"","type":"address","internalType":"address"}],"stateMutability":"view"},{"type":"function","name":"withdrawLiquidity","inputs":[{"name":"user","type":"address","internalType":"address"},{"name":"amount","type":"uint256","internalType":"uint256"},{"name":"depositId","type":"uint256","internalType":"uint256"}],"outputs":[],"stateMutability":"nonpayable"},{"type":"function","name":"withdrawTotalAmount","inputs":[{"name":"user","type":"address","internalType":"address"}],"outputs":[],"stateMutability":"nonpayable"},{"type":"event","name":"CollateralDeposited","inputs":[{"name":"depositor","type":"address","indexed":true,"internalType":"address"},{"name":"amount","type":"uint256","indexed":true,"internalType":"uint256"}],"anonymous":false},{"type":"event","name":"DepositLiquidity","inputs":[{"name":"depositor","type":"address","indexed":true,"internalType":"address"},{"name":"amount","type":"uint256","indexed":true,"internalType":"uint256"},{"name":"shares_minted","type":"uint256","indexed":false,"internalType":"uint256"},{"name":"depositCounter","type":"uint256","indexed":true,"internalType":"uint256"}],"anonymous":false},{"type":"event","name":"SimpleWithdraw","inputs":[{"name":"depositor","type":"address","indexed":true,"internalType":"address"},{"name":"amount","type":"uint256","indexed":true,"internalType":"uint256"},{"name":"depositCounter","type":"uint256","indexed":true,"internalType":"uint256"}],"anonymous":false},{"type":"error","name":"AddressEmptyCode","inputs":[{"name":"target","type":"address","internalType":"address"}]},{"type":"error","name":"AddressInsufficientBalance","inputs":[{"name":"account","type":"address","internalType":"address"}]},{"type":"error","name":"CoreLogic__InvalidDepositId","inputs":[]},{"type":"error","name":"CoreLogic__OnlyRouter","inputs":[]},{"type":"error","name":"CoreLogic__OutOfBalance","inputs":[]},{"type":"error","name":"FailedInnerCall","inputs":[]},{"type":"error","name":"SafeERC20FailedOperation","inputs":[{"name":"token","type":"address","internalType":"address"}]}],"bytecode":{"object":"0x61012060405234801561001157600080fd5b5060405161148e38038061148e83398101604081905261003091610073565b6001600160a01b039384166080523360a052831660c05290821660e05216610100526100c7565b80516001600160a01b038116811461006e57600080fd5b919050565b6000806000806080858703121561008957600080fd5b61009285610057565b93506100a060208601610057565b92506100ae60408601610057565b91506100bc60608601610057565b905092959194509250565b60805160a05160c05160e051610100516112ff61018f60003960008181610214015281816102ba0152818161042b0152818161045c015281816108420152818161087301528181610980015281816109b101528181610b070152610b3801526000818161027901528181610551015281816105d9015281816106ae0152610a690152600060f1015260006101db015260008181610145015281816102f5015281816103ae0152818161073f015281816108b5015281816109f30152610c5501526112ff6000f3fe608060405234801561001057600080fd5b50600436106100ea5760003560e01c8063a32cf5361161008c578063b8ba16fd11610066578063b8ba16fd14610238578063cb8284d014610264578063e0abca0b14610277578063ea999dff1461029d57600080fd5b8063a32cf536146101d9578063a5d5db0c146101ff578063b0f479a11461021257600080fd5b8063220a36b6116100c8578063220a36b6146101695780635de0a9af1461017c57806362fb2e841461019d578063654c6295146101b057600080fd5b806312945721146100ef578063134bde111461012e5780631ba46cfd14610143575b600080fd5b7f00000000000000000000000000000000000000000000000000000000000000005b6040516001600160a01b0390911681526020015b60405180910390f35b61014161013c366004610f4f565b6102b0565b005b7f0000000000000000000000000000000000000000000000000000000000000000610111565b610141610177366004610f79565b610421565b61018f61018a366004610f79565b61054c565b604051908152602001610125565b6101416101ab366004610f4f565b610838565b61018f6101be366004610f79565b6001600160a01b031660009081526001602052604090205490565b7f0000000000000000000000000000000000000000000000000000000000000000610111565b61014161020d366004610f4f565b610976565b7f0000000000000000000000000000000000000000000000000000000000000000610111565b61018f610246366004610f79565b6001600160a01b031660009081526020819052604090206004015490565b61018f610272366004610f4f565b610a64565b7f0000000000000000000000000000000000000000000000000000000000000000610111565b6101416102ab366004610f94565b610afd565b6001600160a01b037f000000000000000000000000000000000000000000000000000000000000000016330361041d576040516370a0823160e01b81523060048201527f00000000000000000000000000000000000000000000000000000000000000006001600160a01b0316906370a0823190602401602060405180830381865afa158015610344573d6000803e3d6000fd5b505050506040513d601f19601f820116820180604052508101906103689190610fc7565b81111561038857604051631ec7992b60e21b815260040160405180910390fd5b60405163a9059cbb60e01b81526001600160a01b038381166004830152602482018390527f0000000000000000000000000000000000000000000000000000000000000000169063a9059cbb906044016020604051808303816000875af11580156103f7573d6000803e3d6000fd5b505050506040513d601f19601f8201168201806040525081019061041b9190610fe0565b505b5050565b6001600160a01b037f000000000000000000000000000000000000000000000000000000000000000016330361054957336001600160a01b037f000000000000000000000000000000000000000000000000000000000000000016146104a25760405162461bcd60e51b815260040161049990611002565b60405180910390fd5b6001600160a01b038116600090815260208190526040812060040154905b6001600160a01b03831660009081526020819052604090206003015481101561041b576001600160a01b03831660009081526020818152604080832084845260010190915290205460ff16610541576001600160a01b03831660009081526020818152604080832084845260020190915290205461053f848284610afd565b505b6001016104c0565b50565b6000807f00000000000000000000000000000000000000000000000000000000000000006001600160a01b031663feaf968c6040518163ffffffff1660e01b815260040160a060405180830381865afa1580156105ad573d6000803e3d6000fd5b505050506040513d601f19601f820116820180604052508101906105d1919061105e565b5050509150507f00000000000000000000000000000000000000000000000000000000000000006001600160a01b031663313ce5676040518163ffffffff1660e01b8152600401602060405180830381865afa158015610635573d6000803e3d6000fd5b505050506040513d601f19601f8201168201806040525081019061065991906110ae565b60ff166012036106aa57670de0b6b3a76400008161068f856001600160a01b031660009081526020819052604090206004015490565b61069991906110e7565b6106a391906110fe565b9392505050565b60007f00000000000000000000000000000000000000000000000000000000000000006001600160a01b031663313ce5676040518163ffffffff1660e01b8152600401602060405180830381865afa15801561070a573d6000803e3d6000fd5b505050506040513d601f19601f8201168201806040525081019061072e91906110ae565b610739906012611120565b905060007f00000000000000000000000000000000000000000000000000000000000000006001600160a01b031663313ce5676040518163ffffffff1660e01b8152600401602060405180830381865afa15801561079b573d6000803e3d6000fd5b505050506040513d601f19601f820116820180604052508101906107bf91906110ae565b6107ca906012611120565b9050670de0b6b3a76400006107e083600a61121d565b6107ea90856110e7565b6107f583600a61121d565b6001600160a01b03881660009081526020819052604090206004015461081b91906110e7565b61082591906110e7565b61082f91906110fe565b95945050505050565b6001600160a01b037f000000000000000000000000000000000000000000000000000000000000000016330361041d57336001600160a01b037f000000000000000000000000000000000000000000000000000000000000000016146108b05760405162461bcd60e51b81526004016104999061122c565b6108dc7f0000000000000000000000000000000000000000000000000000000000000000833084610cff565b6001600160a01b038216600081815260208181526040808320600381018054855260028201845282852087905580548552938290204260019091015560048101805487019055925490518581529293909285927f77b57bffc1c97e4762d78efd74300ab40a13dc946d0e09b33ead3a5b35cfa7d3910160405180910390a460038101805490600061096c8361126e565b9190505550505050565b6001600160a01b037f000000000000000000000000000000000000000000000000000000000000000016330361041d57336001600160a01b037f000000000000000000000000000000000000000000000000000000000000000016146109ee5760405162461bcd60e51b81526004016104999061122c565b610a1a7f0000000000000000000000000000000000000000000000000000000000000000833084610cff565b6001600160a01b038216600081815260016020526040808220805485019055518392917fd7243f6f8212d5188fd054141cf6ea89cfc0d91facb8c3afe2f88a135848014291a35050565b6000807f00000000000000000000000000000000000000000000000000000000000000006001600160a01b031663313ce5676040518163ffffffff1660e01b8152600401602060405180830381865afa158015610ac5573d6000803e3d6000fd5b505050506040513d601f19601f82011682018060405250810190610ae991906110ae565b610af4906012611120565b90505092915050565b6001600160a01b037f000000000000000000000000000000000000000000000000000000000000000016330361041b57336001600160a01b037f00000000000000000000000000000000000000000000000000000000000000001614610b755760405162461bcd60e51b815260040161049990611002565b6001600160a01b038316600090815260208190526040902060030154811115610bb157604051635fe74ebf60e11b815260040160405180910390fd5b6001600160a01b03831660009081526020818152604080832084845260028101909252909120548303610cb857600082815260028201602052604081208054859290610bfe908490611287565b9250508190555082816004016000828254610c199190611287565b9091555050805460018181018355600083815260208082209093018590558481528184019092526040909120805460ff19169091179055610c7b7f00000000000000000000000000000000000000000000000000000000000000008585610d66565b8183856001600160a01b03167f9b9970c5ed4609e15fd1dedd289d5697670692b2f58988736a098d44fd4cb3db60405160405180910390a4610cf9565b600082815260028201602052604081208054859290610cd8908490611287565b9250508190555082816004016000828254610cf39190611287565b90915550505b50505050565b6040516001600160a01b038481166024830152838116604483015260648201839052610cf99186918216906323b872dd906084015b604051602081830303815290604052915060e01b6020820180516001600160e01b038381831617835250505050610d97565b6040516001600160a01b0383811660248301526044820183905261041b91859182169063a9059cbb90606401610d34565b6000610dac6001600160a01b03841683610dfa565b90508051600014158015610dd1575080806020019051810190610dcf9190610fe0565b155b1561041b57604051635274afe760e01b81526001600160a01b0384166004820152602401610499565b6060610e0883836000610e11565b90505b92915050565b606081471015610e365760405163cd78605960e01b8152306004820152602401610499565b600080856001600160a01b03168486604051610e52919061129a565b60006040518083038185875af1925050503d8060008114610e8f576040519150601f19603f3d011682016040523d82523d6000602084013e610e94565b606091505b5091509150610ea4868383610eae565b9695505050505050565b606082610ec357610ebe82610f0a565b6106a3565b8151158015610eda57506001600160a01b0384163b155b15610f0357604051639996b31560e01b81526001600160a01b0385166004820152602401610499565b50806106a3565b805115610f1a5780518082602001fd5b604051630a12f52160e11b815260040160405180910390fd5b80356001600160a01b0381168114610f4a57600080fd5b919050565b60008060408385031215610f6257600080fd5b610f6b83610f33565b946020939093013593505050565b600060208284031215610f8b57600080fd5b610e0882610f33565b600080600060608486031215610fa957600080fd5b610fb284610f33565b95602085013595506040909401359392505050565b600060208284031215610fd957600080fd5b5051919050565b600060208284031215610ff257600080fd5b815180151581146106a357600080fd5b60208082526022908201527f4f6e6c7920726f757465722063616e2063616c6c20746869732066756e63746960408201526137b760f11b606082015260800190565b805169ffffffffffffffffffff81168114610f4a57600080fd5b600080600080600060a0868803121561107657600080fd5b61107f86611044565b94506020860151935060408601519250606086015191506110a260808701611044565b90509295509295909350565b6000602082840312156110c057600080fd5b815160ff811681146106a357600080fd5b634e487b7160e01b600052601160045260246000fd5b8082028115828204841417610e0b57610e0b6110d1565b60008261111b57634e487b7160e01b600052601260045260246000fd5b500490565b60ff8281168282160390811115610e0b57610e0b6110d1565b600181815b8085111561117457816000190482111561115a5761115a6110d1565b8085161561116757918102915b93841c939080029061113e565b509250929050565b60008261118b57506001610e0b565b8161119857506000610e0b565b81600181146111ae57600281146111b8576111d4565b6001915050610e0b565b60ff8411156111c9576111c96110d1565b50506001821b610e0b565b5060208310610133831016604e8410600b84101617156111f7575081810a610e0b565b6112018383611139565b8060001904821115611215576112156110d1565b029392505050565b6000610e0860ff84168361117c565b60208082526022908201527f4f6e6c7920526f757465722063616e2063616c6c20746869732066756e63746960408201526137b760f11b606082015260800190565b600060018201611280576112806110d1565b5060010190565b81810381811115610e0b57610e0b6110d1565b6000825160005b818110156112bb57602081860181015185830152016112a1565b50600092019182525091905056fea26469706673582212207ef1bbd63931d5200784cf9f61e8b249cc822db97fed0402c91d5f10c89e39f464736f6c63430008190033","linkReferences":{}},"methodIdentifiers":{"FlashLoan(address,uint256)":"134bde11","assetAddress()":"1ba46cfd","depositCollateral(address,uint256)":"a5d5db0c","depositLiquidityAndMintTokens(address,uint256)":"62fb2e84","getBorrowableAmountBasedOnUSDAmount(address,uint256)":"cb8284d0","getCollateralAmount(address)":"654c6295","getDepositAmount(address)":"b8ba16fd","getDepositValueInUSD(address)":"5de0a9af","getRouter()":"b0f479a1","lendingTokenAddress()":"12945721","poolFactoryAddress()":"a32cf536","priceFeedAddress()":"e0abca0b","withdrawLiquidity(address,uint256,uint256)":"ea999dff","withdrawTotalAmount(address)":"220a36b6"},"id":4}