{"abi":[{"type":"constructor","inputs":[{"name":"token","type":"address","internalType":"address"},{"name":"priceFeed","type":"address","internalType":"address"},{"name":"router","type":"address","internalType":"address"},{"name":"lendToken","type":"address","internalType":"address"}],"stateMutability":"nonpayable"},{"type":"function","name":"FlashLoan","inputs":[{"name":"receiver","type":"address","internalType":"address"},{"name":"amount","type":"uint256","internalType":"uint256"}],"outputs":[],"stateMutability":"nonpayable"},{"type":"function","name":"assetAddress","inputs":[],"outputs":[{"name":"","type":"address","internalType":"address"}],"stateMutability":"view"},{"type":"function","name":"depositCollateral","inputs":[{"name":"depositor","type":"address","internalType":"address"},{"name":"amount","type":"uint256","internalType":"uint256"}],"outputs":[],"stateMutability":"nonpayable"},{"type":"function","name":"depositLiquidityAndMintTokens","inputs":[{"name":"depositor","type":"address","internalType":"address"},{"name":"amount","type":"uint256","internalType":"uint256"}],"outputs":[],"stateMutability":"nonpayable"},{"type":"function","name":"getBorrowableAmountBasedOnUSDAmount","inputs":[{"name":"user","type":"address","internalType":"address"},{"name":"collateralInUSD","type":"uint256","internalType":"uint256"}],"outputs":[{"name":"value","type":"uint256","internalType":"uint256"}],"stateMutability":"view"},{"type":"function","name":"getCollateralAmount","inputs":[{"name":"user","type":"address","internalType":"address"}],"outputs":[{"name":"","type":"uint256","internalType":"uint256"}],"stateMutability":"view"},{"type":"function","name":"getDepositAmount","inputs":[{"name":"user","type":"address","internalType":"address"}],"outputs":[{"name":"depositedAmount","type":"uint256","internalType":"uint256"}],"stateMutability":"view"},{"type":"function","name":"getDepositValueInUSD","inputs":[{"name":"user","type":"address","internalType":"address"}],"outputs":[{"name":"","type":"uint256","internalType":"uint256"}],"stateMutability":"view"},{"type":"function","name":"getRouter","inputs":[],"outputs":[{"name":"","type":"address","internalType":"address"}],"stateMutability":"view"},{"type":"function","name":"lendingTokenAddress","inputs":[],"outputs":[{"name":"","type":"address","internalType":"address"}],"stateMutability":"view"},{"type":"function","name":"poolFactoryAddress","inputs":[],"outputs":[{"name":"","type":"address","internalType":"address"}],"stateMutability":"view"},{"type":"function","name":"priceFeedAddress","inputs":[],"outputs":[{"name":"","type":"address","internalType":"address"}],"stateMutability":"view"},{"type":"function","name":"withdrawLiquidity","inputs":[{"name":"user","type":"address","internalType":"address"},{"name":"amount","type":"uint256","internalType":"uint256"},{"name":"depositId","type":"uint256","internalType":"uint256"}],"outputs":[],"stateMutability":"nonpayable"},{"type":"event","name":"CollateralDeposited","inputs":[{"name":"depositor","type":"address","indexed":true,"internalType":"address"},{"name":"amount","type":"uint256","indexed":true,"internalType":"uint256"}],"anonymous":false},{"type":"event","name":"DepositLiquidity","inputs":[{"name":"depositor","type":"address","indexed":true,"internalType":"address"},{"name":"amount","type":"uint256","indexed":true,"internalType":"uint256"},{"name":"shares_minted","type":"uint256","indexed":false,"internalType":"uint256"},{"name":"depositCounter","type":"uint256","indexed":true,"internalType":"uint256"}],"anonymous":false},{"type":"event","name":"SimpleWithdraw","inputs":[{"name":"depositor","type":"address","indexed":true,"internalType":"address"},{"name":"amount","type":"uint256","indexed":true,"internalType":"uint256"},{"name":"depositCounter","type":"uint256","indexed":true,"internalType":"uint256"}],"anonymous":false},{"type":"error","name":"AddressEmptyCode","inputs":[{"name":"target","type":"address","internalType":"address"}]},{"type":"error","name":"AddressInsufficientBalance","inputs":[{"name":"account","type":"address","internalType":"address"}]},{"type":"error","name":"CoreLogic__InvalidDepositId","inputs":[]},{"type":"error","name":"CoreLogic__OnlyRouter","inputs":[]},{"type":"error","name":"CoreLogic__OutOfBalance","inputs":[]},{"type":"error","name":"FailedInnerCall","inputs":[]},{"type":"error","name":"SafeERC20FailedOperation","inputs":[{"name":"token","type":"address","internalType":"address"}]}],"bytecode":{"object":"0x61012060405234801561001157600080fd5b5060405161132238038061132283398101604081905261003091610073565b6001600160a01b039384166080523360a052831660c05290821660e05216610100526100c7565b80516001600160a01b038116811461006e57600080fd5b919050565b6000806000806080858703121561008957600080fd5b61009285610057565b93506100a060208601610057565b92506100ae60408601610057565b91506100bc60608601610057565b905092959194509250565b60805160a05160c05160e051610100516111a1610181600039600081816101e60152818161028c015281816106e90152818161071a0152818161083101528181610862015281816109b801526109e901526000818161024b015281816103f80152818161048001528181610555015261091a0152600060d6015260006101ad01526000818161012a015281816102c701528181610380015281816105e601528181610765015281816108a40152610b2401526111a16000f3fe608060405234801561001057600080fd5b50600436106100cf5760003560e01c8063a32cf5361161008c578063b8ba16fd11610066578063b8ba16fd1461020a578063cb8284d014610236578063e0abca0b14610249578063ea999dff1461026f57600080fd5b8063a32cf536146101ab578063a5d5db0c146101d1578063b0f479a1146101e457600080fd5b806312945721146100d4578063134bde11146101135780631ba46cfd146101285780635de0a9af1461014e57806362fb2e841461016f578063654c629514610182575b600080fd5b7f00000000000000000000000000000000000000000000000000000000000000005b6040516001600160a01b0390911681526020015b60405180910390f35b610126610121366004610e33565b610282565b005b7f00000000000000000000000000000000000000000000000000000000000000006100f6565b61016161015c366004610e5d565b6103f3565b60405190815260200161010a565b61012661017d366004610e33565b6106df565b610161610190366004610e5d565b6001600160a01b031660009081526001602052604090205490565b7f00000000000000000000000000000000000000000000000000000000000000006100f6565b6101266101df366004610e33565b610827565b7f00000000000000000000000000000000000000000000000000000000000000006100f6565b610161610218366004610e5d565b6001600160a01b031660009081526020819052604090206003015490565b610161610244366004610e33565b610915565b7f00000000000000000000000000000000000000000000000000000000000000006100f6565b61012661027d366004610e78565b6109ae565b6001600160a01b037f00000000000000000000000000000000000000000000000000000000000000001633036103ef576040516370a0823160e01b81523060048201527f00000000000000000000000000000000000000000000000000000000000000006001600160a01b0316906370a0823190602401602060405180830381865afa158015610316573d6000803e3d6000fd5b505050506040513d601f19601f8201168201806040525081019061033a9190610eab565b81111561035a57604051631ec7992b60e21b815260040160405180910390fd5b60405163a9059cbb60e01b81526001600160a01b038381166004830152602482018390527f0000000000000000000000000000000000000000000000000000000000000000169063a9059cbb906044016020604051808303816000875af11580156103c9573d6000803e3d6000fd5b505050506040513d601f19601f820116820180604052508101906103ed9190610ec4565b505b5050565b6000807f00000000000000000000000000000000000000000000000000000000000000006001600160a01b031663feaf968c6040518163ffffffff1660e01b815260040160a060405180830381865afa158015610454573d6000803e3d6000fd5b505050506040513d601f19601f820116820180604052508101906104789190610f00565b5050509150507f00000000000000000000000000000000000000000000000000000000000000006001600160a01b031663313ce5676040518163ffffffff1660e01b8152600401602060405180830381865afa1580156104dc573d6000803e3d6000fd5b505050506040513d601f19601f820116820180604052508101906105009190610f50565b60ff1660120361055157670de0b6b3a764000081610536856001600160a01b031660009081526020819052604090206003015490565b6105409190610f89565b61054a9190610fa0565b9392505050565b60007f00000000000000000000000000000000000000000000000000000000000000006001600160a01b031663313ce5676040518163ffffffff1660e01b8152600401602060405180830381865afa1580156105b1573d6000803e3d6000fd5b505050506040513d601f19601f820116820180604052508101906105d59190610f50565b6105e0906012610fc2565b905060007f00000000000000000000000000000000000000000000000000000000000000006001600160a01b031663313ce5676040518163ffffffff1660e01b8152600401602060405180830381865afa158015610642573d6000803e3d6000fd5b505050506040513d601f19601f820116820180604052508101906106669190610f50565b610671906012610fc2565b9050670de0b6b3a764000061068783600a6110bf565b6106919085610f89565b61069c83600a6110bf565b6001600160a01b0388166000908152602081905260409020600301546106c29190610f89565b6106cc9190610f89565b6106d69190610fa0565b95945050505050565b6001600160a01b037f00000000000000000000000000000000000000000000000000000000000000001633036103ef57336001600160a01b037f000000000000000000000000000000000000000000000000000000000000000016146107605760405162461bcd60e51b8152600401610757906110ce565b60405180910390fd5b61078c7f0000000000000000000000000000000000000000000000000000000000000000833084610be3565b6001600160a01b03821660008181526020818152604080832060028101805485526001808301855283862088905581548652948390204295019490945560038101805487019055925490518581529293909285927f77b57bffc1c97e4762d78efd74300ab40a13dc946d0e09b33ead3a5b35cfa7d3910160405180910390a460028101805490600061081d83611110565b9190505550505050565b6001600160a01b037f00000000000000000000000000000000000000000000000000000000000000001633036103ef57336001600160a01b037f0000000000000000000000000000000000000000000000000000000000000000161461089f5760405162461bcd60e51b8152600401610757906110ce565b6108cb7f0000000000000000000000000000000000000000000000000000000000000000833084610be3565b6001600160a01b038216600081815260016020526040808220805485019055518392917fd7243f6f8212d5188fd054141cf6ea89cfc0d91facb8c3afe2f88a135848014291a35050565b6000807f00000000000000000000000000000000000000000000000000000000000000006001600160a01b031663313ce5676040518163ffffffff1660e01b8152600401602060405180830381865afa158015610976573d6000803e3d6000fd5b505050506040513d601f19601f8201168201806040525081019061099a9190610f50565b6109a5906012610fc2565b90505092915050565b6001600160a01b037f00000000000000000000000000000000000000000000000000000000000000001633036103ed57336001600160a01b037f00000000000000000000000000000000000000000000000000000000000000001614610a615760405162461bcd60e51b815260206004820152602260248201527f4f6e6c7920726f757465722063616e2063616c6c20746869732066756e63746960448201526137b760f11b6064820152608401610757565b6001600160a01b038316600090815260208190526040902060020154811115610a9d57604051635fe74ebf60e11b815260040160405180910390fd5b6001600160a01b03831660009081526020818152604080832084845260018101909252909120548303610b8757600082815260018201602052604081208054859290610aea908490611129565b9250508190555082816003016000828254610b059190611129565b9091555050805460018101825560008281526020902001829055610b4a7f00000000000000000000000000000000000000000000000000000000000000008585610c4a565b8183856001600160a01b03167f9b9970c5ed4609e15fd1dedd289d5697670692b2f58988736a098d44fd4cb3db60405160405180910390a4610bdd565b600082815260018201602052604081208054859290610ba7908490611129565b9250508190555082816003016000828254610bc29190611129565b90915550508054600181018255600082815260209020018290555b50505050565b6040516001600160a01b038481166024830152838116604483015260648201839052610bdd9186918216906323b872dd906084015b604051602081830303815290604052915060e01b6020820180516001600160e01b038381831617835250505050610c7b565b6040516001600160a01b038381166024830152604482018390526103ed91859182169063a9059cbb90606401610c18565b6000610c906001600160a01b03841683610cde565b90508051600014158015610cb5575080806020019051810190610cb39190610ec4565b155b156103ed57604051635274afe760e01b81526001600160a01b0384166004820152602401610757565b6060610cec83836000610cf5565b90505b92915050565b606081471015610d1a5760405163cd78605960e01b8152306004820152602401610757565b600080856001600160a01b03168486604051610d36919061113c565b60006040518083038185875af1925050503d8060008114610d73576040519150601f19603f3d011682016040523d82523d6000602084013e610d78565b606091505b5091509150610d88868383610d92565b9695505050505050565b606082610da757610da282610dee565b61054a565b8151158015610dbe57506001600160a01b0384163b155b15610de757604051639996b31560e01b81526001600160a01b0385166004820152602401610757565b508061054a565b805115610dfe5780518082602001fd5b604051630a12f52160e11b815260040160405180910390fd5b80356001600160a01b0381168114610e2e57600080fd5b919050565b60008060408385031215610e4657600080fd5b610e4f83610e17565b946020939093013593505050565b600060208284031215610e6f57600080fd5b610cec82610e17565b600080600060608486031215610e8d57600080fd5b610e9684610e17565b95602085013595506040909401359392505050565b600060208284031215610ebd57600080fd5b5051919050565b600060208284031215610ed657600080fd5b8151801515811461054a57600080fd5b805169ffffffffffffffffffff81168114610e2e57600080fd5b600080600080600060a08688031215610f1857600080fd5b610f2186610ee6565b9450602086015193506040860151925060608601519150610f4460808701610ee6565b90509295509295909350565b600060208284031215610f6257600080fd5b815160ff8116811461054a57600080fd5b634e487b7160e01b600052601160045260246000fd5b8082028115828204841417610cef57610cef610f73565b600082610fbd57634e487b7160e01b600052601260045260246000fd5b500490565b60ff8281168282160390811115610cef57610cef610f73565b600181815b80851115611016578160001904821115610ffc57610ffc610f73565b8085161561100957918102915b93841c9390800290610fe0565b509250929050565b60008261102d57506001610cef565b8161103a57506000610cef565b8160018114611050576002811461105a57611076565b6001915050610cef565b60ff84111561106b5761106b610f73565b50506001821b610cef565b5060208310610133831016604e8410600b8410161715611099575081810a610cef565b6110a38383610fdb565b80600019048211156110b7576110b7610f73565b029392505050565b6000610cec60ff84168361101e565b60208082526022908201527f4f6e6c7920526f757465722063616e2063616c6c20746869732066756e63746960408201526137b760f11b606082015260800190565b60006001820161112257611122610f73565b5060010190565b81810381811115610cef57610cef610f73565b6000825160005b8181101561115d5760208186018101518583015201611143565b50600092019182525091905056fea2646970667358221220ec2f080a0045609f848e7cd849b6ee8ab1c409c6ad7e636f4dea0e0890d34dbe64736f6c63430008190033","linkReferences":{}},"methodIdentifiers":{"FlashLoan(address,uint256)":"134bde11","assetAddress()":"1ba46cfd","depositCollateral(address,uint256)":"a5d5db0c","depositLiquidityAndMintTokens(address,uint256)":"62fb2e84","getBorrowableAmountBasedOnUSDAmount(address,uint256)":"cb8284d0","getCollateralAmount(address)":"654c6295","getDepositAmount(address)":"b8ba16fd","getDepositValueInUSD(address)":"5de0a9af","getRouter()":"b0f479a1","lendingTokenAddress()":"12945721","poolFactoryAddress()":"a32cf536","priceFeedAddress()":"e0abca0b","withdrawLiquidity(address,uint256,uint256)":"ea999dff"},"id":4}