{"abi":[{"type":"constructor","inputs":[{"name":"token","type":"address","internalType":"address"},{"name":"pricefeed","type":"address","internalType":"address"},{"name":"router","type":"address","internalType":"address"},{"name":"lendToken","type":"address","internalType":"address"}],"stateMutability":"nonpayable"},{"type":"function","name":"assetAddress","inputs":[],"outputs":[{"name":"","type":"address","internalType":"address"}],"stateMutability":"view"},{"type":"function","name":"depositLiquidityAndMintTokens","inputs":[{"name":"depositor","type":"address","internalType":"address"},{"name":"amount","type":"uint256","internalType":"uint256"}],"outputs":[],"stateMutability":"nonpayable"},{"type":"function","name":"getBorrowableAmountBasedOnUSDAmount","inputs":[{"name":"user","type":"address","internalType":"address"},{"name":"collateralInUSD","type":"uint256","internalType":"uint256"}],"outputs":[{"name":"value","type":"uint256","internalType":"uint256"}],"stateMutability":"view"},{"type":"function","name":"getCollateral","inputs":[{"name":"user","type":"address","internalType":"address"}],"outputs":[{"name":"","type":"uint256","internalType":"uint256"}],"stateMutability":"view"},{"type":"function","name":"getCollateralValueInUSD","inputs":[{"name":"user","type":"address","internalType":"address"}],"outputs":[{"name":"","type":"uint256","internalType":"uint256"}],"stateMutability":"view"},{"type":"function","name":"getRouter","inputs":[],"outputs":[{"name":"","type":"address","internalType":"address"}],"stateMutability":"view"},{"type":"function","name":"lendingTokenAddress","inputs":[],"outputs":[{"name":"","type":"address","internalType":"address"}],"stateMutability":"view"},{"type":"function","name":"poolFactoryAddress","inputs":[],"outputs":[{"name":"","type":"address","internalType":"address"}],"stateMutability":"view"},{"type":"function","name":"priceFeedAddress","inputs":[],"outputs":[{"name":"","type":"address","internalType":"address"}],"stateMutability":"view"},{"type":"error","name":"AddressEmptyCode","inputs":[{"name":"target","type":"address","internalType":"address"}]},{"type":"error","name":"AddressInsufficientBalance","inputs":[{"name":"account","type":"address","internalType":"address"}]},{"type":"error","name":"CoreLogic__OnlyRouter","inputs":[]},{"type":"error","name":"FailedInnerCall","inputs":[]},{"type":"error","name":"SafeERC20FailedOperation","inputs":[{"name":"token","type":"address","internalType":"address"}]}],"bytecode":{"object":"0x61012060405234801561001157600080fd5b50604051610b5c380380610b5c83398101604081905261003091610073565b6001600160a01b039384166080523360a052831660c05290821660e05216610100526100c7565b80516001600160a01b038116811461006e57600080fd5b919050565b6000806000806080858703121561008957600080fd5b61009285610057565b93506100a060208601610057565b92506100ae60408601610057565b91506100bc60608601610057565b905092959194509250565b60805160a05160c05160e05161010051610a296101336000396000818161018401526101eb0152600081816101bd0152818161028b01528181610313015281816103cc01526104b101526000609a0152600061015e01526000818160d901526102160152610a296000f3fe608060405234801561001057600080fd5b50600436106100935760003560e01c80639b56d6c9116100665780639b56d6c914610133578063a32cf5361461015c578063b0f479a114610182578063cb8284d0146101a8578063e0abca0b146101bb57600080fd5b806312945721146100985780631ba46cfd146100d757806362fb2e84146100fd578063877db9dd14610112575b600080fd5b7f00000000000000000000000000000000000000000000000000000000000000005b6040516001600160a01b0390911681526020015b60405180910390f35b7f00000000000000000000000000000000000000000000000000000000000000006100ba565b61011061010b366004610762565b6101e1565b005b61012561012036600461078c565b610286565b6040519081526020016100ce565b61012561014136600461078c565b6001600160a01b031660009081526020819052604090205490565b7f00000000000000000000000000000000000000000000000000000000000000006100ba565b7f00000000000000000000000000000000000000000000000000000000000000006100ba565b6101256101b6366004610762565b6104ac565b7f00000000000000000000000000000000000000000000000000000000000000006100ba565b6001600160a01b037f00000000000000000000000000000000000000000000000000000000000000001633036102825761023d7f0000000000000000000000000000000000000000000000000000000000000000833084610545565b6001600160a01b0382166000908152602081905260408120805490910361026657818155610280565b8181600001600082825461027a91906107bd565b90915550505b505b5050565b6000807f00000000000000000000000000000000000000000000000000000000000000006001600160a01b031663feaf968c6040518163ffffffff1660e01b815260040160a060405180830381865afa1580156102e7573d6000803e3d6000fd5b505050506040513d601f19601f8201168201806040525081019061030b91906107ea565b5050509150507f00000000000000000000000000000000000000000000000000000000000000006001600160a01b031663313ce5676040518163ffffffff1660e01b8152600401602060405180830381865afa15801561036f573d6000803e3d6000fd5b505050506040513d601f19601f82011682018060405250810190610393919061083a565b60ff166012036103c8576001600160a01b0383166000908152602081905260409020546103c190829061085d565b9392505050565b60007f00000000000000000000000000000000000000000000000000000000000000006001600160a01b031663313ce5676040518163ffffffff1660e01b8152600401602060405180830381865afa158015610428573d6000803e3d6000fd5b505050506040513d601f19601f8201168201806040525081019061044c919061083a565b610457906012610874565b9050670de0b6b3a764000061046d82600a610971565b610477908461085d565b6001600160a01b03861660009081526020819052604090205461049a919061085d565b6104a49190610980565b949350505050565b6000807f00000000000000000000000000000000000000000000000000000000000000006001600160a01b031663313ce5676040518163ffffffff1660e01b8152600401602060405180830381865afa15801561050d573d6000803e3d6000fd5b505050506040513d601f19601f82011682018060405250810190610531919061083a565b61053c906012610874565b90505092915050565b604080516001600160a01b0385811660248301528416604482015260648082018490528251808303909101815260849091019091526020810180516001600160e01b03166323b872dd60e01b17905261059f9085906105a5565b50505050565b60006105ba6001600160a01b0384168361060d565b905080516000141580156105df5750808060200190518101906105dd91906109a2565b155b1561028057604051635274afe760e01b81526001600160a01b03841660048201526024015b60405180910390fd5b606061061b83836000610624565b90505b92915050565b6060814710156106495760405163cd78605960e01b8152306004820152602401610604565b600080856001600160a01b0316848660405161066591906109c4565b60006040518083038185875af1925050503d80600081146106a2576040519150601f19603f3d011682016040523d82523d6000602084013e6106a7565b606091505b50915091506106b78683836106c1565b9695505050505050565b6060826106d6576106d18261071d565b6103c1565b81511580156106ed57506001600160a01b0384163b155b1561071657604051639996b31560e01b81526001600160a01b0385166004820152602401610604565b50806103c1565b80511561072d5780518082602001fd5b604051630a12f52160e11b815260040160405180910390fd5b80356001600160a01b038116811461075d57600080fd5b919050565b6000806040838503121561077557600080fd5b61077e83610746565b946020939093013593505050565b60006020828403121561079e57600080fd5b61061b82610746565b634e487b7160e01b600052601160045260246000fd5b8082018082111561061e5761061e6107a7565b805169ffffffffffffffffffff8116811461075d57600080fd5b600080600080600060a0868803121561080257600080fd5b61080b866107d0565b945060208601519350604086015192506060860151915061082e608087016107d0565b90509295509295909350565b60006020828403121561084c57600080fd5b815160ff811681146103c157600080fd5b808202811582820484141761061e5761061e6107a7565b60ff828116828216039081111561061e5761061e6107a7565b600181815b808511156108c85781600019048211156108ae576108ae6107a7565b808516156108bb57918102915b93841c9390800290610892565b509250929050565b6000826108df5750600161061e565b816108ec5750600061061e565b8160018114610902576002811461090c57610928565b600191505061061e565b60ff84111561091d5761091d6107a7565b50506001821b61061e565b5060208310610133831016604e8410600b841016171561094b575081810a61061e565b610955838361088d565b8060001904821115610969576109696107a7565b029392505050565b600061061b60ff8416836108d0565b60008261099d57634e487b7160e01b600052601260045260246000fd5b500490565b6000602082840312156109b457600080fd5b815180151581146103c157600080fd5b6000825160005b818110156109e557602081860181015185830152016109cb565b50600092019182525091905056fea264697066735822122063c9e558f8daa6b2d85905add1d841a0190b47bf189351b6637ad4985015b2cd64736f6c63430008190033","linkReferences":{}},"methodIdentifiers":{"assetAddress()":"1ba46cfd","depositLiquidityAndMintTokens(address,uint256)":"62fb2e84","getBorrowableAmountBasedOnUSDAmount(address,uint256)":"cb8284d0","getCollateral(address)":"9b56d6c9","getCollateralValueInUSD(address)":"877db9dd","getRouter()":"b0f479a1","lendingTokenAddress()":"12945721","poolFactoryAddress()":"a32cf536","priceFeedAddress()":"e0abca0b"},"id":4}