{"abi":[{"type":"constructor","inputs":[{"name":"token","type":"address","internalType":"address"},{"name":"priceFeed","type":"address","internalType":"address"},{"name":"router","type":"address","internalType":"address"},{"name":"lendToken","type":"address","internalType":"address"}],"stateMutability":"nonpayable"},{"type":"function","name":"FlashLoan","inputs":[{"name":"receiver","type":"address","internalType":"address"},{"name":"amount","type":"uint256","internalType":"uint256"}],"outputs":[],"stateMutability":"nonpayable"},{"type":"function","name":"TransferAmountToBeBorrowed","inputs":[{"name":"receiver","type":"address","internalType":"address"},{"name":"amount","type":"uint256","internalType":"uint256"}],"outputs":[],"stateMutability":"nonpayable"},{"type":"function","name":"assetAddress","inputs":[],"outputs":[{"name":"","type":"address","internalType":"address"}],"stateMutability":"view"},{"type":"function","name":"depositCollateral","inputs":[{"name":"depositor","type":"address","internalType":"address"},{"name":"amount","type":"uint256","internalType":"uint256"}],"outputs":[],"stateMutability":"nonpayable"},{"type":"function","name":"depositLiquidityAndMintTokens","inputs":[{"name":"depositor","type":"address","internalType":"address"},{"name":"amount","type":"uint256","internalType":"uint256"}],"outputs":[],"stateMutability":"nonpayable"},{"type":"function","name":"getBorrowableAmountBasedOnUSDAmount","inputs":[{"name":"user","type":"address","internalType":"address"},{"name":"collateralInUSD","type":"uint256","internalType":"uint256"}],"outputs":[{"name":"value","type":"uint256","internalType":"uint256"}],"stateMutability":"view"},{"type":"function","name":"getCollateralAmount","inputs":[{"name":"user","type":"address","internalType":"address"}],"outputs":[{"name":"","type":"uint256","internalType":"uint256"}],"stateMutability":"view"},{"type":"function","name":"getCollateralValueInUSD","inputs":[{"name":"user","type":"address","internalType":"address"}],"outputs":[{"name":"","type":"uint256","internalType":"uint256"}],"stateMutability":"view"},{"type":"function","name":"getDepositInterestRate","inputs":[],"outputs":[{"name":"","type":"uint256","internalType":"uint256"}],"stateMutability":"pure"},{"type":"function","name":"getDepositValueInUSD","inputs":[{"name":"user","type":"address","internalType":"address"}],"outputs":[{"name":"","type":"uint256","internalType":"uint256"}],"stateMutability":"view"},{"type":"function","name":"getIndividualDepositAmount","inputs":[{"name":"user","type":"address","internalType":"address"},{"name":"depositId","type":"uint256","internalType":"uint256"}],"outputs":[{"name":"","type":"uint256","internalType":"uint256"}],"stateMutability":"view"},{"type":"function","name":"getRouter","inputs":[],"outputs":[{"name":"","type":"address","internalType":"address"}],"stateMutability":"view"},{"type":"function","name":"getTotalDepositAmount","inputs":[{"name":"user","type":"address","internalType":"address"}],"outputs":[{"name":"","type":"uint256","internalType":"uint256"}],"stateMutability":"view"},{"type":"function","name":"getTotalInterestAmount","inputs":[{"name":"BalAmount","type":"uint256","internalType":"uint256"},{"name":"amount","type":"uint256","internalType":"uint256"}],"outputs":[{"name":"","type":"uint256","internalType":"uint256"}],"stateMutability":"view"},{"type":"function","name":"getTotalUserCounter","inputs":[],"outputs":[{"name":"","type":"uint256","internalType":"uint256"}],"stateMutability":"view"},{"type":"function","name":"getTotalUserDeposits","inputs":[],"outputs":[{"name":"","type":"uint256","internalType":"uint256"}],"stateMutability":"view"},{"type":"function","name":"getValueInUSD","inputs":[{"name":"amount","type":"uint256","internalType":"uint256"}],"outputs":[{"name":"","type":"uint256","internalType":"uint256"}],"stateMutability":"view"},{"type":"function","name":"lendingTokenAddress","inputs":[],"outputs":[{"name":"","type":"address","internalType":"address"}],"stateMutability":"view"},{"type":"function","name":"poolFactoryAddress","inputs":[],"outputs":[{"name":"","type":"address","internalType":"address"}],"stateMutability":"view"},{"type":"function","name":"priceFeedAddress","inputs":[],"outputs":[{"name":"","type":"address","internalType":"address"}],"stateMutability":"view"},{"type":"function","name":"withdrawLiquidity","inputs":[{"name":"user","type":"address","internalType":"address"},{"name":"amount","type":"uint256","internalType":"uint256"},{"name":"depositId","type":"uint256","internalType":"uint256"}],"outputs":[],"stateMutability":"nonpayable"},{"type":"function","name":"withdrawTotalAmount","inputs":[{"name":"user","type":"address","internalType":"address"}],"outputs":[],"stateMutability":"nonpayable"},{"type":"event","name":"CollateralDeposited","inputs":[{"name":"depositor","type":"address","indexed":true,"internalType":"address"},{"name":"amount","type":"uint256","indexed":true,"internalType":"uint256"}],"anonymous":false},{"type":"event","name":"DepositLiquidity","inputs":[{"name":"depositor","type":"address","indexed":true,"internalType":"address"},{"name":"amount","type":"uint256","indexed":true,"internalType":"uint256"},{"name":"shares_minted","type":"uint256","indexed":false,"internalType":"uint256"},{"name":"depositCounter","type":"uint256","indexed":true,"internalType":"uint256"}],"anonymous":false},{"type":"event","name":"SimpleWithdraw","inputs":[{"name":"depositor","type":"address","indexed":true,"internalType":"address"},{"name":"amount","type":"uint256","indexed":true,"internalType":"uint256"},{"name":"depositCounter","type":"uint256","indexed":true,"internalType":"uint256"}],"anonymous":false},{"type":"error","name":"AddressEmptyCode","inputs":[{"name":"target","type":"address","internalType":"address"}]},{"type":"error","name":"AddressInsufficientBalance","inputs":[{"name":"account","type":"address","internalType":"address"}]},{"type":"error","name":"CoreLogic__AlreadyWithdrawn","inputs":[]},{"type":"error","name":"CoreLogic__InvalidDepositId","inputs":[]},{"type":"error","name":"CoreLogic__OnlyRouter","inputs":[]},{"type":"error","name":"CoreLogic__OutOfBalance","inputs":[]},{"type":"error","name":"CoreLogic__TranferCallFailedInFlashLoan","inputs":[]},{"type":"error","name":"FailedInnerCall","inputs":[]},{"type":"error","name":"SafeERC20FailedOperation","inputs":[{"name":"token","type":"address","internalType":"address"}]}],"bytecode":{"object":"0x610120604052348015610010575f5ffd5b50604051612bdb380380612bdb8339818101604052810190610032919061019e565b8373ffffffffffffffffffffffffffffffffffffffff1660808173ffffffffffffffffffffffffffffffffffffffff16815250503373ffffffffffffffffffffffffffffffffffffffff1660a08173ffffffffffffffffffffffffffffffffffffffff16815250508073ffffffffffffffffffffffffffffffffffffffff1660c08173ffffffffffffffffffffffffffffffffffffffff16815250508273ffffffffffffffffffffffffffffffffffffffff1660e08173ffffffffffffffffffffffffffffffffffffffff16815250508173ffffffffffffffffffffffffffffffffffffffff166101008173ffffffffffffffffffffffffffffffffffffffff168152505050505050610202565b5f5ffd5b5f73ffffffffffffffffffffffffffffffffffffffff82169050919050565b5f61016d82610144565b9050919050565b61017d81610163565b8114610187575f5ffd5b50565b5f8151905061019881610174565b92915050565b5f5f5f5f608085870312156101b6576101b5610140565b5b5f6101c38782880161018a565b94505060206101d48782880161018a565b93505060406101e58782880161018a565b92505060606101f68782880161018a565b91505092959194509250565b60805160a05160c05160e051610100516128fb6102e05f395f81816104df015281816107050152818161075801528181610980015281816109d301528181610b8101528181610bd401528181610ea201528181610ef50152818161104a01528181611143015261119601525f818161107a0152818161111d0152818161178e0152818161182301526118e001525f6104b901525f610e7c01525f818161053201528181610604015281816106df01528181610c6201528181610d340152818161136f0152818161159001528181611715015261197c01526128fb5ff3fe608060405234801561000f575f5ffd5b5060043610610140575f3560e01c8063877db9dd116100b6578063b0f479a11161007a578063b0f479a114610386578063b1a93393146103a4578063cb8284d0146103c2578063e0abca0b146103f2578063ea999dff14610410578063f27feeaf1461042c57610140565b8063877db9dd146102ce578063a1303616146102fe578063a32cf5361461031c578063a5d5db0c1461033a578063ac5f83591461035657610140565b8063248c181b11610108578063248c181b146101e857806327f9c4c1146102065780635de0a9af1461023657806362fb2e841461026657806364d403bd14610282578063654c62951461029e57610140565b806308586317146101445780631294572114610174578063134bde11146101925780631ba46cfd146101ae578063220a36b6146101cc575b5f5ffd5b61015e60048036038101906101599190611fc2565b61045c565b60405161016b919061200f565b60405180910390f35b61017c6104b6565b6040516101899190612037565b60405180910390f35b6101ac60048036038101906101a79190611fc2565b6104dd565b005b6101b66106dc565b6040516101c39190612037565b60405180910390f35b6101e660048036038101906101e19190612050565b610703565b005b6101f061090f565b6040516101fd919061200f565b60405180910390f35b610220600480360381019061021b9190612050565b610918565b60405161022d919061200f565b60405180910390f35b610250600480360381019061024b9190612050565b610960565b60405161025d919061200f565b60405180910390f35b610280600480360381019061027b9190611fc2565b61097e565b005b61029c60048036038101906102979190611fc2565b610b7f565b005b6102b860048036038101906102b39190612050565b610e0c565b6040516102c5919061200f565b60405180910390f35b6102e860048036038101906102e39190612050565b610e52565b6040516102f5919061200f565b60405180910390f35b610306610e70565b604051610313919061200f565b60405180910390f35b610324610e79565b6040516103319190612037565b60405180910390f35b610354600480360381019061034f9190611fc2565b610ea0565b005b610370600480360381019061036b919061207b565b611023565b60405161037d919061200f565b60405180910390f35b61038e611047565b60405161039b9190612037565b60405180910390f35b6103ac61106e565b6040516103b9919061200f565b60405180910390f35b6103dc60048036038101906103d79190611fc2565b611076565b6040516103e9919061200f565b60405180910390f35b6103fa61111a565b6040516104079190612037565b60405180910390f35b61042a600480360381019061042591906120b9565b611141565b005b61044660048036038101906104419190612109565b61178a565b604051610453919061200f565b60405180910390f35b5f5f5f8473ffffffffffffffffffffffffffffffffffffffff1673ffffffffffffffffffffffffffffffffffffffff1681526020019081526020015f206002015f8381526020019081526020015f205f0154905092915050565b5f7f0000000000000000000000000000000000000000000000000000000000000000905090565b7f000000000000000000000000000000000000000000000000000000000000000073ffffffffffffffffffffffffffffffffffffffff163373ffffffffffffffffffffffffffffffffffffffff16036106d8577f000000000000000000000000000000000000000000000000000000000000000073ffffffffffffffffffffffffffffffffffffffff166370a08231306040518263ffffffff1660e01b81526004016105899190612037565b602060405180830381865afa1580156105a4573d5f5f3e3d5ffd5b505050506040513d601f19601f820116820180604052508101906105c89190612148565b811115610601576040517f7b1e64ac00000000000000000000000000000000000000000000000000000000815260040160405180910390fd5b5f7f000000000000000000000000000000000000000000000000000000000000000073ffffffffffffffffffffffffffffffffffffffff1663a9059cbb84846040518363ffffffff1660e01b815260040161065d929190612173565b6020604051808303815f875af1158015610679573d5f5f3e3d5ffd5b505050506040513d601f19601f8201168201806040525081019061069d91906121cf565b9050806106d6576040517fdd03f62e00000000000000000000000000000000000000000000000000000000815260040160405180910390fd5b505b5050565b5f7f0000000000000000000000000000000000000000000000000000000000000000905090565b7f000000000000000000000000000000000000000000000000000000000000000073ffffffffffffffffffffffffffffffffffffffff163373ffffffffffffffffffffffffffffffffffffffff160361090c577f000000000000000000000000000000000000000000000000000000000000000073ffffffffffffffffffffffffffffffffffffffff163373ffffffffffffffffffffffffffffffffffffffff16146107e4576040517f08c379a00000000000000000000000000000000000000000000000000000000081526004016107db9061227a565b60405180910390fd5b5f6107ee82610918565b90505f5f90505b5f5f8473ffffffffffffffffffffffffffffffffffffffff1673ffffffffffffffffffffffffffffffffffffffff1681526020019081526020015f2060030154811015610909575f5f8473ffffffffffffffffffffffffffffffffffffffff1673ffffffffffffffffffffffffffffffffffffffff1681526020019081526020015f206001015f8281526020019081526020015f205f9054906101000a900460ff166108fc575f5f5f8573ffffffffffffffffffffffffffffffffffffffff1673ffffffffffffffffffffffffffffffffffffffff1681526020019081526020015f206002015f8381526020019081526020015f205f015490506108fa848284611141565b505b80806001019150506107f5565b50505b50565b5f600454905090565b5f5f5f8373ffffffffffffffffffffffffffffffffffffffff1673ffffffffffffffffffffffffffffffffffffffff1681526020019081526020015f20600401549050919050565b5f5f61096b83610918565b90506109768161178a565b915050919050565b7f000000000000000000000000000000000000000000000000000000000000000073ffffffffffffffffffffffffffffffffffffffff163373ffffffffffffffffffffffffffffffffffffffff1603610b7b577f000000000000000000000000000000000000000000000000000000000000000073ffffffffffffffffffffffffffffffffffffffff163373ffffffffffffffffffffffffffffffffffffffff1614610a5f576040517f08c379a0000000000000000000000000000000000000000000000000000000008152600401610a5690612308565b60405180910390fd5b5f5f5f8473ffffffffffffffffffffffffffffffffffffffff1673ffffffffffffffffffffffffffffffffffffffff1681526020019081526020015f20905081816002015f836003015481526020019081526020015f205f018190555042816002015f836003015481526020019081526020015f206001018190555081816004015f82825401925050819055508160035f828254019250508190555060045f81548092919060010191905055508060030154828473ffffffffffffffffffffffffffffffffffffffff167f77b57bffc1c97e4762d78efd74300ab40a13dc946d0e09b33ead3a5b35cfa7d385604051610b58919061200f565b60405180910390a4806003015f815480929190610b7490612353565b9190505550505b5050565b7f000000000000000000000000000000000000000000000000000000000000000073ffffffffffffffffffffffffffffffffffffffff163373ffffffffffffffffffffffffffffffffffffffff1603610e08577f000000000000000000000000000000000000000000000000000000000000000073ffffffffffffffffffffffffffffffffffffffff163373ffffffffffffffffffffffffffffffffffffffff1614610c60576040517f08c379a0000000000000000000000000000000000000000000000000000000008152600401610c579061227a565b60405180910390fd5b7f000000000000000000000000000000000000000000000000000000000000000073ffffffffffffffffffffffffffffffffffffffff166370a08231306040518263ffffffff1660e01b8152600401610cb99190612037565b602060405180830381865afa158015610cd4573d5f5f3e3d5ffd5b505050506040513d601f19601f82011682018060405250810190610cf89190612148565b811115610d31576040517f7b1e64ac00000000000000000000000000000000000000000000000000000000815260040160405180910390fd5b5f7f000000000000000000000000000000000000000000000000000000000000000073ffffffffffffffffffffffffffffffffffffffff1663a9059cbb84846040518363ffffffff1660e01b8152600401610d8d929190612173565b6020604051808303815f875af1158015610da9573d5f5f3e3d5ffd5b505050506040513d601f19601f82011682018060405250810190610dcd91906121cf565b905080610e06576040517fdd03f62e00000000000000000000000000000000000000000000000000000000815260040160405180910390fd5b505b5050565b5f60015f8373ffffffffffffffffffffffffffffffffffffffff1673ffffffffffffffffffffffffffffffffffffffff1681526020019081526020015f20549050919050565b5f5f610e5d83610e0c565b9050610e688161178a565b915050919050565b5f600354905090565b5f7f0000000000000000000000000000000000000000000000000000000000000000905090565b7f000000000000000000000000000000000000000000000000000000000000000073ffffffffffffffffffffffffffffffffffffffff163373ffffffffffffffffffffffffffffffffffffffff160361101f577f000000000000000000000000000000000000000000000000000000000000000073ffffffffffffffffffffffffffffffffffffffff163373ffffffffffffffffffffffffffffffffffffffff1614610f81576040517f08c379a0000000000000000000000000000000000000000000000000000000008152600401610f7890612308565b60405180910390fd5b8060015f8473ffffffffffffffffffffffffffffffffffffffff1673ffffffffffffffffffffffffffffffffffffffff1681526020019081526020015f205f82825401925050819055508060025f8282540192505081905550808273ffffffffffffffffffffffffffffffffffffffff167fd7243f6f8212d5188fd054141cf6ea89cfc0d91facb8c3afe2f88a135848014260405160405180910390a35b5050565b5f600254600354611034919061239a565b8361103f91906123cd565b905092915050565b5f7f0000000000000000000000000000000000000000000000000000000000000000905090565b5f6003905090565b5f5f7f000000000000000000000000000000000000000000000000000000000000000073ffffffffffffffffffffffffffffffffffffffff1663313ce5676040518163ffffffff1660e01b8152600401602060405180830381865afa1580156110e1573d5f5f3e3d5ffd5b505050506040513d601f19601f820116820180604052508101906111059190612436565b60126111119190612461565b90505092915050565b5f7f0000000000000000000000000000000000000000000000000000000000000000905090565b7f000000000000000000000000000000000000000000000000000000000000000073ffffffffffffffffffffffffffffffffffffffff163373ffffffffffffffffffffffffffffffffffffffff1603611785577f000000000000000000000000000000000000000000000000000000000000000073ffffffffffffffffffffffffffffffffffffffff163373ffffffffffffffffffffffffffffffffffffffff1614611222576040517f08c379a00000000000000000000000000000000000000000000000000000000081526004016112199061227a565b60405180910390fd5b805f5f8573ffffffffffffffffffffffffffffffffffffffff1673ffffffffffffffffffffffffffffffffffffffff1681526020019081526020015f2060030154101561129b576040517fbfce9d7e00000000000000000000000000000000000000000000000000000000815260040160405180910390fd5b5f5f8473ffffffffffffffffffffffffffffffffffffffff1673ffffffffffffffffffffffffffffffffffffffff1681526020019081526020015f206001015f8281526020019081526020015f205f9054906101000a900460ff161561132d576040517ff6d36f9100000000000000000000000000000000000000000000000000000000815260040160405180910390fd5b5f5f5f8573ffffffffffffffffffffffffffffffffffffffff1673ffffffffffffffffffffffffffffffffffffffff1681526020019081526020015f2090505f7f000000000000000000000000000000000000000000000000000000000000000073ffffffffffffffffffffffffffffffffffffffff166370a08231306040518263ffffffff1660e01b81526004016113c69190612037565b602060405180830381865afa1580156113e1573d5f5f3e3d5ffd5b505050506040513d601f19601f820116820180604052508101906114059190612148565b90506114466040518060400160405280601181526020017f546f74616c2042616c616e63652069732000000000000000000000000000000081525082611a6d565b816002015f8481526020019081526020015f205f015484036116015783826002015f8581526020019081526020015f205f015f82825461148691906123cd565b9250508190555083826004015f8282546114a091906123cd565b92505081905550815f0183908060018154018082558091505060019003905f5260205f20015f90919091909150556001826001015f8581526020019081526020015f205f6101000a81548160ff0219169083151502179055508360035f82825461150a91906123cd565b9250508190555060045f81548092919061152390612495565b91905055505f61154a85846002015f8781526020019081526020015f206001015484611b09565b905061158b6040518060400160405280601881526020017f416d6f756e74205769746820496e74657265737420697320000000000000000081525082611a6d565b6115b67f00000000000000000000000000000000000000000000000000000000000000008783611c48565b83818773ffffffffffffffffffffffffffffffffffffffff167f9b9970c5ed4609e15fd1dedd289d5697670692b2f58988736a098d44fd4cb3db60405160405180910390a450611782565b816002015f8481526020019081526020015f205f0154841115611650576040517f7b1e64ac00000000000000000000000000000000000000000000000000000000815260040160405180910390fd5b83826002015f8581526020019081526020015f205f015f82825461167491906123cd565b9250508190555083826004015f82825461168e91906123cd565b925050819055508360035f8282546116a691906123cd565b925050819055505f6116cf85846002015f8781526020019081526020015f206001015484611b09565b90506117106040518060400160405280601881526020017f416d6f756e74205769746820496e74657265737420697320000000000000000081525082611a6d565b61173b7f00000000000000000000000000000000000000000000000000000000000000008783611c48565b83818773ffffffffffffffffffffffffffffffffffffffff167f9b9970c5ed4609e15fd1dedd289d5697670692b2f58988736a098d44fd4cb3db60405160405180910390a4505b50505b505050565b5f5f7f000000000000000000000000000000000000000000000000000000000000000073ffffffffffffffffffffffffffffffffffffffff1663feaf968c6040518163ffffffff1660e01b815260040160a060405180830381865afa1580156117f5573d5f5f3e3d5ffd5b505050506040513d601f19601f82011682018060405250810190611819919061252e565b50505091505060127f000000000000000000000000000000000000000000000000000000000000000073ffffffffffffffffffffffffffffffffffffffff1663313ce5676040518163ffffffff1660e01b8152600401602060405180830381865afa15801561188a573d5f5f3e3d5ffd5b505050506040513d601f19601f820116820180604052508101906118ae9190612436565b60ff16036118dd57670de0b6b3a764000081846118cb91906125a5565b6118d59190612613565b915050611a68565b5f7f000000000000000000000000000000000000000000000000000000000000000073ffffffffffffffffffffffffffffffffffffffff1663313ce5676040518163ffffffff1660e01b8152600401602060405180830381865afa158015611947573d5f5f3e3d5ffd5b505050506040513d601f19601f8201168201806040525081019061196b9190612436565b60126119779190612461565b90505f7f000000000000000000000000000000000000000000000000000000000000000073ffffffffffffffffffffffffffffffffffffffff1663313ce5676040518163ffffffff1660e01b8152600401602060405180830381865afa1580156119e3573d5f5f3e3d5ffd5b505050506040513d601f19601f82011682018060405250810190611a079190612436565b6012611a139190612461565b9050670de0b6b3a764000082600a611a2b9190612772565b84611a3691906125a5565b82600a611a439190612772565b87611a4e91906125a5565b611a5891906125a5565b611a629190612613565b93505050505b919050565b611b058282604051602401611a8392919061281c565b6040516020818303038152906040527f9710a9d0000000000000000000000000000000000000000000000000000000007bffffffffffffffffffffffffffffffffffffffffffffffffffffffff19166020820180517bffffffffffffffffffffffffffffffffffffffffffffffffffffffff8381831617835250505050611cc7565b5050565b5f838203611b2d57611b1b8285611023565b84611b26919061239a565b9050611c40565b5f8342611b3a91906123cd565b90505f8584611b4991906123cd565b90505f611b568588611023565b9050611b7a6040518060600160405280602181526020016128a56021913982611a6d565b5f8103611b8c57869350505050611c41565b5f82606489611b9b91906125a5565b611ba59190612613565b90505f8103611bfa575f606460628a611bbe91906125a5565b611bc89190612613565b89611bd391906123cd565b905061016d81611be39190612613565b89611bee919061239a565b95505050505050611c41565b5f6301dfe20083611c0b9190612613565b90505f8582611c1a91906125a5565b90508281611c289190612613565b8a611c33919061239a565b9650505050505050611c41565b5b9392505050565b611cc2838473ffffffffffffffffffffffffffffffffffffffff1663a9059cbb8585604051602401611c7b929190612173565b604051602081830303815290604052915060e01b6020820180517bffffffffffffffffffffffffffffffffffffffffffffffffffffffff8381831617835250505050611ced565b505050565b5f815190505f6a636f6e736f6c652e6c6f679050602083015f5f8483855afa5050505050565b5f611d17828473ffffffffffffffffffffffffffffffffffffffff16611d8290919063ffffffff16565b90505f815114158015611d3b575080806020019051810190611d3991906121cf565b155b15611d7d57826040517f5274afe7000000000000000000000000000000000000000000000000000000008152600401611d749190612037565b60405180910390fd5b505050565b6060611d8f83835f611d97565b905092915050565b606081471015611dde57306040517fcd786059000000000000000000000000000000000000000000000000000000008152600401611dd59190612037565b60405180910390fd5b5f5f8573ffffffffffffffffffffffffffffffffffffffff168486604051611e06919061288e565b5f6040518083038185875af1925050503d805f8114611e40576040519150601f19603f3d011682016040523d82523d5f602084013e611e45565b606091505b5091509150611e55868383611e60565b925050509392505050565b606082611e7557611e7082611eed565b611ee5565b5f8251148015611e9b57505f8473ffffffffffffffffffffffffffffffffffffffff163b145b15611edd57836040517f9996b315000000000000000000000000000000000000000000000000000000008152600401611ed49190612037565b60405180910390fd5b819050611ee6565b5b9392505050565b5f81511115611eff5780518082602001fd5b6040517f1425ea4200000000000000000000000000000000000000000000000000000000815260040160405180910390fd5b5f5ffd5b5f73ffffffffffffffffffffffffffffffffffffffff82169050919050565b5f611f5e82611f35565b9050919050565b611f6e81611f54565b8114611f78575f5ffd5b50565b5f81359050611f8981611f65565b92915050565b5f819050919050565b611fa181611f8f565b8114611fab575f5ffd5b50565b5f81359050611fbc81611f98565b92915050565b5f5f60408385031215611fd857611fd7611f31565b5b5f611fe585828601611f7b565b9250506020611ff685828601611fae565b9150509250929050565b61200981611f8f565b82525050565b5f6020820190506120225f830184612000565b92915050565b61203181611f54565b82525050565b5f60208201905061204a5f830184612028565b92915050565b5f6020828403121561206557612064611f31565b5b5f61207284828501611f7b565b91505092915050565b5f5f6040838503121561209157612090611f31565b5b5f61209e85828601611fae565b92505060206120af85828601611fae565b9150509250929050565b5f5f5f606084860312156120d0576120cf611f31565b5b5f6120dd86828701611f7b565b93505060206120ee86828701611fae565b92505060406120ff86828701611fae565b9150509250925092565b5f6020828403121561211e5761211d611f31565b5b5f61212b84828501611fae565b91505092915050565b5f8151905061214281611f98565b92915050565b5f6020828403121561215d5761215c611f31565b5b5f61216a84828501612134565b91505092915050565b5f6040820190506121865f830185612028565b6121936020830184612000565b9392505050565b5f8115159050919050565b6121ae8161219a565b81146121b8575f5ffd5b50565b5f815190506121c9816121a5565b92915050565b5f602082840312156121e4576121e3611f31565b5b5f6121f1848285016121bb565b91505092915050565b5f82825260208201905092915050565b7f4f6e6c7920726f757465722063616e2063616c6c20746869732066756e6374695f8201527f6f6e000000000000000000000000000000000000000000000000000000000000602082015250565b5f6122646022836121fa565b915061226f8261220a565b604082019050919050565b5f6020820190508181035f83015261229181612258565b9050919050565b7f4f6e6c7920526f757465722063616e2063616c6c20746869732066756e6374695f8201527f6f6e000000000000000000000000000000000000000000000000000000000000602082015250565b5f6122f26022836121fa565b91506122fd82612298565b604082019050919050565b5f6020820190508181035f83015261231f816122e6565b9050919050565b7f4e487b71000000000000000000000000000000000000000000000000000000005f52601160045260245ffd5b5f61235d82611f8f565b91507fffffffffffffffffffffffffffffffffffffffffffffffffffffffffffffffff820361238f5761238e612326565b5b600182019050919050565b5f6123a482611f8f565b91506123af83611f8f565b92508282019050808211156123c7576123c6612326565b5b92915050565b5f6123d782611f8f565b91506123e283611f8f565b92508282039050818111156123fa576123f9612326565b5b92915050565b5f60ff82169050919050565b61241581612400565b811461241f575f5ffd5b50565b5f815190506124308161240c565b92915050565b5f6020828403121561244b5761244a611f31565b5b5f61245884828501612422565b91505092915050565b5f61246b82612400565b915061247683612400565b9250828203905060ff81111561248f5761248e612326565b5b92915050565b5f61249f82611f8f565b91505f82036124b1576124b0612326565b5b600182039050919050565b5f69ffffffffffffffffffff82169050919050565b6124da816124bc565b81146124e4575f5ffd5b50565b5f815190506124f5816124d1565b92915050565b5f819050919050565b61250d816124fb565b8114612517575f5ffd5b50565b5f8151905061252881612504565b92915050565b5f5f5f5f5f60a0868803121561254757612546611f31565b5b5f612554888289016124e7565b95505060206125658882890161251a565b945050604061257688828901612134565b935050606061258788828901612134565b9250506080612598888289016124e7565b9150509295509295909350565b5f6125af82611f8f565b91506125ba83611f8f565b92508282026125c881611f8f565b915082820484148315176125df576125de612326565b5b5092915050565b7f4e487b71000000000000000000000000000000000000000000000000000000005f52601260045260245ffd5b5f61261d82611f8f565b915061262883611f8f565b925082612638576126376125e6565b5b828204905092915050565b5f8160011c9050919050565b5f5f8291508390505b60018511156126985780860481111561267457612673612326565b5b60018516156126835780820291505b808102905061269185612643565b9450612658565b94509492505050565b5f826126b0576001905061276b565b816126bd575f905061276b565b81600181146126d357600281146126dd5761270c565b600191505061276b565b60ff8411156126ef576126ee612326565b5b8360020a91508482111561270657612705612326565b5b5061276b565b5060208310610133831016604e8410600b84101617156127415782820a90508381111561273c5761273b612326565b5b61276b565b61274e848484600161264f565b9250905081840481111561276557612764612326565b5b81810290505b9392505050565b5f61277c82611f8f565b915061278783612400565b92506127b47fffffffffffffffffffffffffffffffffffffffffffffffffffffffffffffffff84846126a1565b905092915050565b5f81519050919050565b8281835e5f83830152505050565b5f601f19601f8301169050919050565b5f6127ee826127bc565b6127f881856121fa565b93506128088185602086016127c6565b612811816127d4565b840191505092915050565b5f6040820190508181035f83015261283481856127e4565b90506128436020830184612000565b9392505050565b5f81519050919050565b5f81905092915050565b5f6128688261284a565b6128728185612854565b93506128828185602086016127c6565b80840191505092915050565b5f612899828461285e565b91508190509291505056fe546f74616c204163637275656420496e74657265737420416d6f756e7420697320a2646970667358221220c393ee59e4af945081bd7be3b7b3a9956d5476cd9b640411184a8f68990981f764736f6c634300081b0033","linkReferences":{}},"methodIdentifiers":{"FlashLoan(address,uint256)":"134bde11","TransferAmountToBeBorrowed(address,uint256)":"64d403bd","assetAddress()":"1ba46cfd","depositCollateral(address,uint256)":"a5d5db0c","depositLiquidityAndMintTokens(address,uint256)":"62fb2e84","getBorrowableAmountBasedOnUSDAmount(address,uint256)":"cb8284d0","getCollateralAmount(address)":"654c6295","getCollateralValueInUSD(address)":"877db9dd","getDepositInterestRate()":"b1a93393","getDepositValueInUSD(address)":"5de0a9af","getIndividualDepositAmount(address,uint256)":"08586317","getRouter()":"b0f479a1","getTotalDepositAmount(address)":"27f9c4c1","getTotalInterestAmount(uint256,uint256)":"ac5f8359","getTotalUserCounter()":"248c181b","getTotalUserDeposits()":"a1303616","getValueInUSD(uint256)":"f27feeaf","lendingTokenAddress()":"12945721","poolFactoryAddress()":"a32cf536","priceFeedAddress()":"e0abca0b","withdrawLiquidity(address,uint256,uint256)":"ea999dff","withdrawTotalAmount(address)":"220a36b6"},"id":4}