{"abi":[{"type":"constructor","inputs":[{"name":"token","type":"address","internalType":"address"},{"name":"priceFeed","type":"address","internalType":"address"},{"name":"router","type":"address","internalType":"address"},{"name":"lendToken","type":"address","internalType":"address"}],"stateMutability":"nonpayable"},{"type":"function","name":"FlashLoan","inputs":[{"name":"receiver","type":"address","internalType":"address"},{"name":"amount","type":"uint256","internalType":"uint256"}],"outputs":[],"stateMutability":"nonpayable"},{"type":"function","name":"assetAddress","inputs":[],"outputs":[{"name":"","type":"address","internalType":"address"}],"stateMutability":"view"},{"type":"function","name":"depositCollateral","inputs":[{"name":"depositor","type":"address","internalType":"address"},{"name":"amount","type":"uint256","internalType":"uint256"}],"outputs":[],"stateMutability":"nonpayable"},{"type":"function","name":"depositLiquidityAndMintTokens","inputs":[{"name":"depositor","type":"address","internalType":"address"},{"name":"amount","type":"uint256","internalType":"uint256"}],"outputs":[],"stateMutability":"nonpayable"},{"type":"function","name":"getBorrowableAmountBasedOnUSDAmount","inputs":[{"name":"user","type":"address","internalType":"address"},{"name":"collateralInUSD","type":"uint256","internalType":"uint256"}],"outputs":[{"name":"value","type":"uint256","internalType":"uint256"}],"stateMutability":"view"},{"type":"function","name":"getCollateralAmount","inputs":[{"name":"user","type":"address","internalType":"address"}],"outputs":[{"name":"","type":"uint256","internalType":"uint256"}],"stateMutability":"view"},{"type":"function","name":"getDepositInterestRate","inputs":[],"outputs":[{"name":"","type":"uint256","internalType":"uint256"}],"stateMutability":"pure"},{"type":"function","name":"getDepositValueInUSD","inputs":[{"name":"user","type":"address","internalType":"address"}],"outputs":[{"name":"","type":"uint256","internalType":"uint256"}],"stateMutability":"view"},{"type":"function","name":"getIndividualDepositAmount","inputs":[{"name":"user","type":"address","internalType":"address"},{"name":"depositId","type":"uint256","internalType":"uint256"}],"outputs":[{"name":"","type":"uint256","internalType":"uint256"}],"stateMutability":"view"},{"type":"function","name":"getRouter","inputs":[],"outputs":[{"name":"","type":"address","internalType":"address"}],"stateMutability":"view"},{"type":"function","name":"getTotalDepositAmount","inputs":[{"name":"user","type":"address","internalType":"address"}],"outputs":[{"name":"depositedAmount","type":"uint256","internalType":"uint256"}],"stateMutability":"view"},{"type":"function","name":"getTotalInterestAmount","inputs":[{"name":"BalAMount","type":"uint256","internalType":"uint256"}],"outputs":[{"name":"","type":"uint256","internalType":"uint256"}],"stateMutability":"view"},{"type":"function","name":"getTotalUserCounter","inputs":[],"outputs":[{"name":"","type":"uint256","internalType":"uint256"}],"stateMutability":"view"},{"type":"function","name":"getTotalUserDeposits","inputs":[],"outputs":[{"name":"","type":"uint256","internalType":"uint256"}],"stateMutability":"view"},{"type":"function","name":"lendingTokenAddress","inputs":[],"outputs":[{"name":"","type":"address","internalType":"address"}],"stateMutability":"view"},{"type":"function","name":"poolFactoryAddress","inputs":[],"outputs":[{"name":"","type":"address","internalType":"address"}],"stateMutability":"view"},{"type":"function","name":"priceFeedAddress","inputs":[],"outputs":[{"name":"","type":"address","internalType":"address"}],"stateMutability":"view"},{"type":"function","name":"withdrawLiquidity","inputs":[{"name":"user","type":"address","internalType":"address"},{"name":"amount","type":"uint256","internalType":"uint256"},{"name":"depositId","type":"uint256","internalType":"uint256"}],"outputs":[],"stateMutability":"nonpayable"},{"type":"function","name":"withdrawTotalAmount","inputs":[{"name":"user","type":"address","internalType":"address"}],"outputs":[],"stateMutability":"nonpayable"},{"type":"event","name":"CollateralDeposited","inputs":[{"name":"depositor","type":"address","indexed":true,"internalType":"address"},{"name":"amount","type":"uint256","indexed":true,"internalType":"uint256"}],"anonymous":false},{"type":"event","name":"DepositLiquidity","inputs":[{"name":"depositor","type":"address","indexed":true,"internalType":"address"},{"name":"amount","type":"uint256","indexed":true,"internalType":"uint256"},{"name":"shares_minted","type":"uint256","indexed":false,"internalType":"uint256"},{"name":"depositCounter","type":"uint256","indexed":true,"internalType":"uint256"}],"anonymous":false},{"type":"event","name":"SimpleWithdraw","inputs":[{"name":"depositor","type":"address","indexed":true,"internalType":"address"},{"name":"amount","type":"uint256","indexed":true,"internalType":"uint256"},{"name":"depositCounter","type":"uint256","indexed":true,"internalType":"uint256"}],"anonymous":false},{"type":"error","name":"AddressEmptyCode","inputs":[{"name":"target","type":"address","internalType":"address"}]},{"type":"error","name":"AddressInsufficientBalance","inputs":[{"name":"account","type":"address","internalType":"address"}]},{"type":"error","name":"CoreLogic__InvalidDepositId","inputs":[]},{"type":"error","name":"CoreLogic__OnlyRouter","inputs":[]},{"type":"error","name":"CoreLogic__OutOfBalance","inputs":[]},{"type":"error","name":"FailedInnerCall","inputs":[]},{"type":"error","name":"SafeERC20FailedOperation","inputs":[{"name":"token","type":"address","internalType":"address"}]}],"bytecode":{"object":"0x61012060405234801561001157600080fd5b5060405161191f38038061191f83398101604081905261003091610073565b6001600160a01b039384166080523360a052831660c05290821660e05216610100526100c7565b80516001600160a01b038116811461006e57600080fd5b919050565b6000806000806080858703121561008957600080fd5b61009285610057565b93506100a060208601610057565b92506100ae60408601610057565b91506100bc60608601610057565b905092959194509250565b60805160a05160c05160e05161010051611788610197600039600081816102ad0152818161035a015281816104cb015281816104fc015281816108e20152818161091301528181610a2e01528181610a5f01528181610bde0152610c0f0152600081816102ed015281816105f1015281816106790152818161074e0152610b400152600061014e0152600061026101526000818161019d015281816103950152818161044e015281816107df0152818161095501528181610aa101528181610db50152610ed301526117886000f3fe608060405234801561001057600080fd5b50600436106101215760003560e01c8063654c6295116100ad578063b0f479a111610071578063b0f479a1146102ab578063b1a93393146102d1578063cb8284d0146102d8578063e0abca0b146102eb578063ea999dff1461031157600080fd5b8063654c62951461022e578063a130361614610257578063a32cf5361461025f578063a5d5db0c14610285578063aa3809641461029857600080fd5b8063220a36b6116100f4578063220a36b6146101c1578063248c181b146101d457806327f9c4c1146101dc5780635de0a9af1461020857806362fb2e841461021b57600080fd5b80630858631714610126578063129457211461014c578063134bde11146101865780631ba46cfd1461019b575b600080fd5b610139610134366004611323565b610324565b6040519081526020015b60405180910390f35b7f00000000000000000000000000000000000000000000000000000000000000005b6040516001600160a01b039091168152602001610143565b610199610194366004611323565b610350565b005b7f000000000000000000000000000000000000000000000000000000000000000061016e565b6101996101cf36600461134d565b6104c1565b600454610139565b6101396101ea36600461134d565b6001600160a01b031660009081526020819052604090206004015490565b61013961021636600461134d565b6105ec565b610199610229366004611323565b6108d8565b61013961023c36600461134d565b6001600160a01b031660009081526001602052604090205490565b600354610139565b7f000000000000000000000000000000000000000000000000000000000000000061016e565b610199610293366004611323565b610a24565b6101396102a6366004611368565b610b1a565b7f000000000000000000000000000000000000000000000000000000000000000061016e565b6003610139565b6101396102e6366004611323565b610b3b565b7f000000000000000000000000000000000000000000000000000000000000000061016e565b61019961031f366004611381565b610bd4565b6001600160a01b0382166000908152602081815260408083208484526002019091529020545b92915050565b6001600160a01b037f00000000000000000000000000000000000000000000000000000000000000001633036104bd576040516370a0823160e01b81523060048201527f00000000000000000000000000000000000000000000000000000000000000006001600160a01b0316906370a0823190602401602060405180830381865afa1580156103e4573d6000803e3d6000fd5b505050506040513d601f19601f8201168201806040525081019061040891906113b4565b81111561042857604051631ec7992b60e21b815260040160405180910390fd5b60405163a9059cbb60e01b81526001600160a01b038381166004830152602482018390527f0000000000000000000000000000000000000000000000000000000000000000169063a9059cbb906044016020604051808303816000875af1158015610497573d6000803e3d6000fd5b505050506040513d601f19601f820116820180604052508101906104bb91906113cd565b505b5050565b6001600160a01b037f00000000000000000000000000000000000000000000000000000000000000001633036105e957336001600160a01b037f000000000000000000000000000000000000000000000000000000000000000016146105425760405162461bcd60e51b8152600401610539906113ef565b60405180910390fd5b6001600160a01b038116600090815260208190526040812060040154905b6001600160a01b0383166000908152602081905260409020600301548110156104bb576001600160a01b03831660009081526020818152604080832084845260010190915290205460ff166105e1576001600160a01b0383166000908152602081815260408083208484526002019091529020546105df848284610bd4565b505b600101610560565b50565b6000807f00000000000000000000000000000000000000000000000000000000000000006001600160a01b031663feaf968c6040518163ffffffff1660e01b815260040160a060405180830381865afa15801561064d573d6000803e3d6000fd5b505050506040513d601f19601f82011682018060405250810190610671919061144b565b5050509150507f00000000000000000000000000000000000000000000000000000000000000006001600160a01b031663313ce5676040518163ffffffff1660e01b8152600401602060405180830381865afa1580156106d5573d6000803e3d6000fd5b505050506040513d601f19601f820116820180604052508101906106f9919061149b565b60ff1660120361074a57670de0b6b3a76400008161072f856001600160a01b031660009081526020819052604090206004015490565b61073991906114d4565b61074391906114eb565b9392505050565b60007f00000000000000000000000000000000000000000000000000000000000000006001600160a01b031663313ce5676040518163ffffffff1660e01b8152600401602060405180830381865afa1580156107aa573d6000803e3d6000fd5b505050506040513d601f19601f820116820180604052508101906107ce919061149b565b6107d990601261150d565b905060007f00000000000000000000000000000000000000000000000000000000000000006001600160a01b031663313ce5676040518163ffffffff1660e01b8152600401602060405180830381865afa15801561083b573d6000803e3d6000fd5b505050506040513d601f19601f8201168201806040525081019061085f919061149b565b61086a90601261150d565b9050670de0b6b3a764000061088083600a61160a565b61088a90856114d4565b61089583600a61160a565b6001600160a01b0388166000908152602081905260409020600401546108bb91906114d4565b6108c591906114d4565b6108cf91906114eb565b95945050505050565b6001600160a01b037f00000000000000000000000000000000000000000000000000000000000000001633036104bd57336001600160a01b037f000000000000000000000000000000000000000000000000000000000000000016146109505760405162461bcd60e51b815260040161053990611619565b61097c7f0000000000000000000000000000000000000000000000000000000000000000833084610f3a565b6001600160a01b038216600081815260208181526040808320600380820180548652600283018552838620889055805486529483902042600191820155600480840180548a019055825489019092558154019055925490518581529293909285927f77b57bffc1c97e4762d78efd74300ab40a13dc946d0e09b33ead3a5b35cfa7d3910160405180910390a4600381018054906000610a1a8361165b565b9190505550505050565b6001600160a01b037f00000000000000000000000000000000000000000000000000000000000000001633036104bd57336001600160a01b037f00000000000000000000000000000000000000000000000000000000000000001614610a9c5760405162461bcd60e51b815260040161053990611619565b610ac87f0000000000000000000000000000000000000000000000000000000000000000833084610f3a565b6001600160a01b0382166000818152600160205260408082208054850190556002805485019055518392917fd7243f6f8212d5188fd054141cf6ea89cfc0d91facb8c3afe2f88a135848014291a35050565b6000600254600354610b2c9190611674565b61034a9083611687565b919050565b6000807f00000000000000000000000000000000000000000000000000000000000000006001600160a01b031663313ce5676040518163ffffffff1660e01b8152600401602060405180830381865afa158015610b9c573d6000803e3d6000fd5b505050506040513d601f19601f82011682018060405250810190610bc0919061149b565b610bcb90601261150d565b90505092915050565b6001600160a01b037f00000000000000000000000000000000000000000000000000000000000000001633036104bb57336001600160a01b037f00000000000000000000000000000000000000000000000000000000000000001614610c4c5760405162461bcd60e51b8152600401610539906113ef565b6001600160a01b038316600090815260208190526040902060030154811115610c8857604051635fe74ebf60e11b815260040160405180910390fd5b6001600160a01b038316600090815260208181526040808320600354858552600282019093529220548403610e1957600083815260028301602052604081208054869290610cd7908490611687565b9250508190555083826004016000828254610cf29190611687565b90915550508154600181810184556000848152602080822090930186905585815281850190925260408220805460ff1916909117905560038054869290610d3a908490611687565b909155505060048054906000610d4f8361169a565b90915550506000838152600283016020526040812060010154610d7490869084610fa7565b9050610db060405180604001604052806018815260200177020b6b7bab73a102bb4ba341024b73a32b932b9ba1034b9960451b8152508261109b565b610ddb7f000000000000000000000000000000000000000000000000000000000000000087836110e0565b8381876001600160a01b03167f9b9970c5ed4609e15fd1dedd289d5697670692b2f58988736a098d44fd4cb3db60405160405180910390a450610f33565b600083815260028301602052604081208054869290610e39908490611687565b9250508190555083826004016000828254610e549190611687565b925050819055508360036000828254610e6d9190611687565b90915550506000838152600283016020526040812060010154610e9290869084610fa7565b9050610ece60405180604001604052806018815260200177020b6b7bab73a102bb4ba341024b73a32b932b9ba1034b9960451b8152508261109b565b610ef97f000000000000000000000000000000000000000000000000000000000000000087836110e0565b8381876001600160a01b03167f9b9970c5ed4609e15fd1dedd289d5697670692b2f58988736a098d44fd4cb3db60405160405180910390a4505b5050505050565b6040516001600160a01b038481166024830152838116604483015260648201839052610fa19186918216906323b872dd906084015b604051602081830303815290604052915060e01b6020820180516001600160e01b038381831617835250505050611111565b50505050565b6000838203610ff057610fb982610b1a565b610fc39085611674565b9050610feb6040518060400160405280600581526020016448656c6c6f60d81b81525061117d565b610743565b6110166040518060400160405280600581526020016448656c6c6f60d81b81525061117d565b60006110228442611687565b905060006110308685611687565b9050600061103d85610b1a565b905060008261104d8960646114d4565b61105791906114eb565b905060006110696301dfe200846114eb565b9050600061107786836114d4565b905061108383826114eb565b61108d908b611674565b9a9950505050505050505050565b6104bd82826040516024016110b1929190611701565b60408051601f198184030181529190526020810180516001600160e01b0316632d839cb360e21b179052611174565b6040516001600160a01b038381166024830152604482018390526104bb91859182169063a9059cbb90606401610f6f565b60006111266001600160a01b038416836111c0565b9050805160001415801561114b57508080602001905181019061114991906113cd565b155b156104bb57604051635274afe760e01b81526001600160a01b0384166004820152602401610539565b6105e9816111ce565b6105e9816040516024016111919190611723565b60408051601f198184030181529190526020810180516001600160e01b031663104c13eb60e21b179052611174565b6060610743838360006111ef565b60006a636f6e736f6c652e6c6f679050600080835160208501845afa505050565b6060814710156112145760405163cd78605960e01b8152306004820152602401610539565b600080856001600160a01b031684866040516112309190611736565b60006040518083038185875af1925050503d806000811461126d576040519150601f19603f3d011682016040523d82523d6000602084013e611272565b606091505b509150915061128286838361128c565b9695505050505050565b60608261129c57610feb826112e3565b81511580156112b357506001600160a01b0384163b155b156112dc57604051639996b31560e01b81526001600160a01b0385166004820152602401610539565b5080610743565b8051156112f35780518082602001fd5b604051630a12f52160e11b815260040160405180910390fd5b80356001600160a01b0381168114610b3657600080fd5b6000806040838503121561133657600080fd5b61133f8361130c565b946020939093013593505050565b60006020828403121561135f57600080fd5b6107438261130c565b60006020828403121561137a57600080fd5b5035919050565b60008060006060848603121561139657600080fd5b61139f8461130c565b95602085013595506040909401359392505050565b6000602082840312156113c657600080fd5b5051919050565b6000602082840312156113df57600080fd5b8151801515811461074357600080fd5b60208082526022908201527f4f6e6c7920726f757465722063616e2063616c6c20746869732066756e63746960408201526137b760f11b606082015260800190565b805169ffffffffffffffffffff81168114610b3657600080fd5b600080600080600060a0868803121561146357600080fd5b61146c86611431565b945060208601519350604086015192506060860151915061148f60808701611431565b90509295509295909350565b6000602082840312156114ad57600080fd5b815160ff8116811461074357600080fd5b634e487b7160e01b600052601160045260246000fd5b808202811582820484141761034a5761034a6114be565b60008261150857634e487b7160e01b600052601260045260246000fd5b500490565b60ff828116828216039081111561034a5761034a6114be565b600181815b80851115611561578160001904821115611547576115476114be565b8085161561155457918102915b93841c939080029061152b565b509250929050565b6000826115785750600161034a565b816115855750600061034a565b816001811461159b57600281146115a5576115c1565b600191505061034a565b60ff8411156115b6576115b66114be565b50506001821b61034a565b5060208310610133831016604e8410600b84101617156115e4575081810a61034a565b6115ee8383611526565b8060001904821115611602576116026114be565b029392505050565b600061074360ff841683611569565b60208082526022908201527f4f6e6c7920526f757465722063616e2063616c6c20746869732066756e63746960408201526137b760f11b606082015260800190565b60006001820161166d5761166d6114be565b5060010190565b8082018082111561034a5761034a6114be565b8181038181111561034a5761034a6114be565b6000816116a9576116a96114be565b506000190190565b60005b838110156116cc5781810151838201526020016116b4565b50506000910152565b600081518084526116ed8160208601602086016116b1565b601f01601f19169290920160200192915050565b60408152600061171460408301856116d5565b90508260208301529392505050565b60208152600061074360208301846116d5565b600082516117488184602087016116b1565b919091019291505056fea26469706673582212209e3e7af7acbdd71f7d7e900447c91aefc3c3a6b4f84675aed1fd3f0bcb91fdb464736f6c63430008190033","linkReferences":{}},"methodIdentifiers":{"FlashLoan(address,uint256)":"134bde11","assetAddress()":"1ba46cfd","depositCollateral(address,uint256)":"a5d5db0c","depositLiquidityAndMintTokens(address,uint256)":"62fb2e84","getBorrowableAmountBasedOnUSDAmount(address,uint256)":"cb8284d0","getCollateralAmount(address)":"654c6295","getDepositInterestRate()":"b1a93393","getDepositValueInUSD(address)":"5de0a9af","getIndividualDepositAmount(address,uint256)":"08586317","getRouter()":"b0f479a1","getTotalDepositAmount(address)":"27f9c4c1","getTotalInterestAmount(uint256)":"aa380964","getTotalUserCounter()":"248c181b","getTotalUserDeposits()":"a1303616","lendingTokenAddress()":"12945721","poolFactoryAddress()":"a32cf536","priceFeedAddress()":"e0abca0b","withdrawLiquidity(address,uint256,uint256)":"ea999dff","withdrawTotalAmount(address)":"220a36b6"},"id":4}