{"abi":[{"type":"constructor","inputs":[{"name":"token","type":"address","internalType":"address"},{"name":"pricefeed","type":"address","internalType":"address"},{"name":"router","type":"address","internalType":"address"},{"name":"lendToken","type":"address","internalType":"address"}],"stateMutability":"nonpayable"},{"type":"function","name":"FlashLoan","inputs":[{"name":"receiver","type":"address","internalType":"address"},{"name":"amount","type":"uint256","internalType":"uint256"}],"outputs":[],"stateMutability":"nonpayable"},{"type":"function","name":"assetAddress","inputs":[],"outputs":[{"name":"","type":"address","internalType":"address"}],"stateMutability":"view"},{"type":"function","name":"depositCollateral","inputs":[{"name":"depositor","type":"address","internalType":"address"},{"name":"amount","type":"uint256","internalType":"uint256"}],"outputs":[],"stateMutability":"nonpayable"},{"type":"function","name":"depositLiquidityAndMintTokens","inputs":[{"name":"depositor","type":"address","internalType":"address"},{"name":"amount","type":"uint256","internalType":"uint256"}],"outputs":[],"stateMutability":"nonpayable"},{"type":"function","name":"getBorrowableAmountBasedOnUSDAmount","inputs":[{"name":"user","type":"address","internalType":"address"},{"name":"collateralInUSD","type":"uint256","internalType":"uint256"}],"outputs":[{"name":"value","type":"uint256","internalType":"uint256"}],"stateMutability":"view"},{"type":"function","name":"getCollateralAmount","inputs":[{"name":"user","type":"address","internalType":"address"}],"outputs":[{"name":"","type":"uint256","internalType":"uint256"}],"stateMutability":"view"},{"type":"function","name":"getDepositAmount","inputs":[{"name":"user","type":"address","internalType":"address"}],"outputs":[{"name":"depositedAmount","type":"uint256","internalType":"uint256"}],"stateMutability":"view"},{"type":"function","name":"getDepositValueInUSD","inputs":[{"name":"user","type":"address","internalType":"address"}],"outputs":[{"name":"","type":"uint256","internalType":"uint256"}],"stateMutability":"view"},{"type":"function","name":"getRouter","inputs":[],"outputs":[{"name":"","type":"address","internalType":"address"}],"stateMutability":"view"},{"type":"function","name":"lendingTokenAddress","inputs":[],"outputs":[{"name":"","type":"address","internalType":"address"}],"stateMutability":"view"},{"type":"function","name":"poolFactoryAddress","inputs":[],"outputs":[{"name":"","type":"address","internalType":"address"}],"stateMutability":"view"},{"type":"function","name":"priceFeedAddress","inputs":[],"outputs":[{"name":"","type":"address","internalType":"address"}],"stateMutability":"view"},{"type":"function","name":"withdrawLiquidity","inputs":[{"name":"user","type":"address","internalType":"address"},{"name":"amount","type":"uint256","internalType":"uint256"}],"outputs":[],"stateMutability":"nonpayable"},{"type":"event","name":"CollateralDeposited","inputs":[{"name":"depositor","type":"address","indexed":true,"internalType":"address"},{"name":"amount","type":"uint256","indexed":true,"internalType":"uint256"}],"anonymous":false},{"type":"event","name":"DepositLiquidity","inputs":[{"name":"depositor","type":"address","indexed":true,"internalType":"address"},{"name":"amount","type":"uint256","indexed":true,"internalType":"uint256"},{"name":"shares_minted","type":"uint256","indexed":false,"internalType":"uint256"},{"name":"depositCounter","type":"uint256","indexed":true,"internalType":"uint256"}],"anonymous":false},{"type":"error","name":"AddressEmptyCode","inputs":[{"name":"target","type":"address","internalType":"address"}]},{"type":"error","name":"AddressInsufficientBalance","inputs":[{"name":"account","type":"address","internalType":"address"}]},{"type":"error","name":"CoreLogic__OnlyRouter","inputs":[]},{"type":"error","name":"CoreLogic__OutOfBalance","inputs":[]},{"type":"error","name":"FailedInnerCall","inputs":[]},{"type":"error","name":"SafeERC20FailedOperation","inputs":[{"name":"token","type":"address","internalType":"address"}]}],"bytecode":{"object":"0x61012060405234801561001157600080fd5b506040516110ef3803806110ef83398101604081905261003091610073565b6001600160a01b039384166080523360a052831660c05290821660e05216610100526100c7565b80516001600160a01b038116811461006e57600080fd5b919050565b6000806000806080858703121561008957600080fd5b61009285610057565b93506100a060208601610057565b92506100ae60408601610057565b91506100bc60608601610057565b905092959194509250565b60805160a05160c05160e05161010051610f7561017a600039600081816101f90152818161028c015281816102bd01528181610348015281816107a4015281816107d5015281816108d1015261090201526000818161025e015281816104b30152818161053b0152818161061001526109ba0152600060eb015260006101c001526000818161013d015281816103830152818161043c015281816106a10152818161081701526109440152610f756000f3fe608060405234801561001057600080fd5b50600436106100cf5760003560e01c8063654c62951161008c578063b0f479a111610066578063b0f479a1146101f7578063b8ba16fd1461021d578063cb8284d014610249578063e0abca0b1461025c57600080fd5b8063654c629514610195578063a32cf536146101be578063a5d5db0c146101e457600080fd5b806306d47de9146100d457806312945721146100e9578063134bde11146101285780631ba46cfd1461013b5780635de0a9af1461016157806362fb2e8414610182575b600080fd5b6100e76100e2366004610c66565b610282565b005b7f00000000000000000000000000000000000000000000000000000000000000005b6040516001600160a01b0390911681526020015b60405180910390f35b6100e7610136366004610c66565b61033e565b7f000000000000000000000000000000000000000000000000000000000000000061010b565b61017461016f366004610c90565b6104ae565b60405190815260200161011f565b6100e7610190366004610c66565b61079a565b6101746101a3366004610c90565b6001600160a01b031660009081526001602052604090205490565b7f000000000000000000000000000000000000000000000000000000000000000061010b565b6100e76101f2366004610c66565b6108c7565b7f000000000000000000000000000000000000000000000000000000000000000061010b565b61017461022b366004610c90565b6001600160a01b031660009081526020819052604090206003015490565b610174610257366004610c66565b6109b5565b7f000000000000000000000000000000000000000000000000000000000000000061010b565b6001600160a01b037f000000000000000000000000000000000000000000000000000000000000000016330361033a57336001600160a01b037f0000000000000000000000000000000000000000000000000000000000000000161461033a5760405162461bcd60e51b815260206004820152602260248201527f4f6e6c7920726f757465722063616e2063616c6c20746869732066756e63746960448201526137b760f11b60648201526084015b60405180910390fd5b5050565b6001600160a01b037f000000000000000000000000000000000000000000000000000000000000000016330361033a576040516370a0823160e01b81523060048201527f00000000000000000000000000000000000000000000000000000000000000006001600160a01b0316906370a0823190602401602060405180830381865afa1580156103d2573d6000803e3d6000fd5b505050506040513d601f19601f820116820180604052508101906103f69190610cab565b81111561041657604051631ec7992b60e21b815260040160405180910390fd5b60405163a9059cbb60e01b81526001600160a01b038381166004830152602482018390527f0000000000000000000000000000000000000000000000000000000000000000169063a9059cbb906044016020604051808303816000875af1158015610485573d6000803e3d6000fd5b505050506040513d601f19601f820116820180604052508101906104a99190610cc4565b505050565b6000807f00000000000000000000000000000000000000000000000000000000000000006001600160a01b031663feaf968c6040518163ffffffff1660e01b815260040160a060405180830381865afa15801561050f573d6000803e3d6000fd5b505050506040513d601f19601f820116820180604052508101906105339190610d00565b5050509150507f00000000000000000000000000000000000000000000000000000000000000006001600160a01b031663313ce5676040518163ffffffff1660e01b8152600401602060405180830381865afa158015610597573d6000803e3d6000fd5b505050506040513d601f19601f820116820180604052508101906105bb9190610d50565b60ff1660120361060c57670de0b6b3a7640000816105f1856001600160a01b031660009081526020819052604090206003015490565b6105fb9190610d89565b6106059190610da0565b9392505050565b60007f00000000000000000000000000000000000000000000000000000000000000006001600160a01b031663313ce5676040518163ffffffff1660e01b8152600401602060405180830381865afa15801561066c573d6000803e3d6000fd5b505050506040513d601f19601f820116820180604052508101906106909190610d50565b61069b906012610dc2565b905060007f00000000000000000000000000000000000000000000000000000000000000006001600160a01b031663313ce5676040518163ffffffff1660e01b8152600401602060405180830381865afa1580156106fd573d6000803e3d6000fd5b505050506040513d601f19601f820116820180604052508101906107219190610d50565b61072c906012610dc2565b9050670de0b6b3a764000061074283600a610ebf565b61074c9085610d89565b61075783600a610ebf565b6001600160a01b03881660009081526020819052604090206003015461077d9190610d89565b6107879190610d89565b6107919190610da0565b95945050505050565b6001600160a01b037f000000000000000000000000000000000000000000000000000000000000000016330361033a57336001600160a01b037f000000000000000000000000000000000000000000000000000000000000000016146108125760405162461bcd60e51b815260040161033190610ece565b61083e7f0000000000000000000000000000000000000000000000000000000000000000833084610a4e565b6001600160a01b038216600081815260208181526040808320600281018054855260018083018552838620889055815486529483902042908601558054909401938490556003810180548701905590518581529093859290917f77b57bffc1c97e4762d78efd74300ab40a13dc946d0e09b33ead3a5b35cfa7d3910160405180910390a4505050565b6001600160a01b037f000000000000000000000000000000000000000000000000000000000000000016330361033a57336001600160a01b037f0000000000000000000000000000000000000000000000000000000000000000161461093f5760405162461bcd60e51b815260040161033190610ece565b61096b7f0000000000000000000000000000000000000000000000000000000000000000833084610a4e565b6001600160a01b038216600081815260016020526040808220805485019055518392917fd7243f6f8212d5188fd054141cf6ea89cfc0d91facb8c3afe2f88a135848014291a35050565b6000807f00000000000000000000000000000000000000000000000000000000000000006001600160a01b031663313ce5676040518163ffffffff1660e01b8152600401602060405180830381865afa158015610a16573d6000803e3d6000fd5b505050506040513d601f19601f82011682018060405250810190610a3a9190610d50565b610a45906012610dc2565b90505092915050565b604080516001600160a01b0385811660248301528416604482015260648082018490528251808303909101815260849091019091526020810180516001600160e01b03166323b872dd60e01b179052610aa8908590610aae565b50505050565b6000610ac36001600160a01b03841683610b11565b90508051600014158015610ae8575080806020019051810190610ae69190610cc4565b155b156104a957604051635274afe760e01b81526001600160a01b0384166004820152602401610331565b6060610b1f83836000610b28565b90505b92915050565b606081471015610b4d5760405163cd78605960e01b8152306004820152602401610331565b600080856001600160a01b03168486604051610b699190610f10565b60006040518083038185875af1925050503d8060008114610ba6576040519150601f19603f3d011682016040523d82523d6000602084013e610bab565b606091505b5091509150610bbb868383610bc5565b9695505050505050565b606082610bda57610bd582610c21565b610605565b8151158015610bf157506001600160a01b0384163b155b15610c1a57604051639996b31560e01b81526001600160a01b0385166004820152602401610331565b5080610605565b805115610c315780518082602001fd5b604051630a12f52160e11b815260040160405180910390fd5b80356001600160a01b0381168114610c6157600080fd5b919050565b60008060408385031215610c7957600080fd5b610c8283610c4a565b946020939093013593505050565b600060208284031215610ca257600080fd5b610b1f82610c4a565b600060208284031215610cbd57600080fd5b5051919050565b600060208284031215610cd657600080fd5b8151801515811461060557600080fd5b805169ffffffffffffffffffff81168114610c6157600080fd5b600080600080600060a08688031215610d1857600080fd5b610d2186610ce6565b9450602086015193506040860151925060608601519150610d4460808701610ce6565b90509295509295909350565b600060208284031215610d6257600080fd5b815160ff8116811461060557600080fd5b634e487b7160e01b600052601160045260246000fd5b8082028115828204841417610b2257610b22610d73565b600082610dbd57634e487b7160e01b600052601260045260246000fd5b500490565b60ff8281168282160390811115610b2257610b22610d73565b600181815b80851115610e16578160001904821115610dfc57610dfc610d73565b80851615610e0957918102915b93841c9390800290610de0565b509250929050565b600082610e2d57506001610b22565b81610e3a57506000610b22565b8160018114610e505760028114610e5a57610e76565b6001915050610b22565b60ff841115610e6b57610e6b610d73565b50506001821b610b22565b5060208310610133831016604e8410600b8410161715610e99575081810a610b22565b610ea38383610ddb565b8060001904821115610eb757610eb7610d73565b029392505050565b6000610b1f60ff841683610e1e565b60208082526022908201527f4f6e6c7920526f757465722063616e2063616c6c20746869732066756e63746960408201526137b760f11b606082015260800190565b6000825160005b81811015610f315760208186018101518583015201610f17565b50600092019182525091905056fea2646970667358221220d74bc4ff962d9133ee0e6d9ee92b93280b5038f2a7834b790b88342a7cf7f15364736f6c63430008190033","linkReferences":{}},"methodIdentifiers":{"FlashLoan(address,uint256)":"134bde11","assetAddress()":"1ba46cfd","depositCollateral(address,uint256)":"a5d5db0c","depositLiquidityAndMintTokens(address,uint256)":"62fb2e84","getBorrowableAmountBasedOnUSDAmount(address,uint256)":"cb8284d0","getCollateralAmount(address)":"654c6295","getDepositAmount(address)":"b8ba16fd","getDepositValueInUSD(address)":"5de0a9af","getRouter()":"b0f479a1","lendingTokenAddress()":"12945721","poolFactoryAddress()":"a32cf536","priceFeedAddress()":"e0abca0b","withdrawLiquidity(address,uint256)":"06d47de9"},"id":4}