{"abi":[{"type":"constructor","inputs":[{"name":"token","type":"address","internalType":"address"},{"name":"priceFeed","type":"address","internalType":"address"},{"name":"router","type":"address","internalType":"address"},{"name":"lendToken","type":"address","internalType":"address"}],"stateMutability":"nonpayable"},{"type":"function","name":"FlashLoan","inputs":[{"name":"receiver","type":"address","internalType":"address"},{"name":"amount","type":"uint256","internalType":"uint256"}],"outputs":[],"stateMutability":"nonpayable"},{"type":"function","name":"assetAddress","inputs":[],"outputs":[{"name":"","type":"address","internalType":"address"}],"stateMutability":"view"},{"type":"function","name":"depositCollateral","inputs":[{"name":"depositor","type":"address","internalType":"address"},{"name":"amount","type":"uint256","internalType":"uint256"}],"outputs":[],"stateMutability":"nonpayable"},{"type":"function","name":"depositLiquidityAndMintTokens","inputs":[{"name":"depositor","type":"address","internalType":"address"},{"name":"amount","type":"uint256","internalType":"uint256"}],"outputs":[],"stateMutability":"nonpayable"},{"type":"function","name":"getBorrowableAmountBasedOnUSDAmount","inputs":[{"name":"user","type":"address","internalType":"address"},{"name":"collateralInUSD","type":"uint256","internalType":"uint256"}],"outputs":[{"name":"value","type":"uint256","internalType":"uint256"}],"stateMutability":"view"},{"type":"function","name":"getCollateralAmount","inputs":[{"name":"user","type":"address","internalType":"address"}],"outputs":[{"name":"","type":"uint256","internalType":"uint256"}],"stateMutability":"view"},{"type":"function","name":"getDepositInterestRate","inputs":[],"outputs":[{"name":"","type":"uint256","internalType":"uint256"}],"stateMutability":"pure"},{"type":"function","name":"getDepositValueInUSD","inputs":[{"name":"user","type":"address","internalType":"address"}],"outputs":[{"name":"","type":"uint256","internalType":"uint256"}],"stateMutability":"view"},{"type":"function","name":"getIndividualDepositAmount","inputs":[{"name":"user","type":"address","internalType":"address"},{"name":"depositId","type":"uint256","internalType":"uint256"}],"outputs":[{"name":"","type":"uint256","internalType":"uint256"}],"stateMutability":"view"},{"type":"function","name":"getRouter","inputs":[],"outputs":[{"name":"","type":"address","internalType":"address"}],"stateMutability":"view"},{"type":"function","name":"getTotalDepositAmount","inputs":[{"name":"user","type":"address","internalType":"address"}],"outputs":[{"name":"depositedAmount","type":"uint256","internalType":"uint256"}],"stateMutability":"view"},{"type":"function","name":"getTotalInterestAmount","inputs":[],"outputs":[{"name":"","type":"uint256","internalType":"uint256"}],"stateMutability":"view"},{"type":"function","name":"getTotalUserCounter","inputs":[],"outputs":[{"name":"","type":"uint256","internalType":"uint256"}],"stateMutability":"view"},{"type":"function","name":"getTotalUserDeposits","inputs":[],"outputs":[{"name":"","type":"uint256","internalType":"uint256"}],"stateMutability":"view"},{"type":"function","name":"lendingTokenAddress","inputs":[],"outputs":[{"name":"","type":"address","internalType":"address"}],"stateMutability":"view"},{"type":"function","name":"poolFactoryAddress","inputs":[],"outputs":[{"name":"","type":"address","internalType":"address"}],"stateMutability":"view"},{"type":"function","name":"priceFeedAddress","inputs":[],"outputs":[{"name":"","type":"address","internalType":"address"}],"stateMutability":"view"},{"type":"function","name":"withdrawLiquidity","inputs":[{"name":"user","type":"address","internalType":"address"},{"name":"amount","type":"uint256","internalType":"uint256"},{"name":"depositId","type":"uint256","internalType":"uint256"}],"outputs":[],"stateMutability":"nonpayable"},{"type":"function","name":"withdrawTotalAmount","inputs":[{"name":"user","type":"address","internalType":"address"}],"outputs":[],"stateMutability":"nonpayable"},{"type":"event","name":"CollateralDeposited","inputs":[{"name":"depositor","type":"address","indexed":true,"internalType":"address"},{"name":"amount","type":"uint256","indexed":true,"internalType":"uint256"}],"anonymous":false},{"type":"event","name":"DepositLiquidity","inputs":[{"name":"depositor","type":"address","indexed":true,"internalType":"address"},{"name":"amount","type":"uint256","indexed":true,"internalType":"uint256"},{"name":"shares_minted","type":"uint256","indexed":false,"internalType":"uint256"},{"name":"depositCounter","type":"uint256","indexed":true,"internalType":"uint256"}],"anonymous":false},{"type":"event","name":"SimpleWithdraw","inputs":[{"name":"depositor","type":"address","indexed":true,"internalType":"address"},{"name":"amount","type":"uint256","indexed":true,"internalType":"uint256"},{"name":"depositCounter","type":"uint256","indexed":true,"internalType":"uint256"}],"anonymous":false},{"type":"error","name":"AddressEmptyCode","inputs":[{"name":"target","type":"address","internalType":"address"}]},{"type":"error","name":"AddressInsufficientBalance","inputs":[{"name":"account","type":"address","internalType":"address"}]},{"type":"error","name":"CoreLogic__InvalidDepositId","inputs":[]},{"type":"error","name":"CoreLogic__OnlyRouter","inputs":[]},{"type":"error","name":"CoreLogic__OutOfBalance","inputs":[]},{"type":"error","name":"FailedInnerCall","inputs":[]},{"type":"error","name":"SafeERC20FailedOperation","inputs":[{"name":"token","type":"address","internalType":"address"}]}],"bytecode":{"object":"0x61012060405234801561001157600080fd5b5060405161198938038061198983398101604081905261003091610073565b6001600160a01b039384166080523360a052831660c05290821660e05216610100526100c7565b80516001600160a01b038116811461006e57600080fd5b919050565b6000806000806080858703121561008957600080fd5b61009285610057565b93506100a060208601610057565b92506100ae60408601610057565b91506100bc60608601610057565b905092959194509250565b60805160a05160c05160e051610100516117eb61019e600039600081816102a2015281816103f8015281816105690152818161059a01528181610980015281816109b101528181610acc01528181610afd01528181610c5b0152610c8c0152600081816102e20152818161068f01528181610717015281816107ec0152610bbd01526000610156015260006102690152600081816101a50152818161036c01528181610433015281816104ec0152818161087d015281816109f301528181610b3f01528181610e2f0152610f4c01526117eb6000f3fe608060405234801561001057600080fd5b50600436106101215760003560e01c806362fb2e84116100ad578063b0f479a111610071578063b0f479a1146102a0578063b1a93393146102c6578063cb8284d0146102cd578063e0abca0b146102e0578063ea999dff1461030657600080fd5b806362fb2e8414610223578063654c629514610236578063a13036161461025f578063a32cf53614610267578063a5d5db0c1461028d57600080fd5b80631ba46cfd116100f45780631ba46cfd146101a3578063220a36b6146101c9578063248c181b146101dc57806327f9c4c1146101e45780635de0a9af1461021057600080fd5b8063085863171461012657806311775ad81461014c5780631294572114610154578063134bde111461018e575b600080fd5b61013961013436600461139f565b610319565b6040519081526020015b60405180910390f35b610139610345565b7f00000000000000000000000000000000000000000000000000000000000000005b6040516001600160a01b039091168152602001610143565b6101a161019c36600461139f565b6103ee565b005b7f0000000000000000000000000000000000000000000000000000000000000000610176565b6101a16101d73660046113c9565b61055f565b600454610139565b6101396101f23660046113c9565b6001600160a01b031660009081526020819052604090206004015490565b61013961021e3660046113c9565b61068a565b6101a161023136600461139f565b610976565b6101396102443660046113c9565b6001600160a01b031660009081526001602052604090205490565b600354610139565b7f0000000000000000000000000000000000000000000000000000000000000000610176565b6101a161029b36600461139f565b610ac2565b7f0000000000000000000000000000000000000000000000000000000000000000610176565b6003610139565b6101396102db36600461139f565b610bb8565b7f0000000000000000000000000000000000000000000000000000000000000000610176565b6101a16103143660046113e4565b610c51565b6001600160a01b0382166000908152602081815260408083208484526002019091529020545b92915050565b6000600254600354610357919061142d565b6040516370a0823160e01b81523060048201527f00000000000000000000000000000000000000000000000000000000000000006001600160a01b0316906370a0823190602401602060405180830381865afa1580156103bb573d6000803e3d6000fd5b505050506040513d601f19601f820116820180604052508101906103df9190611440565b6103e99190611459565b905090565b6001600160a01b037f000000000000000000000000000000000000000000000000000000000000000016330361055b576040516370a0823160e01b81523060048201527f00000000000000000000000000000000000000000000000000000000000000006001600160a01b0316906370a0823190602401602060405180830381865afa158015610482573d6000803e3d6000fd5b505050506040513d601f19601f820116820180604052508101906104a69190611440565b8111156104c657604051631ec7992b60e21b815260040160405180910390fd5b60405163a9059cbb60e01b81526001600160a01b038381166004830152602482018390527f0000000000000000000000000000000000000000000000000000000000000000169063a9059cbb906044016020604051808303816000875af1158015610535573d6000803e3d6000fd5b505050506040513d601f19601f82011682018060405250810190610559919061146c565b505b5050565b6001600160a01b037f000000000000000000000000000000000000000000000000000000000000000016330361068757336001600160a01b037f000000000000000000000000000000000000000000000000000000000000000016146105e05760405162461bcd60e51b81526004016105d79061148e565b60405180910390fd5b6001600160a01b038116600090815260208190526040812060040154905b6001600160a01b038316600090815260208190526040902060030154811015610559576001600160a01b03831660009081526020818152604080832084845260010190915290205460ff1661067f576001600160a01b03831660009081526020818152604080832084845260020190915290205461067d848284610c51565b505b6001016105fe565b50565b6000807f00000000000000000000000000000000000000000000000000000000000000006001600160a01b031663feaf968c6040518163ffffffff1660e01b815260040160a060405180830381865afa1580156106eb573d6000803e3d6000fd5b505050506040513d601f19601f8201168201806040525081019061070f91906114ea565b5050509150507f00000000000000000000000000000000000000000000000000000000000000006001600160a01b031663313ce5676040518163ffffffff1660e01b8152600401602060405180830381865afa158015610773573d6000803e3d6000fd5b505050506040513d601f19601f82011682018060405250810190610797919061153a565b60ff166012036107e857670de0b6b3a7640000816107cd856001600160a01b031660009081526020819052604090206004015490565b6107d7919061155d565b6107e19190611574565b9392505050565b60007f00000000000000000000000000000000000000000000000000000000000000006001600160a01b031663313ce5676040518163ffffffff1660e01b8152600401602060405180830381865afa158015610848573d6000803e3d6000fd5b505050506040513d601f19601f8201168201806040525081019061086c919061153a565b610877906012611596565b905060007f00000000000000000000000000000000000000000000000000000000000000006001600160a01b031663313ce5676040518163ffffffff1660e01b8152600401602060405180830381865afa1580156108d9573d6000803e3d6000fd5b505050506040513d601f19601f820116820180604052508101906108fd919061153a565b610908906012611596565b9050670de0b6b3a764000061091e83600a611693565b610928908561155d565b61093383600a611693565b6001600160a01b038816600090815260208190526040902060040154610959919061155d565b610963919061155d565b61096d9190611574565b95945050505050565b6001600160a01b037f000000000000000000000000000000000000000000000000000000000000000016330361055b57336001600160a01b037f000000000000000000000000000000000000000000000000000000000000000016146109ee5760405162461bcd60e51b81526004016105d7906116a2565b610a1a7f0000000000000000000000000000000000000000000000000000000000000000833084610fb2565b6001600160a01b038216600081815260208181526040808320600380820180548652600283018552838620889055805486529483902042600191820155600480840180548a019055825489019092558154019055925490518581529293909285927f77b57bffc1c97e4762d78efd74300ab40a13dc946d0e09b33ead3a5b35cfa7d3910160405180910390a4600381018054906000610ab8836116e4565b9190505550505050565b6001600160a01b037f000000000000000000000000000000000000000000000000000000000000000016330361055b57336001600160a01b037f00000000000000000000000000000000000000000000000000000000000000001614610b3a5760405162461bcd60e51b81526004016105d7906116a2565b610b667f0000000000000000000000000000000000000000000000000000000000000000833084610fb2565b6001600160a01b0382166000818152600160205260408082208054850190556002805485019055518392917fd7243f6f8212d5188fd054141cf6ea89cfc0d91facb8c3afe2f88a135848014291a35050565b6000807f00000000000000000000000000000000000000000000000000000000000000006001600160a01b031663313ce5676040518163ffffffff1660e01b8152600401602060405180830381865afa158015610c19573d6000803e3d6000fd5b505050506040513d601f19601f82011682018060405250810190610c3d919061153a565b610c48906012611596565b90505092915050565b6001600160a01b037f000000000000000000000000000000000000000000000000000000000000000016330361055957336001600160a01b037f00000000000000000000000000000000000000000000000000000000000000001614610cc95760405162461bcd60e51b81526004016105d79061148e565b6001600160a01b038316600090815260208190526040902060030154811115610d0557604051635fe74ebf60e11b815260040160405180910390fd5b6001600160a01b03831660009081526020818152604080832084845260028101909252909120548303610e9357600082815260028201602052604081208054859290610d52908490611459565b9250508190555082816004016000828254610d6d9190611459565b90915550508054600181810183556000838152602080822090930185905584815281840190925260408220805460ff1916909117905560038054859290610db5908490611459565b909155505060048054906000610dca836116fd565b90915550506000828152600282016020526040812060010154610dee908590611019565b9050610e2a60405180604001604052806018815260200177020a6b7bab73a102ba4ba341034b73a32b932b9ba1034b9960451b81525082611111565b610e557f00000000000000000000000000000000000000000000000000000000000000008683611156565b8281866001600160a01b03167f9b9970c5ed4609e15fd1dedd289d5697670692b2f58988736a098d44fd4cb3db60405160405180910390a450610fac565b600082815260028201602052604081208054859290610eb3908490611459565b9250508190555082816004016000828254610ece9190611459565b925050819055508260036000828254610ee79190611459565b90915550506000828152600282016020526040812060010154610f0b908590611019565b9050610f4760405180604001604052806018815260200177020a6b7bab73a102ba4ba341034b73a32b932b9ba1034b9960451b81525082611111565b610f727f00000000000000000000000000000000000000000000000000000000000000008683611156565b8281866001600160a01b03167f9b9970c5ed4609e15fd1dedd289d5697670692b2f58988736a098d44fd4cb3db60405160405180910390a4505b50505050565b6040516001600160a01b038481166024830152838116604483015260648201839052610fac9186918216906323b872dd906084015b604051602081830303815290604052915060e01b6020820180516001600160e01b038381831617835250505050611187565b6000806110268342611459565b90508361103260035490565b036110765761103f610345565b611049908561142d565b91506110716040518060400160405280600581526020016448656c6c6f60d81b8152506111ea565b61110a565b61109c6040518060400160405280600581526020016448656c6c6f60d81b8152506111ea565b6000846110a860035490565b6110b29190611459565b905060006110be610345565b905060006110cc8784611574565b905060006110de6301dfe20084611574565b905060006110ec868361155d565b90506110f88382611574565b611102908a61142d565b965050505050505b5092915050565b61055b8282604051602401611127929190611764565b60408051601f198184030181529190526020810180516001600160e01b0316632d839cb360e21b179052611229565b6040516001600160a01b0383811660248301526044820183905261055991859182169063a9059cbb90606401610fe7565b600061119c6001600160a01b03841683611232565b905080516000141580156111c15750808060200190518101906111bf919061146c565b155b1561055957604051635274afe760e01b81526001600160a01b03841660048201526024016105d7565b610687816040516024016111fe9190611786565b60408051601f198184030181529190526020810180516001600160e01b031663104c13eb60e21b1790525b61068781611240565b60606107e183836000611261565b60006a636f6e736f6c652e6c6f679050600080835160208501845afa505050565b6060814710156112865760405163cd78605960e01b81523060048201526024016105d7565b600080856001600160a01b031684866040516112a29190611799565b60006040518083038185875af1925050503d80600081146112df576040519150601f19603f3d011682016040523d82523d6000602084013e6112e4565b606091505b50915091506112f48683836112fe565b9695505050505050565b6060826113135761130e8261135a565b6107e1565b815115801561132a57506001600160a01b0384163b155b1561135357604051639996b31560e01b81526001600160a01b03851660048201526024016105d7565b50806107e1565b80511561136a5780518082602001fd5b604051630a12f52160e11b815260040160405180910390fd5b80356001600160a01b038116811461139a57600080fd5b919050565b600080604083850312156113b257600080fd5b6113bb83611383565b946020939093013593505050565b6000602082840312156113db57600080fd5b6107e182611383565b6000806000606084860312156113f957600080fd5b61140284611383565b95602085013595506040909401359392505050565b634e487b7160e01b600052601160045260246000fd5b8082018082111561033f5761033f611417565b60006020828403121561145257600080fd5b5051919050565b8181038181111561033f5761033f611417565b60006020828403121561147e57600080fd5b815180151581146107e157600080fd5b60208082526022908201527f4f6e6c7920726f757465722063616e2063616c6c20746869732066756e63746960408201526137b760f11b606082015260800190565b805169ffffffffffffffffffff8116811461139a57600080fd5b600080600080600060a0868803121561150257600080fd5b61150b866114d0565b945060208601519350604086015192506060860151915061152e608087016114d0565b90509295509295909350565b60006020828403121561154c57600080fd5b815160ff811681146107e157600080fd5b808202811582820484141761033f5761033f611417565b60008261159157634e487b7160e01b600052601260045260246000fd5b500490565b60ff828116828216039081111561033f5761033f611417565b600181815b808511156115ea5781600019048211156115d0576115d0611417565b808516156115dd57918102915b93841c93908002906115b4565b509250929050565b6000826116015750600161033f565b8161160e5750600061033f565b8160018114611624576002811461162e5761164a565b600191505061033f565b60ff84111561163f5761163f611417565b50506001821b61033f565b5060208310610133831016604e8410600b841016171561166d575081810a61033f565b61167783836115af565b806000190482111561168b5761168b611417565b029392505050565b60006107e160ff8416836115f2565b60208082526022908201527f4f6e6c7920526f757465722063616e2063616c6c20746869732066756e63746960408201526137b760f11b606082015260800190565b6000600182016116f6576116f6611417565b5060010190565b60008161170c5761170c611417565b506000190190565b60005b8381101561172f578181015183820152602001611717565b50506000910152565b60008151808452611750816020860160208601611714565b601f01601f19169290920160200192915050565b6040815260006117776040830185611738565b90508260208301529392505050565b6020815260006107e16020830184611738565b600082516117ab818460208701611714565b919091019291505056fea264697066735822122028a4b7409ce96cdb89206f3decdc62e2b7b5277f2523cc64b71e6aae8af9257a64736f6c63430008190033","linkReferences":{}},"methodIdentifiers":{"FlashLoan(address,uint256)":"134bde11","assetAddress()":"1ba46cfd","depositCollateral(address,uint256)":"a5d5db0c","depositLiquidityAndMintTokens(address,uint256)":"62fb2e84","getBorrowableAmountBasedOnUSDAmount(address,uint256)":"cb8284d0","getCollateralAmount(address)":"654c6295","getDepositInterestRate()":"b1a93393","getDepositValueInUSD(address)":"5de0a9af","getIndividualDepositAmount(address,uint256)":"08586317","getRouter()":"b0f479a1","getTotalDepositAmount(address)":"27f9c4c1","getTotalInterestAmount()":"11775ad8","getTotalUserCounter()":"248c181b","getTotalUserDeposits()":"a1303616","lendingTokenAddress()":"12945721","poolFactoryAddress()":"a32cf536","priceFeedAddress()":"e0abca0b","withdrawLiquidity(address,uint256,uint256)":"ea999dff","withdrawTotalAmount(address)":"220a36b6"},"id":4}