{"abi":[{"type":"constructor","inputs":[{"name":"token","type":"address","internalType":"address"},{"name":"pricefeed","type":"address","internalType":"address"},{"name":"router","type":"address","internalType":"address"},{"name":"lendToken","type":"address","internalType":"address"}],"stateMutability":"nonpayable"},{"type":"function","name":"FlashLoan","inputs":[{"name":"user","type":"address","internalType":"address"},{"name":"amount","type":"uint256","internalType":"uint256"}],"outputs":[],"stateMutability":"nonpayable"},{"type":"function","name":"assetAddress","inputs":[],"outputs":[{"name":"","type":"address","internalType":"address"}],"stateMutability":"view"},{"type":"function","name":"depositCollateral","inputs":[{"name":"depositor","type":"address","internalType":"address"},{"name":"amount","type":"uint256","internalType":"uint256"}],"outputs":[],"stateMutability":"nonpayable"},{"type":"function","name":"depositLiquidityAndMintTokens","inputs":[{"name":"depositor","type":"address","internalType":"address"},{"name":"amount","type":"uint256","internalType":"uint256"}],"outputs":[],"stateMutability":"nonpayable"},{"type":"function","name":"getBorrowableAmountBasedOnUSDAmount","inputs":[{"name":"user","type":"address","internalType":"address"},{"name":"collateralInUSD","type":"uint256","internalType":"uint256"}],"outputs":[{"name":"value","type":"uint256","internalType":"uint256"}],"stateMutability":"view"},{"type":"function","name":"getBorrowedAmount","inputs":[{"name":"user","type":"address","internalType":"address"}],"outputs":[{"name":"","type":"uint256","internalType":"uint256"}],"stateMutability":"view"},{"type":"function","name":"getCollateralAmount","inputs":[{"name":"user","type":"address","internalType":"address"}],"outputs":[{"name":"","type":"uint256","internalType":"uint256"}],"stateMutability":"view"},{"type":"function","name":"getDepositAmount","inputs":[{"name":"user","type":"address","internalType":"address"}],"outputs":[{"name":"","type":"uint256","internalType":"uint256"}],"stateMutability":"view"},{"type":"function","name":"getDepositValueInUSD","inputs":[{"name":"user","type":"address","internalType":"address"}],"outputs":[{"name":"","type":"uint256","internalType":"uint256"}],"stateMutability":"view"},{"type":"function","name":"getRouter","inputs":[],"outputs":[{"name":"","type":"address","internalType":"address"}],"stateMutability":"view"},{"type":"function","name":"lendingTokenAddress","inputs":[],"outputs":[{"name":"","type":"address","internalType":"address"}],"stateMutability":"view"},{"type":"function","name":"poolFactoryAddress","inputs":[],"outputs":[{"name":"","type":"address","internalType":"address"}],"stateMutability":"view"},{"type":"function","name":"priceFeedAddress","inputs":[],"outputs":[{"name":"","type":"address","internalType":"address"}],"stateMutability":"view"},{"type":"error","name":"AddressEmptyCode","inputs":[{"name":"target","type":"address","internalType":"address"}]},{"type":"error","name":"AddressInsufficientBalance","inputs":[{"name":"account","type":"address","internalType":"address"}]},{"type":"error","name":"CoreLogic__OnlyRouter","inputs":[]},{"type":"error","name":"CoreLogic__OutOfBalance","inputs":[]},{"type":"error","name":"FailedInnerCall","inputs":[]},{"type":"error","name":"SafeERC20FailedOperation","inputs":[{"name":"token","type":"address","internalType":"address"}]}],"bytecode":{"object":"0x61012060405234801561001157600080fd5b50604051610fa3380380610fa383398101604081905261003091610073565b6001600160a01b039384166080523360a052831660c05290821660e05216610100526100c7565b80516001600160a01b038116811461006e57600080fd5b919050565b6000806000806080858703121561008957600080fd5b61009285610057565b93506100a060208601610057565b92506100ae60408601610057565b91506100bc60608601610057565b905092959194509250565b60805160a05160c05160e05161010051610e3e610165600039600081816101e60152818161029f01528181610393015281816106a70152610783015260008181610271015281816103c10152818161044901528181610516015261086a0152600060d6015260006101ad01526000818161012a015281816102da01528181610372015281816105a7015281816106d201526107ae0152610e3e6000f3fe608060405234801561001057600080fd5b50600436106100cf5760003560e01c8063a32cf5361161008c578063b8ba16fd11610066578063b8ba16fd1461020a578063b9f2c7b514610233578063cb8284d01461025c578063e0abca0b1461026f57600080fd5b8063a32cf536146101ab578063a5d5db0c146101d1578063b0f479a1146101e457600080fd5b806312945721146100d4578063134bde11146101135780631ba46cfd146101285780635de0a9af1461014e57806362fb2e841461016f578063654c629514610182575b600080fd5b7f00000000000000000000000000000000000000000000000000000000000000005b6040516001600160a01b0390911681526020015b60405180910390f35b610126610121366004610b5e565b610295565b005b7f00000000000000000000000000000000000000000000000000000000000000006100f6565b61016161015c366004610b88565b6103bc565b60405190815260200161010a565b61012661017d366004610b5e565b61069d565b610161610190366004610b88565b6001600160a01b031660009081526002602052604090205490565b7f00000000000000000000000000000000000000000000000000000000000000006100f6565b6101266101df366004610b5e565b610779565b7f00000000000000000000000000000000000000000000000000000000000000006100f6565b610161610218366004610b88565b6001600160a01b031660009081526020819052604090205490565b610161610241366004610b88565b6001600160a01b031660009081526001602052604090205490565b61016161026a366004610b5e565b610865565b7f00000000000000000000000000000000000000000000000000000000000000006100f6565b6001600160a01b037f00000000000000000000000000000000000000000000000000000000000000001633036103b8576040516370a0823160e01b81523060048201527f00000000000000000000000000000000000000000000000000000000000000006001600160a01b0316906370a0823190602401602060405180830381865afa158015610329573d6000803e3d6000fd5b505050506040513d601f19601f8201168201806040525081019061034d9190610ba3565b81111561036d57604051631ec7992b60e21b815260040160405180910390fd5b6103b87f00000000000000000000000000000000000000000000000000000000000000007f0000000000000000000000000000000000000000000000000000000000000000836108fe565b5050565b6000807f00000000000000000000000000000000000000000000000000000000000000006001600160a01b031663feaf968c6040518163ffffffff1660e01b815260040160a060405180830381865afa15801561041d573d6000803e3d6000fd5b505050506040513d601f19601f820116820180604052508101906104419190610bd6565b5050509150507f00000000000000000000000000000000000000000000000000000000000000006001600160a01b031663313ce5676040518163ffffffff1660e01b8152600401602060405180830381865afa1580156104a5573d6000803e3d6000fd5b505050506040513d601f19601f820116820180604052508101906104c99190610c26565b60ff16601203610512576001600160a01b038316600090815260208190526040902054670de0b6b3a764000090610501908390610c5f565b61050b9190610c76565b9392505050565b60007f00000000000000000000000000000000000000000000000000000000000000006001600160a01b031663313ce5676040518163ffffffff1660e01b8152600401602060405180830381865afa158015610572573d6000803e3d6000fd5b505050506040513d601f19601f820116820180604052508101906105969190610c26565b6105a1906012610c98565b905060007f00000000000000000000000000000000000000000000000000000000000000006001600160a01b031663313ce5676040518163ffffffff1660e01b8152600401602060405180830381865afa158015610603573d6000803e3d6000fd5b505050506040513d601f19601f820116820180604052508101906106279190610c26565b610632906012610c98565b9050670de0b6b3a764000061064883600a610d95565b6106529085610c5f565b61065d83600a610d95565b6001600160a01b0388166000908152602081905260409020546106809190610c5f565b61068a9190610c5f565b6106949190610c76565b95945050505050565b6001600160a01b037f00000000000000000000000000000000000000000000000000000000000000001633036103b8576106f97f0000000000000000000000000000000000000000000000000000000000000000833084610962565b6001600160a01b038216600090815260208190526040812080549091036107225781815561073c565b818160000160008282546107369190610da4565b90915550505b6001600160a01b0383166000908152602081905260409020815481556001918201549101805460ff909216151560ff199092169190911790555050565b6001600160a01b037f00000000000000000000000000000000000000000000000000000000000000001633036103b8576107d57f0000000000000000000000000000000000000000000000000000000000000000833084610962565b6001600160a01b0382166000908152600260205260408120805490910361080e578181556001808201805460ff19169091179055610828565b818160000160008282546108229190610da4565b90915550505b6001600160a01b0383166000908152600260205260409020815481556001918201549101805460ff909216151560ff199092169190911790555050565b6000807f00000000000000000000000000000000000000000000000000000000000000006001600160a01b031663313ce5676040518163ffffffff1660e01b8152600401602060405180830381865afa1580156108c6573d6000803e3d6000fd5b505050506040513d601f19601f820116820180604052508101906108ea9190610c26565b6108f5906012610c98565b90505092915050565b6040516001600160a01b0383811660248301526044820183905261095d91859182169063a9059cbb906064015b604051602081830303815290604052915060e01b6020820180516001600160e01b0383818316178352505050506109a1565b505050565b6040516001600160a01b03848116602483015283811660448301526064820183905261099b9186918216906323b872dd9060840161092b565b50505050565b60006109b66001600160a01b03841683610a09565b905080516000141580156109db5750808060200190518101906109d99190610db7565b155b1561095d57604051635274afe760e01b81526001600160a01b03841660048201526024015b60405180910390fd5b6060610a1783836000610a20565b90505b92915050565b606081471015610a455760405163cd78605960e01b8152306004820152602401610a00565b600080856001600160a01b03168486604051610a619190610dd9565b60006040518083038185875af1925050503d8060008114610a9e576040519150601f19603f3d011682016040523d82523d6000602084013e610aa3565b606091505b5091509150610ab3868383610abd565b9695505050505050565b606082610ad257610acd82610b19565b61050b565b8151158015610ae957506001600160a01b0384163b155b15610b1257604051639996b31560e01b81526001600160a01b0385166004820152602401610a00565b508061050b565b805115610b295780518082602001fd5b604051630a12f52160e11b815260040160405180910390fd5b80356001600160a01b0381168114610b5957600080fd5b919050565b60008060408385031215610b7157600080fd5b610b7a83610b42565b946020939093013593505050565b600060208284031215610b9a57600080fd5b610a1782610b42565b600060208284031215610bb557600080fd5b5051919050565b805169ffffffffffffffffffff81168114610b5957600080fd5b600080600080600060a08688031215610bee57600080fd5b610bf786610bbc565b9450602086015193506040860151925060608601519150610c1a60808701610bbc565b90509295509295909350565b600060208284031215610c3857600080fd5b815160ff8116811461050b57600080fd5b634e487b7160e01b600052601160045260246000fd5b8082028115828204841417610a1a57610a1a610c49565b600082610c9357634e487b7160e01b600052601260045260246000fd5b500490565b60ff8281168282160390811115610a1a57610a1a610c49565b600181815b80851115610cec578160001904821115610cd257610cd2610c49565b80851615610cdf57918102915b93841c9390800290610cb6565b509250929050565b600082610d0357506001610a1a565b81610d1057506000610a1a565b8160018114610d265760028114610d3057610d4c565b6001915050610a1a565b60ff841115610d4157610d41610c49565b50506001821b610a1a565b5060208310610133831016604e8410600b8410161715610d6f575081810a610a1a565b610d798383610cb1565b8060001904821115610d8d57610d8d610c49565b029392505050565b6000610a1760ff841683610cf4565b80820180821115610a1a57610a1a610c49565b600060208284031215610dc957600080fd5b8151801515811461050b57600080fd5b6000825160005b81811015610dfa5760208186018101518583015201610de0565b50600092019182525091905056fea264697066735822122064d79f5520bf1ad9f07899733e0974cc6b99f087ca111e9e3f5568d9ec68fea264736f6c63430008190033","linkReferences":{}},"methodIdentifiers":{"FlashLoan(address,uint256)":"134bde11","assetAddress()":"1ba46cfd","depositCollateral(address,uint256)":"a5d5db0c","depositLiquidityAndMintTokens(address,uint256)":"62fb2e84","getBorrowableAmountBasedOnUSDAmount(address,uint256)":"cb8284d0","getBorrowedAmount(address)":"b9f2c7b5","getCollateralAmount(address)":"654c6295","getDepositAmount(address)":"b8ba16fd","getDepositValueInUSD(address)":"5de0a9af","getRouter()":"b0f479a1","lendingTokenAddress()":"12945721","poolFactoryAddress()":"a32cf536","priceFeedAddress()":"e0abca0b"},"id":4}