{"abi":[{"type":"constructor","inputs":[{"name":"token","type":"address","internalType":"address"},{"name":"pricefeed","type":"address","internalType":"address"},{"name":"router","type":"address","internalType":"address"},{"name":"lendToken","type":"address","internalType":"address"}],"stateMutability":"nonpayable"},{"type":"function","name":"assetAddress","inputs":[],"outputs":[{"name":"","type":"address","internalType":"address"}],"stateMutability":"view"},{"type":"function","name":"depositLiquidityAndMintTokens","inputs":[{"name":"depositor","type":"address","internalType":"address"},{"name":"amount","type":"uint256","internalType":"uint256"}],"outputs":[],"stateMutability":"nonpayable"},{"type":"function","name":"getBorrowableAmountBasedOnUSDAmount","inputs":[{"name":"user","type":"address","internalType":"address"},{"name":"collateralInUSD","type":"uint256","internalType":"uint256"}],"outputs":[{"name":"value","type":"uint256","internalType":"uint256"}],"stateMutability":"view"},{"type":"function","name":"getCollateral","inputs":[{"name":"user","type":"address","internalType":"address"}],"outputs":[{"name":"","type":"uint256","internalType":"uint256"}],"stateMutability":"view"},{"type":"function","name":"getCollateralValueInUSD","inputs":[{"name":"user","type":"address","internalType":"address"}],"outputs":[{"name":"","type":"uint256","internalType":"uint256"}],"stateMutability":"view"},{"type":"function","name":"getRouter","inputs":[],"outputs":[{"name":"","type":"address","internalType":"address"}],"stateMutability":"view"},{"type":"function","name":"lendingTokenAddress","inputs":[],"outputs":[{"name":"","type":"address","internalType":"address"}],"stateMutability":"view"},{"type":"function","name":"poolFactoryAddress","inputs":[],"outputs":[{"name":"","type":"address","internalType":"address"}],"stateMutability":"view"},{"type":"function","name":"priceFeedAddress","inputs":[],"outputs":[{"name":"","type":"address","internalType":"address"}],"stateMutability":"view"},{"type":"error","name":"AddressEmptyCode","inputs":[{"name":"target","type":"address","internalType":"address"}]},{"type":"error","name":"AddressInsufficientBalance","inputs":[{"name":"account","type":"address","internalType":"address"}]},{"type":"error","name":"CoreLogic__OnlyRouter","inputs":[]},{"type":"error","name":"FailedInnerCall","inputs":[]},{"type":"error","name":"SafeERC20FailedOperation","inputs":[{"name":"token","type":"address","internalType":"address"}]}],"bytecode":{"object":"0x61012060405234801561001157600080fd5b50604051610b6c380380610b6c83398101604081905261003091610073565b6001600160a01b039384166080523360a052831660c05290821660e05216610100526100c7565b80516001600160a01b038116811461006e57600080fd5b919050565b6000806000806080858703121561008957600080fd5b61009285610057565b93506100a060208601610057565b92506100ae60408601610057565b91506100bc60608601610057565b905092959194509250565b60805160a05160c05160e05161010051610a396101336000396000818161018401526101eb0152600081816101bd0152818161028b01528181610313015281816103dc01526104c101526000609a0152600061015e01526000818160d901526102160152610a396000f3fe608060405234801561001057600080fd5b50600436106100935760003560e01c80639b56d6c9116100665780639b56d6c914610133578063a32cf5361461015c578063b0f479a114610182578063cb8284d0146101a8578063e0abca0b146101bb57600080fd5b806312945721146100985780631ba46cfd146100d757806362fb2e84146100fd578063877db9dd14610112575b600080fd5b7f00000000000000000000000000000000000000000000000000000000000000005b6040516001600160a01b0390911681526020015b60405180910390f35b7f00000000000000000000000000000000000000000000000000000000000000006100ba565b61011061010b366004610772565b6101e1565b005b61012561012036600461079c565b610286565b6040519081526020016100ce565b61012561014136600461079c565b6001600160a01b031660009081526020819052604090205490565b7f00000000000000000000000000000000000000000000000000000000000000006100ba565b7f00000000000000000000000000000000000000000000000000000000000000006100ba565b6101256101b6366004610772565b6104bc565b7f00000000000000000000000000000000000000000000000000000000000000006100ba565b6001600160a01b037f00000000000000000000000000000000000000000000000000000000000000001633036102825761023d7f0000000000000000000000000000000000000000000000000000000000000000833084610555565b6001600160a01b0382166000908152602081905260408120805490910361026657818155610280565b8181600001600082825461027a91906107cd565b90915550505b505b5050565b6000807f00000000000000000000000000000000000000000000000000000000000000006001600160a01b031663feaf968c6040518163ffffffff1660e01b815260040160a060405180830381865afa1580156102e7573d6000803e3d6000fd5b505050506040513d601f19601f8201168201806040525081019061030b91906107fa565b5050509150507f00000000000000000000000000000000000000000000000000000000000000006001600160a01b031663313ce5676040518163ffffffff1660e01b8152600401602060405180830381865afa15801561036f573d6000803e3d6000fd5b505050506040513d601f19601f82011682018060405250810190610393919061084a565b60ff166012036103d8576001600160a01b0383166000908152602081905260409020546305f5e100906103c790839061086d565b6103d19190610884565b9392505050565b60007f00000000000000000000000000000000000000000000000000000000000000006001600160a01b031663313ce5676040518163ffffffff1660e01b8152600401602060405180830381865afa158015610438573d6000803e3d6000fd5b505050506040513d601f19601f8201168201806040525081019061045c919061084a565b6104679060126108a6565b9050670de0b6b3a764000061047d82600a6109a3565b610487908461086d565b6001600160a01b0386166000908152602081905260409020546104aa919061086d565b6104b49190610884565b949350505050565b6000807f00000000000000000000000000000000000000000000000000000000000000006001600160a01b031663313ce5676040518163ffffffff1660e01b8152600401602060405180830381865afa15801561051d573d6000803e3d6000fd5b505050506040513d601f19601f82011682018060405250810190610541919061084a565b61054c9060126108a6565b90505092915050565b604080516001600160a01b0385811660248301528416604482015260648082018490528251808303909101815260849091019091526020810180516001600160e01b03166323b872dd60e01b1790526105af9085906105b5565b50505050565b60006105ca6001600160a01b0384168361061d565b905080516000141580156105ef5750808060200190518101906105ed91906109b2565b155b1561028057604051635274afe760e01b81526001600160a01b03841660048201526024015b60405180910390fd5b606061062b83836000610634565b90505b92915050565b6060814710156106595760405163cd78605960e01b8152306004820152602401610614565b600080856001600160a01b0316848660405161067591906109d4565b60006040518083038185875af1925050503d80600081146106b2576040519150601f19603f3d011682016040523d82523d6000602084013e6106b7565b606091505b50915091506106c78683836106d1565b9695505050505050565b6060826106e6576106e18261072d565b6103d1565b81511580156106fd57506001600160a01b0384163b155b1561072657604051639996b31560e01b81526001600160a01b0385166004820152602401610614565b50806103d1565b80511561073d5780518082602001fd5b604051630a12f52160e11b815260040160405180910390fd5b80356001600160a01b038116811461076d57600080fd5b919050565b6000806040838503121561078557600080fd5b61078e83610756565b946020939093013593505050565b6000602082840312156107ae57600080fd5b61062b82610756565b634e487b7160e01b600052601160045260246000fd5b8082018082111561062e5761062e6107b7565b805169ffffffffffffffffffff8116811461076d57600080fd5b600080600080600060a0868803121561081257600080fd5b61081b866107e0565b945060208601519350604086015192506060860151915061083e608087016107e0565b90509295509295909350565b60006020828403121561085c57600080fd5b815160ff811681146103d157600080fd5b808202811582820484141761062e5761062e6107b7565b6000826108a157634e487b7160e01b600052601260045260246000fd5b500490565b60ff828116828216039081111561062e5761062e6107b7565b600181815b808511156108fa5781600019048211156108e0576108e06107b7565b808516156108ed57918102915b93841c93908002906108c4565b509250929050565b6000826109115750600161062e565b8161091e5750600061062e565b8160018114610934576002811461093e5761095a565b600191505061062e565b60ff84111561094f5761094f6107b7565b50506001821b61062e565b5060208310610133831016604e8410600b841016171561097d575081810a61062e565b61098783836108bf565b806000190482111561099b5761099b6107b7565b029392505050565b600061062b60ff841683610902565b6000602082840312156109c457600080fd5b815180151581146103d157600080fd5b6000825160005b818110156109f557602081860181015185830152016109db565b50600092019182525091905056fea264697066735822122031ed8bec76caadb85fdcbc8e814e66a0033c25e03702da8b48d64a2cba1cc04264736f6c63430008190033","linkReferences":{}},"methodIdentifiers":{"assetAddress()":"1ba46cfd","depositLiquidityAndMintTokens(address,uint256)":"62fb2e84","getBorrowableAmountBasedOnUSDAmount(address,uint256)":"cb8284d0","getCollateral(address)":"9b56d6c9","getCollateralValueInUSD(address)":"877db9dd","getRouter()":"b0f479a1","lendingTokenAddress()":"12945721","poolFactoryAddress()":"a32cf536","priceFeedAddress()":"e0abca0b"},"id":4}