{"abi":[{"type":"function","name":"setUp","inputs":[],"outputs":[],"stateMutability":"nonpayable"},{"type":"function","name":"token1","inputs":[],"outputs":[{"name":"","type":"address","internalType":"contract Token1"}],"stateMutability":"view"}],"bytecode":{"object":"0x6080604052348015600f57600080fd5b50610cd18061001f6000396000f3fe6080604052348015600f57600080fd5b506004361060325760003560e01c80630a9254e4146037578063d21220a714603f575b600080fd5b603d606d565b005b6000546051906001600160a01b031681565b6040516001600160a01b03909116815260200160405180910390f35b60405160779060b5565b604051809103906000f0801580156092573d6000803e3d6000fd5b50600080546001600160a01b0319166001600160a01b0392909216919091179055565b610bd9806100c38339019056fe608060405234801561001057600080fd5b5060405180604001604052806006815260200165546f6b656e3160d01b81525060405180604001604052806003815260200162544b3160e81b815250816003908161005b91906102ae565b50600461006882826102ae565b50505061009a3361007d61009f60201b60201c565b61008890600a610469565b61009590620f424061047f565b6100a4565b6104a9565b601290565b6001600160a01b0382166100d35760405163ec442f0560e01b8152600060048201526024015b60405180910390fd5b6100df600083836100e3565b5050565b6001600160a01b03831661010e5780600260008282546101039190610496565b909155506101809050565b6001600160a01b038316600090815260208190526040902054818110156101615760405163391434e360e21b81526001600160a01b038516600482015260248101829052604481018390526064016100ca565b6001600160a01b03841660009081526020819052604090209082900390555b6001600160a01b03821661019c576002805482900390556101bb565b6001600160a01b03821660009081526020819052604090208054820190555b816001600160a01b0316836001600160a01b03167fddf252ad1be2c89b69c2b068fc378daa952ba7f163c4a11628f55a4df523b3ef8360405161020091815260200190565b60405180910390a3505050565b634e487b7160e01b600052604160045260246000fd5b600181811c9082168061023757607f821691505b60208210810361025757634e487b7160e01b600052602260045260246000fd5b50919050565b601f8211156102a9576000816000526020600020601f850160051c810160208610156102865750805b601f850160051c820191505b818110156102a557828155600101610292565b5050505b505050565b81516001600160401b038111156102c7576102c761020d565b6102db816102d58454610223565b8461025d565b602080601f83116001811461031057600084156102f85750858301515b600019600386901b1c1916600185901b1785556102a5565b600085815260208120601f198616915b8281101561033f57888601518255948401946001909101908401610320565b508582101561035d5787850151600019600388901b60f8161c191681555b5050505050600190811b01905550565b634e487b7160e01b600052601160045260246000fd5b600181815b808511156103be5781600019048211156103a4576103a461036d565b808516156103b157918102915b93841c9390800290610388565b509250929050565b6000826103d557506001610463565b816103e257506000610463565b81600181146103f857600281146104025761041e565b6001915050610463565b60ff8411156104135761041361036d565b50506001821b610463565b5060208310610133831016604e8410600b8410161715610441575081810a610463565b61044b8383610383565b806000190482111561045f5761045f61036d565b0290505b92915050565b600061047860ff8416836103c6565b9392505050565b80820281158282048414176104635761046361036d565b808201808211156104635761046361036d565b610721806104b86000396000f3fe608060405234801561001057600080fd5b50600436106100935760003560e01c8063313ce56711610066578063313ce567146100fe57806370a082311461010d57806395d89b4114610136578063a9059cbb1461013e578063dd62ed3e1461015157600080fd5b806306fdde0314610098578063095ea7b3146100b657806318160ddd146100d957806323b872dd146100eb575b600080fd5b6100a061018a565b6040516100ad919061056a565b60405180910390f35b6100c96100c43660046105d5565b61021c565b60405190151581526020016100ad565b6002545b6040519081526020016100ad565b6100c96100f93660046105ff565b610236565b604051601281526020016100ad565b6100dd61011b36600461063b565b6001600160a01b031660009081526020819052604090205490565b6100a061025a565b6100c961014c3660046105d5565b610269565b6100dd61015f36600461065d565b6001600160a01b03918216600090815260016020908152604080832093909416825291909152205490565b60606003805461019990610690565b80601f01602080910402602001604051908101604052809291908181526020018280546101c590610690565b80156102125780601f106101e757610100808354040283529160200191610212565b820191906000526020600020905b8154815290600101906020018083116101f557829003601f168201915b5050505050905090565b60003361022a818585610277565b60019150505b92915050565b600033610244858285610289565b61024f85858561030c565b506001949350505050565b60606004805461019990610690565b60003361022a81858561030c565b610284838383600161036b565b505050565b6001600160a01b03838116600090815260016020908152604080832093861683529290522054600019811461030657818110156102f757604051637dc7a0d960e11b81526001600160a01b038416600482015260248101829052604481018390526064015b60405180910390fd5b6103068484848403600061036b565b50505050565b6001600160a01b03831661033657604051634b637e8f60e11b8152600060048201526024016102ee565b6001600160a01b0382166103605760405163ec442f0560e01b8152600060048201526024016102ee565b610284838383610440565b6001600160a01b0384166103955760405163e602df0560e01b8152600060048201526024016102ee565b6001600160a01b0383166103bf57604051634a1406b160e11b8152600060048201526024016102ee565b6001600160a01b038085166000908152600160209081526040808320938716835292905220829055801561030657826001600160a01b0316846001600160a01b03167f8c5be1e5ebec7d5bd14f71427d1e84f3dd0314c0f7b2291e5b200ac8c7c3b9258460405161043291815260200190565b60405180910390a350505050565b6001600160a01b03831661046b57806002600082825461046091906106ca565b909155506104dd9050565b6001600160a01b038316600090815260208190526040902054818110156104be5760405163391434e360e21b81526001600160a01b038516600482015260248101829052604481018390526064016102ee565b6001600160a01b03841660009081526020819052604090209082900390555b6001600160a01b0382166104f957600280548290039055610518565b6001600160a01b03821660009081526020819052604090208054820190555b816001600160a01b0316836001600160a01b03167fddf252ad1be2c89b69c2b068fc378daa952ba7f163c4a11628f55a4df523b3ef8360405161055d91815260200190565b60405180910390a3505050565b60006020808352835180602085015260005b818110156105985785810183015185820160400152820161057c565b506000604082860101526040601f19601f8301168501019250505092915050565b80356001600160a01b03811681146105d057600080fd5b919050565b600080604083850312156105e857600080fd5b6105f1836105b9565b946020939093013593505050565b60008060006060848603121561061457600080fd5b61061d846105b9565b925061062b602085016105b9565b9150604084013590509250925092565b60006020828403121561064d57600080fd5b610656826105b9565b9392505050565b6000806040838503121561067057600080fd5b610679836105b9565b9150610687602084016105b9565b90509250929050565b600181811c908216806106a457607f821691505b6020821081036106c457634e487b7160e01b600052602260045260246000fd5b50919050565b8082018082111561023057634e487b7160e01b600052601160045260246000fdfea264697066735822122087a8b512d5510ffd39d92c7e3e334d78f46b90a20ff9d0fd1d72a3499d604def64736f6c63430008190033a2646970667358221220798c0aee65d6aebba6aadb3200d12f7f2d9e0f38e7af644502dd5fc963b7014064736f6c63430008190033","linkReferences":{}},"methodIdentifiers":{"setUp()":"0a9254e4","token1()":"d21220a7"},"id":47}