{"abi":[{"type":"constructor","inputs":[],"stateMutability":"nonpayable"},{"type":"function","name":"allPairsLength","inputs":[],"outputs":[{"name":"","type":"uint256","internalType":"uint256"}],"stateMutability":"view"},{"type":"function","name":"allPools","inputs":[{"name":"","type":"uint256","internalType":"uint256"}],"outputs":[{"name":"","type":"address","internalType":"address"}],"stateMutability":"view"},{"type":"function","name":"createPool","inputs":[{"name":"underlyingAsset","type":"address","internalType":"address"},{"name":"pricefeedAddress","type":"address","internalType":"address"},{"name":"lendToken","type":"address","internalType":"address"}],"outputs":[{"name":"pool","type":"address","internalType":"address"}],"stateMutability":"nonpayable"},{"type":"function","name":"getPoolAddress","inputs":[{"name":"underlyingToken","type":"address","internalType":"address"}],"outputs":[{"name":"","type":"address","internalType":"address"}],"stateMutability":"view"},{"type":"function","name":"getRouter","inputs":[],"outputs":[{"name":"","type":"address","internalType":"address"}],"stateMutability":"view"},{"type":"function","name":"owner","inputs":[],"outputs":[{"name":"","type":"address","internalType":"address"}],"stateMutability":"view"},{"type":"function","name":"renounceOwnership","inputs":[],"outputs":[],"stateMutability":"nonpayable"},{"type":"function","name":"setRouter","inputs":[{"name":"router","type":"address","internalType":"address"}],"outputs":[],"stateMutability":"nonpayable"},{"type":"function","name":"transferOwnership","inputs":[{"name":"newOwner","type":"address","internalType":"address"}],"outputs":[],"stateMutability":"nonpayable"},{"type":"event","name":"OwnershipTransferred","inputs":[{"name":"previousOwner","type":"address","indexed":true,"internalType":"address"},{"name":"newOwner","type":"address","indexed":true,"internalType":"address"}],"anonymous":false},{"type":"event","name":"PoolCreated","inputs":[{"name":"token0","type":"address","indexed":true,"internalType":"address"},{"name":"pool","type":"address","indexed":false,"internalType":"address"},{"name":"","type":"uint256","indexed":false,"internalType":"uint256"}],"anonymous":false},{"type":"error","name":"Factory__PoolCreationFailed","inputs":[]},{"type":"error","name":"Factory__PoolExists","inputs":[]},{"type":"error","name":"Factory__ZeroAddress","inputs":[]},{"type":"error","name":"OwnableInvalidOwner","inputs":[{"name":"owner","type":"address","internalType":"address"}]},{"type":"error","name":"OwnableUnauthorizedAccount","inputs":[{"name":"account","type":"address","internalType":"address"}]}],"bytecode":{"object":"0x6080604052348015600f57600080fd5b503380603557604051631e4fbdf760e01b81526000600482015260240160405180910390fd5b603c816041565b506091565b600080546001600160a01b038381166001600160a01b0319831681178455604051919092169283917f8be0079c531659141344cd1fd0a4f28419497f9722a3daafe3b4186f6b6457e09190a35050565b6121c8806100a06000396000f3fe608060405234801561001057600080fd5b50600436106100935760003560e01c8063715018a611610066578063715018a6146101185780638da5cb5b14610122578063b0f479a114610133578063c0d7865514610144578063f2fde38b1461015757600080fd5b80631228cbee14610098578063236aea2e146100e157806341d1de97146100f4578063574f2ba314610107575b600080fd5b6100c46100a636600461054e565b6001600160a01b039081166000908152600160205260409020541690565b6040516001600160a01b0390911681526020015b60405180910390f35b6100c46100ef366004610570565b61016a565b6100c46101023660046105b3565b6103f8565b6003546040519081526020016100d8565b610120610422565b005b6000546001600160a01b03166100c4565b6002546001600160a01b03166100c4565b61012061015236600461054e565b610436565b61012061016536600461054e565b61046d565b6002546000906001600160a01b031633146101cc5760405162461bcd60e51b815260206004820152601b60248201527f4f6e6c7920526f757465722063616e2063726561746520706f6f6c000000000060448201526064015b60405180910390fd5b6001600160a01b0384166101f357604051634b46d9cd60e11b815260040160405180910390fd5b6001600160a01b03848116600090815260016020526040902054161561022c576040516312e0598f60e01b815260040160405180910390fd5b60006040518060200161023e90610525565b601f1982820381018352601f9091011660408181526002546001600160a01b038981166020850152888116928401929092528116606083015285166080820152909150600090829060a00160408051601f19818403018152908290526102a792916020016105fc565b60408051808303601f19018152908290526002546bffffffffffffffffffffffff1960608a811b8216602086015289811b8216603486015291821b811660488501529087901b16605c8301529150600090607001604051602081830303815290604052805190602001209050808251602084016000f593506001600160a01b038416610346576040516309f1533960e31b815260040160405180910390fd5b6001600160a01b0387811660008181526001602081815260408084208054968b166001600160a01b03199788168117909155600380549485018155948590527fc2575a0e9e593c00f959f8c92f12db2869c3395a3b0502d05e2516446f71f85b90930180549096168317909555915484519182529181019190915290917ff8a0462f666b427ea753848be7e91f9ce413975906f6f39950be296ca9a4d524910160405180910390a25050509392505050565b6003818154811061040857600080fd5b6000918252602090912001546001600160a01b0316905081565b61042a6104a8565b61043460006104d5565b565b61043e6104a8565b6002546001600160a01b031661046a57600280546001600160a01b0319166001600160a01b0383161790555b50565b6104756104a8565b6001600160a01b03811661049f57604051631e4fbdf760e01b8152600060048201526024016101c3565b61046a816104d5565b6000546001600160a01b031633146104345760405163118cdaa760e01b81523360048201526024016101c3565b600080546001600160a01b038381166001600160a01b0319831681178455604051919092169283917f8be0079c531659141344cd1fd0a4f28419497f9722a3daafe3b4186f6b6457e09190a35050565b611b798061061a83390190565b80356001600160a01b038116811461054957600080fd5b919050565b60006020828403121561056057600080fd5b61056982610532565b9392505050565b60008060006060848603121561058557600080fd5b61058e84610532565b925061059c60208501610532565b91506105aa60408501610532565b90509250925092565b6000602082840312156105c557600080fd5b5035919050565b6000815160005b818110156105ed57602081850181015186830152016105d3565b50600093019283525090919050565b600061061161060b83866105cc565b846105cc565b94935050505056fe61012060405234801561001157600080fd5b50604051611b79380380611b7983398101604081905261003091610073565b6001600160a01b039384166080523360a052831660c05290821660e05216610100526100c7565b80516001600160a01b038116811461006e57600080fd5b919050565b6000806000806080858703121561008957600080fd5b61009285610057565b93506100a060208601610057565b92506100ae60408601610057565b91506100bc60608601610057565b905092959194509250565b60805160a05160c05160e051610100516119d46101a5600039600081816102f4015281816103b4015281816105260152818161055701528181610682015281816106b3015281816107a2015281816107d301528181610886015281816108b701528181610a050152610a360152600081816103340152818161096701528181610e9501528181610f1d0152610fc80152600061016f015260006102a80152600081816101be015281816103ef015281816104a90152818161082501528181610b2501528181610cda01528181610e29015261105901526119d46000f3fe608060405234801561001057600080fd5b50600436106101425760003560e01c8063877db9dd116100b8578063b0f479a11161007c578063b0f479a1146102f2578063b1a9339314610318578063cb8284d01461031f578063e0abca0b14610332578063ea999dff14610358578063f27feeaf1461036b57600080fd5b8063877db9dd1461028b578063a13036161461029e578063a32cf536146102a6578063a5d5db0c146102cc578063ac5f8359146102df57600080fd5b8063248c181b1161010a578063248c181b146101f557806327f9c4c1146101fd5780635de0a9af1461022957806362fb2e841461023c57806364d403bd1461024f578063654c62951461026257600080fd5b80630858631714610147578063129457211461016d578063134bde11146101a75780631ba46cfd146101bc578063220a36b6146101e2575b600080fd5b61015a61015536600461152c565b61037e565b6040519081526020015b60405180910390f35b7f00000000000000000000000000000000000000000000000000000000000000005b6040516001600160a01b039091168152602001610164565b6101ba6101b536600461152c565b6103aa565b005b7f000000000000000000000000000000000000000000000000000000000000000061018f565b6101ba6101f0366004611556565b61051c565b60045461015a565b61015a61020b366004611556565b6001600160a01b031660009081526020819052604090206004015490565b61015a610237366004611556565b610647565b6101ba61024a36600461152c565b610678565b6101ba61025d36600461152c565b610798565b61015a610270366004611556565b6001600160a01b031660009081526001602052604090205490565b61015a610299366004611556565b61085c565b60035461015a565b7f000000000000000000000000000000000000000000000000000000000000000061018f565b6101ba6102da36600461152c565b61087c565b61015a6102ed366004611571565b610946565b7f000000000000000000000000000000000000000000000000000000000000000061018f565b600361015a565b61015a61032d36600461152c565b610962565b7f000000000000000000000000000000000000000000000000000000000000000061018f565b6101ba610366366004611593565b6109fb565b61015a6103793660046115c6565b610e90565b6001600160a01b0382166000908152602081815260408083208484526002019091529020545b92915050565b6001600160a01b037f0000000000000000000000000000000000000000000000000000000000000000163303610518576040516370a0823160e01b81523060048201527f00000000000000000000000000000000000000000000000000000000000000006001600160a01b0316906370a08231906024015b602060405180830381865afa15801561043f573d6000803e3d6000fd5b505050506040513d601f19601f8201168201806040525081019061046391906115df565b81111561048357604051631ec7992b60e21b815260040160405180910390fd5b60405163a9059cbb60e01b81526001600160a01b038381166004830152602482018390527f0000000000000000000000000000000000000000000000000000000000000000169063a9059cbb906044016020604051808303816000875af11580156104f2573d6000803e3d6000fd5b505050506040513d601f19601f8201168201806040525081019061051691906115f8565b505b5050565b6001600160a01b037f000000000000000000000000000000000000000000000000000000000000000016330361064457336001600160a01b037f0000000000000000000000000000000000000000000000000000000000000000161461059d5760405162461bcd60e51b81526004016105949061161a565b60405180910390fd5b6001600160a01b038116600090815260208190526040812060040154905b6001600160a01b038316600090815260208190526040902060030154811015610516576001600160a01b03831660009081526020818152604080832084845260010190915290205460ff1661063c576001600160a01b03831660009081526020818152604080832084845260020190915290205461063a8482846109fb565b505b6001016105bb565b50565b6001600160a01b03811660009081526020819052604081206004015481905b905061067181610e90565b9392505050565b6001600160a01b037f000000000000000000000000000000000000000000000000000000000000000016330361051857336001600160a01b037f000000000000000000000000000000000000000000000000000000000000000016146106f05760405162461bcd60e51b81526004016105949061165c565b6001600160a01b038216600081815260208181526040808320600380820180548652600283018552838620889055805486529483902042600191820155600480840180548a019055825489019092558154019055925490518581529293909285927f77b57bffc1c97e4762d78efd74300ab40a13dc946d0e09b33ead3a5b35cfa7d3910160405180910390a460038101805490600061078e836116b4565b9190505550505050565b6001600160a01b037f000000000000000000000000000000000000000000000000000000000000000016330361051857336001600160a01b037f000000000000000000000000000000000000000000000000000000000000000016146108105760405162461bcd60e51b81526004016105949061161a565b6040516370a0823160e01b81523060048201527f00000000000000000000000000000000000000000000000000000000000000006001600160a01b0316906370a0823190602401610422565b6001600160a01b0381166000908152600160205260408120548190610666565b6001600160a01b037f000000000000000000000000000000000000000000000000000000000000000016330361051857336001600160a01b037f000000000000000000000000000000000000000000000000000000000000000016146108f45760405162461bcd60e51b81526004016105949061165c565b6001600160a01b0382166000818152600160205260408082208054850190556002805485019055518392917fd7243f6f8212d5188fd054141cf6ea89cfc0d91facb8c3afe2f88a135848014291a35050565b600060025460035461095891906116cd565b61067190846116e0565b6000807f00000000000000000000000000000000000000000000000000000000000000006001600160a01b031663313ce5676040518163ffffffff1660e01b8152600401602060405180830381865afa1580156109c3573d6000803e3d6000fd5b505050506040513d601f19601f820116820180604052508101906109e791906116f3565b6109f2906012611716565b90505092915050565b6001600160a01b037f000000000000000000000000000000000000000000000000000000000000000016330361051657336001600160a01b037f00000000000000000000000000000000000000000000000000000000000000001614610a735760405162461bcd60e51b81526004016105949061161a565b6001600160a01b038316600090815260208190526040902060030154811115610aaf57604051635fe74ebf60e11b815260040160405180910390fd5b6001600160a01b03831660009081526020818152604080832084845260010190915290205460ff1615610af55760405163f6d36f9160e01b815260040160405180910390fd5b6001600160a01b0383811660009081526020819052604080822090516370a0823160e01b815230600482015290927f000000000000000000000000000000000000000000000000000000000000000016906370a0823190602401602060405180830381865afa158015610b6c573d6000803e3d6000fd5b505050506040513d601f19601f82011682018060405250810190610b9091906115df565b9050610bc56040518060400160405280601181526020017002a37ba30b6102130b630b731b29034b99607d1b81525082611136565b60008381526002830160205260409020548403610d3e57600083815260028301602052604081208054869290610bfc9084906116e0565b9250508190555083826004016000828254610c1791906116e0565b90915550508154600181810184556000848152602080822090930186905585815281850190925260408220805460ff1916909117905560038054869290610c5f9084906116e0565b909155505060048054906000610c748361172f565b90915550506000838152600283016020526040812060010154610c999086908461117b565b9050610cd560405180604001604052806018815260200177020b6b7bab73a102bb4ba341024b73a32b932b9ba1034b9960451b81525082611136565b610d007f000000000000000000000000000000000000000000000000000000000000000087836112f5565b8381876001600160a01b03167f9b9970c5ed4609e15fd1dedd289d5697670692b2f58988736a098d44fd4cb3db60405160405180910390a450610e89565b6000838152600283016020526040902054841115610d6f57604051631ec7992b60e21b815260040160405180910390fd5b600083815260028301602052604081208054869290610d8f9084906116e0565b9250508190555083826004016000828254610daa91906116e0565b925050819055508360036000828254610dc391906116e0565b90915550506000838152600283016020526040812060010154610de89086908461117b565b9050610e2460405180604001604052806018815260200177020b6b7bab73a102bb4ba341024b73a32b932b9ba1034b9960451b81525082611136565b610e4f7f000000000000000000000000000000000000000000000000000000000000000087836112f5565b8381876001600160a01b03167f9b9970c5ed4609e15fd1dedd289d5697670692b2f58988736a098d44fd4cb3db60405160405180910390a4505b5050505050565b6000807f00000000000000000000000000000000000000000000000000000000000000006001600160a01b031663feaf968c6040518163ffffffff1660e01b815260040160a060405180830381865afa158015610ef1573d6000803e3d6000fd5b505050506040513d601f19601f82011682018060405250810190610f159190611760565b5050509150507f00000000000000000000000000000000000000000000000000000000000000006001600160a01b031663313ce5676040518163ffffffff1660e01b8152600401602060405180830381865afa158015610f79573d6000803e3d6000fd5b505050506040513d601f19601f82011682018060405250810190610f9d91906116f3565b60ff16601203610fc457670de0b6b3a7640000610fba82856117b0565b61067191906117c7565b60007f00000000000000000000000000000000000000000000000000000000000000006001600160a01b031663313ce5676040518163ffffffff1660e01b8152600401602060405180830381865afa158015611024573d6000803e3d6000fd5b505050506040513d601f19601f8201168201806040525081019061104891906116f3565b611053906012611716565b905060007f00000000000000000000000000000000000000000000000000000000000000006001600160a01b031663313ce5676040518163ffffffff1660e01b8152600401602060405180830381865afa1580156110b5573d6000803e3d6000fd5b505050506040513d601f19601f820116820180604052508101906110d991906116f3565b6110e4906012611716565b9050670de0b6b3a76400006110fa83600a6118cd565b61110490856117b0565b61110f83600a6118cd565b61111990886117b0565b61112391906117b0565b61112d91906117c7565b95945050505050565b610518828260405160240161114c92919061192c565b60408051601f198184030181529190526020810180516001600160e01b03166309710a9d60e41b179052611347565b60008382036111c55761118e8285610946565b61119890856116cd565b90506111c06040518060400160405280600581526020016448656c6c6f60d81b815250611368565b610671565b6111eb6040518060400160405280600581526020016448656c6c6f60d81b815250611368565b60006111f784426116e0565b9050600061120586856116e0565b905060006112138588610946565b905061123760405180606001604052806021815260200161197e6021913982611136565b8060000361124a57869350505050610671565b6000826112588960646117b0565b61126291906117c7565b9050806000036112b3576000606461127b8a60626117b0565b61128591906117c7565b61128f908a6116e0565b905061129d61016d826117c7565b6112a7908a6116cd565b95505050505050610671565b60006112c36301dfe200846117c7565b905060006112d186836117b0565b90506112dd83826117c7565b6112e7908b6116cd565b9a9950505050505050505050565b604080516001600160a01b038416602482015260448082018490528251808303909101815260649091019091526020810180516001600160e01b031663a9059cbb60e01b1790526105169084906113ab565b80516a636f6e736f6c652e6c6f67602083016000808483855afa5050505050565b6106448160405160240161137c919061194e565b60408051601f198184030181529190526020810180516001600160e01b031663104c13eb60e21b179052611347565b60006113c06001600160a01b0384168361140e565b905080516000141580156113e55750808060200190518101906113e391906115f8565b155b1561051657604051635274afe760e01b81526001600160a01b0384166004820152602401610594565b60606106718383600084600080856001600160a01b031684866040516114349190611961565b60006040518083038185875af1925050503d8060008114611471576040519150601f19603f3d011682016040523d82523d6000602084013e611476565b606091505b5091509150611486868383611490565b9695505050505050565b6060826114a0576111c0826114e7565b81511580156114b757506001600160a01b0384163b155b156114e057604051639996b31560e01b81526001600160a01b0385166004820152602401610594565b5080610671565b8051156114f75780518082602001fd5b604051630a12f52160e11b815260040160405180910390fd5b80356001600160a01b038116811461152757600080fd5b919050565b6000806040838503121561153f57600080fd5b61154883611510565b946020939093013593505050565b60006020828403121561156857600080fd5b61067182611510565b6000806040838503121561158457600080fd5b50508035926020909101359150565b6000806000606084860312156115a857600080fd5b6115b184611510565b95602085013595506040909401359392505050565b6000602082840312156115d857600080fd5b5035919050565b6000602082840312156115f157600080fd5b5051919050565b60006020828403121561160a57600080fd5b8151801515811461067157600080fd5b60208082526022908201527f4f6e6c7920726f757465722063616e2063616c6c20746869732066756e63746960408201526137b760f11b606082015260800190565b60208082526022908201527f4f6e6c7920526f757465722063616e2063616c6c20746869732066756e63746960408201526137b760f11b606082015260800190565b634e487b7160e01b600052601160045260246000fd5b6000600182016116c6576116c661169e565b5060010190565b808201808211156103a4576103a461169e565b818103818111156103a4576103a461169e565b60006020828403121561170557600080fd5b815160ff8116811461067157600080fd5b60ff82811682821603908111156103a4576103a461169e565b60008161173e5761173e61169e565b506000190190565b805169ffffffffffffffffffff8116811461152757600080fd5b600080600080600060a0868803121561177857600080fd5b61178186611746565b94506020860151935060408601519250606086015191506117a460808701611746565b90509295509295909350565b80820281158282048414176103a4576103a461169e565b6000826117e457634e487b7160e01b600052601260045260246000fd5b500490565b600181815b8085111561182457816000190482111561180a5761180a61169e565b8085161561181757918102915b93841c93908002906117ee565b509250929050565b60008261183b575060016103a4565b81611848575060006103a4565b816001811461185e576002811461186857611884565b60019150506103a4565b60ff8411156118795761187961169e565b50506001821b6103a4565b5060208310610133831016604e8410600b84101617156118a7575081810a6103a4565b6118b183836117e9565b80600019048211156118c5576118c561169e565b029392505050565b600061067160ff84168361182c565b60005b838110156118f75781810151838201526020016118df565b50506000910152565b600081518084526119188160208601602086016118dc565b601f01601f19169290920160200192915050565b60408152600061193f6040830185611900565b90508260208301529392505050565b6020815260006106716020830184611900565b600082516119738184602087016118dc565b919091019291505056fe546f74616c204163637275656420496e74657265737420416d6f756e7420697320a264697066735822122012af2e17a313b208423c77f903c67c467acefe049e58fafbbc5b32c30074bee164736f6c63430008190033a2646970667358221220f1787e469a809595ac58b5440aa4963e5fa9006efdb17c2abe93e003d4f22ab964736f6c63430008190033","linkReferences":{}},"methodIdentifiers":{"allPairsLength()":"574f2ba3","allPools(uint256)":"41d1de97","createPool(address,address,address)":"236aea2e","getPoolAddress(address)":"1228cbee","getRouter()":"b0f479a1","owner()":"8da5cb5b","renounceOwnership()":"715018a6","setRouter(address)":"c0d78655","transferOwnership(address)":"f2fde38b"},"id":5}