{"abi":[{"type":"constructor","inputs":[],"stateMutability":"nonpayable"},{"type":"function","name":"allPairsLength","inputs":[],"outputs":[{"name":"","type":"uint256","internalType":"uint256"}],"stateMutability":"view"},{"type":"function","name":"allPools","inputs":[{"name":"","type":"uint256","internalType":"uint256"}],"outputs":[{"name":"","type":"address","internalType":"address"}],"stateMutability":"view"},{"type":"function","name":"createPool","inputs":[{"name":"underlyingAsset","type":"address","internalType":"address"},{"name":"pricefeedAddress","type":"address","internalType":"address"},{"name":"lendToken","type":"address","internalType":"address"}],"outputs":[{"name":"pool","type":"address","internalType":"address"}],"stateMutability":"nonpayable"},{"type":"function","name":"getPoolAddress","inputs":[{"name":"underlyingToken","type":"address","internalType":"address"}],"outputs":[{"name":"","type":"address","internalType":"address"}],"stateMutability":"view"},{"type":"function","name":"getRouter","inputs":[],"outputs":[{"name":"","type":"address","internalType":"address"}],"stateMutability":"view"},{"type":"function","name":"owner","inputs":[],"outputs":[{"name":"","type":"address","internalType":"address"}],"stateMutability":"view"},{"type":"function","name":"renounceOwnership","inputs":[],"outputs":[],"stateMutability":"nonpayable"},{"type":"function","name":"setRouter","inputs":[{"name":"router","type":"address","internalType":"address"}],"outputs":[],"stateMutability":"nonpayable"},{"type":"function","name":"transferOwnership","inputs":[{"name":"newOwner","type":"address","internalType":"address"}],"outputs":[],"stateMutability":"nonpayable"},{"type":"event","name":"OwnershipTransferred","inputs":[{"name":"previousOwner","type":"address","indexed":true,"internalType":"address"},{"name":"newOwner","type":"address","indexed":true,"internalType":"address"}],"anonymous":false},{"type":"event","name":"PoolCreated","inputs":[{"name":"token0","type":"address","indexed":true,"internalType":"address"},{"name":"pool","type":"address","indexed":false,"internalType":"address"},{"name":"","type":"uint256","indexed":false,"internalType":"uint256"}],"anonymous":false},{"type":"error","name":"Factory__PoolCreationFailed","inputs":[]},{"type":"error","name":"Factory__PoolExists","inputs":[]},{"type":"error","name":"Factory__ZeroAddress","inputs":[]},{"type":"error","name":"OwnableInvalidOwner","inputs":[{"name":"owner","type":"address","internalType":"address"}]},{"type":"error","name":"OwnableUnauthorizedAccount","inputs":[{"name":"account","type":"address","internalType":"address"}]}],"bytecode":{"object":"0x6080604052348015600f57600080fd5b503380603557604051631e4fbdf760e01b81526000600482015260240160405180910390fd5b603c816041565b506091565b600080546001600160a01b038381166001600160a01b0319831681178455604051919092169283917f8be0079c531659141344cd1fd0a4f28419497f9722a3daafe3b4186f6b6457e09190a35050565b612138806100a06000396000f3fe608060405234801561001057600080fd5b50600436106100935760003560e01c8063715018a611610066578063715018a6146101185780638da5cb5b14610122578063b0f479a114610133578063c0d7865514610144578063f2fde38b1461015757600080fd5b80631228cbee14610098578063236aea2e146100e157806341d1de97146100f4578063574f2ba314610107575b600080fd5b6100c46100a63660046104f3565b6001600160a01b039081166000908152600160205260409020541690565b6040516001600160a01b0390911681526020015b60405180910390f35b6100c46100ef366004610515565b61016a565b6100c4610102366004610558565b610398565b6003546040519081526020016100d8565b6101206103c2565b005b6000546001600160a01b03166100c4565b6002546001600160a01b03166100c4565b6101206101523660046104f3565b6103d6565b6101206101653660046104f3565b61040d565b60006001600160a01b03841661019357604051634b46d9cd60e11b815260040160405180910390fd5b6001600160a01b0384811660009081526001602052604090205416156101cc576040516312e0598f60e01b815260040160405180910390fd5b6000604051806020016101de906104ca565b601f1982820381018352601f9091011660408181526002546001600160a01b038981166020850152888116928401929092528116606083015285166080820152909150600090829060a00160408051601f198184030181529082905261024792916020016105a1565b60408051808303601f19018152908290526002546bffffffffffffffffffffffff1960608a811b8216602086015289811b8216603486015291821b811660488501529087901b16605c8301529150600090607001604051602081830303815290604052805190602001209050808251602084016000f593506001600160a01b0384166102e6576040516309f1533960e31b815260040160405180910390fd5b6001600160a01b0387811660008181526001602081815260408084208054968b166001600160a01b03199788168117909155600380549485018155948590527fc2575a0e9e593c00f959f8c92f12db2869c3395a3b0502d05e2516446f71f85b90930180549096168317909555915484519182529181019190915290917ff8a0462f666b427ea753848be7e91f9ce413975906f6f39950be296ca9a4d524910160405180910390a25050509392505050565b600381815481106103a857600080fd5b6000918252602090912001546001600160a01b0316905081565b6103ca61044d565b6103d4600061047a565b565b6103de61044d565b6002546001600160a01b031661040a57600280546001600160a01b0319166001600160a01b0383161790555b50565b61041561044d565b6001600160a01b03811661044457604051631e4fbdf760e01b8152600060048201526024015b60405180910390fd5b61040a8161047a565b6000546001600160a01b031633146103d45760405163118cdaa760e01b815233600482015260240161043b565b600080546001600160a01b038381166001600160a01b0319831681178455604051919092169283917f8be0079c531659141344cd1fd0a4f28419497f9722a3daafe3b4186f6b6457e09190a35050565b611b44806105bf83390190565b80356001600160a01b03811681146104ee57600080fd5b919050565b60006020828403121561050557600080fd5b61050e826104d7565b9392505050565b60008060006060848603121561052a57600080fd5b610533846104d7565b9250610541602085016104d7565b915061054f604085016104d7565b90509250925092565b60006020828403121561056a57600080fd5b5035919050565b6000815160005b818110156105925760208185018101518683015201610578565b50600093019283525090919050565b60006105b66105b08386610571565b84610571565b94935050505056fe61012060405234801561001157600080fd5b50604051611b44380380611b4483398101604081905261003091610073565b6001600160a01b039384166080523360a052831660c05290821660e05216610100526100c7565b80516001600160a01b038116811461006e57600080fd5b919050565b6000806000806080858703121561008957600080fd5b61009285610057565b93506100a060208601610057565b92506100ae60408601610057565b91506100bc60608601610057565b905092959194509250565b60805160a05160c05160e051610100516119a661019e600039600081816102ad0152818161035a015281816104cb015281816104fc015281816108e20152818161091301528181610a2e01528181610a5f01528181610bde0152610c0f0152600081816102ed015281816105f1015281816106790152818161074e0152610b400152600061014e0152600061026101526000818161019d015281816103950152818161044e015281816107df0152818161095501528181610aa101528181610cb801528181610e6d0152610f8b01526119a66000f3fe608060405234801561001057600080fd5b50600436106101215760003560e01c8063654c6295116100ad578063b0f479a111610071578063b0f479a1146102ab578063b1a93393146102d1578063cb8284d0146102d8578063e0abca0b146102eb578063ea999dff1461031157600080fd5b8063654c62951461022e578063a130361614610257578063a32cf5361461025f578063a5d5db0c14610285578063aa3809641461029857600080fd5b8063220a36b6116100f4578063220a36b6146101c1578063248c181b146101d457806327f9c4c1146101dc5780635de0a9af1461020857806362fb2e841461021b57600080fd5b80630858631714610126578063129457211461014c578063134bde11146101865780631ba46cfd1461019b575b600080fd5b6101396101343660046114fa565b610324565b6040519081526020015b60405180910390f35b7f00000000000000000000000000000000000000000000000000000000000000005b6040516001600160a01b039091168152602001610143565b6101996101943660046114fa565b610350565b005b7f000000000000000000000000000000000000000000000000000000000000000061016e565b6101996101cf366004611524565b6104c1565b600454610139565b6101396101ea366004611524565b6001600160a01b031660009081526020819052604090206004015490565b610139610216366004611524565b6105ec565b6101996102293660046114fa565b6108d8565b61013961023c366004611524565b6001600160a01b031660009081526001602052604090205490565b600354610139565b7f000000000000000000000000000000000000000000000000000000000000000061016e565b6101996102933660046114fa565b610a24565b6101396102a636600461153f565b610b1a565b7f000000000000000000000000000000000000000000000000000000000000000061016e565b6003610139565b6101396102e63660046114fa565b610b3b565b7f000000000000000000000000000000000000000000000000000000000000000061016e565b61019961031f366004611558565b610bd4565b6001600160a01b0382166000908152602081815260408083208484526002019091529020545b92915050565b6001600160a01b037f00000000000000000000000000000000000000000000000000000000000000001633036104bd576040516370a0823160e01b81523060048201527f00000000000000000000000000000000000000000000000000000000000000006001600160a01b0316906370a0823190602401602060405180830381865afa1580156103e4573d6000803e3d6000fd5b505050506040513d601f19601f82011682018060405250810190610408919061158b565b81111561042857604051631ec7992b60e21b815260040160405180910390fd5b60405163a9059cbb60e01b81526001600160a01b038381166004830152602482018390527f0000000000000000000000000000000000000000000000000000000000000000169063a9059cbb906044016020604051808303816000875af1158015610497573d6000803e3d6000fd5b505050506040513d601f19601f820116820180604052508101906104bb91906115a4565b505b5050565b6001600160a01b037f00000000000000000000000000000000000000000000000000000000000000001633036105e957336001600160a01b037f000000000000000000000000000000000000000000000000000000000000000016146105425760405162461bcd60e51b8152600401610539906115c6565b60405180910390fd5b6001600160a01b038116600090815260208190526040812060040154905b6001600160a01b0383166000908152602081905260409020600301548110156104bb576001600160a01b03831660009081526020818152604080832084845260010190915290205460ff166105e1576001600160a01b0383166000908152602081815260408083208484526002019091529020546105df848284610bd4565b505b600101610560565b50565b6000807f00000000000000000000000000000000000000000000000000000000000000006001600160a01b031663feaf968c6040518163ffffffff1660e01b815260040160a060405180830381865afa15801561064d573d6000803e3d6000fd5b505050506040513d601f19601f820116820180604052508101906106719190611622565b5050509150507f00000000000000000000000000000000000000000000000000000000000000006001600160a01b031663313ce5676040518163ffffffff1660e01b8152600401602060405180830381865afa1580156106d5573d6000803e3d6000fd5b505050506040513d601f19601f820116820180604052508101906106f99190611672565b60ff1660120361074a57670de0b6b3a76400008161072f856001600160a01b031660009081526020819052604090206004015490565b61073991906116ab565b61074391906116c2565b9392505050565b60007f00000000000000000000000000000000000000000000000000000000000000006001600160a01b031663313ce5676040518163ffffffff1660e01b8152600401602060405180830381865afa1580156107aa573d6000803e3d6000fd5b505050506040513d601f19601f820116820180604052508101906107ce9190611672565b6107d99060126116e4565b905060007f00000000000000000000000000000000000000000000000000000000000000006001600160a01b031663313ce5676040518163ffffffff1660e01b8152600401602060405180830381865afa15801561083b573d6000803e3d6000fd5b505050506040513d601f19601f8201168201806040525081019061085f9190611672565b61086a9060126116e4565b9050670de0b6b3a764000061088083600a6117e1565b61088a90856116ab565b61089583600a6117e1565b6001600160a01b0388166000908152602081905260409020600401546108bb91906116ab565b6108c591906116ab565b6108cf91906116c2565b95945050505050565b6001600160a01b037f00000000000000000000000000000000000000000000000000000000000000001633036104bd57336001600160a01b037f000000000000000000000000000000000000000000000000000000000000000016146109505760405162461bcd60e51b8152600401610539906117f0565b61097c7f0000000000000000000000000000000000000000000000000000000000000000833084610ff2565b6001600160a01b038216600081815260208181526040808320600380820180548652600283018552838620889055805486529483902042600191820155600480840180548a019055825489019092558154019055925490518581529293909285927f77b57bffc1c97e4762d78efd74300ab40a13dc946d0e09b33ead3a5b35cfa7d3910160405180910390a4600381018054906000610a1a83611832565b9190505550505050565b6001600160a01b037f00000000000000000000000000000000000000000000000000000000000000001633036104bd57336001600160a01b037f00000000000000000000000000000000000000000000000000000000000000001614610a9c5760405162461bcd60e51b8152600401610539906117f0565b610ac87f0000000000000000000000000000000000000000000000000000000000000000833084610ff2565b6001600160a01b0382166000818152600160205260408082208054850190556002805485019055518392917fd7243f6f8212d5188fd054141cf6ea89cfc0d91facb8c3afe2f88a135848014291a35050565b6000600254600354610b2c919061184b565b61034a908361185e565b919050565b6000807f00000000000000000000000000000000000000000000000000000000000000006001600160a01b031663313ce5676040518163ffffffff1660e01b8152600401602060405180830381865afa158015610b9c573d6000803e3d6000fd5b505050506040513d601f19601f82011682018060405250810190610bc09190611672565b610bcb9060126116e4565b90505092915050565b6001600160a01b037f00000000000000000000000000000000000000000000000000000000000000001633036104bb57336001600160a01b037f00000000000000000000000000000000000000000000000000000000000000001614610c4c5760405162461bcd60e51b8152600401610539906115c6565b6001600160a01b038316600090815260208190526040902060030154811115610c8857604051635fe74ebf60e11b815260040160405180910390fd5b6001600160a01b0383811660009081526020819052604080822090516370a0823160e01b815230600482015290927f000000000000000000000000000000000000000000000000000000000000000016906370a0823190602401602060405180830381865afa158015610cff573d6000803e3d6000fd5b505050506040513d601f19601f82011682018060405250810190610d23919061158b565b9050610d586040518060400160405280601181526020017002a37ba30b6102130b630b731b29034b99607d1b8152508261105f565b60008381526002830160205260409020548403610ed157600083815260028301602052604081208054869290610d8f90849061185e565b9250508190555083826004016000828254610daa919061185e565b90915550508154600181810184556000848152602080822090930186905585815281850190925260408220805460ff1916909117905560038054869290610df290849061185e565b909155505060048054906000610e0783611871565b90915550506000838152600283016020526040812060010154610e2c908690846110a4565b9050610e6860405180604001604052806018815260200177020b6b7bab73a102bb4ba341024b73a32b932b9ba1034b9960451b8152508261105f565b610e937f000000000000000000000000000000000000000000000000000000000000000087836112b7565b8381876001600160a01b03167f9b9970c5ed4609e15fd1dedd289d5697670692b2f58988736a098d44fd4cb3db60405160405180910390a450610feb565b600083815260028301602052604081208054869290610ef190849061185e565b9250508190555083826004016000828254610f0c919061185e565b925050819055508360036000828254610f25919061185e565b90915550506000838152600283016020526040812060010154610f4a908690846110a4565b9050610f8660405180604001604052806018815260200177020b6b7bab73a102bb4ba341024b73a32b932b9ba1034b9960451b8152508261105f565b610fb17f000000000000000000000000000000000000000000000000000000000000000087836112b7565b8381876001600160a01b03167f9b9970c5ed4609e15fd1dedd289d5697670692b2f58988736a098d44fd4cb3db60405160405180910390a4505b5050505050565b6040516001600160a01b0384811660248301528381166044830152606482018390526110599186918216906323b872dd906084015b604051602081830303815290604052915060e01b6020820180516001600160e01b0383818316178352505050506112e8565b50505050565b6104bd82826040516024016110759291906118d8565b60408051601f198184030181529190526020810180516001600160e01b0316632d839cb360e21b17905261134b565b60008382036110ed576110b682610b1a565b6110c0908561184b565b90506110e86040518060400160405280600581526020016448656c6c6f60d81b815250611354565b610743565b6111136040518060400160405280600581526020016448656c6c6f60d81b815250611354565b600061111f844261185e565b9050600061112d868561185e565b9050600061113a85610b1a565b905061115e60405180606001604052806021815260200161192a602191398261105f565b60008261116c8960646116ab565b61117e90670de0b6b3a76400006116ab565b61118891906116c2565b90506111c260405180604001604052806016815260200175023b2ba102832b931b2b73a1020b6b7bab73a1034b9960551b8152508261105f565b60006111d26301dfe200846116c2565b90506112136040518060400160405280601e81526020017f496e74657265737420416d6f756e7420506572205365636f6e642069732000008152508261105f565b600061121f86836116ab565b90506112606040518060400160405280601981526020017f496e74657265737420416d6f756e7420546f74616c20697320000000000000008152508261105f565b61126a83826116c2565b61127c90670de0b6b3a76400006116ab565b611286908b61184b565b96506112aa60405180606001604052806026815260200161194b602691398861105f565b5050505050509392505050565b6040516001600160a01b038381166024830152604482018390526104bb91859182169063a9059cbb90606401611027565b60006112fd6001600160a01b03841683611397565b9050805160001415801561132257508080602001905181019061132091906115a4565b155b156104bb57604051635274afe760e01b81526001600160a01b0384166004820152602401610539565b6105e9816113a5565b6105e98160405160240161136891906118fa565b60408051601f198184030181529190526020810180516001600160e01b031663104c13eb60e21b17905261134b565b6060610743838360006113c6565b60006a636f6e736f6c652e6c6f679050600080835160208501845afa505050565b6060814710156113eb5760405163cd78605960e01b8152306004820152602401610539565b600080856001600160a01b03168486604051611407919061190d565b60006040518083038185875af1925050503d8060008114611444576040519150601f19603f3d011682016040523d82523d6000602084013e611449565b606091505b5091509150611459868383611463565b9695505050505050565b606082611473576110e8826114ba565b815115801561148a57506001600160a01b0384163b155b156114b357604051639996b31560e01b81526001600160a01b0385166004820152602401610539565b5080610743565b8051156114ca5780518082602001fd5b604051630a12f52160e11b815260040160405180910390fd5b80356001600160a01b0381168114610b3657600080fd5b6000806040838503121561150d57600080fd5b611516836114e3565b946020939093013593505050565b60006020828403121561153657600080fd5b610743826114e3565b60006020828403121561155157600080fd5b5035919050565b60008060006060848603121561156d57600080fd5b611576846114e3565b95602085013595506040909401359392505050565b60006020828403121561159d57600080fd5b5051919050565b6000602082840312156115b657600080fd5b8151801515811461074357600080fd5b60208082526022908201527f4f6e6c7920726f757465722063616e2063616c6c20746869732066756e63746960408201526137b760f11b606082015260800190565b805169ffffffffffffffffffff81168114610b3657600080fd5b600080600080600060a0868803121561163a57600080fd5b61164386611608565b945060208601519350604086015192506060860151915061166660808701611608565b90509295509295909350565b60006020828403121561168457600080fd5b815160ff8116811461074357600080fd5b634e487b7160e01b600052601160045260246000fd5b808202811582820484141761034a5761034a611695565b6000826116df57634e487b7160e01b600052601260045260246000fd5b500490565b60ff828116828216039081111561034a5761034a611695565b600181815b8085111561173857816000190482111561171e5761171e611695565b8085161561172b57918102915b93841c9390800290611702565b509250929050565b60008261174f5750600161034a565b8161175c5750600061034a565b8160018114611772576002811461177c57611798565b600191505061034a565b60ff84111561178d5761178d611695565b50506001821b61034a565b5060208310610133831016604e8410600b84101617156117bb575081810a61034a565b6117c583836116fd565b80600019048211156117d9576117d9611695565b029392505050565b600061074360ff841683611740565b60208082526022908201527f4f6e6c7920526f757465722063616e2063616c6c20746869732066756e63746960408201526137b760f11b606082015260800190565b60006001820161184457611844611695565b5060010190565b8082018082111561034a5761034a611695565b8181038181111561034a5761034a611695565b60008161188057611880611695565b506000190190565b60005b838110156118a357818101518382015260200161188b565b50506000910152565b600081518084526118c4816020860160208601611888565b601f01601f19169290920160200192915050565b6040815260006118eb60408301856118ac565b90508260208301529392505050565b60208152600061074360208301846118ac565b6000825161191f818460208701611888565b919091019291505056fe546f74616c204163637275656420496e74657265737420416d6f756e7420697320416d6f756e74205769746820496e7465726573742069732063616c63756c6174696f6e203120a26469706673582212203fbf6ab9b0b8318bc3320bcf8c558a4086ebc820c10d1d06ba183a555fe1f2d364736f6c63430008190033a26469706673582212202fbd41637bc0a3781cb9f1199a4675a913cc3f4bd737d28df0cb7911ea52103c64736f6c63430008190033","linkReferences":{}},"methodIdentifiers":{"allPairsLength()":"574f2ba3","allPools(uint256)":"41d1de97","createPool(address,address,address)":"236aea2e","getPoolAddress(address)":"1228cbee","getRouter()":"b0f479a1","owner()":"8da5cb5b","renounceOwnership()":"715018a6","setRouter(address)":"c0d78655","transferOwnership(address)":"f2fde38b"},"id":5}