{"abi":[{"type":"constructor","inputs":[],"stateMutability":"nonpayable"},{"type":"function","name":"allPairsLength","inputs":[],"outputs":[{"name":"","type":"uint256","internalType":"uint256"}],"stateMutability":"view"},{"type":"function","name":"allPools","inputs":[{"name":"","type":"uint256","internalType":"uint256"}],"outputs":[{"name":"","type":"address","internalType":"address"}],"stateMutability":"view"},{"type":"function","name":"createPool","inputs":[{"name":"underlyingAsset","type":"address","internalType":"address"},{"name":"pricefeedAddress","type":"address","internalType":"address"}],"outputs":[{"name":"pool","type":"address","internalType":"address"}],"stateMutability":"nonpayable"},{"type":"function","name":"getPoolAddress","inputs":[{"name":"underlyingToken","type":"address","internalType":"address"}],"outputs":[{"name":"","type":"address","internalType":"address"}],"stateMutability":"view"},{"type":"function","name":"owner","inputs":[],"outputs":[{"name":"","type":"address","internalType":"address"}],"stateMutability":"view"},{"type":"function","name":"renounceOwnership","inputs":[],"outputs":[],"stateMutability":"nonpayable"},{"type":"function","name":"setRouter","inputs":[{"name":"router","type":"address","internalType":"address"}],"outputs":[],"stateMutability":"nonpayable"},{"type":"function","name":"transferOwnership","inputs":[{"name":"newOwner","type":"address","internalType":"address"}],"outputs":[],"stateMutability":"nonpayable"},{"type":"event","name":"OwnershipTransferred","inputs":[{"name":"previousOwner","type":"address","indexed":true,"internalType":"address"},{"name":"newOwner","type":"address","indexed":true,"internalType":"address"}],"anonymous":false},{"type":"event","name":"PoolCreated","inputs":[{"name":"token0","type":"address","indexed":true,"internalType":"address"},{"name":"pool","type":"address","indexed":false,"internalType":"address"},{"name":"","type":"uint256","indexed":false,"internalType":"uint256"}],"anonymous":false},{"type":"error","name":"Factory__PoolCreationFailed","inputs":[]},{"type":"error","name":"Factory__PoolExists","inputs":[]},{"type":"error","name":"Factory__ZeroAddress","inputs":[]},{"type":"error","name":"OwnableInvalidOwner","inputs":[{"name":"owner","type":"address","internalType":"address"}]},{"type":"error","name":"OwnableUnauthorizedAccount","inputs":[{"name":"account","type":"address","internalType":"address"}]}],"bytecode":{"object":"0x6080604052348015600f57600080fd5b503380603557604051631e4fbdf760e01b81526000600482015260240160405180910390fd5b603c816041565b506091565b600080546001600160a01b038381166001600160a01b0319831681178455604051919092169283917f8be0079c531659141344cd1fd0a4f28419497f9722a3daafe3b4186f6b6457e09190a35050565b611a0f806100a06000396000f3fe608060405234801561001057600080fd5b50600436106100885760003560e01c80638da5cb5b1161005b5780638da5cb5b14610104578063c0d7865514610115578063e343361514610128578063f2fde38b1461013b57600080fd5b80631228cbee1461008d57806341d1de97146100d6578063574f2ba3146100e9578063715018a6146100fa575b600080fd5b6100b961009b366004610467565b6001600160a01b039081166000908152600160205260409020541690565b6040516001600160a01b0390911681526020015b60405180910390f35b6100b96100e4366004610489565b61014e565b6003546040519081526020016100cd565b610102610178565b005b6000546001600160a01b03166100b9565b610102610123366004610467565b61018c565b6100b96101363660046104a2565b6101c3565b610102610149366004610467565b610381565b6003818154811061015e57600080fd5b6000918252602090912001546001600160a01b0316905081565b6101806103c1565b61018a60006103ee565b565b6101946103c1565b6002546001600160a01b03166101c057600280546001600160a01b0319166001600160a01b0383161790555b50565b60006001600160a01b0383166101ec57604051634b46d9cd60e11b815260040160405180910390fd5b6001600160a01b038381166000908152600160205260409020541615610225576040516312e0598f60e01b815260040160405180910390fd5b6000604051806020016102379061043e565b601f1982820381018352601f909101166040819052600254606087811b6bffffffffffffffffffffffff19908116602085015287821b8116603485015291901b166048820152909150600090605c016040516020818303038152906040528051906020012090508082516020840160fff592506001600160a01b0383166102d1576040516309f1533960e31b815260040160405180910390fd5b6001600160a01b0385811660008181526001602081815260408084208054968a166001600160a01b03199788168117909155600380549485018155948590527fc2575a0e9e593c00f959f8c92f12db2869c3395a3b0502d05e2516446f71f85b90930180549096168317909555915484519182529181019190915290917ff8a0462f666b427ea753848be7e91f9ce413975906f6f39950be296ca9a4d524910160405180910390a2505092915050565b6103896103c1565b6001600160a01b0381166103b857604051631e4fbdf760e01b8152600060048201526024015b60405180910390fd5b6101c0816103ee565b6000546001600160a01b0316331461018a5760405163118cdaa760e01b81523360048201526024016103af565b600080546001600160a01b038381166001600160a01b0319831681178455604051919092169283917f8be0079c531659141344cd1fd0a4f28419497f9722a3daafe3b4186f6b6457e09190a35050565b611504806104d683390190565b80356001600160a01b038116811461046257600080fd5b919050565b60006020828403121561047957600080fd5b6104828261044b565b9392505050565b60006020828403121561049b57600080fd5b5035919050565b600080604083850312156104b557600080fd5b6104be8361044b565b91506104cc6020840161044b565b9050925092905056fe61012060405234801561001157600080fd5b50604051611504380380611504833981016040819052610030916100b2565b6001600160a01b0383166080523360a05260405161004d90610089565b604051809103906000f080158015610069573d6000803e3d6000fd5b506001600160a01b0390811660c05291821660e0521661010052506100f5565b610c07806108fd83390190565b80516001600160a01b03811681146100ad57600080fd5b919050565b6000806000606084860312156100c757600080fd5b6100d084610096565b92506100de60208501610096565b91506100ec60408501610096565b90509250925092565b60805160a05160c05160e051610100516107aa61015360003960006101bb01526000818161018c01528181610240015281816102c801528181610381015261046601526000608f015260006101530152600060ce01526107aa6000f3fe608060405234801561001057600080fd5b50600436106100885760003560e01c80639b56d6c91161005b5780639b56d6c914610128578063a32cf53614610151578063cb8284d014610177578063e0abca0b1461018a57600080fd5b8063129457211461008d5780631ba46cfd146100cc57806362fb2e84146100f2578063877db9dd14610107575b600080fd5b7f00000000000000000000000000000000000000000000000000000000000000005b6040516001600160a01b0390911681526020015b60405180910390f35b7f00000000000000000000000000000000000000000000000000000000000000006100af565b61010561010036600461051f565b6101b0565b005b61011a610115366004610549565b61023b565b6040519081526020016100c3565b61011a610136366004610549565b6001600160a01b031660009081526020819052604090205490565b7f00000000000000000000000000000000000000000000000000000000000000006100af565b61011a61018536600461051f565b610461565b7f00000000000000000000000000000000000000000000000000000000000000006100af565b336001600160a01b037f000000000000000000000000000000000000000000000000000000000000000016146102375760405162461bcd60e51b815260206004820152602260248201527f4f6e6c7920526f757465722063616e2063616c6c20746869732066756e63746960448201526137b760f11b606482015260840160405180910390fd5b5050565b6000807f00000000000000000000000000000000000000000000000000000000000000006001600160a01b031663feaf968c6040518163ffffffff1660e01b815260040160a060405180830381865afa15801561029c573d6000803e3d6000fd5b505050506040513d601f19601f820116820180604052508101906102c0919061057e565b5050509150507f00000000000000000000000000000000000000000000000000000000000000006001600160a01b031663313ce5676040518163ffffffff1660e01b8152600401602060405180830381865afa158015610324573d6000803e3d6000fd5b505050506040513d601f19601f8201168201806040525081019061034891906105ce565b60ff1660120361037d576001600160a01b038316600090815260208190526040902054610376908290610607565b9392505050565b60007f00000000000000000000000000000000000000000000000000000000000000006001600160a01b031663313ce5676040518163ffffffff1660e01b8152600401602060405180830381865afa1580156103dd573d6000803e3d6000fd5b505050506040513d601f19601f8201168201806040525081019061040191906105ce565b61040c90601261061e565b9050670de0b6b3a764000061042282600a61071b565b61042c9084610607565b6001600160a01b03861660009081526020819052604090205461044f9190610607565b610459919061072a565b949350505050565b6000807f00000000000000000000000000000000000000000000000000000000000000006001600160a01b031663313ce5676040518163ffffffff1660e01b8152600401602060405180830381865afa1580156104c2573d6000803e3d6000fd5b505050506040513d601f19601f820116820180604052508101906104e691906105ce565b6104f190601261061e565b90505092915050565b90505b92915050565b80356001600160a01b038116811461051a57600080fd5b919050565b6000806040838503121561053257600080fd5b61053b83610503565b946020939093013593505050565b60006020828403121561055b57600080fd5b6104fa82610503565b805169ffffffffffffffffffff8116811461051a57600080fd5b600080600080600060a0868803121561059657600080fd5b61059f86610564565b94506020860151935060408601519250606086015191506105c260808701610564565b90509295509295909350565b6000602082840312156105e057600080fd5b815160ff8116811461037657600080fd5b634e487b7160e01b600052601160045260246000fd5b80820281158282048414176104fd576104fd6105f1565b60ff82811682821603908111156104fd576104fd6105f1565b600181815b80851115610672578160001904821115610658576106586105f1565b8085161561066557918102915b93841c939080029061063c565b509250929050565b600082610689575060016104fd565b81610696575060006104fd565b81600181146106ac57600281146106b6576106d2565b60019150506104fd565b60ff8411156106c7576106c76105f1565b50506001821b6104fd565b5060208310610133831016604e8410600b84101617156106f5575081810a6104fd565b6106ff8383610637565b8060001904821115610713576107136105f1565b029392505050565b60006104fa60ff84168361067a565b60008261074757634e487b7160e01b600052601260045260246000fd5b500490565b81811015610766576020818601810151858301520161074c565b50600092019182525091905056fea264697066735822122047206f780fe12b2cacf2053444edf952073855e0cf3420826cc355c48fb0fbf064736f6c63430008190033608060405234801561001057600080fd5b50336040518060400160405280600d81526020016c5468654c656e64546f6b656e7360981b815250604051806040016040528060078152602001664c546f6b656e7360c81b815250816003908161006791906101a7565b50600461007482826101a7565b5050506001600160a01b0381166100a557604051631e4fbdf760e01b81526000600482015260240160405180910390fd5b6100ae816100b4565b50610266565b600580546001600160a01b038381166001600160a01b0319831681179093556040519116919082907f8be0079c531659141344cd1fd0a4f28419497f9722a3daafe3b4186f6b6457e090600090a35050565b634e487b7160e01b600052604160045260246000fd5b600181811c9082168061013057607f821691505b60208210810361015057634e487b7160e01b600052602260045260246000fd5b50919050565b601f8211156101a2576000816000526020600020601f850160051c8101602086101561017f5750805b601f850160051c820191505b8181101561019e5782815560010161018b565b5050505b505050565b81516001600160401b038111156101c0576101c0610106565b6101d4816101ce845461011c565b84610156565b602080601f83116001811461020957600084156101f15750858301515b600019600386901b1c1916600185901b17855561019e565b600085815260208120601f198616915b8281101561023857888601518255948401946001909101908401610219565b50858210156102565787850151600019600388901b60f8161c191681555b5050505050600190811b01905550565b610992806102756000396000f3fe608060405234801561001057600080fd5b50600436106100f55760003560e01c806370a082311161009757806395d89b411161006657806395d89b41146101f6578063a9059cbb146101fe578063dd62ed3e14610211578063f2fde38b1461024a57600080fd5b806370a0823114610197578063715018a6146101c057806379cc6790146101c85780638da5cb5b146101db57600080fd5b806323b872dd116100d357806323b872dd1461014d578063313ce5671461016057806340c10f191461016f57806342966c681461018257600080fd5b806306fdde03146100fa578063095ea7b31461011857806318160ddd1461013b575b600080fd5b61010261025d565b60405161010f91906107c2565b60405180910390f35b61012b61012636600461082d565b6102ef565b604051901515815260200161010f565b6002545b60405190815260200161010f565b61012b61015b366004610857565b610309565b6040516012815260200161010f565b61012b61017d36600461082d565b61032d565b610195610190366004610893565b61034a565b005b61013f6101a53660046108ac565b6001600160a01b031660009081526020819052604090205490565b61019561035f565b6101956101d636600461082d565b610373565b6005546040516001600160a01b03909116815260200161010f565b61010261038c565b61012b61020c36600461082d565b61039b565b61013f61021f3660046108ce565b6001600160a01b03918216600090815260016020908152604080832093909416825291909152205490565b6101956102583660046108ac565b6103a9565b60606003805461026c90610901565b80601f016020809104026020016040519081016040528092919081815260200182805461029890610901565b80156102e55780601f106102ba576101008083540402835291602001916102e5565b820191906000526020600020905b8154815290600101906020018083116102c857829003601f168201915b5050505050905090565b6000336102fd8185856103e9565b60019150505b92915050565b6000336103178582856103fb565b610322858585610479565b506001949350505050565b60006103376104d8565b6103418383610505565b50600192915050565b6103526104d8565b61035c338261053b565b50565b6103676104d8565b6103716000610571565b565b61037e8233836103fb565b610388828261053b565b5050565b60606004805461026c90610901565b6000336102fd818585610479565b6103b16104d8565b6001600160a01b0381166103e057604051631e4fbdf760e01b8152600060048201526024015b60405180910390fd5b61035c81610571565b6103f683838360016105c3565b505050565b6001600160a01b038381166000908152600160209081526040808320938616835292905220546000198114610473578181101561046457604051637dc7a0d960e11b81526001600160a01b038416600482015260248101829052604481018390526064016103d7565b610473848484840360006105c3565b50505050565b6001600160a01b0383166104a357604051634b637e8f60e11b8152600060048201526024016103d7565b6001600160a01b0382166104cd5760405163ec442f0560e01b8152600060048201526024016103d7565b6103f6838383610698565b6005546001600160a01b031633146103715760405163118cdaa760e01b81523360048201526024016103d7565b6001600160a01b03821661052f5760405163ec442f0560e01b8152600060048201526024016103d7565b61038860008383610698565b6001600160a01b03821661056557604051634b637e8f60e11b8152600060048201526024016103d7565b61038882600083610698565b600580546001600160a01b038381166001600160a01b0319831681179093556040519116919082907f8be0079c531659141344cd1fd0a4f28419497f9722a3daafe3b4186f6b6457e090600090a35050565b6001600160a01b0384166105ed5760405163e602df0560e01b8152600060048201526024016103d7565b6001600160a01b03831661061757604051634a1406b160e11b8152600060048201526024016103d7565b6001600160a01b038085166000908152600160209081526040808320938716835292905220829055801561047357826001600160a01b0316846001600160a01b03167f8c5be1e5ebec7d5bd14f71427d1e84f3dd0314c0f7b2291e5b200ac8c7c3b9258460405161068a91815260200190565b60405180910390a350505050565b6001600160a01b0383166106c35780600260008282546106b8919061093b565b909155506107359050565b6001600160a01b038316600090815260208190526040902054818110156107165760405163391434e360e21b81526001600160a01b038516600482015260248101829052604481018390526064016103d7565b6001600160a01b03841660009081526020819052604090209082900390555b6001600160a01b03821661075157600280548290039055610770565b6001600160a01b03821660009081526020819052604090208054820190555b816001600160a01b0316836001600160a01b03167fddf252ad1be2c89b69c2b068fc378daa952ba7f163c4a11628f55a4df523b3ef836040516107b591815260200190565b60405180910390a3505050565b60006020808352835180602085015260005b818110156107f0578581018301518582016040015282016107d4565b506000604082860101526040601f19601f8301168501019250505092915050565b80356001600160a01b038116811461082857600080fd5b919050565b6000806040838503121561084057600080fd5b61084983610811565b946020939093013593505050565b60008060006060848603121561086c57600080fd5b61087584610811565b925061088360208501610811565b9150604084013590509250925092565b6000602082840312156108a557600080fd5b5035919050565b6000602082840312156108be57600080fd5b6108c782610811565b9392505050565b600080604083850312156108e157600080fd5b6108ea83610811565b91506108f860208401610811565b90509250929050565b600181811c9082168061091557607f821691505b60208210810361093557634e487b7160e01b600052602260045260246000fd5b50919050565b8082018082111561030357634e487b7160e01b600052601160045260246000fdfea2646970667358221220f71a37a571e622bfcf5f19822023b0f988448ff09decfccbcc6d0774c35823f764736f6c63430008190033a26469706673582212207f204b5e82be11a3536214afa448015a93bc868260afa3fbe9f451a7f058857a64736f6c63430008190033","linkReferences":{}},"methodIdentifiers":{"allPairsLength()":"574f2ba3","allPools(uint256)":"41d1de97","createPool(address,address)":"e3433615","getPoolAddress(address)":"1228cbee","owner()":"8da5cb5b","renounceOwnership()":"715018a6","setRouter(address)":"c0d78655","transferOwnership(address)":"f2fde38b"},"id":1}