{"abi":[{"type":"constructor","inputs":[{"name":"decimal","type":"uint8","internalType":"uint8"},{"name":"_initialAnswer","type":"int256","internalType":"int256"}],"stateMutability":"nonpayable"},{"type":"function","name":"Decimals","inputs":[],"outputs":[{"name":"","type":"uint8","internalType":"uint8"}],"stateMutability":"view"},{"type":"function","name":"decimals","inputs":[],"outputs":[{"name":"","type":"uint8","internalType":"uint8"}],"stateMutability":"view"},{"type":"function","name":"description","inputs":[],"outputs":[{"name":"","type":"string","internalType":"string"}],"stateMutability":"pure"},{"type":"function","name":"getAnswer","inputs":[{"name":"","type":"uint256","internalType":"uint256"}],"outputs":[{"name":"","type":"int256","internalType":"int256"}],"stateMutability":"view"},{"type":"function","name":"getRoundData","inputs":[{"name":"_roundId","type":"uint80","internalType":"uint80"}],"outputs":[{"name":"roundId","type":"uint80","internalType":"uint80"},{"name":"answer","type":"int256","internalType":"int256"},{"name":"startedAt","type":"uint256","internalType":"uint256"},{"name":"updatedAt","type":"uint256","internalType":"uint256"},{"name":"answeredInRound","type":"uint80","internalType":"uint80"}],"stateMutability":"view"},{"type":"function","name":"getTimestamp","inputs":[{"name":"","type":"uint256","internalType":"uint256"}],"outputs":[{"name":"","type":"uint256","internalType":"uint256"}],"stateMutability":"view"},{"type":"function","name":"latestAnswer","inputs":[],"outputs":[{"name":"","type":"int256","internalType":"int256"}],"stateMutability":"view"},{"type":"function","name":"latestRound","inputs":[],"outputs":[{"name":"","type":"uint256","internalType":"uint256"}],"stateMutability":"view"},{"type":"function","name":"latestRoundData","inputs":[],"outputs":[{"name":"roundId","type":"uint80","internalType":"uint80"},{"name":"answer","type":"int256","internalType":"int256"},{"name":"startedAt","type":"uint256","internalType":"uint256"},{"name":"updatedAt","type":"uint256","internalType":"uint256"},{"name":"answeredInRound","type":"uint80","internalType":"uint80"}],"stateMutability":"view"},{"type":"function","name":"latestTimestamp","inputs":[],"outputs":[{"name":"","type":"uint256","internalType":"uint256"}],"stateMutability":"view"},{"type":"function","name":"updateAnswer","inputs":[{"name":"_answer","type":"int256","internalType":"int256"}],"outputs":[],"stateMutability":"nonpayable"},{"type":"function","name":"updateRoundData","inputs":[{"name":"_roundId","type":"uint80","internalType":"uint80"},{"name":"_answer","type":"int256","internalType":"int256"},{"name":"_timestamp","type":"uint256","internalType":"uint256"},{"name":"_startedAt","type":"uint256","internalType":"uint256"}],"outputs":[],"stateMutability":"nonpayable"},{"type":"function","name":"version","inputs":[],"outputs":[{"name":"","type":"uint256","internalType":"uint256"}],"stateMutability":"view"},{"type":"event","name":"AnswerUpdated","inputs":[{"name":"current","type":"int256","indexed":true,"internalType":"int256"},{"name":"roundId","type":"uint256","indexed":true,"internalType":"uint256"},{"name":"updatedAt","type":"uint256","indexed":false,"internalType":"uint256"}],"anonymous":false},{"type":"event","name":"NewRound","inputs":[{"name":"roundId","type":"uint256","indexed":true,"internalType":"uint256"},{"name":"startedBy","type":"address","indexed":true,"internalType":"address"},{"name":"startedAt","type":"uint256","indexed":false,"internalType":"uint256"}],"anonymous":false}],"bytecode":{"object":"0x608060405234801561000f575f5ffd5b50604051610a93380380610a9383398181016040528101906100319190610141565b8181815f5f6101000a81548160ff021916908360ff16021790555061005b8161006460201b60201c565b505050506101fc565b806001819055504260028190555060035f815480929190610084906101b5565b91905055508060045f60035481526020019081526020015f20819055504260055f60035481526020019081526020015f20819055504260065f60035481526020019081526020015f208190555050565b5f5ffd5b5f60ff82169050919050565b6100ed816100d8565b81146100f7575f5ffd5b50565b5f81519050610108816100e4565b92915050565b5f819050919050565b6101208161010e565b811461012a575f5ffd5b50565b5f8151905061013b81610117565b92915050565b5f5f60408385031215610157576101566100d4565b5b5f610164858286016100fa565b92505060206101758582860161012d565b9150509250929050565b7f4e487b71000000000000000000000000000000000000000000000000000000005f52601160045260245ffd5b5f819050919050565b5f6101bf826101ac565b91507fffffffffffffffffffffffffffffffffffffffffffffffffffffffffffffffff82036101f1576101f061017f565b5b600182019050919050565b61088a806102095f395ff3fe608060405234801561000f575f5ffd5b50600436106100cd575f3560e01c80638205bf6a1161008a578063b5ab58dc11610064578063b5ab58dc146101f1578063b633620c14610221578063c6ceb50b14610251578063feaf968c1461026f576100cd565b80638205bf6a146101835780639a6fc8f5146101a1578063a87a20ce146101d5576100cd565b8063313ce567146100d15780634aa2011f146100ef57806350d25bcd1461010b57806354fd4d5014610129578063668a0f02146101475780637284e41614610165575b5f5ffd5b6100d9610291565b6040516100e691906104f9565b60405180910390f35b610109600480360381019061010491906105bb565b6102a2565b005b610113610311565b604051610120919061062e565b60405180910390f35b610131610317565b60405161013e9190610656565b60405180910390f35b61014f61031b565b60405161015c9190610656565b60405180910390f35b61016d610321565b60405161017a91906106df565b60405180910390f35b61018b61035e565b6040516101989190610656565b60405180910390f35b6101bb60048036038101906101b691906106ff565b610364565b6040516101cc959493929190610739565b60405180910390f35b6101ef60048036038101906101ea919061078a565b6103d8565b005b61020b600480360381019061020691906107b5565b610448565b604051610218919061062e565b60405180910390f35b61023b600480360381019061023691906107b5565b61045d565b6040516102489190610656565b60405180910390f35b610259610472565b60405161026691906104f9565b60405180910390f35b610277610486565b604051610288959493929190610739565b60405180910390f35b5f5f9054906101000a900460ff1681565b8369ffffffffffffffffffff1660038190555082600181905550816002819055508260045f60035481526020019081526020015f20819055508160055f60035481526020019081526020015f20819055508060065f60035481526020019081526020015f208190555050505050565b60015481565b5f81565b60035481565b60606040518060400160405280601f81526020017f76302e382f74657374732f4d6f636b563341676772656761746f722e736f6c00815250905090565b60025481565b5f5f5f5f5f8560045f8869ffffffffffffffffffff1681526020019081526020015f205460065f8969ffffffffffffffffffff1681526020019081526020015f205460055f8a69ffffffffffffffffffff1681526020019081526020015f2054899450945094509450945091939590929450565b806001819055504260028190555060035f8154809291906103f89061080d565b91905055508060045f60035481526020019081526020015f20819055504260055f60035481526020019081526020015f20819055504260065f60035481526020019081526020015f208190555050565b6004602052805f5260405f205f915090505481565b6005602052805f5260405f205f915090505481565b5f5f5f9054906101000a900460ff16905090565b5f5f5f5f5f60035460045f60035481526020019081526020015f205460065f60035481526020019081526020015f205460055f60035481526020019081526020015f2054600354945094509450945094509091929394565b5f60ff82169050919050565b6104f3816104de565b82525050565b5f60208201905061050c5f8301846104ea565b92915050565b5f5ffd5b5f69ffffffffffffffffffff82169050919050565b61053481610516565b811461053e575f5ffd5b50565b5f8135905061054f8161052b565b92915050565b5f819050919050565b61056781610555565b8114610571575f5ffd5b50565b5f813590506105828161055e565b92915050565b5f819050919050565b61059a81610588565b81146105a4575f5ffd5b50565b5f813590506105b581610591565b92915050565b5f5f5f5f608085870312156105d3576105d2610512565b5b5f6105e087828801610541565b94505060206105f187828801610574565b9350506040610602878288016105a7565b9250506060610613878288016105a7565b91505092959194509250565b61062881610555565b82525050565b5f6020820190506106415f83018461061f565b92915050565b61065081610588565b82525050565b5f6020820190506106695f830184610647565b92915050565b5f81519050919050565b5f82825260208201905092915050565b8281835e5f83830152505050565b5f601f19601f8301169050919050565b5f6106b18261066f565b6106bb8185610679565b93506106cb818560208601610689565b6106d481610697565b840191505092915050565b5f6020820190508181035f8301526106f781846106a7565b905092915050565b5f6020828403121561071457610713610512565b5b5f61072184828501610541565b91505092915050565b61073381610516565b82525050565b5f60a08201905061074c5f83018861072a565b610759602083018761061f565b6107666040830186610647565b6107736060830185610647565b610780608083018461072a565b9695505050505050565b5f6020828403121561079f5761079e610512565b5b5f6107ac84828501610574565b91505092915050565b5f602082840312156107ca576107c9610512565b5b5f6107d7848285016105a7565b91505092915050565b7f4e487b71000000000000000000000000000000000000000000000000000000005f52601160045260245ffd5b5f61081782610588565b91507fffffffffffffffffffffffffffffffffffffffffffffffffffffffffffffffff8203610849576108486107e0565b5b60018201905091905056fea2646970667358221220fe73196dff43759514cb40877de111fb35b47a3b6d1007645f8ab238e8e2751964736f6c634300081b0033","linkReferences":{}},"methodIdentifiers":{"Decimals()":"c6ceb50b","decimals()":"313ce567","description()":"7284e416","getAnswer(uint256)":"b5ab58dc","getRoundData(uint80)":"9a6fc8f5","getTimestamp(uint256)":"b633620c","latestAnswer()":"50d25bcd","latestRound()":"668a0f02","latestRoundData()":"feaf968c","latestTimestamp()":"8205bf6a","updateAnswer(int256)":"a87a20ce","updateRoundData(uint80,int256,uint256,uint256)":"4aa2011f","version()":"54fd4d50"},"id":0}