{"abi":[{"type":"constructor","inputs":[{"name":"decimal","type":"uint8","internalType":"uint8"},{"name":"_initialAnswer","type":"int256","internalType":"int256"}],"stateMutability":"nonpayable"},{"type":"function","name":"Decimals","inputs":[],"outputs":[{"name":"","type":"uint8","internalType":"uint8"}],"stateMutability":"view"},{"type":"function","name":"decimals","inputs":[],"outputs":[{"name":"","type":"uint8","internalType":"uint8"}],"stateMutability":"view"},{"type":"function","name":"description","inputs":[],"outputs":[{"name":"","type":"string","internalType":"string"}],"stateMutability":"pure"},{"type":"function","name":"getAnswer","inputs":[{"name":"","type":"uint256","internalType":"uint256"}],"outputs":[{"name":"","type":"int256","internalType":"int256"}],"stateMutability":"view"},{"type":"function","name":"getRoundData","inputs":[{"name":"_roundId","type":"uint80","internalType":"uint80"}],"outputs":[{"name":"roundId","type":"uint80","internalType":"uint80"},{"name":"answer","type":"int256","internalType":"int256"},{"name":"startedAt","type":"uint256","internalType":"uint256"},{"name":"updatedAt","type":"uint256","internalType":"uint256"},{"name":"answeredInRound","type":"uint80","internalType":"uint80"}],"stateMutability":"view"},{"type":"function","name":"getTimestamp","inputs":[{"name":"","type":"uint256","internalType":"uint256"}],"outputs":[{"name":"","type":"uint256","internalType":"uint256"}],"stateMutability":"view"},{"type":"function","name":"latestAnswer","inputs":[],"outputs":[{"name":"","type":"int256","internalType":"int256"}],"stateMutability":"view"},{"type":"function","name":"latestRound","inputs":[],"outputs":[{"name":"","type":"uint256","internalType":"uint256"}],"stateMutability":"view"},{"type":"function","name":"latestRoundData","inputs":[],"outputs":[{"name":"roundId","type":"uint80","internalType":"uint80"},{"name":"answer","type":"int256","internalType":"int256"},{"name":"startedAt","type":"uint256","internalType":"uint256"},{"name":"updatedAt","type":"uint256","internalType":"uint256"},{"name":"answeredInRound","type":"uint80","internalType":"uint80"}],"stateMutability":"view"},{"type":"function","name":"latestTimestamp","inputs":[],"outputs":[{"name":"","type":"uint256","internalType":"uint256"}],"stateMutability":"view"},{"type":"function","name":"updateAnswer","inputs":[{"name":"_answer","type":"int256","internalType":"int256"}],"outputs":[],"stateMutability":"nonpayable"},{"type":"function","name":"updateRoundData","inputs":[{"name":"_roundId","type":"uint80","internalType":"uint80"},{"name":"_answer","type":"int256","internalType":"int256"},{"name":"_timestamp","type":"uint256","internalType":"uint256"},{"name":"_startedAt","type":"uint256","internalType":"uint256"}],"outputs":[],"stateMutability":"nonpayable"},{"type":"function","name":"version","inputs":[],"outputs":[{"name":"","type":"uint256","internalType":"uint256"}],"stateMutability":"view"},{"type":"event","name":"AnswerUpdated","inputs":[{"name":"current","type":"int256","indexed":true,"internalType":"int256"},{"name":"roundId","type":"uint256","indexed":true,"internalType":"uint256"},{"name":"updatedAt","type":"uint256","indexed":false,"internalType":"uint256"}],"anonymous":false},{"type":"event","name":"NewRound","inputs":[{"name":"roundId","type":"uint256","indexed":true,"internalType":"uint256"},{"name":"startedBy","type":"address","indexed":true,"internalType":"address"},{"name":"startedAt","type":"uint256","indexed":false,"internalType":"uint256"}],"anonymous":false}],"bytecode":{"object":"0x608060405234801561001057600080fd5b50604051610b17380380610b1783398181016040528101906100329190610151565b8181816000806101000a81548160ff021916908360ff16021790555061005d8161006660201b60201c565b50505050610212565b806001819055504260028190555060036000815480929190610087906101ca565b919050555080600460006003548152602001908152602001600020819055504260056000600354815260200190815260200160002081905550426006600060035481526020019081526020016000208190555050565b600080fd5b600060ff82169050919050565b6100f8816100e2565b811461010357600080fd5b50565b600081519050610115816100ef565b92915050565b6000819050919050565b61012e8161011b565b811461013957600080fd5b50565b60008151905061014b81610125565b92915050565b60008060408385031215610168576101676100dd565b5b600061017685828601610106565b92505060206101878582860161013c565b9150509250929050565b7f4e487b7100000000000000000000000000000000000000000000000000000000600052601160045260246000fd5b6000819050919050565b60006101d5826101c0565b91507fffffffffffffffffffffffffffffffffffffffffffffffffffffffffffffffff820361020757610206610191565b5b600182019050919050565b6108f6806102216000396000f3fe608060405234801561001057600080fd5b50600436106100cf5760003560e01c80638205bf6a1161008c578063b5ab58dc11610066578063b5ab58dc146101f4578063b633620c14610224578063c6ceb50b14610254578063feaf968c14610272576100cf565b80638205bf6a146101865780639a6fc8f5146101a4578063a87a20ce146101d8576100cf565b8063313ce567146100d45780634aa2011f146100f257806350d25bcd1461010e57806354fd4d501461012c578063668a0f021461014a5780637284e41614610168575b600080fd5b6100dc610294565b6040516100e99190610525565b60405180910390f35b61010c600480360381019061010791906105f3565b6102a5565b005b61011661031a565b6040516101239190610669565b60405180910390f35b610134610320565b6040516101419190610693565b60405180910390f35b610152610325565b60405161015f9190610693565b60405180910390f35b61017061032b565b60405161017d919061073e565b60405180910390f35b61018e610368565b60405161019b9190610693565b60405180910390f35b6101be60048036038101906101b99190610760565b61036e565b6040516101cf95949392919061079c565b60405180910390f35b6101f260048036038101906101ed91906107ef565b6103eb565b005b61020e6004803603810190610209919061081c565b610462565b60405161021b9190610669565b60405180910390f35b61023e6004803603810190610239919061081c565b61047a565b60405161024b9190610693565b60405180910390f35b61025c610492565b6040516102699190610525565b60405180910390f35b61027a6104a8565b60405161028b95949392919061079c565b60405180910390f35b60008054906101000a900460ff1681565b8369ffffffffffffffffffff16600381905550826001819055508160028190555082600460006003548152602001908152602001600020819055508160056000600354815260200190815260200160002081905550806006600060035481526020019081526020016000208190555050505050565b60015481565b600081565b60035481565b60606040518060400160405280601f81526020017f76302e382f74657374732f4d6f636b563341676772656761746f722e736f6c00815250905090565b60025481565b600080600080600085600460008869ffffffffffffffffffff16815260200190815260200160002054600660008969ffffffffffffffffffff16815260200190815260200160002054600560008a69ffffffffffffffffffff16815260200190815260200160002054899450945094509450945091939590929450565b80600181905550426002819055506003600081548092919061040c90610878565b919050555080600460006003548152602001908152602001600020819055504260056000600354815260200190815260200160002081905550426006600060035481526020019081526020016000208190555050565b60046020528060005260406000206000915090505481565b60056020528060005260406000206000915090505481565b60008060009054906101000a900460ff16905090565b6000806000806000600354600460006003548152602001908152602001600020546006600060035481526020019081526020016000205460056000600354815260200190815260200160002054600354945094509450945094509091929394565b600060ff82169050919050565b61051f81610509565b82525050565b600060208201905061053a6000830184610516565b92915050565b600080fd5b600069ffffffffffffffffffff82169050919050565b61056481610545565b811461056f57600080fd5b50565b6000813590506105818161055b565b92915050565b6000819050919050565b61059a81610587565b81146105a557600080fd5b50565b6000813590506105b781610591565b92915050565b6000819050919050565b6105d0816105bd565b81146105db57600080fd5b50565b6000813590506105ed816105c7565b92915050565b6000806000806080858703121561060d5761060c610540565b5b600061061b87828801610572565b945050602061062c878288016105a8565b935050604061063d878288016105de565b925050606061064e878288016105de565b91505092959194509250565b61066381610587565b82525050565b600060208201905061067e600083018461065a565b92915050565b61068d816105bd565b82525050565b60006020820190506106a86000830184610684565b92915050565b600081519050919050565b600082825260208201905092915050565b60005b838110156106e85780820151818401526020810190506106cd565b60008484015250505050565b6000601f19601f8301169050919050565b6000610710826106ae565b61071a81856106b9565b935061072a8185602086016106ca565b610733816106f4565b840191505092915050565b600060208201905081810360008301526107588184610705565b905092915050565b60006020828403121561077657610775610540565b5b600061078484828501610572565b91505092915050565b61079681610545565b82525050565b600060a0820190506107b1600083018861078d565b6107be602083018761065a565b6107cb6040830186610684565b6107d86060830185610684565b6107e5608083018461078d565b9695505050505050565b60006020828403121561080557610804610540565b5b6000610813848285016105a8565b91505092915050565b60006020828403121561083257610831610540565b5b6000610840848285016105de565b91505092915050565b7f4e487b7100000000000000000000000000000000000000000000000000000000600052601160045260246000fd5b6000610883826105bd565b91507fffffffffffffffffffffffffffffffffffffffffffffffffffffffffffffffff82036108b5576108b4610849565b5b60018201905091905056fea2646970667358221220efd9118708e54d1d87f8967137045bb700c7be46594bfe50a736503cef133f8d64736f6c63430008190033","linkReferences":{}},"methodIdentifiers":{"Decimals()":"c6ceb50b","decimals()":"313ce567","description()":"7284e416","getAnswer(uint256)":"b5ab58dc","getRoundData(uint80)":"9a6fc8f5","getTimestamp(uint256)":"b633620c","latestAnswer()":"50d25bcd","latestRound()":"668a0f02","latestRoundData()":"feaf968c","latestTimestamp()":"8205bf6a","updateAnswer(int256)":"a87a20ce","updateRoundData(uint80,int256,uint256,uint256)":"4aa2011f","version()":"54fd4d50"},"id":0}