{"abi":[{"type":"constructor","inputs":[{"name":"factory","type":"address","internalType":"address"},{"name":"tokenAddress","type":"address[2]","internalType":"address[2]"},{"name":"priceFeeds","type":"address[2]","internalType":"address[2]"},{"name":"lendToken","type":"address","internalType":"address"}],"stateMutability":"nonpayable"},{"type":"function","name":"depositLiquidity","inputs":[{"name":"tokenToDeposit","type":"address","internalType":"address"},{"name":"amount","type":"uint256","internalType":"uint256"}],"outputs":[],"stateMutability":"nonpayable"},{"type":"function","name":"flashLoan","inputs":[{"name":"token","type":"address","internalType":"address"},{"name":"amount","type":"uint256","internalType":"uint256"}],"outputs":[],"stateMutability":"nonpayable"},{"type":"function","name":"owner","inputs":[],"outputs":[{"name":"","type":"address","internalType":"address"}],"stateMutability":"view"},{"type":"function","name":"renounceOwnership","inputs":[],"outputs":[],"stateMutability":"nonpayable"},{"type":"function","name":"setPriceFeeds","inputs":[{"name":"underlyingToken","type":"address","internalType":"address"},{"name":"priceFeed","type":"address","internalType":"address"}],"outputs":[],"stateMutability":"nonpayable"},{"type":"function","name":"transferOwnership","inputs":[{"name":"newOwner","type":"address","internalType":"address"}],"outputs":[],"stateMutability":"nonpayable"},{"type":"function","name":"withdrawDepositedFunds","inputs":[{"name":"tokenToWithdraw","type":"address","internalType":"address"},{"name":"amount","type":"uint256","internalType":"uint256"},{"name":"depositId","type":"uint256","internalType":"uint256"}],"outputs":[],"stateMutability":"nonpayable"},{"type":"function","name":"withdrawMultipleDepositsSameAsset","inputs":[{"name":"tokensToWithdraw","type":"address","internalType":"address"},{"name":"depositIds","type":"uint256[]","internalType":"uint256[]"},{"name":"depositAmounts","type":"uint256[]","internalType":"uint256[]"}],"outputs":[],"stateMutability":"nonpayable"},{"type":"function","name":"withdrawTotalUserDeposit","inputs":[{"name":"tokenToWithdraw","type":"address","internalType":"address"}],"outputs":[],"stateMutability":"nonpayable"},{"type":"event","name":"OwnershipTransferred","inputs":[{"name":"previousOwner","type":"address","indexed":true,"internalType":"address"},{"name":"newOwner","type":"address","indexed":true,"internalType":"address"}],"anonymous":false},{"type":"error","name":"AddressEmptyCode","inputs":[{"name":"target","type":"address","internalType":"address"}]},{"type":"error","name":"AddressInsufficientBalance","inputs":[{"name":"account","type":"address","internalType":"address"}]},{"type":"error","name":"FailedInnerCall","inputs":[]},{"type":"error","name":"OwnableInvalidOwner","inputs":[{"name":"owner","type":"address","internalType":"address"}]},{"type":"error","name":"OwnableUnauthorizedAccount","inputs":[{"name":"account","type":"address","internalType":"address"}]},{"type":"error","name":"Router__AlreadyWithdrawnAmount","inputs":[]},{"type":"error","name":"Router__ZeroAddress","inputs":[]},{"type":"error","name":"SafeERC20FailedOperation","inputs":[{"name":"token","type":"address","internalType":"address"}]}],"bytecode":{"object":"0x60c060405234801561001057600080fd5b5060405161148238038061148283398101604081905261002f9161028d565b338061005557604051631e4fbdf760e01b81526000600482015260240160405180910390fd5b61005e8161019d565b506001600160a01b038416158061007c57506001600160a01b038116155b1561009a57604051632c5b83b960e01b815260040160405180910390fd5b6001600160a01b03808516608052811660a05260005b60028110156101935760008482600281106100cd576100cd6102e3565b60200201516001600160a01b03161480610106575060008382600281106100f6576100f66102e3565b60200201516001600160a01b0316145b1561012457604051632c5b83b960e01b815260040160405180910390fd5b828160028110610136576101366102e3565b602002015160016000868460028110610151576101516102e3565b602090810291909101516001600160a01b0390811683529082019290925260400160002080546001600160a01b031916929091169190911790556001016100b0565b50505050506102f9565b600080546001600160a01b038381166001600160a01b0319831681178455604051919092169283917f8be0079c531659141344cd1fd0a4f28419497f9722a3daafe3b4186f6b6457e09190a35050565b80516001600160a01b038116811461020457600080fd5b919050565b600082601f83011261021a57600080fd5b604080519081016001600160401b038111828210171561024a57634e487b7160e01b600052604160045260246000fd5b806040525080604084018581111561026157600080fd5b845b8181101561028257610274816101ed565b835260209283019201610263565b509195945050505050565b60008060008060c085870312156102a357600080fd5b6102ac856101ed565b93506102bb8660208701610209565b92506102ca8660608701610209565b91506102d860a086016101ed565b905092959194509250565b634e487b7160e01b600052603260045260246000fd5b60805160a05161112561035d6000396000818161033b0152818161059a0152818161082c01528181610aec0152610bd6015260008181610285015281816103630152818161049801528181610618015281816106d001526108b101526111256000f3fe608060405234801561001057600080fd5b50600436106100935760003560e01c8063715018a611610066578063715018a6146100e65780638da5cb5b146100ee5780639ab180381461010d5780639d9e465c14610120578063f2fde38b1461013357600080fd5b8063068f158d146100985780630a20af10146100ad57806339b41b4a146100c057806370b77c47146100d3575b600080fd5b6100ab6100a6366004610e6a565b610146565b005b6100ab6100bb366004610eef565b6101db565b6100ab6100ce366004610f72565b610231565b6100ab6100e1366004610f9e565b610444565b6100ab6105d1565b600054604080516001600160a01b039092168252519081900360200190f35b6100ab61011b366004610fd3565b6105e5565b6100ab61012e366004610f72565b61085d565b6100ab610141366004610fd3565b610a56565b61014e610a99565b6001600160a01b038216158061016b57506001600160a01b038116155b1561018957604051632c5b83b960e01b815260040160405180910390fd5b6001600160a01b03828116600090815260016020526040902054166101d7576001600160a01b03828116600090815260016020526040902080546001600160a01b0319169183169190911790555b5050565b60005b8381101561022957610221868484848181106101fc576101fc610ff0565b9050602002013587878581811061021557610215610ff0565b90506020020135610444565b6001016101de565b505050505050565b6001600160a01b0382161580610245575080155b1561026357604051632c5b83b960e01b815260040160405180910390fd5b60405163091465f760e11b81526001600160a01b0383811660048301526000917f000000000000000000000000000000000000000000000000000000000000000090911690631228cbee90602401602060405180830381865afa1580156102ce573d6000803e3d6000fd5b505050506040513d601f19601f820116820180604052508101906102f29190611006565b90506001600160a01b0381166103d5576001600160a01b03838116600081815260016020526040908190205490516311b5751760e11b81526004810192909252821660248201527f0000000000000000000000000000000000000000000000000000000000000000821660448201527f00000000000000000000000000000000000000000000000000000000000000009091169063236aea2e906064016020604051808303816000875af11580156103ae573d6000803e3d6000fd5b505050506040513d601f19601f820116820180604052508101906103d29190611006565b90505b6040516318becba160e21b8152336004820152602481018390526001600160a01b038216906362fb2e8490604401600060405180830381600087803b15801561041d57600080fd5b505af1158015610431573d6000803e3d6000fd5b5050505061043f3383610ac6565b505050565b6001600160a01b0383161580610458575081155b1561047657604051632c5b83b960e01b815260040160405180910390fd5b60405163091465f760e11b81526001600160a01b0384811660048301526000917f000000000000000000000000000000000000000000000000000000000000000090911690631228cbee90602401602060405180830381865afa1580156104e1573d6000803e3d6000fd5b505050506040513d601f19601f820116820180604052508101906105059190611006565b90506001600160a01b03811661052e57604051632c5b83b960e01b815260040160405180910390fd5b60405163ea999dff60e01b815233600482015260248101849052604481018390526001600160a01b0382169063ea999dff90606401600060405180830381600087803b15801561057d57600080fd5b505af1158015610591573d6000803e3d6000fd5b505050506105c17f0000000000000000000000000000000000000000000000000000000000000000333086610b59565b6105cb3384610bc0565b50505050565b6105d9610a99565b6105e36000610c36565b565b6001600160a01b0381161580610690575060405163091465f760e11b81526001600160a01b0382811660048301526000917f000000000000000000000000000000000000000000000000000000000000000090911690631228cbee90602401602060405180830381865afa158015610661573d6000803e3d6000fd5b505050506040513d601f19601f820116820180604052508101906106859190611006565b6001600160a01b0316145b156106ae57604051632c5b83b960e01b815260040160405180910390fd5b60405163091465f760e11b81526001600160a01b0382811660048301526000917f000000000000000000000000000000000000000000000000000000000000000090911690631228cbee90602401602060405180830381865afa158015610719573d6000803e3d6000fd5b505050506040513d601f19601f8201168201806040525081019061073d9190611006565b6040516327f9c4c160e01b81523360048201529091506000906001600160a01b038316906327f9c4c190602401602060405180830381865afa158015610787573d6000803e3d6000fd5b505050506040513d601f19601f820116820180604052508101906107ab9190611023565b9050806000036107ce5760405163108a8d2960e31b815260040160405180910390fd5b6040516311051b5b60e11b81523360048201526001600160a01b0383169063220a36b690602401600060405180830381600087803b15801561080f57600080fd5b505af1158015610823573d6000803e3d6000fd5b505050506108537f0000000000000000000000000000000000000000000000000000000000000000333084610b59565b61043f3382610bc0565b6001600160a01b0382161580610871575080155b1561088f57604051632c5b83b960e01b815260040160405180910390fd5b60405163091465f760e11b81526001600160a01b0383811660048301526000917f000000000000000000000000000000000000000000000000000000000000000090911690631228cbee90602401602060405180830381865afa1580156108fa573d6000803e3d6000fd5b505050506040513d601f19601f8201168201806040525081019061091e9190611006565b90506001600160a01b03811661094757604051632c5b83b960e01b815260040160405180910390fd5b6000612710610957846005611052565b6109619190611069565b60405163134bde1160e01b8152336004820152602481018590529091506001600160a01b0383169063134bde1190604401600060405180830381600087803b1580156109ac57600080fd5b505af11580156109c0573d6000803e3d6000fd5b50506040516322d453e360e21b81526001600160a01b03871660048201526024810186905260448101849052339250638b514f8c9150606401600060405180830381600087803b158015610a1357600080fd5b505af1158015610a27573d6000803e3d6000fd5b50505050610a428433308487610a3d919061108b565b610b59565b6105cb8483610a51848761108b565b610c86565b610a5e610a99565b6001600160a01b038116610a8d57604051631e4fbdf760e01b8152600060048201526024015b60405180910390fd5b610a9681610c36565b50565b6000546001600160a01b031633146105e35760405163118cdaa760e01b8152336004820152602401610a84565b6040516340c10f1960e01b81526001600160a01b038381166004830152602482018390527f000000000000000000000000000000000000000000000000000000000000000016906340c10f19906044016020604051808303816000875af1158015610b35573d6000803e3d6000fd5b505050506040513d601f19601f8201168201806040525081019061043f919061109e565b6040516001600160a01b0384811660248301528381166044830152606482018390526105cb9186918216906323b872dd906084015b604051602081830303815290604052915060e01b6020820180516001600160e01b038381831617835250505050610cb7565b604051630852cd8d60e31b8152600481018290527f00000000000000000000000000000000000000000000000000000000000000006001600160a01b0316906342966c6890602401600060405180830381600087803b158015610c2257600080fd5b505af1158015610229573d6000803e3d6000fd5b600080546001600160a01b038381166001600160a01b0319831681178455604051919092169283917f8be0079c531659141344cd1fd0a4f28419497f9722a3daafe3b4186f6b6457e09190a35050565b6040516001600160a01b0383811660248301526044820183905261043f91859182169063a9059cbb90606401610b8e565b6000610ccc6001600160a01b03841683610d1a565b90508051600014158015610cf1575080806020019051810190610cef919061109e565b155b1561043f57604051635274afe760e01b81526001600160a01b0384166004820152602401610a84565b6060610d2883836000610d31565b90505b92915050565b606081471015610d565760405163cd78605960e01b8152306004820152602401610a84565b600080856001600160a01b03168486604051610d7291906110c0565b60006040518083038185875af1925050503d8060008114610daf576040519150601f19603f3d011682016040523d82523d6000602084013e610db4565b606091505b5091509150610dc4868383610dd0565b925050505b9392505050565b606082610de557610de082610e2c565b610dc9565b8151158015610dfc57506001600160a01b0384163b155b15610e2557604051639996b31560e01b81526001600160a01b0385166004820152602401610a84565b5080610dc9565b805115610e3c5780518082602001fd5b604051630a12f52160e11b815260040160405180910390fd5b6001600160a01b0381168114610a9657600080fd5b60008060408385031215610e7d57600080fd5b8235610e8881610e55565b91506020830135610e9881610e55565b809150509250929050565b60008083601f840112610eb557600080fd5b50813567ffffffffffffffff811115610ecd57600080fd5b6020830191508360208260051b8501011115610ee857600080fd5b9250929050565b600080600080600060608688031215610f0757600080fd5b8535610f1281610e55565b9450602086013567ffffffffffffffff80821115610f2f57600080fd5b610f3b89838a01610ea3565b90965094506040880135915080821115610f5457600080fd5b50610f6188828901610ea3565b969995985093965092949392505050565b60008060408385031215610f8557600080fd5b8235610f9081610e55565b946020939093013593505050565b600080600060608486031215610fb357600080fd5b8335610fbe81610e55565b95602085013595506040909401359392505050565b600060208284031215610fe557600080fd5b8135610dc981610e55565b634e487b7160e01b600052603260045260246000fd5b60006020828403121561101857600080fd5b8151610dc981610e55565b60006020828403121561103557600080fd5b5051919050565b634e487b7160e01b600052601160045260246000fd5b8082028115828204841417610d2b57610d2b61103c565b60008261108657634e487b7160e01b600052601260045260246000fd5b500490565b80820180821115610d2b57610d2b61103c565b6000602082840312156110b057600080fd5b81518015158114610dc957600080fd5b6000825160005b818110156110e157602081860181015185830152016110c7565b50600092019182525091905056fea2646970667358221220696f2add53c12cf6742da7298ee7882f55b8f47a6b73dd197ddbfd279b8bfc2e64736f6c63430008190033","linkReferences":{}},"methodIdentifiers":{"depositLiquidity(address,uint256)":"39b41b4a","flashLoan(address,uint256)":"9d9e465c","owner()":"8da5cb5b","renounceOwnership()":"715018a6","setPriceFeeds(address,address)":"068f158d","transferOwnership(address)":"f2fde38b","withdrawDepositedFunds(address,uint256,uint256)":"70b77c47","withdrawMultipleDepositsSameAsset(address,uint256[],uint256[])":"0a20af10","withdrawTotalUserDeposit(address)":"9ab18038"},"id":7}