{"abi":[{"type":"constructor","inputs":[{"name":"factory","type":"address","internalType":"address"},{"name":"tokenAddress","type":"address[2]","internalType":"address[2]"},{"name":"priceFeeds","type":"address[2]","internalType":"address[2]"}],"stateMutability":"nonpayable"},{"type":"function","name":"depositLiquidity","inputs":[{"name":"depositor","type":"address","internalType":"address"},{"name":"tokenToDeposit","type":"address","internalType":"address"},{"name":"amount","type":"uint256","internalType":"uint256"}],"outputs":[],"stateMutability":"nonpayable"},{"type":"function","name":"owner","inputs":[],"outputs":[{"name":"","type":"address","internalType":"address"}],"stateMutability":"view"},{"type":"function","name":"renounceOwnership","inputs":[],"outputs":[],"stateMutability":"nonpayable"},{"type":"function","name":"setPriceFeeds","inputs":[{"name":"underlyingToken","type":"address","internalType":"address"},{"name":"priceFeed","type":"address","internalType":"address"}],"outputs":[],"stateMutability":"nonpayable"},{"type":"function","name":"transferOwnership","inputs":[{"name":"newOwner","type":"address","internalType":"address"}],"outputs":[],"stateMutability":"nonpayable"},{"type":"event","name":"OwnershipTransferred","inputs":[{"name":"previousOwner","type":"address","indexed":true,"internalType":"address"},{"name":"newOwner","type":"address","indexed":true,"internalType":"address"}],"anonymous":false},{"type":"error","name":"OwnableInvalidOwner","inputs":[{"name":"owner","type":"address","internalType":"address"}]},{"type":"error","name":"OwnableUnauthorizedAccount","inputs":[{"name":"account","type":"address","internalType":"address"}]},{"type":"error","name":"Router__ZeroAddress","inputs":[]}],"bytecode":{"object":"0x60a060405234801561001057600080fd5b506040516107eb3803806107eb83398101604081905261002f9161024b565b338061005557604051631e4fbdf760e01b81526000600482015260240160405180910390fd5b61005e8161015b565b506001600160a01b03831660805260005b600281101561015257600083826002811061008c5761008c610290565b60200201516001600160a01b031614806100c5575060008282600281106100b5576100b5610290565b60200201516001600160a01b0316145b156100e357604051632c5b83b960e01b815260040160405180910390fd5b8181600281106100f5576100f5610290565b60200201516001600085846002811061011057610110610290565b602090810291909101516001600160a01b0390811683529082019290925260400160002080546001600160a01b0319169290911691909117905560010161006f565b505050506102a6565b600080546001600160a01b038381166001600160a01b0319831681178455604051919092169283917f8be0079c531659141344cd1fd0a4f28419497f9722a3daafe3b4186f6b6457e09190a35050565b80516001600160a01b03811681146101c257600080fd5b919050565b600082601f8301126101d857600080fd5b604080519081016001600160401b038111828210171561020857634e487b7160e01b600052604160045260246000fd5b806040525080604084018581111561021f57600080fd5b845b8181101561024057610232816101ab565b835260209283019201610221565b509195945050505050565b600080600060a0848603121561026057600080fd5b610269846101ab565b925061027885602086016101c7565b915061028785606086016101c7565b90509250925092565b634e487b7160e01b600052603260045260246000fd5b6080516105236102c8600039600081816101cd015261028301526105236000f3fe608060405234801561001057600080fd5b50600436106100575760003560e01c8063068f158d1461005c578063715018a6146100715780638da5cb5b14610079578063a745f78e14610098578063f2fde38b146100ab575b600080fd5b61006f61006a366004610432565b6100be565b005b61006f610153565b600054604080516001600160a01b039092168252519081900360200190f35b61006f6100a636600461046b565b610167565b61006f6100b93660046104ac565b61035d565b6100c66103a0565b6001600160a01b03821615806100e357506001600160a01b038116155b1561010157604051632c5b83b960e01b815260040160405180910390fd5b6001600160a01b038281166000908152600160205260409020541661014f576001600160a01b03828116600090815260016020526040902080546001600160a01b0319169183169190911790555b5050565b61015b6103a0565b61016560006103cd565b565b6001600160a01b038216158061017b575080155b8061018d57506001600160a01b038316155b156101ab57604051632c5b83b960e01b815260040160405180910390fd5b60405163091465f760e11b81526001600160a01b0383811660048301526000917f000000000000000000000000000000000000000000000000000000000000000090911690631228cbee90602401602060405180830381865afa158015610216573d6000803e3d6000fd5b505050506040513d601f19601f8201168201806040525081019061023a91906104d0565b90506001600160a01b0381166102f5576001600160a01b038381166000818152600160205260409081902054905163e343361560e01b81526004810192909252821660248201527f00000000000000000000000000000000000000000000000000000000000000009091169063e3433615906044016020604051808303816000875af11580156102ce573d6000803e3d6000fd5b505050506040513d601f19601f820116820180604052508101906102f291906104d0565b90505b6040516318becba160e21b81526001600160a01b038581166004830152602482018490528216906362fb2e8490604401600060405180830381600087803b15801561033f57600080fd5b505af1158015610353573d6000803e3d6000fd5b5050505050505050565b6103656103a0565b6001600160a01b03811661039457604051631e4fbdf760e01b8152600060048201526024015b60405180910390fd5b61039d816103cd565b50565b6000546001600160a01b031633146101655760405163118cdaa760e01b815233600482015260240161038b565b600080546001600160a01b038381166001600160a01b0319831681178455604051919092169283917f8be0079c531659141344cd1fd0a4f28419497f9722a3daafe3b4186f6b6457e09190a35050565b6001600160a01b038116811461039d57600080fd5b6000806040838503121561044557600080fd5b82356104508161041d565b915060208301356104608161041d565b809150509250929050565b60008060006060848603121561048057600080fd5b833561048b8161041d565b9250602084013561049b8161041d565b929592945050506040919091013590565b6000602082840312156104be57600080fd5b81356104c98161041d565b9392505050565b6000602082840312156104e257600080fd5b81516104c98161041d56fea264697066735822122010ffc41990c8a9852dded4e53b84985e5423c2192299362862b542a10588e87e64736f6c63430008190033","linkReferences":{}},"methodIdentifiers":{"depositLiquidity(address,address,uint256)":"a745f78e","owner()":"8da5cb5b","renounceOwnership()":"715018a6","setPriceFeeds(address,address)":"068f158d","transferOwnership(address)":"f2fde38b"},"id":3}