{"abi":[{"type":"constructor","inputs":[{"name":"factory","type":"address","internalType":"address"},{"name":"tokenAddress","type":"address[2]","internalType":"address[2]"},{"name":"priceFeeds","type":"address[2]","internalType":"address[2]"},{"name":"lendToken","type":"address","internalType":"address"}],"stateMutability":"nonpayable"},{"type":"function","name":"depositLiquidity","inputs":[{"name":"depositor","type":"address","internalType":"address"},{"name":"tokenToDeposit","type":"address","internalType":"address"},{"name":"amount","type":"uint256","internalType":"uint256"}],"outputs":[],"stateMutability":"nonpayable"},{"type":"function","name":"owner","inputs":[],"outputs":[{"name":"","type":"address","internalType":"address"}],"stateMutability":"view"},{"type":"function","name":"renounceOwnership","inputs":[],"outputs":[],"stateMutability":"nonpayable"},{"type":"function","name":"setPriceFeeds","inputs":[{"name":"underlyingToken","type":"address","internalType":"address"},{"name":"priceFeed","type":"address","internalType":"address"}],"outputs":[],"stateMutability":"nonpayable"},{"type":"function","name":"transferOwnership","inputs":[{"name":"newOwner","type":"address","internalType":"address"}],"outputs":[],"stateMutability":"nonpayable"},{"type":"event","name":"OwnershipTransferred","inputs":[{"name":"previousOwner","type":"address","indexed":true,"internalType":"address"},{"name":"newOwner","type":"address","indexed":true,"internalType":"address"}],"anonymous":false},{"type":"error","name":"OwnableInvalidOwner","inputs":[{"name":"owner","type":"address","internalType":"address"}]},{"type":"error","name":"OwnableUnauthorizedAccount","inputs":[{"name":"account","type":"address","internalType":"address"}]},{"type":"error","name":"Router__ZeroAddress","inputs":[]}],"bytecode":{"object":"0x60c060405234801561001057600080fd5b5060405161090c38038061090c83398101604081905261002f9161028d565b338061005557604051631e4fbdf760e01b81526000600482015260240160405180910390fd5b61005e8161019d565b506001600160a01b038416158061007c57506001600160a01b038116155b1561009a57604051632c5b83b960e01b815260040160405180910390fd5b6001600160a01b03808516608052811660a05260005b60028110156101935760008482600281106100cd576100cd6102e3565b60200201516001600160a01b03161480610106575060008382600281106100f6576100f66102e3565b60200201516001600160a01b0316145b1561012457604051632c5b83b960e01b815260040160405180910390fd5b828160028110610136576101366102e3565b602002015160016000868460028110610151576101516102e3565b602090810291909101516001600160a01b0390811683529082019290925260400160002080546001600160a01b031916929091169190911790556001016100b0565b50505050506102f9565b600080546001600160a01b038381166001600160a01b0319831681178455604051919092169283917f8be0079c531659141344cd1fd0a4f28419497f9722a3daafe3b4186f6b6457e09190a35050565b80516001600160a01b038116811461020457600080fd5b919050565b600082601f83011261021a57600080fd5b604080519081016001600160401b038111828210171561024a57634e487b7160e01b600052604160045260246000fd5b806040525080604084018581111561026157600080fd5b845b8181101561028257610274816101ed565b835260209283019201610263565b509195945050505050565b60008060008060c085870312156102a357600080fd5b6102ac856101ed565b93506102bb8660208701610209565b92506102ca8660608701610209565b91506102d860a086016101ed565b905092959194509250565b634e487b7160e01b600052603260045260246000fd5b60805160a0516105e7610325600039600061044d0152600081816101cd015261028301526105e76000f3fe608060405234801561001057600080fd5b50600436106100575760003560e01c8063068f158d1461005c578063715018a6146100715780638da5cb5b14610079578063a745f78e14610098578063f2fde38b146100ab575b600080fd5b61006f61006a3660046104d4565b6100be565b005b61006f610153565b600054604080516001600160a01b039092168252519081900360200190f35b61006f6100a636600461050d565b610167565b61006f6100b936600461054e565b610367565b6100c66103aa565b6001600160a01b03821615806100e357506001600160a01b038116155b1561010157604051632c5b83b960e01b815260040160405180910390fd5b6001600160a01b038281166000908152600160205260409020541661014f576001600160a01b03828116600090815260016020526040902080546001600160a01b0319169183169190911790555b5050565b61015b6103aa565b61016560006103d7565b565b6001600160a01b038216158061017b575080155b8061018d57506001600160a01b038316155b156101ab57604051632c5b83b960e01b815260040160405180910390fd5b60405163091465f760e11b81526001600160a01b0383811660048301526000917f000000000000000000000000000000000000000000000000000000000000000090911690631228cbee90602401602060405180830381865afa158015610216573d6000803e3d6000fd5b505050506040513d601f19601f8201168201806040525081019061023a9190610572565b90506001600160a01b0381166102f5576001600160a01b038381166000818152600160205260409081902054905163e343361560e01b81526004810192909252821660248201527f00000000000000000000000000000000000000000000000000000000000000009091169063e3433615906044016020604051808303816000875af11580156102ce573d6000803e3d6000fd5b505050506040513d601f19601f820116820180604052508101906102f29190610572565b90505b6040516318becba160e21b81526001600160a01b038581166004830152602482018490528216906362fb2e8490604401600060405180830381600087803b15801561033f57600080fd5b505af1158015610353573d6000803e3d6000fd5b505050506103618483610427565b50505050565b61036f6103aa565b6001600160a01b03811661039e57604051631e4fbdf760e01b8152600060048201526024015b60405180910390fd5b6103a7816103d7565b50565b6000546001600160a01b031633146101655760405163118cdaa760e01b8152336004820152602401610395565b600080546001600160a01b038381166001600160a01b0319831681178455604051919092169283917f8be0079c531659141344cd1fd0a4f28419497f9722a3daafe3b4186f6b6457e09190a35050565b6040516340c10f1960e01b81526001600160a01b038381166004830152602482018390527f000000000000000000000000000000000000000000000000000000000000000016906340c10f19906044016020604051808303816000875af1158015610496573d6000803e3d6000fd5b505050506040513d601f19601f820116820180604052508101906104ba919061058f565b505050565b6001600160a01b03811681146103a757600080fd5b600080604083850312156104e757600080fd5b82356104f2816104bf565b91506020830135610502816104bf565b809150509250929050565b60008060006060848603121561052257600080fd5b833561052d816104bf565b9250602084013561053d816104bf565b929592945050506040919091013590565b60006020828403121561056057600080fd5b813561056b816104bf565b9392505050565b60006020828403121561058457600080fd5b815161056b816104bf565b6000602082840312156105a157600080fd5b8151801515811461056b57600080fdfea2646970667358221220bb5648f6eed4fa4c726a8f8ab45ee4dee087093722e948b2927b3c4fa757cff464736f6c63430008190033","linkReferences":{}},"methodIdentifiers":{"depositLiquidity(address,address,uint256)":"a745f78e","owner()":"8da5cb5b","renounceOwnership()":"715018a6","setPriceFeeds(address,address)":"068f158d","transferOwnership(address)":"f2fde38b"},"id":7}