{"abi":[{"type":"constructor","inputs":[{"name":"factory","type":"address","internalType":"address"},{"name":"tokenAddress","type":"address[2]","internalType":"address[2]"},{"name":"priceFeeds","type":"address[2]","internalType":"address[2]"},{"name":"lendToken","type":"address","internalType":"address"}],"stateMutability":"nonpayable"},{"type":"function","name":"DepositCollateralSingle","inputs":[{"name":"tokenToDeposit","type":"address","internalType":"address"},{"name":"amount","type":"uint256","internalType":"uint256"}],"outputs":[],"stateMutability":"nonpayable"},{"type":"function","name":"borrow","inputs":[{"name":"tokenToBorrow","type":"address","internalType":"address"},{"name":"CollateralToken","type":"address","internalType":"address"},{"name":"amount","type":"uint256","internalType":"uint256"},{"name":"amountCollateral","type":"uint256","internalType":"uint256"}],"outputs":[],"stateMutability":"nonpayable"},{"type":"function","name":"depositLiquidity","inputs":[{"name":"tokenToDeposit","type":"address","internalType":"address"},{"name":"amount","type":"uint256","internalType":"uint256"}],"outputs":[],"stateMutability":"nonpayable"},{"type":"function","name":"flashLoan","inputs":[{"name":"token","type":"address","internalType":"address"},{"name":"amount","type":"uint256","internalType":"uint256"}],"outputs":[],"stateMutability":"nonpayable"},{"type":"function","name":"getCollateralValueInUSD","inputs":[{"name":"token","type":"address","internalType":"address"},{"name":"user","type":"address","internalType":"address"}],"outputs":[{"name":"","type":"uint256","internalType":"uint256"}],"stateMutability":"view"},{"type":"function","name":"getDepositsInUSD","inputs":[{"name":"token","type":"address","internalType":"address"}],"outputs":[{"name":"","type":"uint256","internalType":"uint256"}],"stateMutability":"view"},{"type":"function","name":"getFactory","inputs":[],"outputs":[{"name":"","type":"address","internalType":"address"}],"stateMutability":"view"},{"type":"function","name":"getFlashLoanFee","inputs":[],"outputs":[{"name":"","type":"uint256","internalType":"uint256"}],"stateMutability":"pure"},{"type":"function","name":"getLendTokens","inputs":[],"outputs":[{"name":"","type":"address","internalType":"address"}],"stateMutability":"view"},{"type":"function","name":"getPoolAddress","inputs":[{"name":"token","type":"address","internalType":"address"}],"outputs":[{"name":"","type":"address","internalType":"address"}],"stateMutability":"view"},{"type":"function","name":"owner","inputs":[],"outputs":[{"name":"","type":"address","internalType":"address"}],"stateMutability":"view"},{"type":"function","name":"renounceOwnership","inputs":[],"outputs":[],"stateMutability":"nonpayable"},{"type":"function","name":"setPriceFeeds","inputs":[{"name":"underlyingToken","type":"address","internalType":"address"},{"name":"priceFeed","type":"address","internalType":"address"}],"outputs":[],"stateMutability":"nonpayable"},{"type":"function","name":"transferOwnership","inputs":[{"name":"newOwner","type":"address","internalType":"address"}],"outputs":[],"stateMutability":"nonpayable"},{"type":"function","name":"withdrawDepositedFunds","inputs":[{"name":"tokenToWithdraw","type":"address","internalType":"address"},{"name":"amount","type":"uint256","internalType":"uint256"},{"name":"depositId","type":"uint256","internalType":"uint256"}],"outputs":[],"stateMutability":"nonpayable"},{"type":"function","name":"withdrawMultipleDepositsSameAsset","inputs":[{"name":"tokensToWithdraw","type":"address","internalType":"address"},{"name":"depositIds","type":"uint256[]","internalType":"uint256[]"},{"name":"depositAmounts","type":"uint256[]","internalType":"uint256[]"}],"outputs":[],"stateMutability":"nonpayable"},{"type":"function","name":"withdrawTotalUserDeposit","inputs":[{"name":"tokenToWithdraw","type":"address","internalType":"address"}],"outputs":[],"stateMutability":"nonpayable"},{"type":"event","name":"OwnershipTransferred","inputs":[{"name":"previousOwner","type":"address","indexed":true,"internalType":"address"},{"name":"newOwner","type":"address","indexed":true,"internalType":"address"}],"anonymous":false},{"type":"error","name":"AddressEmptyCode","inputs":[{"name":"target","type":"address","internalType":"address"}]},{"type":"error","name":"AddressInsufficientBalance","inputs":[{"name":"account","type":"address","internalType":"address"}]},{"type":"error","name":"FailedInnerCall","inputs":[]},{"type":"error","name":"OwnableInvalidOwner","inputs":[{"name":"owner","type":"address","internalType":"address"}]},{"type":"error","name":"OwnableUnauthorizedAccount","inputs":[{"name":"account","type":"address","internalType":"address"}]},{"type":"error","name":"Router__AlreadyWithdrawnAmount","inputs":[]},{"type":"error","name":"Router__ZeroAddress","inputs":[]},{"type":"error","name":"SafeERC20FailedOperation","inputs":[{"name":"token","type":"address","internalType":"address"}]}],"bytecode":{"object":"0x60c060405234801561001057600080fd5b50604051611c9d380380611c9d83398101604081905261002f9161028d565b338061005557604051631e4fbdf760e01b81526000600482015260240160405180910390fd5b61005e8161019d565b506001600160a01b038416158061007c57506001600160a01b038116155b1561009a57604051632c5b83b960e01b815260040160405180910390fd5b6001600160a01b03808516608052811660a05260005b60028110156101935760008482600281106100cd576100cd6102e3565b60200201516001600160a01b03161480610106575060008382600281106100f6576100f66102e3565b60200201516001600160a01b0316145b1561012457604051632c5b83b960e01b815260040160405180910390fd5b828160028110610136576101366102e3565b602002015160016000868460028110610151576101516102e3565b602090810291909101516001600160a01b0390811683529082019290925260400160002080546001600160a01b031916929091169190911790556001016100b0565b50505050506102f9565b600080546001600160a01b038381166001600160a01b0319831681178455604051919092169283917f8be0079c531659141344cd1fd0a4f28419497f9722a3daafe3b4186f6b6457e09190a35050565b80516001600160a01b038116811461020457600080fd5b919050565b600082601f83011261021a57600080fd5b604080519081016001600160401b038111828210171561024a57634e487b7160e01b600052604160045260246000fd5b806040525080604084018581111561026157600080fd5b845b8181101561028257610274816101ed565b835260209283019201610263565b509195945050505050565b60008060008060c085870312156102a357600080fd5b6102ac856101ed565b93506102bb8660208701610209565b92506102ca8660608701610209565b91506102d860a086016101ed565b905092959194509250565b634e487b7160e01b600052603260045260246000fd5b60805160a05161190161039c6000396000818161019e015281816105170152818161099301528181610c2501528181610f4c0152818161136901526113ec0152600081816101f20152818161039a015281816104610152818161053f0152818161065b015281816107600152818161089101528181610a1101528181610ac901528181610caa01528181610e9601528181610f7401526111e101526119016000f3fe608060405234801561001057600080fd5b506004361061010b5760003560e01c8063715018a6116100a25780639d9e465c116100715780639d9e465c1461023a578063d7e4a84b1461024d578063f2fde38b14610260578063fbf3773914610273578063fd90c2be1461028657600080fd5b8063715018a6146101e857806388cc58e4146101f05780638da5cb5b146102165780639ab180381461022757600080fd5b80634343d506116100de5780634343d5061461017b57806347ccbdc71461019c5780636c9ba985146101c257806370b77c47146101d557600080fd5b8063068f158d146101105780630a20af10146101255780631228cbee1461013857806339b41b4a14610168575b600080fd5b61012361011e366004611641565b61028d565b005b6101236101333660046116c6565b610322565b61014b610146366004611749565b610378565b6040516001600160a01b0390911681526020015b60405180910390f35b610123610176366004611766565b61040d565b61018e610189366004611641565b610637565b60405190815260200161015f565b7f000000000000000000000000000000000000000000000000000000000000000061014b565b61018e6101d0366004611749565b61073c565b6101236101e3366004611792565b61083d565b6101236109ca565b7f000000000000000000000000000000000000000000000000000000000000000061014b565b6000546001600160a01b031661014b565b610123610235366004611749565b6109de565b610123610248366004611766565b610c56565b61012361025b366004611766565b610e42565b61012361026e366004611749565b61114a565b6101236102813660046117c7565b61118d565b600561018e565b61029561127e565b6001600160a01b03821615806102b257506001600160a01b038116155b156102d057604051632c5b83b960e01b815260040160405180910390fd5b6001600160a01b038281166000908152600160205260409020541661031e576001600160a01b03828116600090815260016020526040902080546001600160a01b0319169183169190911790555b5050565b60005b8381101561037057610368868484848181106103435761034361180d565b9050602002013587878581811061035c5761035c61180d565b9050602002013561083d565b600101610325565b505050505050565b60405163091465f760e11b81526001600160a01b0382811660048301526000917f000000000000000000000000000000000000000000000000000000000000000090911690631228cbee90602401602060405180830381865afa1580156103e3573d6000803e3d6000fd5b505050506040513d601f19601f820116820180604052508101906104079190611823565b92915050565b6001600160a01b0382161580610421575080155b1561043f57604051632c5b83b960e01b815260040160405180910390fd5b60405163091465f760e11b81526001600160a01b0383811660048301526000917f000000000000000000000000000000000000000000000000000000000000000090911690631228cbee90602401602060405180830381865afa1580156104aa573d6000803e3d6000fd5b505050506040513d601f19601f820116820180604052508101906104ce9190611823565b90506001600160a01b0381166105b1576001600160a01b03838116600081815260016020526040908190205490516311b5751760e11b81526004810192909252821660248201527f0000000000000000000000000000000000000000000000000000000000000000821660448201527f00000000000000000000000000000000000000000000000000000000000000009091169063236aea2e906064016020604051808303816000875af115801561058a573d6000803e3d6000fd5b505050506040513d601f19601f820116820180604052508101906105ae9190611823565b90505b6105bd833330856112ab565b6040516318becba160e21b8152336004820152602481018390526001600160a01b038216906362fb2e8490604401600060405180830381600087803b15801561060557600080fd5b505af1158015610619573d6000803e3d6000fd5b50505050610628838284611312565b6106323383611343565b505050565b60405163091465f760e11b81526001600160a01b03838116600483015260009182917f00000000000000000000000000000000000000000000000000000000000000001690631228cbee90602401602060405180830381865afa1580156106a2573d6000803e3d6000fd5b505050506040513d601f19601f820116820180604052508101906106c69190611823565b60405163877db9dd60e01b81526001600160a01b0385811660048301529192509082169063877db9dd90602401602060405180830381865afa158015610710573d6000803e3d6000fd5b505050506040513d601f19601f820116820180604052508101906107349190611840565b949350505050565b60405163091465f760e11b81526001600160a01b03828116600483015260009182917f00000000000000000000000000000000000000000000000000000000000000001690631228cbee90602401602060405180830381865afa1580156107a7573d6000803e3d6000fd5b505050506040513d601f19601f820116820180604052508101906107cb9190611823565b604051635de0a9af60e01b81523360048201529091506001600160a01b03821690635de0a9af90602401602060405180830381865afa158015610812573d6000803e3d6000fd5b505050506040513d601f19601f820116820180604052508101906108369190611840565b9392505050565b6001600160a01b0383161580610851575081155b1561086f57604051632c5b83b960e01b815260040160405180910390fd5b60405163091465f760e11b81526001600160a01b0384811660048301526000917f000000000000000000000000000000000000000000000000000000000000000090911690631228cbee90602401602060405180830381865afa1580156108da573d6000803e3d6000fd5b505050506040513d601f19601f820116820180604052508101906108fe9190611823565b90506001600160a01b03811661092757604051632c5b83b960e01b815260040160405180910390fd5b60405163ea999dff60e01b815233600482015260248101849052604481018390526001600160a01b0382169063ea999dff90606401600060405180830381600087803b15801561097657600080fd5b505af115801561098a573d6000803e3d6000fd5b505050506109ba7f00000000000000000000000000000000000000000000000000000000000000003330866112ab565b6109c433846113d6565b50505050565b6109d261127e565b6109dc600061144c565b565b6001600160a01b0381161580610a89575060405163091465f760e11b81526001600160a01b0382811660048301526000917f000000000000000000000000000000000000000000000000000000000000000090911690631228cbee90602401602060405180830381865afa158015610a5a573d6000803e3d6000fd5b505050506040513d601f19601f82011682018060405250810190610a7e9190611823565b6001600160a01b0316145b15610aa757604051632c5b83b960e01b815260040160405180910390fd5b60405163091465f760e11b81526001600160a01b0382811660048301526000917f000000000000000000000000000000000000000000000000000000000000000090911690631228cbee90602401602060405180830381865afa158015610b12573d6000803e3d6000fd5b505050506040513d601f19601f82011682018060405250810190610b369190611823565b6040516327f9c4c160e01b81523360048201529091506000906001600160a01b038316906327f9c4c190602401602060405180830381865afa158015610b80573d6000803e3d6000fd5b505050506040513d601f19601f82011682018060405250810190610ba49190611840565b905080600003610bc75760405163108a8d2960e31b815260040160405180910390fd5b6040516311051b5b60e11b81523360048201526001600160a01b0383169063220a36b690602401600060405180830381600087803b158015610c0857600080fd5b505af1158015610c1c573d6000803e3d6000fd5b50505050610c4c7f00000000000000000000000000000000000000000000000000000000000000003330846112ab565b61063233826113d6565b6001600160a01b0382161580610c6a575080155b15610c8857604051632c5b83b960e01b815260040160405180910390fd5b60405163091465f760e11b81526001600160a01b0383811660048301526000917f000000000000000000000000000000000000000000000000000000000000000090911690631228cbee90602401602060405180830381865afa158015610cf3573d6000803e3d6000fd5b505050506040513d601f19601f82011682018060405250810190610d179190611823565b90506001600160a01b038116610d4057604051632c5b83b960e01b815260040160405180910390fd5b6000610d4d83600561149c565b60405163134bde1160e01b8152336004820152602481018590529091506001600160a01b0383169063134bde1190604401600060405180830381600087803b158015610d9857600080fd5b505af1158015610dac573d6000803e3d6000fd5b50506040516322d453e360e21b81526001600160a01b03871660048201526024810186905260448101849052339250638b514f8c9150606401600060405180830381600087803b158015610dff57600080fd5b505af1158015610e13573d6000803e3d6000fd5b50505050610e2e8433308487610e299190611859565b6112ab565b6109c48483610e3d8487611859565b611312565b6001600160a01b0382161580610e56575080155b15610e7457604051632c5b83b960e01b815260040160405180910390fd5b60405163091465f760e11b81526001600160a01b0383811660048301526000917f000000000000000000000000000000000000000000000000000000000000000090911690631228cbee90602401602060405180830381865afa158015610edf573d6000803e3d6000fd5b505050506040513d601f19601f82011682018060405250810190610f039190611823565b90506001600160a01b038116610fe6576001600160a01b03838116600081815260016020526040908190205490516311b5751760e11b81526004810192909252821660248201527f0000000000000000000000000000000000000000000000000000000000000000821660448201527f00000000000000000000000000000000000000000000000000000000000000009091169063236aea2e906064016020604051808303816000875af1158015610fbf573d6000803e3d6000fd5b505050506040513d601f19601f82011682018060405250810190610fe39190611823565b90505b604080516060810182526001600160a01b03831680825260208201859052825163f27feeaf60e01b815260048101869052919283019163f27feeaf90602401602060405180830381865afa158015611042573d6000803e3d6000fd5b505050506040513d601f19601f820116820180604052508101906110669190611840565b9052336000818152600260208181526040808420805485526001908101835293819020865181546001600160a01b0319166001600160a01b03909116178155918601519382019390935593909101519201919091556110c890849030856112ab565b60405163297576c360e21b8152336004820152602481018390526001600160a01b0382169063a5d5db0c90604401600060405180830381600087803b15801561111057600080fd5b505af1158015611124573d6000803e3d6000fd5b505033600090815260026020526040902080546001019055506106329050838284611312565b61115261127e565b6001600160a01b03811661118157604051631e4fbdf760e01b8152600060048201526024015b60405180910390fd5b61118a8161144c565b50565b6001600160a01b03841615806111a1575081155b156111bf57604051632c5b83b960e01b815260040160405180910390fd5b60405163091465f760e11b81526001600160a01b0385811660048301526000917f000000000000000000000000000000000000000000000000000000000000000090911690631228cbee90602401602060405180830381865afa15801561122a573d6000803e3d6000fd5b505050506040513d601f19601f8201168201806040525081019061124e9190611823565b90506001600160a01b03811661127757604051632c5b83b960e01b815260040160405180910390fd5b5050505050565b6000546001600160a01b031633146109dc5760405163118cdaa760e01b8152336004820152602401611178565b6040516001600160a01b0384811660248301528381166044830152606482018390526109c49186918216906323b872dd906084015b604051602081830303815290604052915060e01b6020820180516001600160e01b0383818316178352505050506114c2565b6040516001600160a01b0383811660248301526044820183905261063291859182169063a9059cbb906064016112e0565b6040516340c10f1960e01b81526001600160a01b038381166004830152602482018390527f000000000000000000000000000000000000000000000000000000000000000016906340c10f19906044016020604051808303816000875af11580156113b2573d6000803e3d6000fd5b505050506040513d601f19601f82011682018060405250810190610632919061187a565b604051630852cd8d60e31b8152600481018290527f00000000000000000000000000000000000000000000000000000000000000006001600160a01b0316906342966c6890602401600060405180830381600087803b15801561143857600080fd5b505af1158015610370573d6000803e3d6000fd5b600080546001600160a01b038381166001600160a01b0319831681178455604051919092169283917f8be0079c531659141344cd1fd0a4f28419497f9722a3daafe3b4186f6b6457e09190a35050565b6000811561138819839004841115176114b457600080fd5b506127109102611388010490565b60006114d76001600160a01b03841683611525565b905080516000141580156114fc5750808060200190518101906114fa919061187a565b155b1561063257604051635274afe760e01b81526001600160a01b0384166004820152602401611178565b60606108368383600084600080856001600160a01b0316848660405161154b919061189c565b60006040518083038185875af1925050503d8060008114611588576040519150601f19603f3d011682016040523d82523d6000602084013e61158d565b606091505b509150915061159d8683836115a7565b9695505050505050565b6060826115bc576115b782611603565b610836565b81511580156115d357506001600160a01b0384163b155b156115fc57604051639996b31560e01b81526001600160a01b0385166004820152602401611178565b5080610836565b8051156116135780518082602001fd5b604051630a12f52160e11b815260040160405180910390fd5b6001600160a01b038116811461118a57600080fd5b6000806040838503121561165457600080fd5b823561165f8161162c565b9150602083013561166f8161162c565b809150509250929050565b60008083601f84011261168c57600080fd5b50813567ffffffffffffffff8111156116a457600080fd5b6020830191508360208260051b85010111156116bf57600080fd5b9250929050565b6000806000806000606086880312156116de57600080fd5b85356116e98161162c565b9450602086013567ffffffffffffffff8082111561170657600080fd5b61171289838a0161167a565b9096509450604088013591508082111561172b57600080fd5b506117388882890161167a565b969995985093965092949392505050565b60006020828403121561175b57600080fd5b81356108368161162c565b6000806040838503121561177957600080fd5b82356117848161162c565b946020939093013593505050565b6000806000606084860312156117a757600080fd5b83356117b28161162c565b95602085013595506040909401359392505050565b600080600080608085870312156117dd57600080fd5b84356117e88161162c565b935060208501356117f88161162c565b93969395505050506040820135916060013590565b634e487b7160e01b600052603260045260246000fd5b60006020828403121561183557600080fd5b81516108368161162c565b60006020828403121561185257600080fd5b5051919050565b8082018082111561040757634e487b7160e01b600052601160045260246000fd5b60006020828403121561188c57600080fd5b8151801515811461083657600080fd5b6000825160005b818110156118bd57602081860181015185830152016118a3565b50600092019182525091905056fea26469706673582212209c84f862d88f66352c5a9c03928f1d4f3962db8563d48a9e4c4f2c9a8d91364564736f6c63430008190033","linkReferences":{}},"methodIdentifiers":{"DepositCollateralSingle(address,uint256)":"d7e4a84b","borrow(address,address,uint256,uint256)":"fbf37739","depositLiquidity(address,uint256)":"39b41b4a","flashLoan(address,uint256)":"9d9e465c","getCollateralValueInUSD(address,address)":"4343d506","getDepositsInUSD(address)":"6c9ba985","getFactory()":"88cc58e4","getFlashLoanFee()":"fd90c2be","getLendTokens()":"47ccbdc7","getPoolAddress(address)":"1228cbee","owner()":"8da5cb5b","renounceOwnership()":"715018a6","setPriceFeeds(address,address)":"068f158d","transferOwnership(address)":"f2fde38b","withdrawDepositedFunds(address,uint256,uint256)":"70b77c47","withdrawMultipleDepositsSameAsset(address,uint256[],uint256[])":"0a20af10","withdrawTotalUserDeposit(address)":"9ab18038"},"id":8}