{"abi":[{"type":"constructor","inputs":[{"name":"factory","type":"address","internalType":"address"},{"name":"tokenAddress","type":"address[2]","internalType":"address[2]"},{"name":"priceFeeds","type":"address[2]","internalType":"address[2]"},{"name":"lendToken","type":"address","internalType":"address"}],"stateMutability":"nonpayable"},{"type":"function","name":"depositLiquidity","inputs":[{"name":"tokenToDeposit","type":"address","internalType":"address"},{"name":"amount","type":"uint256","internalType":"uint256"}],"outputs":[],"stateMutability":"nonpayable"},{"type":"function","name":"flashLoan","inputs":[{"name":"token","type":"address","internalType":"address"},{"name":"amount","type":"uint256","internalType":"uint256"}],"outputs":[],"stateMutability":"nonpayable"},{"type":"function","name":"owner","inputs":[],"outputs":[{"name":"","type":"address","internalType":"address"}],"stateMutability":"view"},{"type":"function","name":"renounceOwnership","inputs":[],"outputs":[],"stateMutability":"nonpayable"},{"type":"function","name":"setPriceFeeds","inputs":[{"name":"underlyingToken","type":"address","internalType":"address"},{"name":"priceFeed","type":"address","internalType":"address"}],"outputs":[],"stateMutability":"nonpayable"},{"type":"function","name":"transferOwnership","inputs":[{"name":"newOwner","type":"address","internalType":"address"}],"outputs":[],"stateMutability":"nonpayable"},{"type":"function","name":"withdrawDepositedFunds","inputs":[{"name":"tokenToWithdraw","type":"address","internalType":"address"},{"name":"amount","type":"uint256","internalType":"uint256"}],"outputs":[],"stateMutability":"nonpayable"},{"type":"event","name":"OwnershipTransferred","inputs":[{"name":"previousOwner","type":"address","indexed":true,"internalType":"address"},{"name":"newOwner","type":"address","indexed":true,"internalType":"address"}],"anonymous":false},{"type":"error","name":"AddressEmptyCode","inputs":[{"name":"target","type":"address","internalType":"address"}]},{"type":"error","name":"AddressInsufficientBalance","inputs":[{"name":"account","type":"address","internalType":"address"}]},{"type":"error","name":"FailedInnerCall","inputs":[]},{"type":"error","name":"OwnableInvalidOwner","inputs":[{"name":"owner","type":"address","internalType":"address"}]},{"type":"error","name":"OwnableUnauthorizedAccount","inputs":[{"name":"account","type":"address","internalType":"address"}]},{"type":"error","name":"Router__ZeroAddress","inputs":[]},{"type":"error","name":"SafeERC20FailedOperation","inputs":[{"name":"token","type":"address","internalType":"address"}]}],"bytecode":{"object":"0x60c060405234801561001057600080fd5b50604051610f9e380380610f9e83398101604081905261002f9161028d565b338061005557604051631e4fbdf760e01b81526000600482015260240160405180910390fd5b61005e8161019d565b506001600160a01b038416158061007c57506001600160a01b038116155b1561009a57604051632c5b83b960e01b815260040160405180910390fd5b6001600160a01b03808516608052811660a05260005b60028110156101935760008482600281106100cd576100cd6102e3565b60200201516001600160a01b03161480610106575060008382600281106100f6576100f66102e3565b60200201516001600160a01b0316145b1561012457604051632c5b83b960e01b815260040160405180910390fd5b828160028110610136576101366102e3565b602002015160016000868460028110610151576101516102e3565b602090810291909101516001600160a01b0390811683529082019290925260400160002080546001600160a01b031916929091169190911790556001016100b0565b50505050506102f9565b600080546001600160a01b038381166001600160a01b0319831681178455604051919092169283917f8be0079c531659141344cd1fd0a4f28419497f9722a3daafe3b4186f6b6457e09190a35050565b80516001600160a01b038116811461020457600080fd5b919050565b600082601f83011261021a57600080fd5b604080519081016001600160401b038111828210171561024a57634e487b7160e01b600052604160045260246000fd5b806040525080604084018581111561026157600080fd5b845b8181101561028257610274816101ed565b835260209283019201610263565b509195945050505050565b60008060008060c085870312156102a357600080fd5b6102ac856101ed565b93506102bb8660208701610209565b92506102ca8660608701610209565b91506102d860a086016101ed565b905092959194509250565b634e487b7160e01b600052603260045260246000fd5b60805160a051610c5d610341600039600081816102a90152818161074f01526107d20152600081816101f3015281816102d101528181610406015261050e0152610c5d6000f3fe608060405234801561001057600080fd5b506004361061007d5760003560e01c8063715018a61161005b578063715018a6146100bd5780638da5cb5b146100c55780639d9e465c146100e4578063f2fde38b146100f757600080fd5b8063068f158d1461008257806339b41b4a1461009757806363b79fa6146100aa575b600080fd5b610095610090366004610ad5565b61010a565b005b6100956100a5366004610b0e565b61019f565b6100956100b8366004610b0e565b6103b2565b6100956104a6565b600054604080516001600160a01b039092168252519081900360200190f35b6100956100f2366004610b0e565b6104ba565b610095610105366004610b3a565b6106b9565b6101126106fc565b6001600160a01b038216158061012f57506001600160a01b038116155b1561014d57604051632c5b83b960e01b815260040160405180910390fd5b6001600160a01b038281166000908152600160205260409020541661019b576001600160a01b03828116600090815260016020526040902080546001600160a01b0319169183169190911790555b5050565b6001600160a01b03821615806101b3575080155b156101d157604051632c5b83b960e01b815260040160405180910390fd5b60405163091465f760e11b81526001600160a01b0383811660048301526000917f000000000000000000000000000000000000000000000000000000000000000090911690631228cbee90602401602060405180830381865afa15801561023c573d6000803e3d6000fd5b505050506040513d601f19601f820116820180604052508101906102609190610b57565b90506001600160a01b038116610343576001600160a01b03838116600081815260016020526040908190205490516311b5751760e11b81526004810192909252821660248201527f0000000000000000000000000000000000000000000000000000000000000000821660448201527f00000000000000000000000000000000000000000000000000000000000000009091169063236aea2e906064016020604051808303816000875af115801561031c573d6000803e3d6000fd5b505050506040513d601f19601f820116820180604052508101906103409190610b57565b90505b6040516318becba160e21b8152336004820152602481018390526001600160a01b038216906362fb2e8490604401600060405180830381600087803b15801561038b57600080fd5b505af115801561039f573d6000803e3d6000fd5b505050506103ad3383610729565b505050565b6001600160a01b03821615806103c6575080155b156103e457604051632c5b83b960e01b815260040160405180910390fd5b60405163091465f760e11b81526001600160a01b0383811660048301526000917f000000000000000000000000000000000000000000000000000000000000000090911690631228cbee90602401602060405180830381865afa15801561044f573d6000803e3d6000fd5b505050506040513d601f19601f820116820180604052508101906104739190610b57565b90506001600160a01b03811661049c57604051632c5b83b960e01b815260040160405180910390fd5b6103ad33836107bc565b6104ae6106fc565b6104b8600061083a565b565b6001600160a01b03821615806104ce575080155b156104ec57604051632c5b83b960e01b815260040160405180910390fd5b60405163091465f760e11b81526001600160a01b0383811660048301526000917f000000000000000000000000000000000000000000000000000000000000000090911690631228cbee90602401602060405180830381865afa158015610557573d6000803e3d6000fd5b505050506040513d601f19601f8201168201806040525081019061057b9190610b57565b90506001600160a01b0381166105a457604051632c5b83b960e01b815260040160405180910390fd5b60006127106105b4846005610b8a565b6105be9190610ba1565b60405163134bde1160e01b8152336004820152602481018590529091506001600160a01b0383169063134bde1190604401600060405180830381600087803b15801561060957600080fd5b505af115801561061d573d6000803e3d6000fd5b50506040516322d453e360e21b81526001600160a01b03871660048201526024810186905260448101849052339250638b514f8c9150606401600060405180830381600087803b15801561067057600080fd5b505af1158015610684573d6000803e3d6000fd5b5050505061069f843330848761069a9190610bc3565b61088a565b6106b384836106ae8487610bc3565b6108f1565b50505050565b6106c16106fc565b6001600160a01b0381166106f057604051631e4fbdf760e01b8152600060048201526024015b60405180910390fd5b6106f98161083a565b50565b6000546001600160a01b031633146104b85760405163118cdaa760e01b81523360048201526024016106e7565b6040516340c10f1960e01b81526001600160a01b038381166004830152602482018390527f000000000000000000000000000000000000000000000000000000000000000016906340c10f19906044016020604051808303816000875af1158015610798573d6000803e3d6000fd5b505050506040513d601f19601f820116820180604052508101906103ad9190610bd6565b604051630852cd8d60e31b8152600481018290527f00000000000000000000000000000000000000000000000000000000000000006001600160a01b0316906342966c6890602401600060405180830381600087803b15801561081e57600080fd5b505af1158015610832573d6000803e3d6000fd5b505050505050565b600080546001600160a01b038381166001600160a01b0319831681178455604051919092169283917f8be0079c531659141344cd1fd0a4f28419497f9722a3daafe3b4186f6b6457e09190a35050565b6040516001600160a01b0384811660248301528381166044830152606482018390526106b39186918216906323b872dd906084015b604051602081830303815290604052915060e01b6020820180516001600160e01b038381831617835250505050610922565b6040516001600160a01b038381166024830152604482018390526103ad91859182169063a9059cbb906064016108bf565b60006109376001600160a01b03841683610985565b9050805160001415801561095c57508080602001905181019061095a9190610bd6565b155b156103ad57604051635274afe760e01b81526001600160a01b03841660048201526024016106e7565b60606109938383600061099c565b90505b92915050565b6060814710156109c15760405163cd78605960e01b81523060048201526024016106e7565b600080856001600160a01b031684866040516109dd9190610bf8565b60006040518083038185875af1925050503d8060008114610a1a576040519150601f19603f3d011682016040523d82523d6000602084013e610a1f565b606091505b5091509150610a2f868383610a3b565b925050505b9392505050565b606082610a5057610a4b82610a97565b610a34565b8151158015610a6757506001600160a01b0384163b155b15610a9057604051639996b31560e01b81526001600160a01b03851660048201526024016106e7565b5080610a34565b805115610aa75780518082602001fd5b604051630a12f52160e11b815260040160405180910390fd5b6001600160a01b03811681146106f957600080fd5b60008060408385031215610ae857600080fd5b8235610af381610ac0565b91506020830135610b0381610ac0565b809150509250929050565b60008060408385031215610b2157600080fd5b8235610b2c81610ac0565b946020939093013593505050565b600060208284031215610b4c57600080fd5b8135610a3481610ac0565b600060208284031215610b6957600080fd5b8151610a3481610ac0565b634e487b7160e01b600052601160045260246000fd5b808202811582820484141761099657610996610b74565b600082610bbe57634e487b7160e01b600052601260045260246000fd5b500490565b8082018082111561099657610996610b74565b600060208284031215610be857600080fd5b81518015158114610a3457600080fd5b6000825160005b81811015610c195760208186018101518583015201610bff565b50600092019182525091905056fea2646970667358221220c1f8010a71214a4555fb68908f8026b528988789a039adfed2fe79e87fca219b64736f6c63430008190033","linkReferences":{}},"methodIdentifiers":{"depositLiquidity(address,uint256)":"39b41b4a","flashLoan(address,uint256)":"9d9e465c","owner()":"8da5cb5b","renounceOwnership()":"715018a6","setPriceFeeds(address,address)":"068f158d","transferOwnership(address)":"f2fde38b","withdrawDepositedFunds(address,uint256)":"63b79fa6"},"id":7}