{"abi":[{"type":"constructor","inputs":[{"name":"factory","type":"address","internalType":"address"},{"name":"tokenAddress","type":"address[2]","internalType":"address[2]"},{"name":"priceFeeds","type":"address[2]","internalType":"address[2]"}],"stateMutability":"nonpayable"},{"type":"function","name":"depositLiquidity","inputs":[{"name":"depositor","type":"address","internalType":"address"},{"name":"tokenToDeposit","type":"address","internalType":"address"},{"name":"amount","type":"uint256","internalType":"uint256"}],"outputs":[],"stateMutability":"nonpayable"}],"bytecode":{"object":"0x60a060405234801561001057600080fd5b5060405161055638038061055683398101604081905261002f916101fd565b6001600160a01b03831660805260005b600281101561015457600083826002811061005c5761005c610242565b60200201516001600160a01b031614806100955750600082826002811061008557610085610242565b60200201516001600160a01b0316145b156100e65760405162461bcd60e51b815260206004820152601460248201527f526f757465723a205a65726f2041646472657373000000000000000000000000604482015260640160405180910390fd5b8181600281106100f8576100f8610242565b602002015160008085846002811061011257610112610242565b602090810291909101516001600160a01b0390811683529082019290925260400160002080546001600160a01b0319169290911691909117905560010161003f565b50505050610258565b80516001600160a01b038116811461017457600080fd5b919050565b600082601f83011261018a57600080fd5b604080519081016001600160401b03811182821017156101ba57634e487b7160e01b600052604160045260246000fd5b80604052508060408401858111156101d157600080fd5b845b818110156101f2576101e48161015d565b8352602092830192016101d3565b509195945050505050565b600080600060a0848603121561021257600080fd5b61021b8461015d565b925061022a8560208601610179565b91506102398560608601610179565b90509250925092565b634e487b7160e01b600052603260045260246000fd5b6080516102dd610279600039600081816067015261011d01526102dd6000f3fe608060405234801561001057600080fd5b506004361061002b5760003560e01c8063a745f78e14610030575b600080fd5b61004361003e366004610220565b610045565b005b60405163091465f760e11b81526001600160a01b0383811660048301526000917f000000000000000000000000000000000000000000000000000000000000000090911690631228cbee90602401602060405180830381865afa1580156100b0573d6000803e3d6000fd5b505050506040513d601f19601f820116820180604052508101906100d49190610261565b90506001600160a01b03811661018e576001600160a01b038381166000818152602081905260409081902054905163e343361560e01b81526004810192909252821660248201527f00000000000000000000000000000000000000000000000000000000000000009091169063e3433615906044016020604051808303816000875af1158015610168573d6000803e3d6000fd5b505050506040513d601f19601f8201168201806040525081019061018c9190610261565b505b6040516318becba160e21b81526001600160a01b038581166004830152602482018490528216906362fb2e84906044016020604051808303816000875af11580156101dd573d6000803e3d6000fd5b505050506040513d601f19601f820116820180604052508101906102019190610285565b5050505050565b6001600160a01b038116811461021d57600080fd5b50565b60008060006060848603121561023557600080fd5b833561024081610208565b9250602084013561025081610208565b929592945050506040919091013590565b60006020828403121561027357600080fd5b815161027e81610208565b9392505050565b60006020828403121561029757600080fd5b8151801515811461027e57600080fdfea2646970667358221220f46242974fb01217537f44b207672fc9b40f5318ddfe410816ee9714f4b8911e64736f6c63430008190033","linkReferences":{}},"methodIdentifiers":{"depositLiquidity(address,address,uint256)":"a745f78e"},"id":3}