{"abi":[{"type":"constructor","inputs":[{"name":"factory","type":"address","internalType":"address"},{"name":"tokenAddress","type":"address[2]","internalType":"address[2]"},{"name":"priceFeeds","type":"address[2]","internalType":"address[2]"},{"name":"lendToken","type":"address","internalType":"address"}],"stateMutability":"nonpayable"},{"type":"function","name":"DepositCollateralSingle","inputs":[{"name":"tokenToDeposit","type":"address","internalType":"address"},{"name":"amount","type":"uint256","internalType":"uint256"}],"outputs":[],"stateMutability":"nonpayable"},{"type":"function","name":"depositLiquidity","inputs":[{"name":"tokenToDeposit","type":"address","internalType":"address"},{"name":"amount","type":"uint256","internalType":"uint256"}],"outputs":[],"stateMutability":"nonpayable"},{"type":"function","name":"flashLoan","inputs":[{"name":"token","type":"address","internalType":"address"},{"name":"amount","type":"uint256","internalType":"uint256"}],"outputs":[],"stateMutability":"nonpayable"},{"type":"function","name":"getCollateralValueInUSD","inputs":[{"name":"token","type":"address","internalType":"address"},{"name":"user","type":"address","internalType":"address"}],"outputs":[{"name":"","type":"uint256","internalType":"uint256"}],"stateMutability":"view"},{"type":"function","name":"getDepositsInUSD","inputs":[{"name":"token","type":"address","internalType":"address"}],"outputs":[{"name":"","type":"uint256","internalType":"uint256"}],"stateMutability":"view"},{"type":"function","name":"getFactory","inputs":[],"outputs":[{"name":"","type":"address","internalType":"address"}],"stateMutability":"view"},{"type":"function","name":"getFlashLoanFee","inputs":[],"outputs":[{"name":"","type":"uint256","internalType":"uint256"}],"stateMutability":"pure"},{"type":"function","name":"getLendTokens","inputs":[],"outputs":[{"name":"","type":"address","internalType":"address"}],"stateMutability":"view"},{"type":"function","name":"getPoolAddress","inputs":[{"name":"token","type":"address","internalType":"address"}],"outputs":[{"name":"","type":"address","internalType":"address"}],"stateMutability":"view"},{"type":"function","name":"owner","inputs":[],"outputs":[{"name":"","type":"address","internalType":"address"}],"stateMutability":"view"},{"type":"function","name":"renounceOwnership","inputs":[],"outputs":[],"stateMutability":"nonpayable"},{"type":"function","name":"setPriceFeeds","inputs":[{"name":"underlyingToken","type":"address","internalType":"address"},{"name":"priceFeed","type":"address","internalType":"address"}],"outputs":[],"stateMutability":"nonpayable"},{"type":"function","name":"transferOwnership","inputs":[{"name":"newOwner","type":"address","internalType":"address"}],"outputs":[],"stateMutability":"nonpayable"},{"type":"function","name":"withdrawDepositedFunds","inputs":[{"name":"tokenToWithdraw","type":"address","internalType":"address"},{"name":"amount","type":"uint256","internalType":"uint256"},{"name":"depositId","type":"uint256","internalType":"uint256"}],"outputs":[],"stateMutability":"nonpayable"},{"type":"function","name":"withdrawMultipleDepositsSameAsset","inputs":[{"name":"tokensToWithdraw","type":"address","internalType":"address"},{"name":"depositIds","type":"uint256[]","internalType":"uint256[]"},{"name":"depositAmounts","type":"uint256[]","internalType":"uint256[]"}],"outputs":[],"stateMutability":"nonpayable"},{"type":"function","name":"withdrawTotalUserDeposit","inputs":[{"name":"tokenToWithdraw","type":"address","internalType":"address"}],"outputs":[],"stateMutability":"nonpayable"},{"type":"event","name":"OwnershipTransferred","inputs":[{"name":"previousOwner","type":"address","indexed":true,"internalType":"address"},{"name":"newOwner","type":"address","indexed":true,"internalType":"address"}],"anonymous":false},{"type":"error","name":"AddressEmptyCode","inputs":[{"name":"target","type":"address","internalType":"address"}]},{"type":"error","name":"AddressInsufficientBalance","inputs":[{"name":"account","type":"address","internalType":"address"}]},{"type":"error","name":"FailedInnerCall","inputs":[]},{"type":"error","name":"OwnableInvalidOwner","inputs":[{"name":"owner","type":"address","internalType":"address"}]},{"type":"error","name":"OwnableUnauthorizedAccount","inputs":[{"name":"account","type":"address","internalType":"address"}]},{"type":"error","name":"Router__AlreadyWithdrawnAmount","inputs":[]},{"type":"error","name":"Router__ZeroAddress","inputs":[]},{"type":"error","name":"SafeERC20FailedOperation","inputs":[{"name":"token","type":"address","internalType":"address"}]}],"bytecode":{"object":"0x60c060405234801561001057600080fd5b50604051611b41380380611b4183398101604081905261002f9161028d565b338061005557604051631e4fbdf760e01b81526000600482015260240160405180910390fd5b61005e8161019d565b506001600160a01b038416158061007c57506001600160a01b038116155b1561009a57604051632c5b83b960e01b815260040160405180910390fd5b6001600160a01b03808516608052811660a05260005b60028110156101935760008482600281106100cd576100cd6102e3565b60200201516001600160a01b03161480610106575060008382600281106100f6576100f66102e3565b60200201516001600160a01b0316145b1561012457604051632c5b83b960e01b815260040160405180910390fd5b828160028110610136576101366102e3565b602002015160016000868460028110610151576101516102e3565b602090810291909101516001600160a01b0390811683529082019290925260400160002080546001600160a01b031916929091169190911790556001016100b0565b50505050506102f9565b600080546001600160a01b038381166001600160a01b0319831681178455604051919092169283917f8be0079c531659141344cd1fd0a4f28419497f9722a3daafe3b4186f6b6457e09190a35050565b80516001600160a01b038116811461020457600080fd5b919050565b600082601f83011261021a57600080fd5b604080519081016001600160401b038111828210171561024a57634e487b7160e01b600052604160045260246000fd5b806040525080604084018581111561026157600080fd5b845b8181101561028257610274816101ed565b835260209283019201610263565b509195945050505050565b60008060008060c085870312156102a357600080fd5b6102ac856101ed565b93506102bb8660208701610209565b92506102ca8660608701610209565b91506102d860a086016101ed565b905092959194509250565b634e487b7160e01b600052603260045260246000fd5b60805160a0516117ac61039560003960008181610193015281816104f90152818161097501528181610c0701528181610f2e0152818161125a01526112dd0152600081816101e70152818161037c01528181610443015281816105210152818161063d0152818161074201528181610873015281816109f301528181610aab01528181610c8c01528181610e780152610f5601526117ac6000f3fe608060405234801561001057600080fd5b50600436106101005760003560e01c8063715018a6116100975780639d9e465c116100665780639d9e465c1461022f578063d7e4a84b14610242578063f2fde38b14610255578063fd90c2be1461026857600080fd5b8063715018a6146101dd57806388cc58e4146101e55780638da5cb5b1461020b5780639ab180381461021c57600080fd5b80634343d506116100d35780634343d5061461017057806347ccbdc7146101915780636c9ba985146101b757806370b77c47146101ca57600080fd5b8063068f158d146101055780630a20af101461011a5780631228cbee1461012d57806339b41b4a1461015d575b600080fd5b610118610113366004611532565b61026f565b005b6101186101283660046115b7565b610304565b61014061013b36600461163a565b61035a565b6040516001600160a01b0390911681526020015b60405180910390f35b61011861016b366004611657565b6103ef565b61018361017e366004611532565b610619565b604051908152602001610154565b7f0000000000000000000000000000000000000000000000000000000000000000610140565b6101836101c536600461163a565b61071e565b6101186101d8366004611683565b61081f565b6101186109ac565b7f0000000000000000000000000000000000000000000000000000000000000000610140565b6000546001600160a01b0316610140565b61011861022a36600461163a565b6109c0565b61011861023d366004611657565b610c38565b610118610250366004611657565b610e24565b61011861026336600461163a565b61112c565b6005610183565b61027761116f565b6001600160a01b038216158061029457506001600160a01b038116155b156102b257604051632c5b83b960e01b815260040160405180910390fd5b6001600160a01b0382811660009081526001602052604090205416610300576001600160a01b03828116600090815260016020526040902080546001600160a01b0319169183169190911790555b5050565b60005b838110156103525761034a86848484818110610325576103256116b8565b9050602002013587878581811061033e5761033e6116b8565b9050602002013561081f565b600101610307565b505050505050565b60405163091465f760e11b81526001600160a01b0382811660048301526000917f000000000000000000000000000000000000000000000000000000000000000090911690631228cbee90602401602060405180830381865afa1580156103c5573d6000803e3d6000fd5b505050506040513d601f19601f820116820180604052508101906103e991906116ce565b92915050565b6001600160a01b0382161580610403575080155b1561042157604051632c5b83b960e01b815260040160405180910390fd5b60405163091465f760e11b81526001600160a01b0383811660048301526000917f000000000000000000000000000000000000000000000000000000000000000090911690631228cbee90602401602060405180830381865afa15801561048c573d6000803e3d6000fd5b505050506040513d601f19601f820116820180604052508101906104b091906116ce565b90506001600160a01b038116610593576001600160a01b03838116600081815260016020526040908190205490516311b5751760e11b81526004810192909252821660248201527f0000000000000000000000000000000000000000000000000000000000000000821660448201527f00000000000000000000000000000000000000000000000000000000000000009091169063236aea2e906064016020604051808303816000875af115801561056c573d6000803e3d6000fd5b505050506040513d601f19601f8201168201806040525081019061059091906116ce565b90505b61059f8333308561119c565b6040516318becba160e21b8152336004820152602481018390526001600160a01b038216906362fb2e8490604401600060405180830381600087803b1580156105e757600080fd5b505af11580156105fb573d6000803e3d6000fd5b5050505061060a838284611203565b6106143383611234565b505050565b60405163091465f760e11b81526001600160a01b03838116600483015260009182917f00000000000000000000000000000000000000000000000000000000000000001690631228cbee90602401602060405180830381865afa158015610684573d6000803e3d6000fd5b505050506040513d601f19601f820116820180604052508101906106a891906116ce565b60405163877db9dd60e01b81526001600160a01b0385811660048301529192509082169063877db9dd90602401602060405180830381865afa1580156106f2573d6000803e3d6000fd5b505050506040513d601f19601f8201168201806040525081019061071691906116eb565b949350505050565b60405163091465f760e11b81526001600160a01b03828116600483015260009182917f00000000000000000000000000000000000000000000000000000000000000001690631228cbee90602401602060405180830381865afa158015610789573d6000803e3d6000fd5b505050506040513d601f19601f820116820180604052508101906107ad91906116ce565b604051635de0a9af60e01b81523360048201529091506001600160a01b03821690635de0a9af90602401602060405180830381865afa1580156107f4573d6000803e3d6000fd5b505050506040513d601f19601f8201168201806040525081019061081891906116eb565b9392505050565b6001600160a01b0383161580610833575081155b1561085157604051632c5b83b960e01b815260040160405180910390fd5b60405163091465f760e11b81526001600160a01b0384811660048301526000917f000000000000000000000000000000000000000000000000000000000000000090911690631228cbee90602401602060405180830381865afa1580156108bc573d6000803e3d6000fd5b505050506040513d601f19601f820116820180604052508101906108e091906116ce565b90506001600160a01b03811661090957604051632c5b83b960e01b815260040160405180910390fd5b60405163ea999dff60e01b815233600482015260248101849052604481018390526001600160a01b0382169063ea999dff90606401600060405180830381600087803b15801561095857600080fd5b505af115801561096c573d6000803e3d6000fd5b5050505061099c7f000000000000000000000000000000000000000000000000000000000000000033308661119c565b6109a633846112c7565b50505050565b6109b461116f565b6109be600061133d565b565b6001600160a01b0381161580610a6b575060405163091465f760e11b81526001600160a01b0382811660048301526000917f000000000000000000000000000000000000000000000000000000000000000090911690631228cbee90602401602060405180830381865afa158015610a3c573d6000803e3d6000fd5b505050506040513d601f19601f82011682018060405250810190610a6091906116ce565b6001600160a01b0316145b15610a8957604051632c5b83b960e01b815260040160405180910390fd5b60405163091465f760e11b81526001600160a01b0382811660048301526000917f000000000000000000000000000000000000000000000000000000000000000090911690631228cbee90602401602060405180830381865afa158015610af4573d6000803e3d6000fd5b505050506040513d601f19601f82011682018060405250810190610b1891906116ce565b6040516327f9c4c160e01b81523360048201529091506000906001600160a01b038316906327f9c4c190602401602060405180830381865afa158015610b62573d6000803e3d6000fd5b505050506040513d601f19601f82011682018060405250810190610b8691906116eb565b905080600003610ba95760405163108a8d2960e31b815260040160405180910390fd5b6040516311051b5b60e11b81523360048201526001600160a01b0383169063220a36b690602401600060405180830381600087803b158015610bea57600080fd5b505af1158015610bfe573d6000803e3d6000fd5b50505050610c2e7f000000000000000000000000000000000000000000000000000000000000000033308461119c565b61061433826112c7565b6001600160a01b0382161580610c4c575080155b15610c6a57604051632c5b83b960e01b815260040160405180910390fd5b60405163091465f760e11b81526001600160a01b0383811660048301526000917f000000000000000000000000000000000000000000000000000000000000000090911690631228cbee90602401602060405180830381865afa158015610cd5573d6000803e3d6000fd5b505050506040513d601f19601f82011682018060405250810190610cf991906116ce565b90506001600160a01b038116610d2257604051632c5b83b960e01b815260040160405180910390fd5b6000610d2f83600561138d565b60405163134bde1160e01b8152336004820152602481018590529091506001600160a01b0383169063134bde1190604401600060405180830381600087803b158015610d7a57600080fd5b505af1158015610d8e573d6000803e3d6000fd5b50506040516322d453e360e21b81526001600160a01b03871660048201526024810186905260448101849052339250638b514f8c9150606401600060405180830381600087803b158015610de157600080fd5b505af1158015610df5573d6000803e3d6000fd5b50505050610e108433308487610e0b9190611704565b61119c565b6109a68483610e1f8487611704565b611203565b6001600160a01b0382161580610e38575080155b15610e5657604051632c5b83b960e01b815260040160405180910390fd5b60405163091465f760e11b81526001600160a01b0383811660048301526000917f000000000000000000000000000000000000000000000000000000000000000090911690631228cbee90602401602060405180830381865afa158015610ec1573d6000803e3d6000fd5b505050506040513d601f19601f82011682018060405250810190610ee591906116ce565b90506001600160a01b038116610fc8576001600160a01b03838116600081815260016020526040908190205490516311b5751760e11b81526004810192909252821660248201527f0000000000000000000000000000000000000000000000000000000000000000821660448201527f00000000000000000000000000000000000000000000000000000000000000009091169063236aea2e906064016020604051808303816000875af1158015610fa1573d6000803e3d6000fd5b505050506040513d601f19601f82011682018060405250810190610fc591906116ce565b90505b604080516060810182526001600160a01b03831680825260208201859052825163f27feeaf60e01b815260048101869052919283019163f27feeaf90602401602060405180830381865afa158015611024573d6000803e3d6000fd5b505050506040513d601f19601f8201168201806040525081019061104891906116eb565b9052336000818152600260208181526040808420805485526001908101835293819020865181546001600160a01b0319166001600160a01b03909116178155918601519382019390935593909101519201919091556110aa908490308561119c565b60405163297576c360e21b8152336004820152602481018390526001600160a01b0382169063a5d5db0c90604401600060405180830381600087803b1580156110f257600080fd5b505af1158015611106573d6000803e3d6000fd5b505033600090815260026020526040902080546001019055506106149050838284611203565b61113461116f565b6001600160a01b03811661116357604051631e4fbdf760e01b8152600060048201526024015b60405180910390fd5b61116c8161133d565b50565b6000546001600160a01b031633146109be5760405163118cdaa760e01b815233600482015260240161115a565b6040516001600160a01b0384811660248301528381166044830152606482018390526109a69186918216906323b872dd906084015b604051602081830303815290604052915060e01b6020820180516001600160e01b0383818316178352505050506113b3565b6040516001600160a01b0383811660248301526044820183905261061491859182169063a9059cbb906064016111d1565b6040516340c10f1960e01b81526001600160a01b038381166004830152602482018390527f000000000000000000000000000000000000000000000000000000000000000016906340c10f19906044016020604051808303816000875af11580156112a3573d6000803e3d6000fd5b505050506040513d601f19601f820116820180604052508101906106149190611725565b604051630852cd8d60e31b8152600481018290527f00000000000000000000000000000000000000000000000000000000000000006001600160a01b0316906342966c6890602401600060405180830381600087803b15801561132957600080fd5b505af1158015610352573d6000803e3d6000fd5b600080546001600160a01b038381166001600160a01b0319831681178455604051919092169283917f8be0079c531659141344cd1fd0a4f28419497f9722a3daafe3b4186f6b6457e09190a35050565b6000811561138819839004841115176113a557600080fd5b506127109102611388010490565b60006113c86001600160a01b03841683611416565b905080516000141580156113ed5750808060200190518101906113eb9190611725565b155b1561061457604051635274afe760e01b81526001600160a01b038416600482015260240161115a565b60606108188383600084600080856001600160a01b0316848660405161143c9190611747565b60006040518083038185875af1925050503d8060008114611479576040519150601f19603f3d011682016040523d82523d6000602084013e61147e565b606091505b509150915061148e868383611498565b9695505050505050565b6060826114ad576114a8826114f4565b610818565b81511580156114c457506001600160a01b0384163b155b156114ed57604051639996b31560e01b81526001600160a01b038516600482015260240161115a565b5080610818565b8051156115045780518082602001fd5b604051630a12f52160e11b815260040160405180910390fd5b6001600160a01b038116811461116c57600080fd5b6000806040838503121561154557600080fd5b82356115508161151d565b915060208301356115608161151d565b809150509250929050565b60008083601f84011261157d57600080fd5b50813567ffffffffffffffff81111561159557600080fd5b6020830191508360208260051b85010111156115b057600080fd5b9250929050565b6000806000806000606086880312156115cf57600080fd5b85356115da8161151d565b9450602086013567ffffffffffffffff808211156115f757600080fd5b61160389838a0161156b565b9096509450604088013591508082111561161c57600080fd5b506116298882890161156b565b969995985093965092949392505050565b60006020828403121561164c57600080fd5b81356108188161151d565b6000806040838503121561166a57600080fd5b82356116758161151d565b946020939093013593505050565b60008060006060848603121561169857600080fd5b83356116a38161151d565b95602085013595506040909401359392505050565b634e487b7160e01b600052603260045260246000fd5b6000602082840312156116e057600080fd5b81516108188161151d565b6000602082840312156116fd57600080fd5b5051919050565b808201808211156103e957634e487b7160e01b600052601160045260246000fd5b60006020828403121561173757600080fd5b8151801515811461081857600080fd5b6000825160005b81811015611768576020818601810151858301520161174e565b50600092019182525091905056fea2646970667358221220db4a1fb29c98c26ae129bfc3330fd297e2f99a4a1c55d0f59cecf11adf4403a164736f6c63430008190033","linkReferences":{}},"methodIdentifiers":{"DepositCollateralSingle(address,uint256)":"d7e4a84b","depositLiquidity(address,uint256)":"39b41b4a","flashLoan(address,uint256)":"9d9e465c","getCollateralValueInUSD(address,address)":"4343d506","getDepositsInUSD(address)":"6c9ba985","getFactory()":"88cc58e4","getFlashLoanFee()":"fd90c2be","getLendTokens()":"47ccbdc7","getPoolAddress(address)":"1228cbee","owner()":"8da5cb5b","renounceOwnership()":"715018a6","setPriceFeeds(address,address)":"068f158d","transferOwnership(address)":"f2fde38b","withdrawDepositedFunds(address,uint256,uint256)":"70b77c47","withdrawMultipleDepositsSameAsset(address,uint256[],uint256[])":"0a20af10","withdrawTotalUserDeposit(address)":"9ab18038"},"id":8}