{"abi":[{"type":"constructor","inputs":[{"name":"factory","type":"address","internalType":"address"},{"name":"tokenAddress","type":"address[]","internalType":"address[]"},{"name":"priceFeeds","type":"address[]","internalType":"address[]"},{"name":"lendToken","type":"address","internalType":"address"}],"stateMutability":"nonpayable"},{"type":"function","name":"CreatePool","inputs":[{"name":"token","type":"address","internalType":"address"}],"outputs":[],"stateMutability":"nonpayable"},{"type":"function","name":"DepositCollateralSingle","inputs":[{"name":"tokenToDeposit","type":"address","internalType":"address"},{"name":"amount","type":"uint256","internalType":"uint256"}],"outputs":[],"stateMutability":"nonpayable"},{"type":"function","name":"borrow","inputs":[{"name":"tokenToBorrow","type":"address","internalType":"address"},{"name":"CollateralToken","type":"address","internalType":"address"},{"name":"amount","type":"uint256","internalType":"uint256"},{"name":"amountCollateral","type":"uint256","internalType":"uint256"}],"outputs":[],"stateMutability":"nonpayable"},{"type":"function","name":"depositLiquidity","inputs":[{"name":"tokenToDeposit","type":"address","internalType":"address"},{"name":"amount","type":"uint256","internalType":"uint256"}],"outputs":[],"stateMutability":"nonpayable"},{"type":"function","name":"flashLoan","inputs":[{"name":"token","type":"address","internalType":"address"},{"name":"amount","type":"uint256","internalType":"uint256"}],"outputs":[],"stateMutability":"nonpayable"},{"type":"function","name":"getCollateralValueInUSD","inputs":[{"name":"token","type":"address","internalType":"address"},{"name":"user","type":"address","internalType":"address"}],"outputs":[{"name":"","type":"uint256","internalType":"uint256"}],"stateMutability":"view"},{"type":"function","name":"getDepositsInUSD","inputs":[{"name":"token","type":"address","internalType":"address"}],"outputs":[{"name":"","type":"uint256","internalType":"uint256"}],"stateMutability":"view"},{"type":"function","name":"getFactory","inputs":[],"outputs":[{"name":"","type":"address","internalType":"address"}],"stateMutability":"view"},{"type":"function","name":"getFlashLoanFee","inputs":[],"outputs":[{"name":"","type":"uint256","internalType":"uint256"}],"stateMutability":"pure"},{"type":"function","name":"getLendTokens","inputs":[],"outputs":[{"name":"","type":"address","internalType":"address"}],"stateMutability":"view"},{"type":"function","name":"getPoolAddress","inputs":[{"name":"token","type":"address","internalType":"address"}],"outputs":[{"name":"","type":"address","internalType":"address"}],"stateMutability":"view"},{"type":"function","name":"owner","inputs":[],"outputs":[{"name":"","type":"address","internalType":"address"}],"stateMutability":"view"},{"type":"function","name":"renounceOwnership","inputs":[],"outputs":[],"stateMutability":"nonpayable"},{"type":"function","name":"setPriceFeeds","inputs":[{"name":"underlyingToken","type":"address","internalType":"address"},{"name":"priceFeed","type":"address","internalType":"address"}],"outputs":[],"stateMutability":"nonpayable"},{"type":"function","name":"transferOwnership","inputs":[{"name":"newOwner","type":"address","internalType":"address"}],"outputs":[],"stateMutability":"nonpayable"},{"type":"function","name":"withdrawDepositedFunds","inputs":[{"name":"tokenToWithdraw","type":"address","internalType":"address"},{"name":"amount","type":"uint256","internalType":"uint256"},{"name":"depositId","type":"uint256","internalType":"uint256"}],"outputs":[],"stateMutability":"nonpayable"},{"type":"function","name":"withdrawMultipleDepositsSameAsset","inputs":[{"name":"tokensToWithdraw","type":"address","internalType":"address"},{"name":"depositIds","type":"uint256[]","internalType":"uint256[]"},{"name":"depositAmounts","type":"uint256[]","internalType":"uint256[]"}],"outputs":[],"stateMutability":"nonpayable"},{"type":"function","name":"withdrawTotalUserDeposit","inputs":[{"name":"tokenToWithdraw","type":"address","internalType":"address"}],"outputs":[],"stateMutability":"nonpayable"},{"type":"event","name":"OwnershipTransferred","inputs":[{"name":"previousOwner","type":"address","indexed":true,"internalType":"address"},{"name":"newOwner","type":"address","indexed":true,"internalType":"address"}],"anonymous":false},{"type":"error","name":"AddressEmptyCode","inputs":[{"name":"target","type":"address","internalType":"address"}]},{"type":"error","name":"AddressInsufficientBalance","inputs":[{"name":"account","type":"address","internalType":"address"}]},{"type":"error","name":"FailedInnerCall","inputs":[]},{"type":"error","name":"OwnableInvalidOwner","inputs":[{"name":"owner","type":"address","internalType":"address"}]},{"type":"error","name":"OwnableUnauthorizedAccount","inputs":[{"name":"account","type":"address","internalType":"address"}]},{"type":"error","name":"Router__AlreadyWithdrawnAmount","inputs":[]},{"type":"error","name":"Router__InvalidLength","inputs":[]},{"type":"error","name":"Router__ZeroAddress","inputs":[]},{"type":"error","name":"SafeERC20FailedOperation","inputs":[{"name":"token","type":"address","internalType":"address"}]}],"bytecode":{"object":"0x60c060405234801561001057600080fd5b5060405161226b38038061226b83398101604081905261002f91610305565b338061005557604051631e4fbdf760e01b81526000600482015260240160405180910390fd5b61005e816101df565b506001600160a01b038416158061007c57506001600160a01b038116155b1561009a57604051632c5b83b960e01b815260040160405180910390fd5b6001600160a01b03808516608052811660a052825182518082146100d1576040516358568d1360e11b815260040160405180910390fd5b60005b828110156101d35760006001600160a01b03168682815181106100f9576100f961038a565b60200260200101516001600160a01b03161480610141575060006001600160a01b031685828151811061012e5761012e61038a565b60200260200101516001600160a01b0316145b1561015f57604051632c5b83b960e01b815260040160405180910390fd5b8481815181106101715761017161038a565b60200260200101516001600088848151811061018f5761018f61038a565b6020908102919091018101516001600160a01b0390811683529082019290925260400160002080546001600160a01b031916929091169190911790556001016100d4565b505050505050506103a0565b600080546001600160a01b038381166001600160a01b0319831681178455604051919092169283917f8be0079c531659141344cd1fd0a4f28419497f9722a3daafe3b4186f6b6457e09190a35050565b80516001600160a01b038116811461024657600080fd5b919050565b634e487b7160e01b600052604160045260246000fd5b600082601f83011261027257600080fd5b815160206001600160401b038083111561028e5761028e61024b565b8260051b604051601f19603f830116810181811084821117156102b3576102b361024b565b60405293845260208187018101949081019250878511156102d357600080fd5b6020870191505b848210156102fa576102eb8261022f565b835291830191908301906102da565b979650505050505050565b6000806000806080858703121561031b57600080fd5b6103248561022f565b60208601519094506001600160401b038082111561034157600080fd5b61034d88838901610261565b9450604087015191508082111561036357600080fd5b5061037087828801610261565b92505061037f6060860161022f565b905092959194509250565b634e487b7160e01b600052603260045260246000fd5b60805160a051611e05610466600039600081816101a90152818161055b0152818161080801528181610aca01528181610d5c015281816110a901528181611579015281816115fc0152611815015260008181610210015281816103b80152818161047f0152818161052601528181610673015281816107d301528181610897015281816109c801528181610b4801528181610c0001528181610de101528181610fcd01528181611074015281816113120152818161173b01526117e00152611e056000f3fe608060405234801561001057600080fd5b50600436106101165760003560e01c8063715018a6116100a25780639d9e465c116100715780639d9e465c14610258578063d7e4a84b1461026b578063f2fde38b1461027e578063fbf3773914610291578063fd90c2be146102a457600080fd5b8063715018a61461020657806388cc58e41461020e5780638da5cb5b146102345780639ab180381461024557600080fd5b80634343d506116100e95780634343d5061461018657806347ccbdc7146101a757806369c0bed0146101cd5780636c9ba985146101e057806370b77c47146101f357600080fd5b8063068f158d1461011b5780630a20af10146101305780631228cbee1461014357806339b41b4a14610173575b600080fd5b61012e610129366004611a82565b6102ab565b005b61012e61013e366004611b07565b610340565b610156610151366004611b8a565b610396565b6040516001600160a01b0390911681526020015b60405180910390f35b61012e610181366004611ba7565b61042b565b610199610194366004611a82565b61064f565b60405190815260200161016a565b7f0000000000000000000000000000000000000000000000000000000000000000610156565b61012e6101db366004611b8a565b610755565b6101996101ee366004611b8a565b610873565b61012e610201366004611bd3565b610974565b61012e610b01565b7f0000000000000000000000000000000000000000000000000000000000000000610156565b6000546001600160a01b0316610156565b61012e610253366004611b8a565b610b15565b61012e610266366004611ba7565b610d8d565b61012e610279366004611ba7565b610f79565b61012e61028c366004611b8a565b61127b565b61012e61029f366004611c08565b6112be565b6005610199565b6102b361148e565b6001600160a01b03821615806102d057506001600160a01b038116155b156102ee57604051632c5b83b960e01b815260040160405180910390fd5b6001600160a01b038281166000908152600160205260409020541661033c576001600160a01b03828116600090815260016020526040902080546001600160a01b0319169183169190911790555b5050565b60005b8381101561038e576103868684848481811061036157610361611c4e565b9050602002013587878581811061037a5761037a611c4e565b90506020020135610974565b600101610343565b505050505050565b60405163091465f760e11b81526001600160a01b0382811660048301526000917f000000000000000000000000000000000000000000000000000000000000000090911690631228cbee90602401602060405180830381865afa158015610401573d6000803e3d6000fd5b505050506040513d601f19601f820116820180604052508101906104259190611c64565b92915050565b6001600160a01b038216158061043f575080155b1561045d57604051632c5b83b960e01b815260040160405180910390fd5b60405163091465f760e11b81526001600160a01b0383811660048301526000917f000000000000000000000000000000000000000000000000000000000000000090911690631228cbee90602401602060405180830381865afa1580156104c8573d6000803e3d6000fd5b505050506040513d601f19601f820116820180604052508101906104ec9190611c64565b90506001600160a01b0381166105c9576001600160a01b03838116600090815260016020526040908190205490516311b5751760e11b81527f000000000000000000000000000000000000000000000000000000000000000083169263236aea2e9261058392889291909116907f000000000000000000000000000000000000000000000000000000000000000090600401611c81565b6020604051808303816000875af11580156105a2573d6000803e3d6000fd5b505050506040513d601f19601f820116820180604052508101906105c69190611c64565b90505b6105d5833330856114bb565b6040516318becba160e21b8152336004820152602481018390526001600160a01b038216906362fb2e8490604401600060405180830381600087803b15801561061d57600080fd5b505af1158015610631573d6000803e3d6000fd5b50505050610640838284611522565b61064a3383611553565b505050565b60405163091465f760e11b81526001600160a01b03838116600483015260009182917f00000000000000000000000000000000000000000000000000000000000000001690631228cbee90602401602060405180830381865afa1580156106ba573d6000803e3d6000fd5b505050506040513d601f19601f820116820180604052508101906106de9190611c64565b60405163877db9dd60e01b81526001600160a01b0385811660048301529192509082169063877db9dd906024015b602060405180830381865afa158015610729573d6000803e3d6000fd5b505050506040513d601f19601f8201168201806040525081019061074d9190611ca4565b949350505050565b61075d61148e565b6001600160a01b038116158061078b57506001600160a01b0381811660009081526001602052604090205416155b156107a957604051632c5b83b960e01b815260040160405180910390fd5b6001600160a01b03818116600090815260016020526040908190205490516311b5751760e11b81527f000000000000000000000000000000000000000000000000000000000000000083169263236aea2e9261083092869291909116907f000000000000000000000000000000000000000000000000000000000000000090600401611c81565b6020604051808303816000875af115801561084f573d6000803e3d6000fd5b505050506040513d601f19601f8201168201806040525081019061033c9190611c64565b60405163091465f760e11b81526001600160a01b03828116600483015260009182917f00000000000000000000000000000000000000000000000000000000000000001690631228cbee90602401602060405180830381865afa1580156108de573d6000803e3d6000fd5b505050506040513d601f19601f820116820180604052508101906109029190611c64565b604051635de0a9af60e01b81523360048201529091506001600160a01b03821690635de0a9af90602401602060405180830381865afa158015610949573d6000803e3d6000fd5b505050506040513d601f19601f8201168201806040525081019061096d9190611ca4565b9392505050565b6001600160a01b0383161580610988575081155b156109a657604051632c5b83b960e01b815260040160405180910390fd5b60405163091465f760e11b81526001600160a01b0384811660048301526000917f000000000000000000000000000000000000000000000000000000000000000090911690631228cbee90602401602060405180830381865afa158015610a11573d6000803e3d6000fd5b505050506040513d601f19601f82011682018060405250810190610a359190611c64565b90506001600160a01b038116610a5e57604051632c5b83b960e01b815260040160405180910390fd5b60405163ea999dff60e01b815233600482015260248101849052604481018390526001600160a01b0382169063ea999dff90606401600060405180830381600087803b158015610aad57600080fd5b505af1158015610ac1573d6000803e3d6000fd5b50505050610af17f00000000000000000000000000000000000000000000000000000000000000003330866114bb565b610afb33846115e6565b50505050565b610b0961148e565b610b13600061165c565b565b6001600160a01b0381161580610bc0575060405163091465f760e11b81526001600160a01b0382811660048301526000917f000000000000000000000000000000000000000000000000000000000000000090911690631228cbee90602401602060405180830381865afa158015610b91573d6000803e3d6000fd5b505050506040513d601f19601f82011682018060405250810190610bb59190611c64565b6001600160a01b0316145b15610bde57604051632c5b83b960e01b815260040160405180910390fd5b60405163091465f760e11b81526001600160a01b0382811660048301526000917f000000000000000000000000000000000000000000000000000000000000000090911690631228cbee90602401602060405180830381865afa158015610c49573d6000803e3d6000fd5b505050506040513d601f19601f82011682018060405250810190610c6d9190611c64565b6040516327f9c4c160e01b81523360048201529091506000906001600160a01b038316906327f9c4c190602401602060405180830381865afa158015610cb7573d6000803e3d6000fd5b505050506040513d601f19601f82011682018060405250810190610cdb9190611ca4565b905080600003610cfe5760405163108a8d2960e31b815260040160405180910390fd5b6040516311051b5b60e11b81523360048201526001600160a01b0383169063220a36b690602401600060405180830381600087803b158015610d3f57600080fd5b505af1158015610d53573d6000803e3d6000fd5b50505050610d837f00000000000000000000000000000000000000000000000000000000000000003330846114bb565b61064a33826115e6565b6001600160a01b0382161580610da1575080155b15610dbf57604051632c5b83b960e01b815260040160405180910390fd5b60405163091465f760e11b81526001600160a01b0383811660048301526000917f000000000000000000000000000000000000000000000000000000000000000090911690631228cbee90602401602060405180830381865afa158015610e2a573d6000803e3d6000fd5b505050506040513d601f19601f82011682018060405250810190610e4e9190611c64565b90506001600160a01b038116610e7757604051632c5b83b960e01b815260040160405180910390fd5b6000610e848360056116ac565b60405163134bde1160e01b8152336004820152602481018590529091506001600160a01b0383169063134bde1190604401600060405180830381600087803b158015610ecf57600080fd5b505af1158015610ee3573d6000803e3d6000fd5b50506040516322d453e360e21b81526001600160a01b03871660048201526024810186905260448101849052339250638b514f8c9150606401600060405180830381600087803b158015610f3657600080fd5b505af1158015610f4a573d6000803e3d6000fd5b50505050610f658433308487610f609190611cd3565b6114bb565b610afb8483610f748487611cd3565b611522565b6001600160a01b0382161580610f8d575080155b15610fab57604051632c5b83b960e01b815260040160405180910390fd5b60405163091465f760e11b81526001600160a01b0383811660048301526000917f000000000000000000000000000000000000000000000000000000000000000090911690631228cbee90602401602060405180830381865afa158015611016573d6000803e3d6000fd5b505050506040513d601f19601f8201168201806040525081019061103a9190611c64565b90506001600160a01b038116611117576001600160a01b03838116600090815260016020526040908190205490516311b5751760e11b81527f000000000000000000000000000000000000000000000000000000000000000083169263236aea2e926110d192889291909116907f000000000000000000000000000000000000000000000000000000000000000090600401611c81565b6020604051808303816000875af11580156110f0573d6000803e3d6000fd5b505050506040513d601f19601f820116820180604052508101906111149190611c64565b90505b604080516060810182526001600160a01b03831680825260208201859052825163f27feeaf60e01b815260048101869052919283019163f27feeaf90602401602060405180830381865afa158015611173573d6000803e3d6000fd5b505050506040513d601f19601f820116820180604052508101906111979190611ca4565b9052336000818152600260208181526040808420805485526001908101835293819020865181546001600160a01b0319166001600160a01b03909116178155918601519382019390935593909101519201919091556111f990849030856114bb565b60405163297576c360e21b8152336004820152602481018390526001600160a01b0382169063a5d5db0c90604401600060405180830381600087803b15801561124157600080fd5b505af1158015611255573d6000803e3d6000fd5b5050336000908152600260205260409020805460010190555061064a9050838284611522565b61128361148e565b6001600160a01b0381166112b257604051631e4fbdf760e01b8152600060048201526024015b60405180910390fd5b6112bb8161165c565b50565b6001600160a01b03841615806112d2575081155b156112f057604051632c5b83b960e01b815260040160405180910390fd5b60405163091465f760e11b81526001600160a01b0385811660048301526000917f000000000000000000000000000000000000000000000000000000000000000090911690631228cbee90602401602060405180830381865afa15801561135b573d6000803e3d6000fd5b505050506040513d601f19601f8201168201806040525081019061137f9190611c64565b90506001600160a01b0381166113a857604051632c5b83b960e01b815260040160405180910390fd5b6113b28483610f79565b60405163f27feeaf60e01b8152600481018390526000906001600160a01b0386169063f27feeaf90602401602060405180830381865afa1580156113fa573d6000803e3d6000fd5b505050506040513d601f19601f8201168201806040525081019061141e9190611ca4565b90506000606461142f836046611ce6565b6114399190611cfd565b6114439083611d1f565b90506114776040518060400160405280601081526020016f416d6f756e7420746f20426f72726f7760801b815250826116d2565b60006114838887611717565b505050505050505050565b6000546001600160a01b03163314610b135760405163118cdaa760e01b81523360048201526024016112a9565b6040516001600160a01b038481166024830152838116604483015260648201839052610afb9186918216906323b872dd906084015b604051602081830303815290604052915060e01b6020820180516001600160e01b0383818316178352505050506118b0565b6040516001600160a01b0383811660248301526044820183905261064a91859182169063a9059cbb906064016114f0565b6040516340c10f1960e01b81526001600160a01b038381166004830152602482018390527f000000000000000000000000000000000000000000000000000000000000000016906340c10f19906044016020604051808303816000875af11580156115c2573d6000803e3d6000fd5b505050506040513d601f19601f8201168201806040525081019061064a9190611d32565b604051630852cd8d60e31b8152600481018290527f00000000000000000000000000000000000000000000000000000000000000006001600160a01b0316906342966c6890602401600060405180830381600087803b15801561164857600080fd5b505af115801561038e573d6000803e3d6000fd5b600080546001600160a01b038381166001600160a01b0319831681178455604051919092169283917f8be0079c531659141344cd1fd0a4f28419497f9722a3daafe3b4186f6b6457e09190a35050565b6000811561138819839004841115176116c457600080fd5b506127109102611388010490565b61033c82826040516024016116e8929190611d78565b60408051601f198184030181529190526020810180516001600160e01b0316632d839cb360e21b179052611913565b60405163091465f760e11b81526001600160a01b03838116600483015260009182917f00000000000000000000000000000000000000000000000000000000000000001690631228cbee90602401602060405180830381865afa158015611782573d6000803e3d6000fd5b505050506040513d601f19601f820116820180604052508101906117a69190611c64565b90506001600160a01b038116611883576001600160a01b03848116600090815260016020526040908190205490516311b5751760e11b81527f000000000000000000000000000000000000000000000000000000000000000083169263236aea2e9261183d92899291909116907f000000000000000000000000000000000000000000000000000000000000000090600401611c81565b6020604051808303816000875af115801561185c573d6000803e3d6000fd5b505050506040513d601f19601f820116820180604052508101906118809190611c64565b90505b60405163f27feeaf60e01b8152600481018490526001600160a01b0382169063f27feeaf9060240161070c565b60006118c56001600160a01b0384168361191c565b905080516000141580156118ea5750808060200190518101906118e89190611d32565b155b1561064a57604051635274afe760e01b81526001600160a01b03841660048201526024016112a9565b6112bb8161192a565b606061096d8383600061194b565b60006a636f6e736f6c652e6c6f679050600080835160208501845afa505050565b6060814710156119705760405163cd78605960e01b81523060048201526024016112a9565b600080856001600160a01b0316848660405161198c9190611db3565b60006040518083038185875af1925050503d80600081146119c9576040519150601f19603f3d011682016040523d82523d6000602084013e6119ce565b606091505b50915091506119de8683836119e8565b9695505050505050565b6060826119fd576119f882611a44565b61096d565b8151158015611a1457506001600160a01b0384163b155b15611a3d57604051639996b31560e01b81526001600160a01b03851660048201526024016112a9565b508061096d565b805115611a545780518082602001fd5b604051630a12f52160e11b815260040160405180910390fd5b6001600160a01b03811681146112bb57600080fd5b60008060408385031215611a9557600080fd5b8235611aa081611a6d565b91506020830135611ab081611a6d565b809150509250929050565b60008083601f840112611acd57600080fd5b50813567ffffffffffffffff811115611ae557600080fd5b6020830191508360208260051b8501011115611b0057600080fd5b9250929050565b600080600080600060608688031215611b1f57600080fd5b8535611b2a81611a6d565b9450602086013567ffffffffffffffff80821115611b4757600080fd5b611b5389838a01611abb565b90965094506040880135915080821115611b6c57600080fd5b50611b7988828901611abb565b969995985093965092949392505050565b600060208284031215611b9c57600080fd5b813561096d81611a6d565b60008060408385031215611bba57600080fd5b8235611bc581611a6d565b946020939093013593505050565b600080600060608486031215611be857600080fd5b8335611bf381611a6d565b95602085013595506040909401359392505050565b60008060008060808587031215611c1e57600080fd5b8435611c2981611a6d565b93506020850135611c3981611a6d565b93969395505050506040820135916060013590565b634e487b7160e01b600052603260045260246000fd5b600060208284031215611c7657600080fd5b815161096d81611a6d565b6001600160a01b0393841681529183166020830152909116604082015260600190565b600060208284031215611cb657600080fd5b5051919050565b634e487b7160e01b600052601160045260246000fd5b8082018082111561042557610425611cbd565b808202811582820484141761042557610425611cbd565b600082611d1a57634e487b7160e01b600052601260045260246000fd5b500490565b8181038181111561042557610425611cbd565b600060208284031215611d4457600080fd5b8151801515811461096d57600080fd5b60005b83811015611d6f578181015183820152602001611d57565b50506000910152565b6040815260008351806040840152611d97816060850160208801611d54565b602083019390935250601f91909101601f191601606001919050565b60008251611dc5818460208701611d54565b919091019291505056fea2646970667358221220778ef1d7660a76c29dbec1cc67a5299a373d835c7e5b16cf4ce8d6f842ddf33b64736f6c63430008190033","linkReferences":{}},"methodIdentifiers":{"CreatePool(address)":"69c0bed0","DepositCollateralSingle(address,uint256)":"d7e4a84b","borrow(address,address,uint256,uint256)":"fbf37739","depositLiquidity(address,uint256)":"39b41b4a","flashLoan(address,uint256)":"9d9e465c","getCollateralValueInUSD(address,address)":"4343d506","getDepositsInUSD(address)":"6c9ba985","getFactory()":"88cc58e4","getFlashLoanFee()":"fd90c2be","getLendTokens()":"47ccbdc7","getPoolAddress(address)":"1228cbee","owner()":"8da5cb5b","renounceOwnership()":"715018a6","setPriceFeeds(address,address)":"068f158d","transferOwnership(address)":"f2fde38b","withdrawDepositedFunds(address,uint256,uint256)":"70b77c47","withdrawMultipleDepositsSameAsset(address,uint256[],uint256[])":"0a20af10","withdrawTotalUserDeposit(address)":"9ab18038"},"id":8}