{"abi":[{"type":"constructor","inputs":[{"name":"factory","type":"address","internalType":"address"},{"name":"tokenAddress","type":"address[2]","internalType":"address[2]"},{"name":"priceFeeds","type":"address[2]","internalType":"address[2]"},{"name":"lendToken","type":"address","internalType":"address"}],"stateMutability":"nonpayable"},{"type":"function","name":"depositLiquidity","inputs":[{"name":"tokenToDeposit","type":"address","internalType":"address"},{"name":"amount","type":"uint256","internalType":"uint256"}],"outputs":[],"stateMutability":"nonpayable"},{"type":"function","name":"flashLoan","inputs":[{"name":"token","type":"address","internalType":"address"},{"name":"amount","type":"uint256","internalType":"uint256"}],"outputs":[],"stateMutability":"nonpayable"},{"type":"function","name":"owner","inputs":[],"outputs":[{"name":"","type":"address","internalType":"address"}],"stateMutability":"view"},{"type":"function","name":"renounceOwnership","inputs":[],"outputs":[],"stateMutability":"nonpayable"},{"type":"function","name":"setPriceFeeds","inputs":[{"name":"underlyingToken","type":"address","internalType":"address"},{"name":"priceFeed","type":"address","internalType":"address"}],"outputs":[],"stateMutability":"nonpayable"},{"type":"function","name":"transferOwnership","inputs":[{"name":"newOwner","type":"address","internalType":"address"}],"outputs":[],"stateMutability":"nonpayable"},{"type":"function","name":"withdrawDepositedFunds","inputs":[{"name":"tokenToWithdraw","type":"address","internalType":"address"},{"name":"amount","type":"uint256","internalType":"uint256"},{"name":"depositId","type":"uint256","internalType":"uint256"}],"outputs":[],"stateMutability":"nonpayable"},{"type":"function","name":"withdrawTotalUserDeposit","inputs":[{"name":"tokenToWithdraw","type":"address","internalType":"address"}],"outputs":[],"stateMutability":"nonpayable"},{"type":"event","name":"OwnershipTransferred","inputs":[{"name":"previousOwner","type":"address","indexed":true,"internalType":"address"},{"name":"newOwner","type":"address","indexed":true,"internalType":"address"}],"anonymous":false},{"type":"error","name":"AddressEmptyCode","inputs":[{"name":"target","type":"address","internalType":"address"}]},{"type":"error","name":"AddressInsufficientBalance","inputs":[{"name":"account","type":"address","internalType":"address"}]},{"type":"error","name":"FailedInnerCall","inputs":[]},{"type":"error","name":"OwnableInvalidOwner","inputs":[{"name":"owner","type":"address","internalType":"address"}]},{"type":"error","name":"OwnableUnauthorizedAccount","inputs":[{"name":"account","type":"address","internalType":"address"}]},{"type":"error","name":"Router__AlreadyWithdrawnAmount","inputs":[]},{"type":"error","name":"Router__ZeroAddress","inputs":[]},{"type":"error","name":"SafeERC20FailedOperation","inputs":[{"name":"token","type":"address","internalType":"address"}]}],"bytecode":{"object":"0x60c060405234801561001057600080fd5b506040516112fe3803806112fe83398101604081905261002f9161028d565b338061005557604051631e4fbdf760e01b81526000600482015260240160405180910390fd5b61005e8161019d565b506001600160a01b038416158061007c57506001600160a01b038116155b1561009a57604051632c5b83b960e01b815260040160405180910390fd5b6001600160a01b03808516608052811660a05260005b60028110156101935760008482600281106100cd576100cd6102e3565b60200201516001600160a01b03161480610106575060008382600281106100f6576100f66102e3565b60200201516001600160a01b0316145b1561012457604051632c5b83b960e01b815260040160405180910390fd5b828160028110610136576101366102e3565b602002015160016000868460028110610151576101516102e3565b602090810291909101516001600160a01b0390811683529082019290925260400160002080546001600160a01b031916929091169190911790556001016100b0565b50505050506102f9565b600080546001600160a01b038381166001600160a01b0319831681178455604051919092169283917f8be0079c531659141344cd1fd0a4f28419497f9722a3daafe3b4186f6b6457e09190a35050565b80516001600160a01b038116811461020457600080fd5b919050565b600082601f83011261021a57600080fd5b604080519081016001600160401b038111828210171561024a57634e487b7160e01b600052604160045260246000fd5b806040525080604084018581111561026157600080fd5b845b8181101561028257610274816101ed565b835260209283019201610263565b509195945050505050565b60008060008060c085870312156102a357600080fd5b6102ac856101ed565b93506102bb8660208701610209565b92506102ca8660608701610209565b91506102d860a086016101ed565b905092959194509250565b634e487b7160e01b600052603260045260246000fd5b60805160a051610fa8610356600039600081816102c70152818161052601528181610a4c0152610b36015260008181610211015281816102ef01528181610424015281816105a40152818161065c01526108110152610fa86000f3fe608060405234801561001057600080fd5b50600436106100885760003560e01c80638da5cb5b1161005b5780638da5cb5b146100d05780639ab18038146100ef5780639d9e465c14610102578063f2fde38b1461011557600080fd5b8063068f158d1461008d57806339b41b4a146100a257806370b77c47146100b5578063715018a6146100c8575b600080fd5b6100a061009b366004610dd2565b610128565b005b6100a06100b0366004610e0b565b6101bd565b6100a06100c3366004610e37565b6103d0565b6100a061055d565b600054604080516001600160a01b039092168252519081900360200190f35b6100a06100fd366004610e6c565b610571565b6100a0610110366004610e0b565b6107bd565b6100a0610123366004610e6c565b6109b6565b6101306109f9565b6001600160a01b038216158061014d57506001600160a01b038116155b1561016b57604051632c5b83b960e01b815260040160405180910390fd5b6001600160a01b03828116600090815260016020526040902054166101b9576001600160a01b03828116600090815260016020526040902080546001600160a01b0319169183169190911790555b5050565b6001600160a01b03821615806101d1575080155b156101ef57604051632c5b83b960e01b815260040160405180910390fd5b60405163091465f760e11b81526001600160a01b0383811660048301526000917f000000000000000000000000000000000000000000000000000000000000000090911690631228cbee90602401602060405180830381865afa15801561025a573d6000803e3d6000fd5b505050506040513d601f19601f8201168201806040525081019061027e9190610e89565b90506001600160a01b038116610361576001600160a01b03838116600081815260016020526040908190205490516311b5751760e11b81526004810192909252821660248201527f0000000000000000000000000000000000000000000000000000000000000000821660448201527f00000000000000000000000000000000000000000000000000000000000000009091169063236aea2e906064016020604051808303816000875af115801561033a573d6000803e3d6000fd5b505050506040513d601f19601f8201168201806040525081019061035e9190610e89565b90505b6040516318becba160e21b8152336004820152602481018390526001600160a01b038216906362fb2e8490604401600060405180830381600087803b1580156103a957600080fd5b505af11580156103bd573d6000803e3d6000fd5b505050506103cb3383610a26565b505050565b6001600160a01b03831615806103e4575081155b1561040257604051632c5b83b960e01b815260040160405180910390fd5b60405163091465f760e11b81526001600160a01b0384811660048301526000917f000000000000000000000000000000000000000000000000000000000000000090911690631228cbee90602401602060405180830381865afa15801561046d573d6000803e3d6000fd5b505050506040513d601f19601f820116820180604052508101906104919190610e89565b90506001600160a01b0381166104ba57604051632c5b83b960e01b815260040160405180910390fd5b60405163ea999dff60e01b815233600482015260248101849052604481018390526001600160a01b0382169063ea999dff90606401600060405180830381600087803b15801561050957600080fd5b505af115801561051d573d6000803e3d6000fd5b5050505061054d7f0000000000000000000000000000000000000000000000000000000000000000333086610ab9565b6105573384610b20565b50505050565b6105656109f9565b61056f6000610b9e565b565b6001600160a01b038116158061061c575060405163091465f760e11b81526001600160a01b0382811660048301526000917f000000000000000000000000000000000000000000000000000000000000000090911690631228cbee90602401602060405180830381865afa1580156105ed573d6000803e3d6000fd5b505050506040513d601f19601f820116820180604052508101906106119190610e89565b6001600160a01b0316145b1561063a57604051632c5b83b960e01b815260040160405180910390fd5b60405163091465f760e11b81526001600160a01b0382811660048301526000917f000000000000000000000000000000000000000000000000000000000000000090911690631228cbee90602401602060405180830381865afa1580156106a5573d6000803e3d6000fd5b505050506040513d601f19601f820116820180604052508101906106c99190610e89565b60405163b8ba16fd60e01b81523360048201529091506000906001600160a01b0383169063b8ba16fd90602401602060405180830381865afa158015610713573d6000803e3d6000fd5b505050506040513d601f19601f820116820180604052508101906107379190610ea6565b90508060000361075a5760405163108a8d2960e31b815260040160405180910390fd5b6040516311051b5b60e11b81523360048201526001600160a01b0383169063220a36b690602401600060405180830381600087803b15801561079b57600080fd5b505af11580156107af573d6000803e3d6000fd5b505050506103cb3382610b20565b6001600160a01b03821615806107d1575080155b156107ef57604051632c5b83b960e01b815260040160405180910390fd5b60405163091465f760e11b81526001600160a01b0383811660048301526000917f000000000000000000000000000000000000000000000000000000000000000090911690631228cbee90602401602060405180830381865afa15801561085a573d6000803e3d6000fd5b505050506040513d601f19601f8201168201806040525081019061087e9190610e89565b90506001600160a01b0381166108a757604051632c5b83b960e01b815260040160405180910390fd5b60006127106108b7846005610ed5565b6108c19190610eec565b60405163134bde1160e01b8152336004820152602481018590529091506001600160a01b0383169063134bde1190604401600060405180830381600087803b15801561090c57600080fd5b505af1158015610920573d6000803e3d6000fd5b50506040516322d453e360e21b81526001600160a01b03871660048201526024810186905260448101849052339250638b514f8c9150606401600060405180830381600087803b15801561097357600080fd5b505af1158015610987573d6000803e3d6000fd5b505050506109a2843330848761099d9190610f0e565b610ab9565b61055784836109b18487610f0e565b610bee565b6109be6109f9565b6001600160a01b0381166109ed57604051631e4fbdf760e01b8152600060048201526024015b60405180910390fd5b6109f681610b9e565b50565b6000546001600160a01b0316331461056f5760405163118cdaa760e01b81523360048201526024016109e4565b6040516340c10f1960e01b81526001600160a01b038381166004830152602482018390527f000000000000000000000000000000000000000000000000000000000000000016906340c10f19906044016020604051808303816000875af1158015610a95573d6000803e3d6000fd5b505050506040513d601f19601f820116820180604052508101906103cb9190610f21565b6040516001600160a01b0384811660248301528381166044830152606482018390526105579186918216906323b872dd906084015b604051602081830303815290604052915060e01b6020820180516001600160e01b038381831617835250505050610c1f565b604051630852cd8d60e31b8152600481018290527f00000000000000000000000000000000000000000000000000000000000000006001600160a01b0316906342966c6890602401600060405180830381600087803b158015610b8257600080fd5b505af1158015610b96573d6000803e3d6000fd5b505050505050565b600080546001600160a01b038381166001600160a01b0319831681178455604051919092169283917f8be0079c531659141344cd1fd0a4f28419497f9722a3daafe3b4186f6b6457e09190a35050565b6040516001600160a01b038381166024830152604482018390526103cb91859182169063a9059cbb90606401610aee565b6000610c346001600160a01b03841683610c82565b90508051600014158015610c59575080806020019051810190610c579190610f21565b155b156103cb57604051635274afe760e01b81526001600160a01b03841660048201526024016109e4565b6060610c9083836000610c99565b90505b92915050565b606081471015610cbe5760405163cd78605960e01b81523060048201526024016109e4565b600080856001600160a01b03168486604051610cda9190610f43565b60006040518083038185875af1925050503d8060008114610d17576040519150601f19603f3d011682016040523d82523d6000602084013e610d1c565b606091505b5091509150610d2c868383610d38565b925050505b9392505050565b606082610d4d57610d4882610d94565b610d31565b8151158015610d6457506001600160a01b0384163b155b15610d8d57604051639996b31560e01b81526001600160a01b03851660048201526024016109e4565b5080610d31565b805115610da45780518082602001fd5b604051630a12f52160e11b815260040160405180910390fd5b6001600160a01b03811681146109f657600080fd5b60008060408385031215610de557600080fd5b8235610df081610dbd565b91506020830135610e0081610dbd565b809150509250929050565b60008060408385031215610e1e57600080fd5b8235610e2981610dbd565b946020939093013593505050565b600080600060608486031215610e4c57600080fd5b8335610e5781610dbd565b95602085013595506040909401359392505050565b600060208284031215610e7e57600080fd5b8135610d3181610dbd565b600060208284031215610e9b57600080fd5b8151610d3181610dbd565b600060208284031215610eb857600080fd5b5051919050565b634e487b7160e01b600052601160045260246000fd5b8082028115828204841417610c9357610c93610ebf565b600082610f0957634e487b7160e01b600052601260045260246000fd5b500490565b80820180821115610c9357610c93610ebf565b600060208284031215610f3357600080fd5b81518015158114610d3157600080fd5b6000825160005b81811015610f645760208186018101518583015201610f4a565b50600092019182525091905056fea264697066735822122082938e4283dfce9a8682a1118d2bfff6352753e375d37b55bc3e2264519b120864736f6c63430008190033","linkReferences":{}},"methodIdentifiers":{"depositLiquidity(address,uint256)":"39b41b4a","flashLoan(address,uint256)":"9d9e465c","owner()":"8da5cb5b","renounceOwnership()":"715018a6","setPriceFeeds(address,address)":"068f158d","transferOwnership(address)":"f2fde38b","withdrawDepositedFunds(address,uint256,uint256)":"70b77c47","withdrawTotalUserDeposit(address)":"9ab18038"},"id":7}