{"abi":[{"type":"constructor","inputs":[{"name":"factory","type":"address","internalType":"address"},{"name":"tokenAddress","type":"address[2]","internalType":"address[2]"},{"name":"priceFeeds","type":"address[2]","internalType":"address[2]"},{"name":"lendToken","type":"address","internalType":"address"}],"stateMutability":"nonpayable"},{"type":"function","name":"depositLiquidity","inputs":[{"name":"tokenToDeposit","type":"address","internalType":"address"},{"name":"amount","type":"uint256","internalType":"uint256"}],"outputs":[],"stateMutability":"nonpayable"},{"type":"function","name":"flashLoan","inputs":[{"name":"token","type":"address","internalType":"address"},{"name":"amount","type":"uint256","internalType":"uint256"}],"outputs":[],"stateMutability":"nonpayable"},{"type":"function","name":"getDepositsInUSD","inputs":[{"name":"token","type":"address","internalType":"address"}],"outputs":[{"name":"","type":"uint256","internalType":"uint256"}],"stateMutability":"view"},{"type":"function","name":"getFactory","inputs":[],"outputs":[{"name":"","type":"address","internalType":"address"}],"stateMutability":"view"},{"type":"function","name":"getFlashLoanFee","inputs":[],"outputs":[{"name":"","type":"uint256","internalType":"uint256"}],"stateMutability":"pure"},{"type":"function","name":"getLendTokens","inputs":[],"outputs":[{"name":"","type":"address","internalType":"address"}],"stateMutability":"view"},{"type":"function","name":"getPoolAddress","inputs":[{"name":"token","type":"address","internalType":"address"}],"outputs":[{"name":"","type":"address","internalType":"address"}],"stateMutability":"view"},{"type":"function","name":"owner","inputs":[],"outputs":[{"name":"","type":"address","internalType":"address"}],"stateMutability":"view"},{"type":"function","name":"renounceOwnership","inputs":[],"outputs":[],"stateMutability":"nonpayable"},{"type":"function","name":"setPriceFeeds","inputs":[{"name":"underlyingToken","type":"address","internalType":"address"},{"name":"priceFeed","type":"address","internalType":"address"}],"outputs":[],"stateMutability":"nonpayable"},{"type":"function","name":"transferOwnership","inputs":[{"name":"newOwner","type":"address","internalType":"address"}],"outputs":[],"stateMutability":"nonpayable"},{"type":"function","name":"withdrawDepositedFunds","inputs":[{"name":"tokenToWithdraw","type":"address","internalType":"address"},{"name":"amount","type":"uint256","internalType":"uint256"},{"name":"depositId","type":"uint256","internalType":"uint256"}],"outputs":[],"stateMutability":"nonpayable"},{"type":"function","name":"withdrawMultipleDepositsSameAsset","inputs":[{"name":"tokensToWithdraw","type":"address","internalType":"address"},{"name":"depositIds","type":"uint256[]","internalType":"uint256[]"},{"name":"depositAmounts","type":"uint256[]","internalType":"uint256[]"}],"outputs":[],"stateMutability":"nonpayable"},{"type":"function","name":"withdrawTotalUserDeposit","inputs":[{"name":"tokenToWithdraw","type":"address","internalType":"address"}],"outputs":[],"stateMutability":"nonpayable"},{"type":"event","name":"OwnershipTransferred","inputs":[{"name":"previousOwner","type":"address","indexed":true,"internalType":"address"},{"name":"newOwner","type":"address","indexed":true,"internalType":"address"}],"anonymous":false},{"type":"error","name":"AddressEmptyCode","inputs":[{"name":"target","type":"address","internalType":"address"}]},{"type":"error","name":"AddressInsufficientBalance","inputs":[{"name":"account","type":"address","internalType":"address"}]},{"type":"error","name":"FailedInnerCall","inputs":[]},{"type":"error","name":"OwnableInvalidOwner","inputs":[{"name":"owner","type":"address","internalType":"address"}]},{"type":"error","name":"OwnableUnauthorizedAccount","inputs":[{"name":"account","type":"address","internalType":"address"}]},{"type":"error","name":"Router__AlreadyWithdrawnAmount","inputs":[]},{"type":"error","name":"Router__ZeroAddress","inputs":[]},{"type":"error","name":"SafeERC20FailedOperation","inputs":[{"name":"token","type":"address","internalType":"address"}]}],"bytecode":{"object":"0x60c060405234801561001057600080fd5b506040516116c53803806116c583398101604081905261002f9161028d565b338061005557604051631e4fbdf760e01b81526000600482015260240160405180910390fd5b61005e8161019d565b506001600160a01b038416158061007c57506001600160a01b038116155b1561009a57604051632c5b83b960e01b815260040160405180910390fd5b6001600160a01b03808516608052811660a05260005b60028110156101935760008482600281106100cd576100cd6102e3565b60200201516001600160a01b03161480610106575060008382600281106100f6576100f66102e3565b60200201516001600160a01b0316145b1561012457604051632c5b83b960e01b815260040160405180910390fd5b828160028110610136576101366102e3565b602002015160016000868460028110610151576101516102e3565b602090810291909101516001600160a01b0390811683529082019290925260400160002080546001600160a01b031916929091169190911790556001016100b0565b50505050506102f9565b600080546001600160a01b038381166001600160a01b0319831681178455604051919092169283917f8be0079c531659141344cd1fd0a4f28419497f9722a3daafe3b4186f6b6457e09190a35050565b80516001600160a01b038116811461020457600080fd5b919050565b600082601f83011261021a57600080fd5b604080519081016001600160401b038111828210171561024a57634e487b7160e01b600052604160045260246000fd5b806040525080604084018581111561026157600080fd5b845b8181101561028257610274816101ed565b835260209283019201610263565b509195945050505050565b60008060008060c085870312156102a357600080fd5b6102ac856101ed565b93506102bb8660208701610209565b92506102ca8660608701610209565b91506102d860a086016101ed565b905092959194509250565b634e487b7160e01b600052603260045260246000fd5b60805160a05161134c6103796000396000818161015c015281816104bd0152818161081d01528181610aaf01528181610d620152610e4c0152600081816101be0152818161034001528181610407015281816104e5015281816105ea0152818161071b0152818161089b015281816109530152610b34015261134c6000f3fe608060405234801561001057600080fd5b50600436106100ea5760003560e01c8063715018a61161008c5780639ab18038116100665780639ab18038146101f35780639d9e465c14610206578063f2fde38b14610219578063fd90c2be1461022c57600080fd5b8063715018a6146101b457806388cc58e4146101bc5780638da5cb5b146101e257600080fd5b806339b41b4a116100c857806339b41b4a1461014757806347ccbdc71461015a5780636c9ba9851461018057806370b77c47146101a157600080fd5b8063068f158d146100ef5780630a20af10146101045780631228cbee14610117575b600080fd5b6101026100fd3660046110d2565b610233565b005b610102610112366004611157565b6102c8565b61012a6101253660046111da565b61031e565b6040516001600160a01b0390911681526020015b60405180910390f35b6101026101553660046111f7565b6103b3565b7f000000000000000000000000000000000000000000000000000000000000000061012a565b61019361018e3660046111da565b6105c6565b60405190815260200161013e565b6101026101af366004611223565b6106c7565b610102610854565b7f000000000000000000000000000000000000000000000000000000000000000061012a565b6000546001600160a01b031661012a565b6101026102013660046111da565b610868565b6101026102143660046111f7565b610ae0565b6101026102273660046111da565b610ccc565b6005610193565b61023b610d0f565b6001600160a01b038216158061025857506001600160a01b038116155b1561027657604051632c5b83b960e01b815260040160405180910390fd5b6001600160a01b03828116600090815260016020526040902054166102c4576001600160a01b03828116600090815260016020526040902080546001600160a01b0319169183169190911790555b5050565b60005b838110156103165761030e868484848181106102e9576102e9611258565b9050602002013587878581811061030257610302611258565b905060200201356106c7565b6001016102cb565b505050505050565b60405163091465f760e11b81526001600160a01b0382811660048301526000917f000000000000000000000000000000000000000000000000000000000000000090911690631228cbee90602401602060405180830381865afa158015610389573d6000803e3d6000fd5b505050506040513d601f19601f820116820180604052508101906103ad919061126e565b92915050565b6001600160a01b03821615806103c7575080155b156103e557604051632c5b83b960e01b815260040160405180910390fd5b60405163091465f760e11b81526001600160a01b0383811660048301526000917f000000000000000000000000000000000000000000000000000000000000000090911690631228cbee90602401602060405180830381865afa158015610450573d6000803e3d6000fd5b505050506040513d601f19601f82011682018060405250810190610474919061126e565b90506001600160a01b038116610557576001600160a01b03838116600081815260016020526040908190205490516311b5751760e11b81526004810192909252821660248201527f0000000000000000000000000000000000000000000000000000000000000000821660448201527f00000000000000000000000000000000000000000000000000000000000000009091169063236aea2e906064016020604051808303816000875af1158015610530573d6000803e3d6000fd5b505050506040513d601f19601f82011682018060405250810190610554919061126e565b90505b6040516318becba160e21b8152336004820152602481018390526001600160a01b038216906362fb2e8490604401600060405180830381600087803b15801561059f57600080fd5b505af11580156105b3573d6000803e3d6000fd5b505050506105c13383610d3c565b505050565b60405163091465f760e11b81526001600160a01b03828116600483015260009182917f00000000000000000000000000000000000000000000000000000000000000001690631228cbee90602401602060405180830381865afa158015610631573d6000803e3d6000fd5b505050506040513d601f19601f82011682018060405250810190610655919061126e565b604051635de0a9af60e01b81523360048201529091506001600160a01b03821690635de0a9af90602401602060405180830381865afa15801561069c573d6000803e3d6000fd5b505050506040513d601f19601f820116820180604052508101906106c0919061128b565b9392505050565b6001600160a01b03831615806106db575081155b156106f957604051632c5b83b960e01b815260040160405180910390fd5b60405163091465f760e11b81526001600160a01b0384811660048301526000917f000000000000000000000000000000000000000000000000000000000000000090911690631228cbee90602401602060405180830381865afa158015610764573d6000803e3d6000fd5b505050506040513d601f19601f82011682018060405250810190610788919061126e565b90506001600160a01b0381166107b157604051632c5b83b960e01b815260040160405180910390fd5b60405163ea999dff60e01b815233600482015260248101849052604481018390526001600160a01b0382169063ea999dff90606401600060405180830381600087803b15801561080057600080fd5b505af1158015610814573d6000803e3d6000fd5b505050506108447f0000000000000000000000000000000000000000000000000000000000000000333086610dcf565b61084e3384610e36565b50505050565b61085c610d0f565b6108666000610eac565b565b6001600160a01b0381161580610913575060405163091465f760e11b81526001600160a01b0382811660048301526000917f000000000000000000000000000000000000000000000000000000000000000090911690631228cbee90602401602060405180830381865afa1580156108e4573d6000803e3d6000fd5b505050506040513d601f19601f82011682018060405250810190610908919061126e565b6001600160a01b0316145b1561093157604051632c5b83b960e01b815260040160405180910390fd5b60405163091465f760e11b81526001600160a01b0382811660048301526000917f000000000000000000000000000000000000000000000000000000000000000090911690631228cbee90602401602060405180830381865afa15801561099c573d6000803e3d6000fd5b505050506040513d601f19601f820116820180604052508101906109c0919061126e565b6040516327f9c4c160e01b81523360048201529091506000906001600160a01b038316906327f9c4c190602401602060405180830381865afa158015610a0a573d6000803e3d6000fd5b505050506040513d601f19601f82011682018060405250810190610a2e919061128b565b905080600003610a515760405163108a8d2960e31b815260040160405180910390fd5b6040516311051b5b60e11b81523360048201526001600160a01b0383169063220a36b690602401600060405180830381600087803b158015610a9257600080fd5b505af1158015610aa6573d6000803e3d6000fd5b50505050610ad67f0000000000000000000000000000000000000000000000000000000000000000333084610dcf565b6105c13382610e36565b6001600160a01b0382161580610af4575080155b15610b1257604051632c5b83b960e01b815260040160405180910390fd5b60405163091465f760e11b81526001600160a01b0383811660048301526000917f000000000000000000000000000000000000000000000000000000000000000090911690631228cbee90602401602060405180830381865afa158015610b7d573d6000803e3d6000fd5b505050506040513d601f19601f82011682018060405250810190610ba1919061126e565b90506001600160a01b038116610bca57604051632c5b83b960e01b815260040160405180910390fd5b6000610bd7836005610efc565b60405163134bde1160e01b8152336004820152602481018590529091506001600160a01b0383169063134bde1190604401600060405180830381600087803b158015610c2257600080fd5b505af1158015610c36573d6000803e3d6000fd5b50506040516322d453e360e21b81526001600160a01b03871660048201526024810186905260448101849052339250638b514f8c9150606401600060405180830381600087803b158015610c8957600080fd5b505af1158015610c9d573d6000803e3d6000fd5b50505050610cb88433308487610cb391906112a4565b610dcf565b61084e8483610cc784876112a4565b610f22565b610cd4610d0f565b6001600160a01b038116610d0357604051631e4fbdf760e01b8152600060048201526024015b60405180910390fd5b610d0c81610eac565b50565b6000546001600160a01b031633146108665760405163118cdaa760e01b8152336004820152602401610cfa565b6040516340c10f1960e01b81526001600160a01b038381166004830152602482018390527f000000000000000000000000000000000000000000000000000000000000000016906340c10f19906044016020604051808303816000875af1158015610dab573d6000803e3d6000fd5b505050506040513d601f19601f820116820180604052508101906105c191906112c5565b6040516001600160a01b03848116602483015283811660448301526064820183905261084e9186918216906323b872dd906084015b604051602081830303815290604052915060e01b6020820180516001600160e01b038381831617835250505050610f53565b604051630852cd8d60e31b8152600481018290527f00000000000000000000000000000000000000000000000000000000000000006001600160a01b0316906342966c6890602401600060405180830381600087803b158015610e9857600080fd5b505af1158015610316573d6000803e3d6000fd5b600080546001600160a01b038381166001600160a01b0319831681178455604051919092169283917f8be0079c531659141344cd1fd0a4f28419497f9722a3daafe3b4186f6b6457e09190a35050565b600081156113881983900484111517610f1457600080fd5b506127109102611388010490565b6040516001600160a01b038381166024830152604482018390526105c191859182169063a9059cbb90606401610e04565b6000610f686001600160a01b03841683610fb6565b90508051600014158015610f8d575080806020019051810190610f8b91906112c5565b155b156105c157604051635274afe760e01b81526001600160a01b0384166004820152602401610cfa565b60606106c08383600084600080856001600160a01b03168486604051610fdc91906112e7565b60006040518083038185875af1925050503d8060008114611019576040519150601f19603f3d011682016040523d82523d6000602084013e61101e565b606091505b509150915061102e868383611038565b9695505050505050565b60608261104d5761104882611094565b6106c0565b815115801561106457506001600160a01b0384163b155b1561108d57604051639996b31560e01b81526001600160a01b0385166004820152602401610cfa565b50806106c0565b8051156110a45780518082602001fd5b604051630a12f52160e11b815260040160405180910390fd5b6001600160a01b0381168114610d0c57600080fd5b600080604083850312156110e557600080fd5b82356110f0816110bd565b91506020830135611100816110bd565b809150509250929050565b60008083601f84011261111d57600080fd5b50813567ffffffffffffffff81111561113557600080fd5b6020830191508360208260051b850101111561115057600080fd5b9250929050565b60008060008060006060868803121561116f57600080fd5b853561117a816110bd565b9450602086013567ffffffffffffffff8082111561119757600080fd5b6111a389838a0161110b565b909650945060408801359150808211156111bc57600080fd5b506111c98882890161110b565b969995985093965092949392505050565b6000602082840312156111ec57600080fd5b81356106c0816110bd565b6000806040838503121561120a57600080fd5b8235611215816110bd565b946020939093013593505050565b60008060006060848603121561123857600080fd5b8335611243816110bd565b95602085013595506040909401359392505050565b634e487b7160e01b600052603260045260246000fd5b60006020828403121561128057600080fd5b81516106c0816110bd565b60006020828403121561129d57600080fd5b5051919050565b808201808211156103ad57634e487b7160e01b600052601160045260246000fd5b6000602082840312156112d757600080fd5b815180151581146106c057600080fd5b6000825160005b8181101561130857602081860181015185830152016112ee565b50600092019182525091905056fea264697066735822122015056349a3710b48fce82a5c5277886e7d9405dcb13536fea66f3f3547af723364736f6c63430008190033","linkReferences":{}},"methodIdentifiers":{"depositLiquidity(address,uint256)":"39b41b4a","flashLoan(address,uint256)":"9d9e465c","getDepositsInUSD(address)":"6c9ba985","getFactory()":"88cc58e4","getFlashLoanFee()":"fd90c2be","getLendTokens()":"47ccbdc7","getPoolAddress(address)":"1228cbee","owner()":"8da5cb5b","renounceOwnership()":"715018a6","setPriceFeeds(address,address)":"068f158d","transferOwnership(address)":"f2fde38b","withdrawDepositedFunds(address,uint256,uint256)":"70b77c47","withdrawMultipleDepositsSameAsset(address,uint256[],uint256[])":"0a20af10","withdrawTotalUserDeposit(address)":"9ab18038"},"id":8}