{"abi":[{"type":"constructor","inputs":[{"name":"factory","type":"address","internalType":"address"},{"name":"tokenAddress","type":"address[2]","internalType":"address[2]"},{"name":"priceFeeds","type":"address[2]","internalType":"address[2]"},{"name":"lendToken","type":"address","internalType":"address"}],"stateMutability":"nonpayable"},{"type":"function","name":"depositLiquidity","inputs":[{"name":"tokenToDeposit","type":"address","internalType":"address"},{"name":"amount","type":"uint256","internalType":"uint256"}],"outputs":[],"stateMutability":"nonpayable"},{"type":"function","name":"flashLoan","inputs":[{"name":"token","type":"address","internalType":"address"},{"name":"amount","type":"uint256","internalType":"uint256"}],"outputs":[],"stateMutability":"nonpayable"},{"type":"function","name":"getFactory","inputs":[],"outputs":[{"name":"","type":"address","internalType":"address"}],"stateMutability":"view"},{"type":"function","name":"getFlashLoanFee","inputs":[],"outputs":[{"name":"","type":"uint256","internalType":"uint256"}],"stateMutability":"pure"},{"type":"function","name":"getLendTokens","inputs":[],"outputs":[{"name":"","type":"address","internalType":"address"}],"stateMutability":"view"},{"type":"function","name":"owner","inputs":[],"outputs":[{"name":"","type":"address","internalType":"address"}],"stateMutability":"view"},{"type":"function","name":"renounceOwnership","inputs":[],"outputs":[],"stateMutability":"nonpayable"},{"type":"function","name":"setPriceFeeds","inputs":[{"name":"underlyingToken","type":"address","internalType":"address"},{"name":"priceFeed","type":"address","internalType":"address"}],"outputs":[],"stateMutability":"nonpayable"},{"type":"function","name":"transferOwnership","inputs":[{"name":"newOwner","type":"address","internalType":"address"}],"outputs":[],"stateMutability":"nonpayable"},{"type":"function","name":"withdrawDepositedFunds","inputs":[{"name":"tokenToWithdraw","type":"address","internalType":"address"},{"name":"amount","type":"uint256","internalType":"uint256"},{"name":"depositId","type":"uint256","internalType":"uint256"}],"outputs":[],"stateMutability":"nonpayable"},{"type":"function","name":"withdrawMultipleDepositsSameAsset","inputs":[{"name":"tokensToWithdraw","type":"address","internalType":"address"},{"name":"depositIds","type":"uint256[]","internalType":"uint256[]"},{"name":"depositAmounts","type":"uint256[]","internalType":"uint256[]"}],"outputs":[],"stateMutability":"nonpayable"},{"type":"function","name":"withdrawTotalUserDeposit","inputs":[{"name":"tokenToWithdraw","type":"address","internalType":"address"}],"outputs":[],"stateMutability":"nonpayable"},{"type":"event","name":"OwnershipTransferred","inputs":[{"name":"previousOwner","type":"address","indexed":true,"internalType":"address"},{"name":"newOwner","type":"address","indexed":true,"internalType":"address"}],"anonymous":false},{"type":"error","name":"AddressEmptyCode","inputs":[{"name":"target","type":"address","internalType":"address"}]},{"type":"error","name":"AddressInsufficientBalance","inputs":[{"name":"account","type":"address","internalType":"address"}]},{"type":"error","name":"FailedInnerCall","inputs":[]},{"type":"error","name":"OwnableInvalidOwner","inputs":[{"name":"owner","type":"address","internalType":"address"}]},{"type":"error","name":"OwnableUnauthorizedAccount","inputs":[{"name":"account","type":"address","internalType":"address"}]},{"type":"error","name":"Router__AlreadyWithdrawnAmount","inputs":[]},{"type":"error","name":"Router__ZeroAddress","inputs":[]},{"type":"error","name":"SafeERC20FailedOperation","inputs":[{"name":"token","type":"address","internalType":"address"}]}],"bytecode":{"object":"0x60c060405234801561001057600080fd5b506040516114ee3803806114ee83398101604081905261002f9161028d565b338061005557604051631e4fbdf760e01b81526000600482015260240160405180910390fd5b61005e8161019d565b506001600160a01b038416158061007c57506001600160a01b038116155b1561009a57604051632c5b83b960e01b815260040160405180910390fd5b6001600160a01b03808516608052811660a05260005b60028110156101935760008482600281106100cd576100cd6102e3565b60200201516001600160a01b03161480610106575060008382600281106100f6576100f66102e3565b60200201516001600160a01b0316145b1561012457604051632c5b83b960e01b815260040160405180910390fd5b828160028110610136576101366102e3565b602002015160016000868460028110610151576101516102e3565b602090810291909101516001600160a01b0390811683529082019290925260400160002080546001600160a01b031916929091169190911790556001016100b0565b50505050506102f9565b600080546001600160a01b038381166001600160a01b0319831681178455604051919092169283917f8be0079c531659141344cd1fd0a4f28419497f9722a3daafe3b4186f6b6457e09190a35050565b80516001600160a01b038116811461020457600080fd5b919050565b600082601f83011261021a57600080fd5b604080519081016001600160401b038111828210171561024a57634e487b7160e01b600052604160045260246000fd5b806040525080604084018581111561026157600080fd5b845b8181101561028257610274816101ed565b835260209283019201610263565b509195945050505050565b60008060008060c085870312156102a357600080fd5b6102ac856101ed565b93506102bb8660208701610209565b92506102ca8660608701610209565b91506102d860a086016101ed565b905092959194509250565b634e487b7160e01b600052603260045260246000fd5b60805160a05161118461036a6000396000818160f6015281816103c201528181610621015281816108b301528181610b660152610c500152600081816101500152818161030c015281816103ea0152818161051f0152818161069f01528181610757015261093801526111846000f3fe608060405234801561001057600080fd5b50600436106100b45760003560e01c806388cc58e41161007157806388cc58e41461014e5780638da5cb5b146101745780639ab18038146101855780639d9e465c14610198578063f2fde38b146101ab578063fd90c2be146101be57600080fd5b8063068f158d146100b95780630a20af10146100ce57806339b41b4a146100e157806347ccbdc7146100f457806370b77c4714610133578063715018a614610146575b600080fd5b6100cc6100c7366004610f0a565b6101cd565b005b6100cc6100dc366004610f8f565b610262565b6100cc6100ef366004611012565b6102b8565b7f00000000000000000000000000000000000000000000000000000000000000005b6040516001600160a01b0390911681526020015b60405180910390f35b6100cc61014136600461103e565b6104cb565b6100cc610658565b7f0000000000000000000000000000000000000000000000000000000000000000610116565b6000546001600160a01b0316610116565b6100cc610193366004611073565b61066c565b6100cc6101a6366004611012565b6108e4565b6100cc6101b9366004611073565b610ad0565b6040516005815260200161012a565b6101d5610b13565b6001600160a01b03821615806101f257506001600160a01b038116155b1561021057604051632c5b83b960e01b815260040160405180910390fd5b6001600160a01b038281166000908152600160205260409020541661025e576001600160a01b03828116600090815260016020526040902080546001600160a01b0319169183169190911790555b5050565b60005b838110156102b0576102a88684848481811061028357610283611090565b9050602002013587878581811061029c5761029c611090565b905060200201356104cb565b600101610265565b505050505050565b6001600160a01b03821615806102cc575080155b156102ea57604051632c5b83b960e01b815260040160405180910390fd5b60405163091465f760e11b81526001600160a01b0383811660048301526000917f000000000000000000000000000000000000000000000000000000000000000090911690631228cbee90602401602060405180830381865afa158015610355573d6000803e3d6000fd5b505050506040513d601f19601f8201168201806040525081019061037991906110a6565b90506001600160a01b03811661045c576001600160a01b03838116600081815260016020526040908190205490516311b5751760e11b81526004810192909252821660248201527f0000000000000000000000000000000000000000000000000000000000000000821660448201527f00000000000000000000000000000000000000000000000000000000000000009091169063236aea2e906064016020604051808303816000875af1158015610435573d6000803e3d6000fd5b505050506040513d601f19601f8201168201806040525081019061045991906110a6565b90505b6040516318becba160e21b8152336004820152602481018390526001600160a01b038216906362fb2e8490604401600060405180830381600087803b1580156104a457600080fd5b505af11580156104b8573d6000803e3d6000fd5b505050506104c63383610b40565b505050565b6001600160a01b03831615806104df575081155b156104fd57604051632c5b83b960e01b815260040160405180910390fd5b60405163091465f760e11b81526001600160a01b0384811660048301526000917f000000000000000000000000000000000000000000000000000000000000000090911690631228cbee90602401602060405180830381865afa158015610568573d6000803e3d6000fd5b505050506040513d601f19601f8201168201806040525081019061058c91906110a6565b90506001600160a01b0381166105b557604051632c5b83b960e01b815260040160405180910390fd5b60405163ea999dff60e01b815233600482015260248101849052604481018390526001600160a01b0382169063ea999dff90606401600060405180830381600087803b15801561060457600080fd5b505af1158015610618573d6000803e3d6000fd5b505050506106487f0000000000000000000000000000000000000000000000000000000000000000333086610bd3565b6106523384610c3a565b50505050565b610660610b13565b61066a6000610cb0565b565b6001600160a01b0381161580610717575060405163091465f760e11b81526001600160a01b0382811660048301526000917f000000000000000000000000000000000000000000000000000000000000000090911690631228cbee90602401602060405180830381865afa1580156106e8573d6000803e3d6000fd5b505050506040513d601f19601f8201168201806040525081019061070c91906110a6565b6001600160a01b0316145b1561073557604051632c5b83b960e01b815260040160405180910390fd5b60405163091465f760e11b81526001600160a01b0382811660048301526000917f000000000000000000000000000000000000000000000000000000000000000090911690631228cbee90602401602060405180830381865afa1580156107a0573d6000803e3d6000fd5b505050506040513d601f19601f820116820180604052508101906107c491906110a6565b6040516327f9c4c160e01b81523360048201529091506000906001600160a01b038316906327f9c4c190602401602060405180830381865afa15801561080e573d6000803e3d6000fd5b505050506040513d601f19601f8201168201806040525081019061083291906110c3565b9050806000036108555760405163108a8d2960e31b815260040160405180910390fd5b6040516311051b5b60e11b81523360048201526001600160a01b0383169063220a36b690602401600060405180830381600087803b15801561089657600080fd5b505af11580156108aa573d6000803e3d6000fd5b505050506108da7f0000000000000000000000000000000000000000000000000000000000000000333084610bd3565b6104c63382610c3a565b6001600160a01b03821615806108f8575080155b1561091657604051632c5b83b960e01b815260040160405180910390fd5b60405163091465f760e11b81526001600160a01b0383811660048301526000917f000000000000000000000000000000000000000000000000000000000000000090911690631228cbee90602401602060405180830381865afa158015610981573d6000803e3d6000fd5b505050506040513d601f19601f820116820180604052508101906109a591906110a6565b90506001600160a01b0381166109ce57604051632c5b83b960e01b815260040160405180910390fd5b60006109db836005610d00565b60405163134bde1160e01b8152336004820152602481018590529091506001600160a01b0383169063134bde1190604401600060405180830381600087803b158015610a2657600080fd5b505af1158015610a3a573d6000803e3d6000fd5b50506040516322d453e360e21b81526001600160a01b03871660048201526024810186905260448101849052339250638b514f8c9150606401600060405180830381600087803b158015610a8d57600080fd5b505af1158015610aa1573d6000803e3d6000fd5b50505050610abc8433308487610ab791906110dc565b610bd3565b6106528483610acb84876110dc565b610d26565b610ad8610b13565b6001600160a01b038116610b0757604051631e4fbdf760e01b8152600060048201526024015b60405180910390fd5b610b1081610cb0565b50565b6000546001600160a01b0316331461066a5760405163118cdaa760e01b8152336004820152602401610afe565b6040516340c10f1960e01b81526001600160a01b038381166004830152602482018390527f000000000000000000000000000000000000000000000000000000000000000016906340c10f19906044016020604051808303816000875af1158015610baf573d6000803e3d6000fd5b505050506040513d601f19601f820116820180604052508101906104c691906110fd565b6040516001600160a01b0384811660248301528381166044830152606482018390526106529186918216906323b872dd906084015b604051602081830303815290604052915060e01b6020820180516001600160e01b038381831617835250505050610d57565b604051630852cd8d60e31b8152600481018290527f00000000000000000000000000000000000000000000000000000000000000006001600160a01b0316906342966c6890602401600060405180830381600087803b158015610c9c57600080fd5b505af11580156102b0573d6000803e3d6000fd5b600080546001600160a01b038381166001600160a01b0319831681178455604051919092169283917f8be0079c531659141344cd1fd0a4f28419497f9722a3daafe3b4186f6b6457e09190a35050565b600081156113881983900484111517610d1857600080fd5b506127109102611388010490565b6040516001600160a01b038381166024830152604482018390526104c691859182169063a9059cbb90606401610c08565b6000610d6c6001600160a01b03841683610dba565b90508051600014158015610d91575080806020019051810190610d8f91906110fd565b155b156104c657604051635274afe760e01b81526001600160a01b0384166004820152602401610afe565b6060610dc883836000610dd1565b90505b92915050565b606081471015610df65760405163cd78605960e01b8152306004820152602401610afe565b600080856001600160a01b03168486604051610e12919061111f565b60006040518083038185875af1925050503d8060008114610e4f576040519150601f19603f3d011682016040523d82523d6000602084013e610e54565b606091505b5091509150610e64868383610e70565b925050505b9392505050565b606082610e8557610e8082610ecc565b610e69565b8151158015610e9c57506001600160a01b0384163b155b15610ec557604051639996b31560e01b81526001600160a01b0385166004820152602401610afe565b5080610e69565b805115610edc5780518082602001fd5b604051630a12f52160e11b815260040160405180910390fd5b6001600160a01b0381168114610b1057600080fd5b60008060408385031215610f1d57600080fd5b8235610f2881610ef5565b91506020830135610f3881610ef5565b809150509250929050565b60008083601f840112610f5557600080fd5b50813567ffffffffffffffff811115610f6d57600080fd5b6020830191508360208260051b8501011115610f8857600080fd5b9250929050565b600080600080600060608688031215610fa757600080fd5b8535610fb281610ef5565b9450602086013567ffffffffffffffff80821115610fcf57600080fd5b610fdb89838a01610f43565b90965094506040880135915080821115610ff457600080fd5b5061100188828901610f43565b969995985093965092949392505050565b6000806040838503121561102557600080fd5b823561103081610ef5565b946020939093013593505050565b60008060006060848603121561105357600080fd5b833561105e81610ef5565b95602085013595506040909401359392505050565b60006020828403121561108557600080fd5b8135610e6981610ef5565b634e487b7160e01b600052603260045260246000fd5b6000602082840312156110b857600080fd5b8151610e6981610ef5565b6000602082840312156110d557600080fd5b5051919050565b80820180821115610dcb57634e487b7160e01b600052601160045260246000fd5b60006020828403121561110f57600080fd5b81518015158114610e6957600080fd5b6000825160005b818110156111405760208186018101518583015201611126565b50600092019182525091905056fea2646970667358221220a591ac347fa5eced48a0b63a1bb4b3b35ed30fb308d7eb47dbbbb1cbcb714efb64736f6c63430008190033","linkReferences":{}},"methodIdentifiers":{"depositLiquidity(address,uint256)":"39b41b4a","flashLoan(address,uint256)":"9d9e465c","getFactory()":"88cc58e4","getFlashLoanFee()":"fd90c2be","getLendTokens()":"47ccbdc7","owner()":"8da5cb5b","renounceOwnership()":"715018a6","setPriceFeeds(address,address)":"068f158d","transferOwnership(address)":"f2fde38b","withdrawDepositedFunds(address,uint256,uint256)":"70b77c47","withdrawMultipleDepositsSameAsset(address,uint256[],uint256[])":"0a20af10","withdrawTotalUserDeposit(address)":"9ab18038"},"id":8}