{"abi":[{"type":"constructor","inputs":[{"name":"factory","type":"address","internalType":"address"},{"name":"tokenAddress","type":"address[]","internalType":"address[]"},{"name":"priceFeeds","type":"address[]","internalType":"address[]"},{"name":"lendToken","type":"address","internalType":"address"}],"stateMutability":"nonpayable"},{"type":"function","name":"CreatePool","inputs":[{"name":"token","type":"address","internalType":"address"}],"outputs":[],"stateMutability":"nonpayable"},{"type":"function","name":"DepositCollateralSingle","inputs":[{"name":"tokenToDeposit","type":"address","internalType":"address"},{"name":"amount","type":"uint256","internalType":"uint256"}],"outputs":[],"stateMutability":"nonpayable"},{"type":"function","name":"borrow","inputs":[{"name":"tokenToBorrow","type":"address","internalType":"address"},{"name":"CollateralToken","type":"address","internalType":"address"},{"name":"amount","type":"uint256","internalType":"uint256"},{"name":"amountCollateral","type":"uint256","internalType":"uint256"}],"outputs":[],"stateMutability":"nonpayable"},{"type":"function","name":"depositLiquidity","inputs":[{"name":"tokenToDeposit","type":"address","internalType":"address"},{"name":"amount","type":"uint256","internalType":"uint256"}],"outputs":[],"stateMutability":"nonpayable"},{"type":"function","name":"flashLoan","inputs":[{"name":"token","type":"address","internalType":"address"},{"name":"amount","type":"uint256","internalType":"uint256"}],"outputs":[],"stateMutability":"nonpayable"},{"type":"function","name":"getCollateralValueInUSD","inputs":[{"name":"token","type":"address","internalType":"address"},{"name":"user","type":"address","internalType":"address"}],"outputs":[{"name":"","type":"uint256","internalType":"uint256"}],"stateMutability":"view"},{"type":"function","name":"getDepositsInUSD","inputs":[{"name":"token","type":"address","internalType":"address"}],"outputs":[{"name":"","type":"uint256","internalType":"uint256"}],"stateMutability":"view"},{"type":"function","name":"getFactory","inputs":[],"outputs":[{"name":"","type":"address","internalType":"address"}],"stateMutability":"view"},{"type":"function","name":"getFlashLoanFee","inputs":[],"outputs":[{"name":"","type":"uint256","internalType":"uint256"}],"stateMutability":"pure"},{"type":"function","name":"getLendTokens","inputs":[],"outputs":[{"name":"","type":"address","internalType":"address"}],"stateMutability":"view"},{"type":"function","name":"getPoolAddress","inputs":[{"name":"token","type":"address","internalType":"address"}],"outputs":[{"name":"","type":"address","internalType":"address"}],"stateMutability":"view"},{"type":"function","name":"owner","inputs":[],"outputs":[{"name":"","type":"address","internalType":"address"}],"stateMutability":"view"},{"type":"function","name":"renounceOwnership","inputs":[],"outputs":[],"stateMutability":"nonpayable"},{"type":"function","name":"setPriceFeeds","inputs":[{"name":"underlyingToken","type":"address","internalType":"address"},{"name":"priceFeed","type":"address","internalType":"address"}],"outputs":[],"stateMutability":"nonpayable"},{"type":"function","name":"transferOwnership","inputs":[{"name":"newOwner","type":"address","internalType":"address"}],"outputs":[],"stateMutability":"nonpayable"},{"type":"function","name":"withdrawDepositedFunds","inputs":[{"name":"tokenToWithdraw","type":"address","internalType":"address"},{"name":"amount","type":"uint256","internalType":"uint256"},{"name":"depositId","type":"uint256","internalType":"uint256"}],"outputs":[],"stateMutability":"nonpayable"},{"type":"function","name":"withdrawMultipleDepositsSameAsset","inputs":[{"name":"tokensToWithdraw","type":"address","internalType":"address"},{"name":"depositIds","type":"uint256[]","internalType":"uint256[]"},{"name":"depositAmounts","type":"uint256[]","internalType":"uint256[]"}],"outputs":[],"stateMutability":"nonpayable"},{"type":"function","name":"withdrawTotalUserDeposit","inputs":[{"name":"tokenToWithdraw","type":"address","internalType":"address"}],"outputs":[],"stateMutability":"nonpayable"},{"type":"event","name":"OwnershipTransferred","inputs":[{"name":"previousOwner","type":"address","indexed":true,"internalType":"address"},{"name":"newOwner","type":"address","indexed":true,"internalType":"address"}],"anonymous":false},{"type":"error","name":"AddressEmptyCode","inputs":[{"name":"target","type":"address","internalType":"address"}]},{"type":"error","name":"AddressInsufficientBalance","inputs":[{"name":"account","type":"address","internalType":"address"}]},{"type":"error","name":"FailedInnerCall","inputs":[]},{"type":"error","name":"OwnableInvalidOwner","inputs":[{"name":"owner","type":"address","internalType":"address"}]},{"type":"error","name":"OwnableUnauthorizedAccount","inputs":[{"name":"account","type":"address","internalType":"address"}]},{"type":"error","name":"Router__AlreadyWithdrawnAmount","inputs":[]},{"type":"error","name":"Router__InvalidLength","inputs":[]},{"type":"error","name":"Router__ZeroAddress","inputs":[]},{"type":"error","name":"SafeERC20FailedOperation","inputs":[{"name":"token","type":"address","internalType":"address"}]}],"bytecode":{"object":"0x60c060405234801561001057600080fd5b5060405161236e38038061236e83398101604081905261002f91610305565b338061005557604051631e4fbdf760e01b81526000600482015260240160405180910390fd5b61005e816101df565b506001600160a01b038416158061007c57506001600160a01b038116155b1561009a57604051632c5b83b960e01b815260040160405180910390fd5b6001600160a01b03808516608052811660a052825182518082146100d1576040516358568d1360e11b815260040160405180910390fd5b60005b828110156101d35760006001600160a01b03168682815181106100f9576100f961038a565b60200260200101516001600160a01b03161480610141575060006001600160a01b031685828151811061012e5761012e61038a565b60200260200101516001600160a01b0316145b1561015f57604051632c5b83b960e01b815260040160405180910390fd5b8481815181106101715761017161038a565b60200260200101516001600088848151811061018f5761018f61038a565b6020908102919091018101516001600160a01b0390811683529082019290925260400160002080546001600160a01b031916929091169190911790556001016100d4565b505050505050506103a0565b600080546001600160a01b038381166001600160a01b0319831681178455604051919092169283917f8be0079c531659141344cd1fd0a4f28419497f9722a3daafe3b4186f6b6457e09190a35050565b80516001600160a01b038116811461024657600080fd5b919050565b634e487b7160e01b600052604160045260246000fd5b600082601f83011261027257600080fd5b815160206001600160401b038083111561028e5761028e61024b565b8260051b604051601f19603f830116810181811084821117156102b3576102b361024b565b60405293845260208187018101949081019250878511156102d357600080fd5b6020870191505b848210156102fa576102eb8261022f565b835291830191908301906102da565b979650505050505050565b6000806000806080858703121561031b57600080fd5b6103248561022f565b60208601519094506001600160401b038082111561034157600080fd5b61034d88838901610261565b9450604087015191508082111561036357600080fd5b5061037087828801610261565b92505061037f6060860161022f565b905092959194509250565b634e487b7160e01b600052603260045260246000fd5b60805160a051611f08610466600039600081816101a90152818161055b0152818161087901528181610b6401528181610df60152818161114301528181611656015281816116d901526118f2015260008181610210015281816103b80152818161047f01528181610526015281816106e5015281816108460152818161093101528181610a6201528181610be201528181610c9a01528181610e7b015281816110670152818161110e015281816113ac0152818161181801526118bd0152611f086000f3fe608060405234801561001057600080fd5b50600436106101165760003560e01c8063715018a6116100a25780639d9e465c116100715780639d9e465c14610258578063d7e4a84b1461026b578063f2fde38b1461027e578063fbf3773914610291578063fd90c2be146102a457600080fd5b8063715018a61461020657806388cc58e41461020e5780638da5cb5b146102345780639ab180381461024557600080fd5b80634343d506116100e95780634343d5061461018657806347ccbdc7146101a757806369c0bed0146101cd5780636c9ba985146101e057806370b77c47146101f357600080fd5b8063068f158d1461011b5780630a20af10146101305780631228cbee1461014357806339b41b4a14610173575b600080fd5b61012e610129366004611b5f565b6102ab565b005b61012e61013e366004611be4565b610340565b610156610151366004611c67565b610396565b6040516001600160a01b0390911681526020015b60405180910390f35b61012e610181366004611c84565b61042b565b610199610194366004611b5f565b6106c1565b60405190815260200161016a565b7f0000000000000000000000000000000000000000000000000000000000000000610156565b61012e6101db366004611c67565b6107c7565b6101996101ee366004611c67565b61090d565b61012e610201366004611cb0565b610a0e565b61012e610b9b565b7f0000000000000000000000000000000000000000000000000000000000000000610156565b6000546001600160a01b0316610156565b61012e610253366004611c67565b610baf565b61012e610266366004611c84565b610e27565b61012e610279366004611c84565b611013565b61012e61028c366004611c67565b611315565b61012e61029f366004611ce5565b611358565b6005610199565b6102b3611528565b6001600160a01b03821615806102d057506001600160a01b038116155b156102ee57604051632c5b83b960e01b815260040160405180910390fd5b6001600160a01b038281166000908152600160205260409020541661033c576001600160a01b03828116600090815260016020526040902080546001600160a01b0319169183169190911790555b5050565b60005b8381101561038e576103868684848481811061036157610361611d2b565b9050602002013587878581811061037a5761037a611d2b565b90506020020135610a0e565b600101610343565b505050505050565b60405163091465f760e11b81526001600160a01b0382811660048301526000917f000000000000000000000000000000000000000000000000000000000000000090911690631228cbee90602401602060405180830381865afa158015610401573d6000803e3d6000fd5b505050506040513d601f19601f820116820180604052508101906104259190611d41565b92915050565b6001600160a01b038216158061043f575080155b1561045d57604051632c5b83b960e01b815260040160405180910390fd5b60405163091465f760e11b81526001600160a01b0383811660048301526000917f000000000000000000000000000000000000000000000000000000000000000090911690631228cbee90602401602060405180830381865afa1580156104c8573d6000803e3d6000fd5b505050506040513d601f19601f820116820180604052508101906104ec9190611d41565b90506001600160a01b0381166105c9576001600160a01b03838116600090815260016020526040908190205490516311b5751760e11b81527f000000000000000000000000000000000000000000000000000000000000000083169263236aea2e9261058392889291909116907f000000000000000000000000000000000000000000000000000000000000000090600401611d5e565b6020604051808303816000875af11580156105a2573d6000803e3d6000fd5b505050506040513d601f19601f820116820180604052508101906105c69190611d41565b90505b6105d583333085611555565b6105fb6040518060400160405280600581526020016468656c6c6f60d81b8152506115bc565b6040516318becba160e21b8152336004820152602481018390526001600160a01b038216906362fb2e8490604401600060405180830381600087803b15801561064357600080fd5b505af1158015610657573d6000803e3d6000fd5b505050506106816040518060400160405280600581526020016448656c6c6f60d81b8152506115bc565b61068c8382846115ff565b6106b26040518060400160405280600581526020016448656c6c6f60d81b8152506115bc565b6106bc3383611630565b505050565b60405163091465f760e11b81526001600160a01b03838116600483015260009182917f00000000000000000000000000000000000000000000000000000000000000001690631228cbee90602401602060405180830381865afa15801561072c573d6000803e3d6000fd5b505050506040513d601f19601f820116820180604052508101906107509190611d41565b60405163877db9dd60e01b81526001600160a01b0385811660048301529192509082169063877db9dd906024015b602060405180830381865afa15801561079b573d6000803e3d6000fd5b505050506040513d601f19601f820116820180604052508101906107bf9190611d81565b949350505050565b6107cf611528565b6001600160a01b03811615806107fd57506001600160a01b0381811660009081526001602052604090205416155b1561081b57604051632c5b83b960e01b815260040160405180910390fd5b6001600160a01b038181166000908152600160205260408082205490516311b5751760e11b815291927f000000000000000000000000000000000000000000000000000000000000000081169263236aea2e926108a19287929116907f000000000000000000000000000000000000000000000000000000000000000090600401611d5e565b6020604051808303816000875af11580156108c0573d6000803e3d6000fd5b505050506040513d601f19601f820116820180604052508101906108e49190611d41565b90506001600160a01b03811661033c57604051632c5b83b960e01b815260040160405180910390fd5b60405163091465f760e11b81526001600160a01b03828116600483015260009182917f00000000000000000000000000000000000000000000000000000000000000001690631228cbee90602401602060405180830381865afa158015610978573d6000803e3d6000fd5b505050506040513d601f19601f8201168201806040525081019061099c9190611d41565b604051635de0a9af60e01b81523360048201529091506001600160a01b03821690635de0a9af90602401602060405180830381865afa1580156109e3573d6000803e3d6000fd5b505050506040513d601f19601f82011682018060405250810190610a079190611d81565b9392505050565b6001600160a01b0383161580610a22575081155b15610a4057604051632c5b83b960e01b815260040160405180910390fd5b60405163091465f760e11b81526001600160a01b0384811660048301526000917f000000000000000000000000000000000000000000000000000000000000000090911690631228cbee90602401602060405180830381865afa158015610aab573d6000803e3d6000fd5b505050506040513d601f19601f82011682018060405250810190610acf9190611d41565b90506001600160a01b038116610af857604051632c5b83b960e01b815260040160405180910390fd5b60405163ea999dff60e01b815233600482015260248101849052604481018390526001600160a01b0382169063ea999dff90606401600060405180830381600087803b158015610b4757600080fd5b505af1158015610b5b573d6000803e3d6000fd5b50505050610b8b7f0000000000000000000000000000000000000000000000000000000000000000333086611555565b610b9533846116c3565b50505050565b610ba3611528565b610bad6000611739565b565b6001600160a01b0381161580610c5a575060405163091465f760e11b81526001600160a01b0382811660048301526000917f000000000000000000000000000000000000000000000000000000000000000090911690631228cbee90602401602060405180830381865afa158015610c2b573d6000803e3d6000fd5b505050506040513d601f19601f82011682018060405250810190610c4f9190611d41565b6001600160a01b0316145b15610c7857604051632c5b83b960e01b815260040160405180910390fd5b60405163091465f760e11b81526001600160a01b0382811660048301526000917f000000000000000000000000000000000000000000000000000000000000000090911690631228cbee90602401602060405180830381865afa158015610ce3573d6000803e3d6000fd5b505050506040513d601f19601f82011682018060405250810190610d079190611d41565b6040516327f9c4c160e01b81523360048201529091506000906001600160a01b038316906327f9c4c190602401602060405180830381865afa158015610d51573d6000803e3d6000fd5b505050506040513d601f19601f82011682018060405250810190610d759190611d81565b905080600003610d985760405163108a8d2960e31b815260040160405180910390fd5b6040516311051b5b60e11b81523360048201526001600160a01b0383169063220a36b690602401600060405180830381600087803b158015610dd957600080fd5b505af1158015610ded573d6000803e3d6000fd5b50505050610e1d7f0000000000000000000000000000000000000000000000000000000000000000333084611555565b6106bc33826116c3565b6001600160a01b0382161580610e3b575080155b15610e5957604051632c5b83b960e01b815260040160405180910390fd5b60405163091465f760e11b81526001600160a01b0383811660048301526000917f000000000000000000000000000000000000000000000000000000000000000090911690631228cbee90602401602060405180830381865afa158015610ec4573d6000803e3d6000fd5b505050506040513d601f19601f82011682018060405250810190610ee89190611d41565b90506001600160a01b038116610f1157604051632c5b83b960e01b815260040160405180910390fd5b6000610f1e836005611789565b60405163134bde1160e01b8152336004820152602481018590529091506001600160a01b0383169063134bde1190604401600060405180830381600087803b158015610f6957600080fd5b505af1158015610f7d573d6000803e3d6000fd5b50506040516322d453e360e21b81526001600160a01b03871660048201526024810186905260448101849052339250638b514f8c9150606401600060405180830381600087803b158015610fd057600080fd5b505af1158015610fe4573d6000803e3d6000fd5b50505050610fff8433308487610ffa9190611db0565b611555565b610b95848361100e8487611db0565b6115ff565b6001600160a01b0382161580611027575080155b1561104557604051632c5b83b960e01b815260040160405180910390fd5b60405163091465f760e11b81526001600160a01b0383811660048301526000917f000000000000000000000000000000000000000000000000000000000000000090911690631228cbee90602401602060405180830381865afa1580156110b0573d6000803e3d6000fd5b505050506040513d601f19601f820116820180604052508101906110d49190611d41565b90506001600160a01b0381166111b1576001600160a01b03838116600090815260016020526040908190205490516311b5751760e11b81527f000000000000000000000000000000000000000000000000000000000000000083169263236aea2e9261116b92889291909116907f000000000000000000000000000000000000000000000000000000000000000090600401611d5e565b6020604051808303816000875af115801561118a573d6000803e3d6000fd5b505050506040513d601f19601f820116820180604052508101906111ae9190611d41565b90505b604080516060810182526001600160a01b03831680825260208201859052825163f27feeaf60e01b815260048101869052919283019163f27feeaf90602401602060405180830381865afa15801561120d573d6000803e3d6000fd5b505050506040513d601f19601f820116820180604052508101906112319190611d81565b9052336000818152600260208181526040808420805485526001908101835293819020865181546001600160a01b0319166001600160a01b03909116178155918601519382019390935593909101519201919091556112939084903085611555565b60405163297576c360e21b8152336004820152602481018390526001600160a01b0382169063a5d5db0c90604401600060405180830381600087803b1580156112db57600080fd5b505af11580156112ef573d6000803e3d6000fd5b505033600090815260026020526040902080546001019055506106bc90508382846115ff565b61131d611528565b6001600160a01b03811661134c57604051631e4fbdf760e01b8152600060048201526024015b60405180910390fd5b61135581611739565b50565b6001600160a01b038416158061136c575081155b1561138a57604051632c5b83b960e01b815260040160405180910390fd5b60405163091465f760e11b81526001600160a01b0385811660048301526000917f000000000000000000000000000000000000000000000000000000000000000090911690631228cbee90602401602060405180830381865afa1580156113f5573d6000803e3d6000fd5b505050506040513d601f19601f820116820180604052508101906114199190611d41565b90506001600160a01b03811661144257604051632c5b83b960e01b815260040160405180910390fd5b61144c8483611013565b60405163f27feeaf60e01b8152600481018390526000906001600160a01b0386169063f27feeaf90602401602060405180830381865afa158015611494573d6000803e3d6000fd5b505050506040513d601f19601f820116820180604052508101906114b89190611d81565b9050600060646114c9836046611dc3565b6114d39190611dda565b6114dd9083611dfc565b90506115116040518060400160405280601081526020016f416d6f756e7420746f20426f72726f7760801b815250826117af565b600061151d88876117f4565b505050505050505050565b6000546001600160a01b03163314610bad5760405163118cdaa760e01b8152336004820152602401611343565b6040516001600160a01b038481166024830152838116604483015260648201839052610b959186918216906323b872dd906084015b604051602081830303815290604052915060e01b6020820180516001600160e01b03838183161783525050505061198d565b611355816040516024016115d09190611e5f565b60408051601f198184030181529190526020810180516001600160e01b031663104c13eb60e21b1790526119f0565b6040516001600160a01b038381166024830152604482018390526106bc91859182169063a9059cbb9060640161158a565b6040516340c10f1960e01b81526001600160a01b038381166004830152602482018390527f000000000000000000000000000000000000000000000000000000000000000016906340c10f19906044016020604051808303816000875af115801561169f573d6000803e3d6000fd5b505050506040513d601f19601f820116820180604052508101906106bc9190611e72565b604051630852cd8d60e31b8152600481018290527f00000000000000000000000000000000000000000000000000000000000000006001600160a01b0316906342966c6890602401600060405180830381600087803b15801561172557600080fd5b505af115801561038e573d6000803e3d6000fd5b600080546001600160a01b038381166001600160a01b0319831681178455604051919092169283917f8be0079c531659141344cd1fd0a4f28419497f9722a3daafe3b4186f6b6457e09190a35050565b6000811561138819839004841115176117a157600080fd5b506127109102611388010490565b61033c82826040516024016117c5929190611e94565b60408051601f198184030181529190526020810180516001600160e01b0316632d839cb360e21b1790526119f0565b60405163091465f760e11b81526001600160a01b03838116600483015260009182917f00000000000000000000000000000000000000000000000000000000000000001690631228cbee90602401602060405180830381865afa15801561185f573d6000803e3d6000fd5b505050506040513d601f19601f820116820180604052508101906118839190611d41565b90506001600160a01b038116611960576001600160a01b03848116600090815260016020526040908190205490516311b5751760e11b81527f000000000000000000000000000000000000000000000000000000000000000083169263236aea2e9261191a92899291909116907f000000000000000000000000000000000000000000000000000000000000000090600401611d5e565b6020604051808303816000875af1158015611939573d6000803e3d6000fd5b505050506040513d601f19601f8201168201806040525081019061195d9190611d41565b90505b60405163f27feeaf60e01b8152600481018490526001600160a01b0382169063f27feeaf9060240161077e565b60006119a26001600160a01b038416836119f9565b905080516000141580156119c75750808060200190518101906119c59190611e72565b155b156106bc57604051635274afe760e01b81526001600160a01b0384166004820152602401611343565b61135581611a07565b6060610a0783836000611a28565b60006a636f6e736f6c652e6c6f679050600080835160208501845afa505050565b606081471015611a4d5760405163cd78605960e01b8152306004820152602401611343565b600080856001600160a01b03168486604051611a699190611eb6565b60006040518083038185875af1925050503d8060008114611aa6576040519150601f19603f3d011682016040523d82523d6000602084013e611aab565b606091505b5091509150611abb868383611ac5565b9695505050505050565b606082611ada57611ad582611b21565b610a07565b8151158015611af157506001600160a01b0384163b155b15611b1a57604051639996b31560e01b81526001600160a01b0385166004820152602401611343565b5080610a07565b805115611b315780518082602001fd5b604051630a12f52160e11b815260040160405180910390fd5b6001600160a01b038116811461135557600080fd5b60008060408385031215611b7257600080fd5b8235611b7d81611b4a565b91506020830135611b8d81611b4a565b809150509250929050565b60008083601f840112611baa57600080fd5b50813567ffffffffffffffff811115611bc257600080fd5b6020830191508360208260051b8501011115611bdd57600080fd5b9250929050565b600080600080600060608688031215611bfc57600080fd5b8535611c0781611b4a565b9450602086013567ffffffffffffffff80821115611c2457600080fd5b611c3089838a01611b98565b90965094506040880135915080821115611c4957600080fd5b50611c5688828901611b98565b969995985093965092949392505050565b600060208284031215611c7957600080fd5b8135610a0781611b4a565b60008060408385031215611c9757600080fd5b8235611ca281611b4a565b946020939093013593505050565b600080600060608486031215611cc557600080fd5b8335611cd081611b4a565b95602085013595506040909401359392505050565b60008060008060808587031215611cfb57600080fd5b8435611d0681611b4a565b93506020850135611d1681611b4a565b93969395505050506040820135916060013590565b634e487b7160e01b600052603260045260246000fd5b600060208284031215611d5357600080fd5b8151610a0781611b4a565b6001600160a01b0393841681529183166020830152909116604082015260600190565b600060208284031215611d9357600080fd5b5051919050565b634e487b7160e01b600052601160045260246000fd5b8082018082111561042557610425611d9a565b808202811582820484141761042557610425611d9a565b600082611df757634e487b7160e01b600052601260045260246000fd5b500490565b8181038181111561042557610425611d9a565b60005b83811015611e2a578181015183820152602001611e12565b50506000910152565b60008151808452611e4b816020860160208601611e0f565b601f01601f19169290920160200192915050565b602081526000610a076020830184611e33565b600060208284031215611e8457600080fd5b81518015158114610a0757600080fd5b604081526000611ea76040830185611e33565b90508260208301529392505050565b60008251611ec8818460208701611e0f565b919091019291505056fea2646970667358221220d122636590be22ff79d252948e45bfe830dbd7c28129afc77eaf8793b962a4de64736f6c63430008190033","linkReferences":{}},"methodIdentifiers":{"CreatePool(address)":"69c0bed0","DepositCollateralSingle(address,uint256)":"d7e4a84b","borrow(address,address,uint256,uint256)":"fbf37739","depositLiquidity(address,uint256)":"39b41b4a","flashLoan(address,uint256)":"9d9e465c","getCollateralValueInUSD(address,address)":"4343d506","getDepositsInUSD(address)":"6c9ba985","getFactory()":"88cc58e4","getFlashLoanFee()":"fd90c2be","getLendTokens()":"47ccbdc7","getPoolAddress(address)":"1228cbee","owner()":"8da5cb5b","renounceOwnership()":"715018a6","setPriceFeeds(address,address)":"068f158d","transferOwnership(address)":"f2fde38b","withdrawDepositedFunds(address,uint256,uint256)":"70b77c47","withdrawMultipleDepositsSameAsset(address,uint256[],uint256[])":"0a20af10","withdrawTotalUserDeposit(address)":"9ab18038"},"id":8}